:100000000C942C010C945D010C945D010C945D0129
:100010000C945D010C945D010C945D010C945D01E8
:100020000C945D010C945D010C945D010C945D01D8
:100030000C945D010C949C160C945D010C945D0174
:100040000C945A1D0C945D010C94B9180C94001971
:100050000C945D010C945D010C945D010C945D01A8
:100060000C945D010C945D01000001000100010091
:100070000100010001000100010001000100020077
:100080000200020002000200020002000200020060
:10009000020002000200020002000200030003004E
:1000A0000300030003000300030003000300030038
:1000B000040004000400040004000400040005001F
:1000C0000500050005000500050006000600060005
:1000D00006000600070007000700070008000800E8
:1000E000080008000900090009000A000A000A00C7
:1000F0000B000B000C000C000C000D000D000E009E
:100100000E000F000F00100010001100110012006F
:100110001300130014001500160016001700180035
:1001200019001A001A001B001C001D001E001F00F1
:100130002100220023002400250027002800290098
:100140002B002C002E00300031003300350037002A
:1001500038003A003D003F004100430045004800A0
:100160004A004D0050005300550058005C005F00ED
:100170006200660069006D007100750079007D0005
:10018000810086008A008F0094009A009F00A500DD
:10019000AA00B000B600BD00C300CA00D100D9005B
:1001A000E000E800F000F90002010B0114011E015B
:1001B000280132013D01480153015F016C017801C2
:1001C00086019301A101B001BF01CF01DF01F00160
:1001D00001021302260239024D02620277028D02E9
:1001E000A402BC02D502EE020803240340035D030F
:1001F0007B039A03BB03DC03FF0300000000240021
:1002000027002A0000000000250028002B00000025
:10021000000023002600290004040404040404044C
:1002200002020202020203030303030301020408A1
:100230001020408001020408102001020408102050
:100240000000000700020100000304060000000097
:10025000000000008901341A11241FBECFEFD8E03E
:10026000DEBFCDBF14BE88E10FB6F8948093600066
:10027000109260000FBE12E0A0E0B1E0EEE4F4E402
:1002800002C005900D92AC3CB107D9F715E0ACEC7B
:10029000B2E001C01D92A13BB107E1F712E0C8E551
:1002A000D2E004C02297FE010E942122C435D1076A
:1002B000C9F70E944B1D0C9425220C940000FC01F0
:1002C00081818695877029F48091E1049091E20400
:1002D0000BC0813029F48091EB049091EC0404C0B0
:1002E0008091EF049091F0049093FA048093F904C4
:1002F00022813381280F391F8091F9049091FA04EB
:100300002817390718F48181806481833683258317
:10031000089585E095E06FEF73E00E94D817809311
:10032000D6020895CF93DF93E90190E0E82FF0E043
:10033000E05FFB4FD901A60FB11D03C08C918083F4
:100340009F5F9417D8F386E095E060E071E00E942B
:100350003B1C86E095E068814AE050E00E94AB1BC0
:10036000DF91CF9108951F93CF93DF93182FEA0168
:10037000E091CC02F091CD028181817F818366235F
:1003800009F04DC08E8190E02D81821B91099093E0
:10039000FA048093F90486E095E06AE071E00E9437
:1003A0003B1C6091F9047091FA0486E095E04AE004
:1003B00050E00E946B1B112319F029853A8502C079
:1003C0002F81388584E690E0AC01249FC001259FF1
:1003D000900D349F900D1124A0E0B0E08093FB04B9
:1003E0009093FC04A093FD04B093FE042091F904C3
:1003F0003091FA0440E050E06091FB047091FC04FD
:100400008091FD049091FE040E94FD212093FB0445
:100410003093FC044093FD045093FE0418C06230F6
:1004200029F48F8590E0A0E0B0E009C08E852AE035
:10043000829FC0011124AA2797FDA095BA2F80930F
:10044000FB049093FC04A093FD04B093FE0486E0AB
:1004500095E066E171E00E943B1C4091FB045091E5
:10046000FC046091FD047091FE0486E095E02AE0B2
:1004700030E00E945C1BE091CC02F091CD028181C2
:100480008F7C806281838091FB049091FC04938334
:100490008283DF91CF911F910895AF92BF92DF9237
:1004A000EF92FF920F931F93F82E5B01E42ED22E52
:1004B00006E015E0C80168E271E00E943B1CC8013B
:1004C0006F2D4AE050E00E94991BC80168E371E07B
:1004D0000E943B1CC8016E2D70E04AE050E00E9473
:1004E000091CC80166E471E00E943B1CC801B5010B
:1004F0004AE050E00E941C1C40910F04842F90E0C1
:100500009C0153E0220F331F5A95E1F7281B390B4A
:10051000A4EEB3E0FD01E20FF31FF093CD02E093F0
:10052000CC028F2D8295880F807E8083F694F6947E
:10053000F69481E0F82281818E7F8F298183B382B6
:10054000A2821196A20FB31F97E0E922EE0C8C91C4
:10055000817C93E0D922D29490EFD9228E298D29E3
:100560008C9380910E048F5F80930E044F5F4093B5
:100570000F041F910F91FF90EF90DF90BF90AF900D
:1005800008950F931F93CF93DF93182FC091CE023E
:10059000D091CF0286E095E063E571E00E943B1CBC
:1005A00086E095E0612F4AE050E00E94991B86E0CA
:1005B00095E061E671E00E943B1C6A8162956F7074
:1005C00086E095E04AE050E00E94991B86E095E0C5
:1005D00068E671E00E943B1C86E095E068894AE08D
:1005E00050E00E94AB1B1F3F09F05EC08B818695D7
:1005F0008695869551F061E00E94B11E8B818695AB
:100600008695869560E00E94F01E8C818F7159F16D
:1006100061E00E94B11E4D8584E6489FA00111242F
:10062000662757FD6095762F8FEF94E00E9437176D
:1006300086E095E06FE671E00E943B1C6C816F7173
:1006400086E095E04AE050E00E94AB1B86E095E032
:1006500066E771E00E943B1C86E095E06D854AE00C
:1006600050E00E94AB1B298124FF17C190910F0419
:100670009F708A81807F892B8A8325FD0EC1E0913E
:10068000CE02F091CF0290819295969597708181DC
:100690008370880F880F880F6F817885892B41E0E0
:1006A00020E00E944D02F9C0898184FFF6C08A8152
:1006B0008F7027E0829FC00111248C519C4F909332
:1006C000CD028093CC02113089F48A81982F9295C3
:1006D0009F70933019F48F70806206C0992311F0D7
:1006E000943059F58A818F708A8327C0123021F4A3
:1006F0008A818F708063F8CF133031F48A818F70D4
:1007000080638A8362E01AC0153019F48A818F7081
:1007100005C0183031F48A818F7080638A8361E06C
:100720000DC01B3051F48A818F7080628A838B8167
:100730008770813011F488898E8360E08A81829588
:100740008F7090E08230910509F44CC083309105A0
:1007500034F4009761F0019709F09FC029C08330FD
:10076000910509F459C0049709F097C05DC080E075
:10077000AE010E94B3018A818F7080618A838B8170
:1007800086958695869519F061E00E94F01E6C8131
:100790006F7148890D8584E6089F80011124222706
:1007A00017FD2095322F8FEF94E050E00E946F17D5
:1007B00088898F5F888BE82FF0E0EE0FFF1FE859E4
:1007C000FF4F459154915093FA044093F9046C8182
:1007D0006F718FEF94E00E943F1798898E81981770
:1007E00008F43EC0E091CC02F091CD0221812F7C33
:1007F000206221838B859C85938382838C81829563
:1008000086958770880F217F282B21838A818F709E
:1008100080638A83CF0128C081E0AE010E94B301CA
:100820008A818F7080648A838889882311F081503F
:10083000888B8889E82FF0E0EE0FFF1FE859FF4F03
:10084000459154915093FA044093F9046C816F716F
:100850008FEF94E00E943F1798898D81891738F4B3
:100860008091CC029091CD020E945F0116C08FEF63
:1008700094E00E94D2178B8186958695869519F013
:1008800060E00E94F01EE091CC02F091CD028181E7
:100890008F7C81838A818F708A83DF91CF911F91B2
:1008A0000F910895CF92DF92EF92FF920F931F93D3
:1008B000DF93CF9300D0CDB7DEB7F82EC090CE0235
:1008C000D090CF02F6018181FFEFFF1641F584FF42
:1008D00055C180910F0427E0829F900111242C5173
:1008E0003C4F3093CD022093CC028F70F601928161
:1008F000907F982B9283918195FD40C18081829554
:10090000869587709370990F990F990F64817581FF
:1009100043814770892B20E00E944D022FC184FF44
:1009200027C0F60182818F7090E0FC01A3E0EE0FFA
:10093000FF1FAA95E1F7E81BF90B9F012C513C4FD3
:100940003093CD022093CC0241E0F41631F4EB5108
:10095000FC4F80818F7C808311C1FF2031F4EB51EB
:10096000FC4F80818F7C80628083C9010E945F017F
:10097000F601638166956695669582ED92E070E07A
:100980000E94EB179A838983FFEF8F3F9F0731F017
:10099000009771F08E5F9F4FE1F505C086E095E00E
:1009A0006DE771E03AC086E095E060E971E035C03E
:1009B00086E095E063EA71E00E943B1C6091D20200
:1009C0007091D302882777FD8095982F0E949C20F4
:1009D000AB01BC0186E095E022E030E00E94221DE0
:1009E00086E095E06AEA71E00E943B1C6091D402C7
:1009F0007091D502882777FD8095982F0E949C20C2
:100A0000AB01BC0186E095E022E030E00E94251DAC
:100A100006C086E095E062EB71E00E94381D2981F6
:100A20003A81F601808591852115310599F1FFEF15
:100A30008D399F073CF44FEF8D38940709F49EC021
:100A4000019702C08CE99FEFF60191878087F5E05E
:100A5000220F331FFA95E1F7F60180859185280F63
:100A6000391F3A832983E091CE02F091CF02908121
:100A700092959695977081818370880F880F880F63
:100A8000892B6FEF41E022E08E010F5F1F4FE2E004
:100A9000EE2E72C04091D4025091D5029A01281BCB
:100AA000390B37FF03C0309521953F4FF601868102
:100AB00090E0281739073CF4F2E0FF1621F0F60128
:100AC000818186FF1FC0F60151874087E091CE02E9
:100AD000F091CF0220812295269527708181837025
:100AE000880F880F880FF6019181929596959695BB
:100AF0009170822B60E040E022E004ED12E0E92EEC
:100B00000E94280D2091D2023091D302F6018285F5
:100B100093852817390719F440E050E003C0A90174
:100B2000481B590BF601878190E04817590738F4A4
:100B3000F2E0FF1621F0F601818186FF1FC0F60169
:100B400033872287E091CE02F091CF022081229557
:100B50002695277081818370880F880F880FF60192
:100B600091819295969596959170822B61E040E0E7
:100B700022E002ED12E0E92E0E94280D0F900F9066
:100B8000CF91DF911F910F91FF90EF90DF90CF9069
:100B90000895FF920F931F93082F162FF42EE02F26
:100BA000F0E0EC52FC4FE081F0E0E852FD4FF093B2
:100BB000CF02E093CE0280818F7190E08330910567
:100BC00081F0843091051CF40297B1F406C08430A2
:100BD000910559F0059781F40CC0812F0E948F0D6B
:100BE0000BC0812F0E94520407C0812F0E94EC107D
:100BF00003C0812F0E94C102FF2049F0E091CE0284
:100C0000F091CF02818183FF02C00F5FC8CF1F9197
:100C10000F91FF900895CF92DF92EF92FF920F9382
:100C20001F93DF93CF9300D000D0CDB7DEB7182F3E
:100C3000E12EFF24A701440F551F4E0D5F1D440FE9
:100C4000551FBA016B5A7B4FDB012C91822F8F709D
:100C500090E08730910509F42CC188309105FCF4AF
:100C60008330910509F4ACC0843091055CF4813087
:100C7000910509F45DC0823091050CF07DC0892B8F
:100C800099F130C08530910509F4DDC022952F70AF
:100C9000DB011196EC9106970CF0F9C0B5C08B30D2
:100CA000910509F47CC18C3091056CF48930910573
:100CB00009F436C122952F70DB011196EC910A9749
:100CC0000CF051C10BC18D30910509F4B2C18D30CA
:100CD00091050CF489C18E30910509F4CFC10F97AD
:100CE00009F4EFC100E00FC200E022952F70DB0194
:100CF0001196EC91E170E295E07FE22BF0E0E05F8D
:100D0000FB4FA081B0E0A852BD4FFA01EA5AFB4F59
:100D1000E081E695EF71F0E0E05FFB4FE081F0E00D
:100D2000E852FD4F9C918081981709F0ECC1BFC03B
:100D300000E022952F70DB011196EC91E170E295B5
:100D4000E07FE22BF0E0E05FFB4FA081B0E0A85233
:100D5000BD4FFA01EA5AFB4FE081E695EF71F0E0F2
:100D6000E05FFB4FE081F0E0E852FD4F9C91808115
:100D7000981709F09CC0C7C100E022952F70DB01D5
:100D80001196EC91E170E295E07FE22BF0E0E05FFC
:100D9000FB4FA081B0E0A852BD4FFA01EA5AFB4FC9
:100DA000E081E695EF71F0E0E05FFB4FE081F0E07D
:100DB000E852FD4F9C918081891708F0A4C177C04B
:100DC00000E022952F70DB011196EC91E170E29525
:100DD000E07FE22BF0E0E05FFB4FA081B0E0A852A3
:100DE000BD4FFA01EA5AFB4FE081E695EF71F0E062
:100DF000E05FFB4FE081F0E0E852FD4F9C91808185
:100E0000981708F480C153C000E0E170E295E07FDC
:100E1000E22BF0E0E05FFB4FA081B0E0A852BD4FB5
:100E2000FA01EA5AFB4FE081E695EF71F0E0E05FEE
:100E3000FB4FE081F0E0E852FD4F9C9180819817D4
:100E400008F061C134C000E022952F70DB011196DB
:100E5000EC91E170E295E07FE22BF0E0E05FFB4F88
:100E6000A081B0E0A852BD4FFA01EA5AFB4FE081E1
:100E7000E695EF71F0E0E05FFB4FE081F0E0E852D3
:100E8000FD4F9C918081891708F43DC110C000E09E
:100E9000E170E295E07FE22BF0E0E05FFB4FE08164
:100EA000F0E0E852FD4F8081882309F02CC101E079
:100EB0002AC122952F70DB011196EC91E170E29529
:100EC000E07FE22BF0E0E05FFB4FE081F0E0E852F2
:100ED000FD4F8081882391F460E0A9C0E170E29524
:100EE000E07FE22BF0E0E05FFB4FE081F0E0E852D2
:100EF000FD4F8081882311F061E099C0FA01EA5A20
:100F0000FB4FE081E695EF71F0E0E05FFB4FE081A1
:100F1000F0E0E852FD4FE081E111E1E06E2F87C083
:100F2000FA01EA5AFB4FE081E695EF71F0E0E05FED
:100F3000FB4FA0818A2F90E088529D4F22952F7001
:100F4000DB011196EC91E170E295E07FE22BF0E09D
:100F5000E05FFB4FE081F0E0E852FD4FDC010C91D7
:100F60008081080FD0C0E170E295E07FE22BF0E0D5
:100F7000E05FFB4FA081B0E0A852BD4FFA01EA5AF2
:100F8000FB4FE081E695EF71F0E0E05FFB4FE08121
:100F9000F0E0E852FD4F0C918081081BB4C0FA01CB
:100FA000EA5AFB4FE081E695EF71F0E0E05FFB4F1E
:100FB000A0818A2F90E088529D4F22952F70DB01EF
:100FC0001196EC91E170E295E07FE22BF0E0E05FBA
:100FD000FB4FE081F0E0E852FD4FDC019C91808105
:100FE000989F002D11248FC022952F70DB01119640
:100FF000EC91E170E295E07FE22BF0E0E05FFB4FE7
:10100000A081B0E0A852BD4FFA01EA5AFB4FE0813F
:10101000E695EF71F0E0E05FFB4FE081F0E0E85231
:10102000FD4F60818C9190E070E00E94D621062FE8
:101030006AC022952F70DB011196EC91E170E29568
:10104000E07FE22BF0E0E05FFB4FA081B0E0A85230
:10105000BD4FFA01EA5AFB4FE081E695EF71F0E0EF
:10106000E05FFB4FE081F0E0E852FD4F60818C9142
:1010700090E070E00E94D621082F45C0FA01EA5A9C
:10108000FB4FE081E695EF71F0E0E05FFB4FA08160
:101090008A2F90E088529D4F22952F70DB01119688
:1010A000EC91E170E295E07FE22BF0E0E05FFB4F36
:1010B000E081F0E0E852FD4FDC010C9180810823D3
:1010C00022C0FA01EA5AFB4FE081E695EF71F0E0A9
:1010D000E05FFB4FA0818A2F90E088529D4F2295C0
:1010E0002F70DB011196EC91E170E295E07FE22B2D
:1010F000F0E0E05FFB4FE081F0E0E852FD4FDC0103
:101100000C918081082B86E095E064EC71E00E94F0
:101110003B1C86E095E0612F4AE050E00E94991B5D
:1011200086E095E069EC71E00E943B1C86E095E06A
:10113000602F4AE050E00E94991B86E095E062ED46
:1011400071E00E943B1CF701EE0FFF1FEE0DFF1D2B
:10115000EE0FFF1FFA83E9836F0185E594E0C80E67
:10116000D91ED6018C9182958F701196EC91E17009
:10117000E295E07FE82BF0E0E05FFB4FE081F0E0FC
:10118000E852FD4F86E095E060814AE050E00E9421
:10119000991B86E095E06AED71E00E943B1CE981B5
:1011A000FA81EA5AFB4FFC83EB83E081E695EF710D
:1011B000F0E0E05FFB4FE081F0E0E852FD4F86E0B9
:1011C00095E060814AE050E00E94AB1BAB81BC819E
:1011D0008C91829586958695837011969C919370DB
:1011E000990F990F982B973039F4D6011496EC91FA
:1011F000F0E0E05FFB4F0083002381F1913031F09C
:10120000933021F0953011F0963071F4F701EE0F24
:10121000FF1FEE0DFF1DEE0FFF1FEB5AFB4F8481EA
:10122000658140E00E94C905F701EE0FFF1FEE0D3A
:10123000FF1DEE0FFF1FEA5AFB4F808182958695B6
:101240008695837091819370990F990F982B9230A6
:1012500039F0943029F0953019F033C0933071F49F
:10126000F701EE0FFF1FEE0DFF1DEE0FFF1FE95AF6
:10127000FB4F1081169516951695DACC943059F4DB
:10128000F701EE0FFF1FEE0DFF1DEE0FFF1FEB5AD4
:10129000FB4F1481CDCC9630A1F4F701EE0FFF1F68
:1012A000EE0DFF1DEE0FFF1FDF01A95ABB4F8C9102
:1012B000EB5AFB4F869586958695638140E00E94A8
:1012C000C9050F900F900F900F90CF91DF911F9154
:1012D0000F91FF90EF90DF90CF9008951F931091A2
:1012E000D203A091B902B091BA02E091CE02F0917E
:1012F000CF0270E060E03CC0E72FF0E0E852FD4F25
:101300005081852F82958695877041814370440F67
:10131000440F440F482B242F30E013968C911397E1
:1013200090E02817390759F4F093CF02E093CE02EA
:10133000842F14966C9140E00E94C9051FC0852F30
:101340008F71833051F0843018F4823071F407C00B
:10135000843039F0853049F406C08CE007C08DE058
:1013600005C08BE003C081E101C080E0780F6F5FB2
:10137000611710F2F093CF02E093CE021F9108950F
:10138000EF92FF920F931F93DF93CF9300D0CDB7CF
:10139000DEB71A82198286E095E063EE71E00E9462
:1013A000381D85E095E06DEF73E00E94D81781301D
:1013B00009F02BC286E095E061EF71E00E94381DD4
:1013C00069817A816F5F7F4F7A8369836150704052
:1013D00085E095E00E94D817082F86E095E0602F01
:1013E0004AE050E00E94AB1B1092D30330C06981E9
:1013F0007A816F5F7F4F7A8369836150704085E0A7
:1014000095E00E94D817E12FF0E0E852FD4F80836D
:1014100086E095E06091D3034AE050E00E94991B7A
:1014200086E095E06FEF71E00E943B1CE091D303F2
:10143000F0E0E852FD4F86E095E060814AE050E040
:101440000E94AB1B8091D3038F5F8093D3031091D5
:10145000D303101760F286E095E062E072E00E942C
:101460003B1C69817A8186E095E04AE050E00E9469
:101470007C1B69817A816F5F7F4F7A8369836150BA
:10148000704085E095E00E94D817082F1092210443
:1014900049EFE42EF12C17C069817A816F5F7F4F8D
:1014A0007A8369836150704085E095E00E94D81787
:1014B000F701E11BF109E852FD4F8083809121047F
:1014C0008F5F8093210410912104101728F386E088
:1014D00095E069E072E00E943B1C69817A8186E0B8
:1014E00095E04AE050E00E947C1B69817A816F5F41
:1014F0007F4F7A8369836150704085E095E00E9458
:10150000D817082F1092200416C069817A816F5F66
:101510007F4F7A8369836150704085E095E00E9437
:10152000D817E12FF0E0E05FFB4F8083809120042B
:101530008F5F8093200410912004101730F386E011
:1015400095E062E172E00E943B1C69817A8186E04D
:1015500095E04AE050E00E947C1B69817A816F5FD0
:101560007F4F7A8369836150704085E095E00E94E7
:10157000D81780935404EE2435E0F32E18C0698107
:101580007A816F5F7F4F7A8369836150704085E015
:1015900095E00E94D817682F0E5D1B4FF8018083DD
:1015A00086E095E04AE050E00E94AB1BE3940E2DEC
:1015B00010E0809154048F9DC00111240817190771
:1015C000F0F286E095E069E172E00E943B1C6981DF
:1015D0007A8186E095E04AE050E00E947C1B6981B8
:1015E0007A816F5F7F4F7A8369836150704085E0B5
:1015F00095E00E94D81780939104EE2426E0F22E05
:1016000018C069817A816F5F7F4F7A8369836150E7
:10161000704085E095E00E94D817682F0B5A1B4F49
:10162000F801808386E095E04AE050E00E94AB1B21
:10163000E3940E2D10E0809191048F9DC001112440
:1016400008171907F0F286E095E060E272E00E9468
:101650003B1C69817A8186E095E04AE050E00E9477
:101660007C1BEE246DC086E095E067E272E00E948C
:101670003B1C86E095E06E2D4AE050E00E94AB1BDB
:1016800008521D4F1093CF020093CE0286E095E0E2
:1016900061E372E00E943B1CE091CE02F091CF0228
:1016A000808182958695877061816370660F660F71
:1016B000660F682B86E095E04AE050E00E94AB1B85
:1016C000A091CE02B091CF028C91829586958770C1
:1016D0001196EC911197E370EE0FEE0FEE0FE82BE1
:1016E000F0E0EC52FC4FE0828C918F71833051F02E
:1016F000843018F4823071F407C0843039F08530BA
:1017000049F406C08CE007C08DE005C08BE003C043
:1017100081E101C080E0E80E9C91929596959770CA
:1017200011968C918370880F880F880F892B6FEF2B
:1017300040E00E94C9058091D2038F5F8093D2035D
:101740000E2D10E098012F5F3F4F8091D30390E062
:10175000281739070CF487CFEE243CC086E095E0CB
:1017600066E372E00E943B1C86E095E06E2D4AE045
:1017700050E00E94AB1BF801E852FD4FF093CF02FE
:10178000E093CE0280818F71833051F0843018F461
:10179000823071F407C0843039F0853049F406C0D6
:1017A0001CE007C01DE005C01BE003C011E101C043
:1017B00010E0918197FF0DC080818295869587709A
:1017C0009370990F990F990F892B60E040E00E9468
:1017D000C905E10E0E2D10E098012F5F3F4F80915B
:1017E000D30390E0281739070CF4B8CF8091D702C3
:1017F000823058F080E066E041E022E08E010F5F29
:101800001F4F92E0E92E0E94280D0F900F90CF916C
:10181000DF911F910F91FF90EF900895EF920F933A
:101820001F93CF93DF93882341F08091B70290916B
:10183000B8029093BA028093B902E091B902F09194
:10184000BA02418147FD02C0EE24F7C08091D60262
:10185000282F30E0842F90E0805890408217930723
:1018600021F04F3F09F0EEC002C04F3F49F4220F74
:10187000331FB901882777FD8095982F0E94271E76
:10188000A091B902B091BA0212968C911297813050
:1018900019F40E942B13D6C0823019F40E9414123E
:1018A000D1C0833019F40E946E09CCC08430D9F4C1
:1018B000E0911004F0E0E852FD4F14968C911497DB
:1018C0008083E0911104F0E0E852FD4F15968C9171
:1018D00015978083E0911204F0E0E852FD4F1696D0
:1018E0008C918083AFC0853019F40E94D80FAAC0B4
:1018F000863019F40E94C009A5C08730A1F486E0A3
:1019000095E060E472E00E94381D82E08093F80464
:1019100080E067E040E021E008EF14E072E0E72EAD
:101920000E94280D8FC0883009F08CC013968C91CE
:10193000813009F087C028E088E190E00FB6F89484
:10194000A895809360000FBE20936000FFCF0E2DFE
:1019500010E0A091B902B091BA02A801440F551F3E
:10196000440F551F400F511FEA01CE5DDB4F988198
:1019700011968C911197981709F05EC0FA01ED5DF0
:10198000FB4FE0812E2F2F7130E012968C91129731
:1019900090E02817390709F04FC0E295E695E77007
:1019A0002E2F30E013968C91139790E0281739076B
:1019B00009F042C0D093D102C093D002FA01EC5D8D
:1019C000FB4F2081822F877090E00297CCF48181B9
:1019D0008770880F880F269526952695622F677049
:1019E000FA01EB5DFB4F4081469546954695477061
:1019F0001496269526952695822B9D010E9492018C
:101A00009801220F331F220F331F200F311FF901BE
:101A1000EC5DFB4F8081877079F0F901EB5DFB4F46
:101A20009081929596959695937081818770880F95
:101A3000880F892B0E940B06E39480915404E816CA
:101A400008F485CFDF91CF911F910F91EF9008950A
:101A5000EF920F931F93422FE091B702F091B802DB
:101A60009091D6029183828363834C5F408344507C
:101A7000CF0104960817190771F0502FDF01C80134
:101A8000FC0104C0819113968C93139711968E2FAD
:101A9000851B8417B8F38091DA048C5F840F8093E0
:101AA000DA0490E00C96849740F01092DA0482E910
:101AB00094E09093B8028093B70282E0E81631F088
:101AC00081E00E940E0C81E0E81629F186E095E0A5
:101AD00063E20E94B41A1092F80414C0E90FF11DD9
:101AE00086E095E0608140E150E00E94991B86E02D
:101AF00095E066E472E00E943B1C8091F8048F5FE1
:101B00008093F8049091F804E091B702F091B80244
:101B10008081981718F31F910F91EF900895CF923D
:101B2000DF92EF920F931F93DF93CF930F92CDB776
:101B3000DEB7182FC090CE02D090CF02D6011296F9
:101B4000EC901297E2940FE0E0221A968C911A978B
:101B500082958695869583701B960C910170000F77
:101B6000000F082B86E095E068E472E00E943B1CC1
:101B700086E095E0612F4AE050E00E94991B86E0E4
:101B800095E061E572E00E943B1CF601628162957E
:101B90006F7086E095E04AE050E00E94AB1B1F3F6B
:101BA00009F05BC0D6011B968C9186958F7191F0E0
:101BB00061E00E94B11EF6018385982F969586FFFD
:101BC00004C0892F8F7161E003C0892F8F7160E09D
:101BD0000E94F01ED6011B968C911B97881F8827A8
:101BE000881F1C969C919F70990F982B21F0892F2C
:101BF00061E00E94B11E83E28093B0008AE080938E
:101C0000B1008FE48093B3001092B400F6012181FB
:101C100024FFC5C190910F049F708281807F892B22
:101C2000828325FDBCC1E091CE02F091CF0290816C
:101C300092959695977081818370880F880F880F91
:101C4000D60118966D917C9119971A964C91477010
:101C5000892B20E00E944D02A2C1113011F4F6013F
:101C60004FC01230B9F4D60112968C9112978F7032
:101C7000806212968C9312971A968C911A978F7392
:101C80001A968C931A971B968C911B978E7F1B9696
:101C90008C9365C0133019F0163041F509C0F60178
:101CA00082858F738064828783858E7F83870FC050
:101CB000D6011A968C911A978F7380681A968C9316
:101CC0001A971B968C911B978E7F1B968C93F6010F
:101CD0008281982F92959F70913009F460C18F7026
:101CE000933081F0D60112968C9339C0143069F488
:101CF000F60182858F738064828783858E7F8387D8
:101D000082818F70806282832AC0153041F5D601AE
:101D10001A962C911A97922F929596959695937064
:101D20001B963C911B97832F8170880F880F892BFE
:101D300009F435C12F731A962C931A973E7F1B9680
:101D40003C931B9712969C911297892F82958F70C6
:101D5000833009F024C19F70906212969C93F60123
:101D6000818184FF0CC082818F7027E0829FC00137
:101D700011248C519C4F9093CD028093CC02D601BC
:101D800012962C91822F82958F7090E08130910570
:101D900071F1823091051CF4892B41F000C1823031
:101DA000910541F1039709F0FAC0B7C02F70206187
:101DB000F6012283818184FFF2C0E091CC02F09190
:101DC000CD0221812F7C20612183D60118968D912F
:101DD0009C911997938382831A968C918770880FB0
:101DE000217F282B2183CF010E945F01D8C01123BE
:101DF00009F0D5C0F6018385982F969586FF04C01B
:101E0000892F8F7160E003C0892F8F7161E00E947C
:101E1000F01ED6011A968C911A9782958695869512
:101E200083701B969C911B979170990F990F982B1B
:101E300019F414968C910AC0913019F4F601858139
:101E400005C0923021F4D60113968C918983898143
:101E500090E0F3E0880F991FFA95E1F76AE070E0EF
:101E60000E94EA216093B400F601818184FF1AC0C8
:101E7000E091CC02F091CD0221812F7C2061218361
:101E8000D60116968D919C911797938382831A960B
:101E90008C91869586958E70217F282B2183CF018A
:101EA0000E945F01F60182818F7080638283F3E07C
:101EB000EF16A9F4D6011A968C911A9782958695F9
:101EC000869583701B962C912170220F220F282B50
:101ED00030E0802F90E02817390709F460C0E091C6
:101EE000CE02F091CF022081229526952770818124
:101EF0008370880F880F880FF601918192959695CF
:101F000096959170822B62E040E021E08E010F5F98
:101F10001F4FE92E0E94280D42C01092B400D60136
:101F200012968C9112978F7012968C9312971B9623
:101F30008C91982F969586FF04C0892F8F7161E050
:101F400003C0892F8F7160E00E94F01EE091CE02E5
:101F5000F091CF0220812295269527708181837090
:101F6000880F880F880FF601918192959695969526
:101F70009170822B61E040E021E08E010F5F1F4FE6
:101F8000E92E0E94280DD60111968C9184FF07C07E
:101F9000E091CC02F091CD0281818F7C81830F9002
:101FA000CF91DF911F910F91EF90DF90CF90089527
:101FB000EF92FF920F931F93DF93CF9300D0CDB793
:101FC000DEB71A82198286E095E069E572E00E9428
:101FD000381D5091D3032091540485E0289F90012F
:101FE00011248091910446E0849FC0011124280FA0
:101FF000391F40912004852F90E0840F911D280FF8
:10200000391F3093FA042093F904235F334068F0BA
:1020100081E094E09093FA048093F90480E065E015
:1020200041E022E009EF14E0CAC069817A816F5F64
:102030007F4F7A8369836150704085E095E0452F3A
:102040000E94DF1710E010C06F5F7F4F7A836983B3
:1020500061507040E12FF0E0E852FD4F85E095E0DF
:1020600040810E94DF171F5F8091D30369817A81CD
:10207000181750F36F5F7F4F7A8369836150704008
:1020800085E095E0409121040E94DF1710E029EFE0
:10209000E22EF12C11C06F5F7F4F7A83698361500C
:1020A0007040F701E11BF109E852FD4F85E095E032
:1020B00040810E94DF171F5F8091210469817A812E
:1020C000181748F36F5F7F4F7A83698361507040C0
:1020D00085E095E0409120040E94DF1710E010C0D9
:1020E0006F5F7F4F7A83698361507040E12FF0E02A
:1020F000E05FFB4F85E095E040810E94DF171F5FA6
:102100008091200469817A81181750F36F5F7F4FA7
:102110007A8369836150704085E095E04091540472
:102120000E94DF1710E005E00EC06F5F7F4F7A83DB
:10213000698361507040EE5DFB4F85E095E0408122
:102140000E94DF171F5FE12FF0E080915404809F11
:10215000C001112469817A81E817F90730F36F5FB4
:102160007F4F7A8369836150704085E095E04091AC
:1021700091040E94DF1710E006E010C069817A81A7
:102180006F5F7F4F7A83698361507040EB5AFB4FDA
:1021900085E095E040810E94DF171F5FE12FF0E0AE
:1021A00080919104809FC0011124E817F90730F352
:1021B00080E065E041E022E08E010F5F1F4F92E07A
:1021C000E92E0E94280D0F900F90CF91DF911F9163
:1021D0000F91FF90EF900895AF92BF92CF92DF9250
:1021E000EF92FF920F931F93DF93CF9300D00F9244
:1021F000CDB7DEB7182FA090CE02B090CF0286E008
:1022000095E066E672E00E943B1C86E095E0612F57
:102210004AE050E00E94AB1B1F3FC1F5F5018381EE
:10222000877060E00E94B11EF501818184FFEEC0DD
:1022300020910F0487E0289FC00111248C519C4FEE
:102240009093CD028093CC022F708281807F822B6D
:102250008283818185FDDAC0E091CE02F091CF02C8
:10226000908192959695977081818370880F880FE1
:10227000880FF501648175814381469546954695A1
:102280004770892B20E00E944D02C0C0F50181817A
:1022900084FF25C082818F7090E0FC0133E0EE0F57
:1022A000FF1F3A95E1F7E81BF90B9F012C513C4FBA
:1022B0003093CD022093CC02113031F4EB51FC4F1E
:1022C00080818F7C8083A2C0112331F4EB51FC4FBD
:1022D00080818F7C80628083C9010E945F01F5014B
:1022E000838187700E948F1E6C019B838A83F50116
:1022F00080859185C816D90619F420E030E003C026
:102300009601281B390BF501868190E028173907C3
:1023100028F4123019F0818186FF78C0FAE0CF16D8
:10232000D10410F4C98233C0F501678170E080E008
:1023300090E00E949A2020E030E040E850EC0E94BB
:10234000502120E030EC4FE754E40E94991F9B019C
:10235000AC0160E070E088EC92E40E9401207B0117
:102360008C01B60180E090E00E949A209B01AC01B4
:10237000C801B7010E9450210E946E2069836A3013
:1023800010F48AE003C0653610F084E6898386E0A5
:1023900095E064E772E00E943B1C86E095E069816D
:1023A0004AE050E00E94991B86E095E06CE772E0FD
:1023B0000E943B1C6A817B8186E095E04AE050E008
:1023C0000E947C1B8A819B81F5019187808789818E
:1023D0008287E091CE02F091CF022081229526954E
:1023E000277081818370880F880F880FF501918194
:1023F0009295969596959170822B60E040E023E04F
:102400008E010F5F1F4FE92E0E94280D0F900F9035
:102410000F90CF91DF911F910F91FF90EF90DF9080
:10242000CF90BF90AF900895BF92CF92DF92EF927E
:10243000FF920F931F93CF93DF93E091B902F09136
:10244000BA02138186E095E06AE872E00E943B1CC4
:1024500086E095E0612F4AE050E00E94991B86E0FB
:1024600095E069E972E00E943B1CE091B902F091AD
:10247000BA0286E095E064814AE050E00E94991B30
:1024800086E095E069E972E00E943B1CE091B902A8
:10249000F091BA0286E095E065814AE050E00E9442
:1024A000991B86E095E069E972E00E943B1CE0918F
:1024B000B902F091BA0286E095E066814AE050E008
:1024C0000E94AB1BA091B902B091BA021696BC90C3
:1024D0001697E091B702F091B80212821496EC912F
:1024E0001497163008F05EC0112321F4F0E0EC528E
:1024F000FC4F23C0113039F487E0E89FF00111242C
:10250000EC51FC4F1FC0123039F485E0E89FF00118
:102510001124EE5DFB4F16C0133039F486E0E89FBE
:10252000F0011124EB5AFB4F0DC0F0E0143019F408
:10253000E05FFB4F07C0E05FFB4F8081E82FF0E0DA
:10254000E852FD4F15968C916F01C80ED11CE60123
:1025500020E017C00091B7021091B802F801E20F15
:10256000F11D888184832F5F283050F00C5F1F4F4E
:1025700080E062E041E0E2E0EE2E0E94280D20E0E3
:102580002196AE014C194B1528F3222309F459C0AA
:102590000091B7021091B8020C5F1F4F80E062E01B
:1025A00041E04BC09E2F80E09093FA048093F904A1
:1025B00015962C91820F911D9093FA048093F90443
:1025C000EE24FF242CC00091B7021091B802609154
:1025D000F9047091FA046F5F7F4F7093FA0460936F
:1025E000F9046150704085E095E00E94D8170E0D07
:1025F000111DF8018483E394F7E0FE1578F400914F
:10260000B7021091B8020C5F1F4F80E062E041E01A
:102610002E2D72E0E72E0E94280DEE24F394FB1479
:1026200090F2EE2071F00091B7021091B8020C5FA9
:102630001F4F80E062E041E02E2D52E0E52E0E9427
:10264000280DDF91CF911F910F91FF90EF90DF90B8
:10265000CF90BF900895EF920F931F93DF93CF9386
:1026600000D0CDB7DEB7A091B902B091BA021396EF
:102670008C9113971A8219821496EC9114978630D4
:1026800008F059C0882321F4F0E0EC52FC4F23C03D
:10269000813039F487E0E89FF0011124EC51FC4FC0
:1026A0001FC0823039F485E0E89FF0011124EE5D0F
:1026B000FB4F16C0833039F486E0E89FF001112407
:1026C000EB5AFB4F0DC0F0E0843019F4E05FFB4F94
:1026D00007C0E05FFB4F8081E82FF0E0E852FD4F3C
:1026E000FA83E98315968C91E80FF11DFA83E9834B
:1026F00042E00DC0E981FA81A20FB31F14968C91BC
:10270000808389819A8101969A8389834F5F242FE0
:1027100030E0A091B902B091BA028C9190E0049798
:10272000281739073CF380E061E041E021E08E01A9
:102730000F5F1F4F59C09E2F80E09093FA04809343
:10274000F90415962C91820F911D9093FA048093B1
:10275000F904A6E0EA2E31C06F5F7F4F7093FA0450
:102760006093F904615070400E2D10E0E00FF11FEE
:1027700085E095E040810E94DF176091F904709137
:10278000FA046150704086E095E04AE050E00E9413
:102790006B1B86E095E069E972E00E943B1CE091CA
:1027A000B902F091BA02E00FF11F86E095E0608176
:1027B0004AE050E00E94AB1BE394E091B902F09133
:1027C000BA0280816091F9047091FA04E81620F24F
:1027D000615070407093FA046093F90480E061E006
:1027E00041E022E009EF14E0F2E0EF2E0E94280D14
:1027F0000F900F90CF91DF911F910F91EF9008955F
:10280000AF92BF92CF92DF92EF92FF920F931F93FE
:10281000A0900E041091F404B090E104C090E20482
:10282000D090EB04E090EC04F090EF040091F00401
:102830004091CC025091CD02A9EEB3E060E070E08F
:102840009FC0CB0123E0880F991F2A95E1F7861BD3
:10285000970BAC014C515C4FFC01EB51FC4F90814C
:10286000892F8295837009F488C096FF1EC0892F36
:102870008695877029F4112309F47FC09F7B90838C
:10288000FB0193E0EE0FFF1F9A95E1F7E61BF70BB4
:10289000EB51FC4F9081892F86958770813029F408
:1028A000112309F46AC09F7B9083FB0183E0EE0F44
:1028B000FF1F8A95E1F7E61BF70BEB51FC4FE08118
:1028C000E695E77019F48B2D9C2D07C0E13019F4C3
:1028D0008D2D9E2D02C08F2D902F9C018D919C914E
:1028E00011972817390708F448C05093CD02409338
:1028F000CC02FB0103E0EE0FFF1F0A95E1F7E61B98
:10290000F70BDF01AB51BC4F4C91842F8295837044
:10291000813019F44F7C4C9317C0EC51FC4F8281ED
:102920009381280F391F2817390710F440644C93FE
:10293000FB0113E0EE0FFF1F1A95E1F7E61BF70B03
:10294000EC51FC4F36832583FB01B3E0EE0FFF1FF4
:10295000BA95E1F7E61BF70BEC51FC4F908192958D
:102960009695977081818170880F880F880F892BC9
:10297000648141E00E94C9050AC06F5F7F4F1796CE
:102980006A1508F45ECF5093CD024093CC021F919C
:102990000F91FF90EF90DF90CF90BF90AF90089590
:1029A000EF920F931F93DF93CF930F92CDB7DEB7C4
:1029B0002091E5043091E6048091F6049091F704AB
:1029C000A901481B590BCA01815D974010F0109274
:1029D000DD048091DC0490E08A549B4F9093BA020E
:1029E0008093B9023093F7042093F60486E095E0D3
:1029F0000E94CA19982F2091DD04222329F48A33DA
:102A000009F09CC081E02FC0213059F480538A30F6
:102A100020F08151863008F099C09093E00482E064
:102A200022C0223019F5282F20532A3020F081545B
:102A3000863008F08BC0E091B902F091BA022A30DA
:102A400010F0292F27539091E004892F80538A306A
:102A500008F087508295807F820F80838450893070
:102A600008F074C083E08093DD0468C0233008F46C
:102A700065C02E3F08F058C08983322F36953150FB
:102A80003093F80420FF03C08093E00416C0E09167
:102A9000B902F091BA02282F20532A3008F02750AB
:102AA0009091E004892F80538A3008F08750E30F1B
:102AB000F11D8295807F820F80838091DD048F5F7E
:102AC0008093DD04E091B902F091BA02E0814E2FCB
:102AD00050E08091F80490E09A0121503040821734
:102AE000930764F18091DC04480F511D4831510572
:102AF00020F48E0F8093DC0402C01092DC049091CD
:102B0000DC048091DB04981759F480E060E041E038
:102B100020E08E010F5F1F4F72E0E72E0E94280D0C
:102B20001092DD0481E00BC0992787FD909590936A
:102B3000DF048093DE042F5F2093DD0480E00F909C
:102B4000CF91DF911F910F91EF9008951092DD04C6
:102B5000F5CFCF93DF930E94AE1D6093E104709395
:102B6000E2048093E3049093E404EB017093E604A1
:102B70006093E50424E630E040E050E00E94FD214F
:102B8000DA01C901F9013093EC042093EB0468E603
:102B900071E00E94D6217093F0046093EF0480915D
:102BA000E7049091E804C817D907E0F441E04093A6
:102BB000F4048091ED049091EE04E817F90778F49D
:102BC0004093F3048091F1049091F204681779071F
:102BD00018F44093F50408C01092F50405C0109253
:102BE000F30402C01092F4048091E9049091EA0485
:102BF0009E01281B390B83E0283E380708F43FC0AC
:102C000080911004E82FF0E0C90168EE73E00E94A3
:102C1000D621E852FD4F8081860F80838C3358F196
:102C20008C53808380911104E82FF0E0E852FD4F2F
:102C30009081892F8F5F80838C33E8F09B53908342
:102C400080911204E82FF0E0E852FD4F9081892F27
:102C50008F5F8083883178F097519083809113043F
:102C6000E82FF0E0E852FD4F80818F5F808388304D
:102C700010F081E08083D093EA04C093E9040E94BD
:102C8000001486E095E00E94AE19892B11F00E9495
:102C9000D0149091DB048091DC049817E9F0892F1F
:102CA00090E08A549B4F9093BA028093B90280E0DF
:102CB0000E940E0C2091DB04822F90E0FC01EA546C
:102CC000FB4FE0818E0F911D489720F4E20FE093B7
:102CD000DB0402C01092DB048091E5049091E604CD
:102CE0009093E8048093E7048091EB049091EC04C6
:102CF0009093EE048093ED048091EF049091F004A2
:102D00009093F2048093F104DF91CF9108950F9393
:102D10001F9306E015E0C80140E051EE60E070E06E
:102D20000E943019C8016DE972E00E94381D0E94AE
:102D3000C0091F910F9108951F920F920FB60F9225
:102D400011242F933F934F935F936F937F938F93B0
:102D50009F93AF93BF93EF93FF93E0910305F0919F
:102D600004050995FF91EF91BF91AF919F918F91CC
:102D70007F916F915F914F913F912F910F900FBE77
:102D80000F901F901895FC01A2E0440F551F661F7D
:102D9000771FAA95D1F7403080E0580781E0680797
:102DA00080E0780714F481E010C033E075956795F2
:102DB000579547953A95D1F7403080E0580781E024
:102DC000680780E078071CF482E0828339C023E042
:102DD00075956795579547952A95D1F7403080E0CE
:102DE000580781E0680780E0780714F483E0EDCFAE
:102DF00092E075956795579547959A95D1F740302C
:102E000080E0580781E0680780E0780714F484E0E8
:102E1000DCCF82E075956795579547958A95D1F7F0
:102E2000403080E0580781E0680780E0780714F4BC
:102E300085E0CBCF85E082834FEF5FEF60E070E00D
:102E40008FB78383F89451834083509387004093D6
:102E5000860083818FBF80918100887F809381006D
:102E6000809181009281892B809381000895109236
:102E7000800020E1209381000E94C31608950F93E3
:102E8000CF93DF93EC01062FBA012881398140E00E
:102E900050E0882777FD8095982F0E94B721BAE0EF
:102EA0009695879577956795BA95D1F72FB72B8328
:102EB000F894013011F0093029F47093890060937F
:102EC000880008C0023011F00A3021F470938B00A2
:102ED00060938A002FBFDF91CF910F910895CF9219
:102EE000DF92FF920F931F93CF93DF93EC01F62EA7
:102EF0006A01101611061206130624F4B901A8017E
:102F00000E94C31631E0F31619F089E0F81629F48F
:102F1000219A8091800080680AC032E0F31619F08F
:102F20008AE0F81631F4229A8091800080628093C2
:102F300080002881398140E050E0B601882777FD84
:102F40008095982F0E94B7211AE0969587957795DE
:102F500067951A95D1F72FB72B83F89431E0F316C4
:102F600019F039E0F31629F4709389006093880012
:102F70000AC032E0F31619F03AE0F31621F4709328
:102F80008B0060938A002FBF809181009A81892BEA
:102F900080938100DF91CF911F910F91FF90DF907F
:102FA000CF900895E1E8F0E08081887F80830895E4
:102FB000F999FECF72BD61BDF89A80B50895F9996F
:102FC000FECF1FBA72BD61BD40BD0FB6F894FA9A2C
:102FD000F99A0FBE08952F923F925F926F927F925F
:102FE0008F929F92AF92BF92CF92DF92EF92FF9219
:102FF0000F931F93DF93CF9300D000D00F92CDB7E4
:10300000DEB73C01962E19821A821B821C821D8219
:10301000862F61E00E94B11E892D60E00E94F01EA3
:1030200062E170E080E090E00E94271E892D61E05F
:103030000E94F01E88E290E00E94E21D892D60E06F
:103040000E94B11E00E117E205C001151105A1F1B2
:1030500001501040892D0E94441F892BB1F300E1DB
:1030600017E205C00115110539F101501040892DF5
:103070000E94441F0197B1F306C001151105E1F04C
:10308000015010400AC027E0822E5524AA24BB24F8
:1030900091E0292E312C00E117E2892D0E94441F76
:1030A000892B59F30E94BC1D6B017C0100E117E2E2
:1030B00008C00115110519F42EEF3FEF41C0015072
:1030C0001040892D0E94441F019799F30E94BC1D56
:1030D0006C197D098E099F09693271058105910579
:1030E00080F0E1E0F0E0EC0FFD1FE50DF11D910136
:1030F000082C02C0220F331F0A94E2F78081822B32
:103100008083882021F4539487E0882E01C08A941C
:103110000894A11CB11C88E2A816B10409F0BBCF29
:103120008981F301808311829B8192831382980F9E
:103130008D81891719F420E030E002C02FEF3FEFB6
:10314000C9010F900F900F900F900F90CF91DF91CA
:103150001F910F91FF90EF90DF90CF90BF90AF90B5
:103160009F908F907F906F905F903F902F900895E9
:1031700008951F920F920FB60F9211242F933F9331
:103180004F938F939F93EF93FF938091C00082FDA5
:1031900019C04091C60080912405282F30E02F5F90
:1031A0003F4F2F7330708091250590E02817390725
:1031B00059F0E0912405F0E0EA5FFA4F42A3209332
:1031C000240502C08091C600FF91EF919F918F91DD
:1031D0004F913F912F910F900FBE0F901F90189518
:1031E000809124052091250590E0805C9F4F821BF3
:1031F00091098F739070892B11F00E94B81808956F
:103200001F920F920FB60F9211242F938F939F93BB
:10321000EF93FF939091260580912705981731F43D
:103220008091C1008F7D8093C10010C0E09127057F
:10323000F0E0E859FA4F20818091270590E001964F
:103240008F739070809327052093C600FF91EF91B4
:103250009F918F912F910F900FBE0F901F901895F7
:10326000AF92BF92DF92EF92FF920F931F93CF9393
:10327000DF93EC017A018B01DD24D39491E0A92E38
:10328000B12CE889F989DD2069F0C5010C8C02C0F8
:10329000880F991F0A94E2F7808360E874E88EE152
:1032A00090E005C0108260E472E48FE090E0A80135
:1032B00097010E94FD2121503040404050405695DA
:1032C00047953795279580E12030380720F0DD209D
:1032D00011F0DD24D6CFEC85FD853083EE85FF85AA
:1032E00020831D8EEA89FB89408121E030E0C901FD
:1032F000088C02C0880F991F0A94E2F7482B40837C
:10330000EA89FB894081C901098C02C0880F991F95
:103310000A94E2F7482B4083EA89FB894081C9017E
:103320000A8C02C0880F991F0A94E2F7482B408349
:10333000EA89FB8980810B8C02C0220F331F0A941B
:10334000E2F7209528232083DF91CF911F910F91E1
:10335000FF90EF90DF90BF90AF900895FC01268D15
:10336000878D30E0205C3F4F281B31092F73307070
:10337000C9010895FC01968D878D981719F42FEFD8
:103380003FEF06C0878DE80FF11D82A1282F30E0A6
:10339000C9010895DC015E969C915E975F968C91C1
:1033A0005F97981719F42FEF3FEF10C05F968C913D
:1033B0005F97FD01E80FF11D92A15F968C915F97D9
:1033C0008F5F8F735F968C93292F30E0C90108952A
:1033D000DC015D968C915D97882339F05096ED91D4
:1033E000FC915197808186FFF9CF5D961C920895DC
:1033F000DC0190968C919097282F30E02F5F3F4F03
:103400002F73307091968C91919790E0281739071F
:10341000C9F390968C919097FD01E80FF11DEE593C
:10342000FF4F608390962C9390975296ED91FC916C
:103430005397208181E090E05B960C905B9702C0EF
:10344000880F991F0A94E2F7282B208381E05D966C
:103450008C935D975096ED91FC915197808180649B
:10346000808381E090E0089510920905109208058C
:1034700088EE93E0A0E0B0E080930A0590930B05FE
:10348000A0930C05B0930D0580EC92E09093070596
:1034900080930605109227058091270580932605C5
:1034A00010922505809125058093240585EC90E0F8
:1034B000909313058093120584EC90E0909315058A
:1034C0008093140580EC90E0909317058093160587
:1034D00081EC90E0909319058093180582EC90E0C0
:1034E00090931B0580931A0586EC90E090931D0540
:1034F00080931C0584E080931E0583E080931F0564
:1035000087E08093200585E08093210581E080930A
:1035100022050895CF92DF92EF92FF920F931F93AF
:10352000CF93DF937C016B018A01C0E0D0E00FC034
:10353000D6016D916D01D701ED91FC910190F08163
:10354000E02DC7010995C80FD91F01501040011582
:10355000110571F7CE01DF91CF911F910F91FF906F
:10356000EF90DF90CF900895DC01ED91FC910190F8
:10357000F081E02D09950895EF92FF920F931F932C
:103580008C01DC01ED91FC910190F081E02D6DE06A
:1035900009957C01D801ED91FC910190F081E02D1D
:1035A000C8016AE009959C012E0D3F1DC9011F91BC
:1035B0000F91FF90EF900895CF93DF93EC01611589
:1035C000710519F420E030E00FC0DB010D90002000
:1035D000E9F71197A61BB70BE881F9810280F38107
:1035E000E02DAD0109959C01C901DF91CF910895AE
:1035F0004F925F927F928F929F92AF92BF92CF92A3
:10360000DF92EF92FF920F931F93DF93CF93CDB78B
:10361000DEB7A1970FB6F894DEBF0FBECDBF2C0169
:10362000742ECB01223008F42AE019A231E2C32E15
:10363000D12CCC0EDD1E822E9924AA24BB24672D0A
:10364000752FA50194010E94FD2179018A01C8010D
:10365000B701A50194010E94B721472D461B08948C
:10366000C108D1084A3014F4405D01C0495CF6013C
:103670004083E114F1040105110521F07E2C5F2D3A
:10368000C801DDCFC201B6010E94DC1AA1960FB6B7
:10369000F894DEBF0FBECDBFCF91DF911F910F9188
:1036A000FF90EF90DF90CF90BF90AF909F908F9062
:1036B0007F905F904F900895DC012115310541F412
:1036C000ED91FC910190F081E02D642F0995089512
:1036D0000E94F81A0895EF92FF920F931F939A0198
:1036E0007B0100E010E0B801A7010E945C1B1F9164
:1036F0000F91FF90EF900895CF92DF92EF92FF929B
:103700000F931F936C017B019A0100E010E0B80158
:10371000A7010E945C1B8C01C6010E94BC1A080F05
:10372000191FC8011F910F91FF90EF90DF90CF906C
:103730000895EF92FF920F931F939A01E62EFF24B4
:1037400000E010E0B801A7010E945C1B1F910F91DF
:10375000FF90EF900895CF92DF92EF92FF920F9338
:103760001F936C01E62E9A01FF2400E010E0B801DF
:10377000A7010E945C1B8C01C6010E94BC1A080FA5
:10378000191FC8011F910F91FF90EF90DF90CF900C
:103790000895CF92DF92EF92FF920F931F93CF93F2
:1037A000DF93EC016A017B012115310541F4E881C9
:1037B000F9810190F081E02D642F09951FC02A3016
:1037C0003105D1F477FF17C0E881F9810190F081CC
:1037D000E02D6DE209958C0144275527BA014C195B
:1037E0005D096E097F09CE012AE00E94F81A98014E
:1037F000280F391F04C02AE00E94F81A9C01C90151
:10380000DF91CF911F910F91FF90EF90DF90CF90BC
:103810000895EF92FF920F931F937B019A01002767
:10382000F7FC0095102FB801A7010E94C91B1F913A
:103830000F91FF90EF900895CF92DF92EF92FF9259
:103840000F931F936C017B019A010027F7FC0095F1
:10385000102FB801A7010E94C91B8C01C6010E944C
:10386000BC1A080F191FC8011F910F91FF90EF900C
:10387000DF90CF9008950E94DC1A08957F928F9276
:103880009F92AF92BF92CF92DF92EF92FF920F93EF
:103890001F93CF93DF934C017A018B01722ECB01E2
:1038A000BA01A80197010E94B321882321F0C40125
:1038B00069EA72E021C0C0E0D0E057016801E894F5
:1038C000D7F8C601B5012FEF3FEF4FE75FE70E9442
:1038D000B321882351F4C601B5012FEF3FEF4FE725
:1038E0005FE70E94FD1F181614F0C1E0D0E0219799
:1038F00039F0C4016DEA72E00E94DC1AEC0193C059
:10390000C801B7012FEF3FEF4FE75FE40E944C2162
:10391000181654F0C801B7012FEF3FEF4FE75FECE7
:103920000E94FD1F882324F4C40161EB72E0E4CF00
:10393000C801B70120E030E040E050E00E94FD1FE8
:1039400087FD03C0C0E0D0E00EC0D401ED91FC9132
:103950000190F081E02DC4016DE20995EC0117FBA7
:10396000109517F9109520E030E040E05FE3DD248A
:103970000BC0CA01B90120E030E040E251E40E94EE
:1039800001209B01AC01D394D71498F3C801B7016F
:103990000E94991F5B016C010E946E207B018C01CB
:1039A000C401B801A7012AE030E00E945C1BC80FE7
:1039B000D91F772039F0C40165EB72E00E94DC1A50
:1039C000C80FD91FC801B7010E949A209B01AC0102
:1039D000C601B5010E94981F24C020E030E040E2FB
:1039E00051E40E9450217B018C010E9469205B01FF
:1039F0006C01CC24B7FCC094DC2CC401B601A50139
:103A00002AE030E00E94C91BC80FD91FC601B501CA
:103A10000E949C209B01AC01C801B7010E94981F25
:103A20007A947720D1F6CE01DF91CF911F910F913B
:103A3000FF90EF90DF90CF90BF90AF909F908F90CE
:103A40007F9008950E943E1C0895EF92FF920F937D
:103A50001F937C010E943E1C8C01C7010E94BC1A6E
:103A6000080F191FC8011F910F91FF90EF90089543
:103A7000EF92FF920F931F937C010E94DC1A8C013E
:103A8000C7010E94BC1A080F191FC8011F910F918E
:103A9000FF90EF900895CF93DF930E94EC1D0E945A
:103AA0008716C0EFD8E10E94A9152097E1F30E9484
:103AB000F018F9CF1F920F920FB60F9211242F9387
:103AC0003F934F935F936F937F938F939F93AF93A6
:103AD000BF932091AC053091AD054091AE0550915A
:103AE000AF057091B005DA01C9010296A11DB11DA3
:103AF000672F6A5F6D3730F06D57DA01C9010396A1
:103B0000A11DB11D6093B0058093AC059093AD05E8
:103B1000A093AE05B093AF058091A8059091A9053B
:103B2000A091AA05B091AB050196A11DB11D80938E
:103B3000A8059093A905A093AA05B093AB05BF91E2
:103B4000AF919F918F917F916F915F914F913F9135
:103B50002F910F900FBE0F901F9018958FB7F8946C
:103B60002091AC053091AD054091AE055091AF0567
:103B70008FBFB901CA0108959FB7F8942091A80595
:103B80003091A9054091AA055091AB0586B5A89B37
:103B900006C08F3F21F02F5F3F4F4F4F5F4F9FBFBA
:103BA000542F432F322F2227280F311D411D511D25
:103BB00083E0220F331F441F551F8A95D1F7B901A7
:103BC000CA010895019739F0019729F0880F991FCC
:103BD00001970197F1F70895789484B5826084BDC8
:103BE00084B5816084BD85B5826085BD85B5816001
:103BF00085BDEEE6F0E0808181608083E1E8F0E061
:103C00001082808182608083808181608083E0E88F
:103C1000F0E0808181608083E1EBF0E0808184606E
:103C20008083E0EBF0E0808181608083EAE7F0E070
:103C300080818460808380818260808380818160D4
:103C400080838081806880831092C1000895EF9204
:103C5000FF920F931F93CF93DF937B018C013FB7AC
:103C6000F8948091A8059091A905A091AA05B0911A
:103C7000AB0526B5A89B05C02F3F19F00196A11DE5
:103C8000B11D3FBFBA2FA92F982F8827820F911DF2
:103C9000A11DB11D53E0880F991FAA1FBB1F5A9584
:103CA000D1F7EC0130C00E94971F3FB7F894809184
:103CB000A8059091A905A091AA05B091AB0526B5DC
:103CC000A89B05C02F3F19F00196A11DB11D3FBF54
:103CD000BA2FA92F982F8827820F911DA11DB11DE2
:103CE00033E0880F991FAA1FBB1F3A95D1F78C1B91
:103CF0009D0B885E9340B8F20894E108F108010931
:103D00001109C851DC4FE114F1040105110559F600
:103D1000DF91CF911F910F91FF90EF900895982F11
:103D20008E3008F09E5097708091BB028295880F6C
:103D3000880F807C892B80937C0080917A0080643E
:103D400080937A0080917A0086FDFCCF20917800E4
:103D500040917900942F80E030E0282B392BC90165
:103D60000895CF93DF93482F50E0CA01845D9D4FA3
:103D7000FC013491485E5D4FFA018491882369F11A
:103D800090E0880F991FFC01E650FE4FA591B49179
:103D9000FC01EC5FFD4FC591D491662351F42FB720
:103DA000F8948C91932F909589238C938881892303
:103DB0000BC0623061F42FB7F8948C91932F9095DB
:103DC00089238C938881832B88832FBF06C09FB75C
:103DD000F8948C91832B8C939FBFDF91CF910895A2
:103DE000482F50E0CA01805C9D4FFC012491CA011C
:103DF000845D9D4FFC019491485E5D4FFA013491C2
:103E0000332309F440C0222351F1233071F02430D0
:103E100028F42130A1F0223011F514C02630B1F081
:103E20002730C1F02430D9F404C0809180008F770E
:103E300003C0809180008F7D8093800010C084B586
:103E40008F7702C084B58F7D84BD09C08091B0009A
:103E50008F7703C08091B0008F7D8093B000E32FF7
:103E6000F0E0EE0FFF1FEC5FFD4FA591B4912FB76F
:103E7000F894662321F48C919095892302C08C914B
:103E8000892B8C932FBF0895682F70E0CB01805C45
:103E90009D4FFC012491CB01845D9D4FFC01449119
:103EA000685E7D4FFB019491992319F420E030E086
:103EB0003CC0222351F1233071F0243028F421300A
:103EC000A1F0223011F514C02630B1F02730C1F036
:103ED0002430D9F404C0809180008F7703C0809192
:103EE00080008F7D8093800010C084B58F7702C0E2
:103EF00084B58F7D84BD09C08091B0008F7703C0E9
:103F00008091B0008F7D8093B000892F90E0880F62
:103F1000991F825F9D4FFC01A591B4918C9120E087
:103F200030E0842311F021E030E0C90108950895C4
:103F30005058BB27AA270ED075C166D130F06BD17F
:103F400020F031F49F3F11F41EF45BC10EF4E095B4
:103F5000E7FB51C1E92F77D180F3BA1762077307E6
:103F60008407950718F071F49EF58FC10EF4E09563
:103F70000B2EBA2FA02D0B01B90190010C01CA0123
:103F8000A0011124FF27591B99F0593F50F4503ECE
:103F900068F11A16F040A22F232F342F4427585FC0
:103FA000F3CF469537952795A795F0405395C9F7D8
:103FB0007EF41F16BA0B620B730B840BBAF0915090
:103FC000A1F0FF0FBB1F661F771F881FC2F70EC02F
:103FD000BA0F621F731F841F48F487957795679502
:103FE000B795F7959E3F08F0B3CF9395880F08F0EB
:103FF0009927EE0F979587950895D9D008F481E019
:1040000008950CD00FC107D140F0FED030F021F45C
:104010005F3F19F0F0C0511139C1F3C014D198F3CA
:104020009923C9F35523B1F3951B550BBB27AA2739
:1040300062177307840738F09F5F5F4F220F331FAB
:10404000441FAA1FA9F333D00E2E3AF0E0E830D077
:1040500091505040E695001CCAF729D0FE2F27D07A
:10406000660F771F881FBB1F261737074807AB0748
:10407000B0E809F0BB0B802DBF01FF2793585F4FBD
:104080002AF09E3F510568F0B6C000C15F3FECF3D7
:10409000983EDCF3869577956795B795F7959F5F82
:1040A000C9F7880F911D9695879597F90895E1E0D6
:1040B000660F771F881FBB1F621773078407BA0735
:1040C00020F0621B730B840BBA0BEE1F88F7E09590
:1040D000089504D06894B111D9C00895BCD088F077
:1040E0009F5790F0B92F9927B751A0F0D1F0660FE4
:1040F000771F881F991F1AF0BA95C9F712C0B130FF
:1041000081F0C3D0B1E00895C0C0672F782F882711
:10411000B85F39F0B93FCCF3869577956795B3953D
:10412000D9F73EF490958095709561957F4F8F4FAC
:104130009F4F0895E89409C097FB3EF490958095B1
:10414000709561957F4F8F4F9F4F9923A9F0F92F5D
:1041500096E9BB279395F695879577956795B795DB
:10416000F111F8CFFAF4BB0F11F460FF1BC06F5FC1
:104170007F4F8F4F9F4F16C0882311F096E911C0D3
:10418000772321F09EE8872F762F05C0662371F0F4
:1041900096E8862F70E060E02AF09A95660F771F08
:1041A000881FDAF7880F9695879597F90895990FE4
:1041B0000008550FAA0BE0E8FEEF16161706E807F1
:1041C000F907C0F012161306E407F50798F0621B12
:1041D000730B840B950B39F40A2661F0232B242BE7
:1041E000252B21F408950A2609F4A140A6958FEF06
:1041F000811D811D089597F99F6780E870E060E058
:1042000008959FEF80EC089500240A94161617066F
:1042100018060906089500240A94121613061406B7
:1042200005060895092E0394000C11F4882352F01A
:10423000BB0F40F4BF2B11F460FF04C06F5F7F4FD2
:104240008F4F9F4F089557FD9058440F551F59F0B9
:104250005F3F71F04795880F97FB991F61F09F3F73
:1042600079F087950895121613061406551FF2CF9C
:104270004695F1DF08C0161617061806991FF1CFEC
:1042800086957105610508940895E894BB27662713
:104290007727CB0197F908958ADF08F48FEF089507
:1042A0000BD0C0CFB1DF28F0B6DF18F0952309F0AE
:1042B000A2CFA7CF1124EACFC6DFA0F3959FD1F3F9
:1042C000950F50E0551F629FF001729FBB27F00DC4
:1042D000B11D639FAA27F00DB11DAA1F649F662719
:1042E000B00DA11D661F829F2227B00DA11D621F68
:1042F000739FB00DA11D621F839FA00D611D221F22
:10430000749F3327A00D611D231F849F600D211D05
:10431000822F762F6A2F11249F5750408AF0E1F0A8
:1043200088234AF0EE0FFF1FBB1F661F771F881FF1
:1043300091505040A9F79E3F510570F05CCFA6CF39
:104340005F3FECF3983EDCF3869577956795B795DC
:10435000F795E7959F5FC1F7FE2B880F911D969506
:10436000879597F9089523DF880B990B0895629F2D
:10437000D001739FF001829FE00DF11D649FE00D5D
:10438000F11D929FF00D839FF00D749FF00D659FBE
:10439000F00D9927729FB00DE11DF91F639FB00DBD
:1043A000E11DF91FBD01CF0111240895AA1BBB1BFC
:1043B00051E107C0AA1FBB1FA617B70710F0A61B25
:1043C000B70B881F991F5A95A9F780959095BC0146
:1043D000CD01089597FB092E07260AD077FD04D05A
:1043E000E5DF06D000201AF4709561957F4F08959F
:1043F000F6F7909581959F4F0895A1E21A2EAA1B7A
:10440000BB1BFD010DC0AA1FBB1FEE1FFF1FA21784
:10441000B307E407F50720F0A21BB30BE40BF50B81
:10442000661F771F881F991F1A9469F7609570950A
:10443000809590959B01AC01BD01CF010895EE0FD1
:0E444000FF1F0590F491E02D0994F894FFCF32
:10444E007265676C6F61643A200020446973746111
:10445E006E63653A200020496E74657276616C3A1F
:10446E00200052706D3A20002074696D6572206DC7
:10447E006F642069643A20002074696D657220753E
:10448E006E69743A20002074696D657220696E74CD
:10449E003A2000456E7465722072756E64696D3ACD
:1044AE000073746174653A00207076616C3A007026
:1044BE00776D70696E0070776D7065720044485448
:1044CE0020436865636B73756D206572726F720041
:1044DE004448542054696D65206F7574206572725E
:1044EE006F7200482825293A200020542843293A83
:1044FE00200044485420556E6B6E6F776E206572A7
:10450E00726F7200636F6E3A0020726573756C7411
:10451E003A00206C6566743A2000207269676874F0
:10452E003A20004C6F6164436F6E66696745453192
:10453E00004C6F6164436F6E666967454532002DAE
:10454E002D006D6F64733A20006469726563743A6E
:10455E002000726567733A20006C696E6B3A20001A
:10456E00636F6E643A20006D6F64206366673A2055
:10457E000069643A20006D6F642072756E3A2000F7
:10458E005445535421007C0052756E66616E3A207C
:10459E00002053746174653A0053617665436F6E03
:1045AE0066696745450052756E616E616C6F67692D
:1045BE006E3A200044617461253A2000416E616CB0
:1045CE006F6720646174613A200053656E64636F97
:1045DE006E66696764617461002D2D2D00537461E0
:1045EE007274696E672E2E2E006E616E00696E6695
:1045FE00006F7666002E009204B6040100000000E3
:0C460E00F8198A1AAE19CA19BA19E8196D
:00000001FF
