:100000000C9462000C948A000C948A000C948A0070
:100010000C948A000C948A000C948A000C948A0038
:100020000C948A000C948A000C948A000C948A0028
:100030000C948A000C943D150C948A000C948A0050
:100040000C940F1B0C948A000C9445160C948C167F
:100050000C948A000C948A000C948A000C948A00F8
:100060000C948A000C948A000000000024002700F1
:100070002A0000000000250028002B0000000000DE
:1000800023002600290004040404040404040202DA
:100090000202020203030303030301020408102007
:1000A0004080010204081020010204081020000012
:1000B0000007000201000003040600000000000029
:1000C0000000C01711241FBECFEFD8E0DEBFCDBFA8
:1000D00012E0A0E0B1E0E8EFF0E402C005900D927C
:1000E000AA3FB107D9F715E0AAEFB2E001C01D920F
:1000F000A93EB107E1F710E0C4ECD0E004C02297BC
:10010000FE010E947620C23CD107C9F70E94001B65
:100110000C947A200C940000CF93DF93E90190E0D7
:10012000E82FF0E0E25BFB4FD901A60FB11D03C041
:100130008C9180839F5F9417D8F38EE395E060E005
:1001400071E00E94F3198EE395E068814AE050E087
:100150000E946319DF91CF910895CF92DF92EF92C1
:10016000FF920F931F9382E060E020E137E240E0CE
:1001700050E00E944C1DC62EF72EE82ED92E0EE31D
:1001800015E0C8016AE071E00E94F319C8014C2D26
:100190005F2D6E2D7D2D2AE030E00E940F198C2DF1
:1001A0001F910F91FF90EF90DF90CF900895AF9245
:1001B000BF92CF92DF92EF92FF920F931F93F82E90
:1001C0006B015A01E22E0EE315E0C80160E171E017
:1001D0000E94F319C8016F2D4AE050E00E945119A6
:1001E000C80160E271E00E94F319C801B5014AE05C
:1001F00050E00E94C119C8016EE271E00E94F3193B
:10020000C801B6014AE050E00E94D41960914D0443
:10021000262F30E0A901440F551FC90103E0880FC4
:10022000991F0A95E1F7480F591FA0E1B4E0FD01BD
:10023000E40FF51FF093FF02E093FE028F2D8295ED
:10024000880F807E8083F694F694F69481E0F822FD
:1002500081818E7F8F298183D682C582F901EE0F3D
:10026000FF1FEE0FFF1FE20FF31F3196EE0FFF1F70
:10027000EA0FFB1FB182A0821496A40FB51F83E082
:10028000E8228C918C7F8E298C9380914C048F5F17
:1002900080934C046F5F60934D041F910F91FF900A
:1002A000EF90DF90CF90BF90AF9008951F93CF93C2
:1002B000DF93A091E702B091E80213968C91139717
:1002C000863008F044C014969C911497882319F442
:1002D00024E033E02AC0813039F48AE0989F90010D
:1002E0001124205F3B4F21C0823039F485E0989F74
:1002F00090011124205A3B4F18C0833039F486E016
:10030000989F900111242D563B4F0FC0E92FF0E02C
:10031000843021F49F01225B3B4F07C0E25BFB4F1F
:100320008081282F30E02C5F3C4F15968C911597DB
:10033000E901C80FD11D92E006C0FD01E90FF11DD2
:10034000848189939F5F8C919817B8F350C015965C
:100350008C911597109235058093360514968C91E3
:10036000809335051092360512E030C0E10FF11D83
:1003700044811F5F8DE395E00E946B156091350508
:1003800070913605615070408EE395E04AE050E090
:100390000E9423198EE395E06AE671E00E94F3194A
:1003A000E091E702F091E802E10FF11D8EE395E0A4
:1003B00063814AE050E00E94631980913505909175
:1003C0003605019690933605809335056091350585
:1003D00070913605E091E702F091E802CB010297B7
:1003E0002081820F911D6817790708F4BFCFDF9134
:1003F000CF911F9108951F93CF93DF93882341F0EE
:100400008091E5029091E6029093E8028093E702E2
:100410008EE395E06EE671E00E94ED1A8EE395E0C2
:1004200069E771E00E94F319E091E702F091E802B8
:100430008EE395E061814AE050E00E9451198EE31D
:1004400095E061E871E00E94F319E091E702F09114
:10045000E8028EE395E062814AE050E00E94511983
:100460008EE395E06BE871E00E94F319E091E702FA
:10047000F091E8028EE395E063814AE050E00E944B
:100480006319A091E702B091E80211968C9111973F
:10049000882311F010E0BAC012968C911297813027
:1004A00019F40E945601B7C0823019F40E94D81185
:1004B000B2C0833019F40E94BC0EADC08430D9F4B0
:1004C000E0914E04F0E0EC5FFC4F14968C91149791
:1004D0008083E0914F04F0E0EC5FFC4F15968C9127
:1004E00015978083E0915004F0E0EC5FFC4F169686
:1004F0008C91808390C0853019F40E943F048BC09A
:10050000863019F40E94411086C0873009F083C0FC
:100510008EE395E066E971E00E94ED1A7CC0C12F80
:10052000D0E0A091E702B091E802AE01440F551F60
:10053000440F551F4C0F5D1FBA01605A7B4FFB01E2
:10054000908111968C911197981709F05EC0FA016D
:10055000EF59FB4FE0812E2F2F7130E012968C91D6
:10056000129790E02817390709F04FC0E295E695F9
:10057000E7702E2F30E013968C91139790E0281798
:10058000390709F042C07093030360930203FA0134
:10059000EE59FB4F2081822F877090E00297CCF4B8
:1005A00081818770880F880F269526952695622F62
:1005B0006770FA01ED59FB4F408146954695469587
:1005C00047701496269526952695822B9D010E94AC
:1005D0008C009E01220F331F220F331F2C0F3D1F53
:1005E000F901EE59FB4F8081877079F0F901ED59DF
:1005F000FB4F908192959695969593708181877027
:10060000880F880F892B0E94560B1F5F80919204E0
:10061000181708F484CFDF91CF911F910895CF92DE
:10062000DF92EF92FF920F931F93F82ED62EC22ED9
:100630008EE395E06CE971E00E94ED1AE091E5022D
:10064000F091E6028091E3028183F282D38283E01B
:10065000C80EC0828DEFC80ECF0104960817190787
:1006600071F0402FDF01C801FC0104C08191139695
:100670008C93139711968E2F841B8C15B8F38EE3F1
:1006800095E06BEA71E00E94F319E091E502F091C8
:10069000E6028EE395E061814AE050E00E94511944
:1006A0008EE395E061EB71E00E94F319E091E502C1
:1006B000F091E6028EE395E062814AE050E00E940C
:1006C00051198EE395E068EB71E00E94F319E09117
:1006D000E502F091E6028EE395E063814AE050E0A6
:1006E0000E9451198EE395E060EC71E00E94F319CD
:1006F0008EE395E06AEC71E00E94F319E091E50267
:10070000F091E6028EE395E060814AE050E00E94BD
:1007100051198EE395E061ED71E00E94F319E091CB
:10072000E502F091E6028EE395E064814AE050E054
:100730000E9451198EE395E068ED71E00E94F31973
:10074000E091E502F091E6028EE395E065814AE0F2
:1007500050E00E9451198EE395E068ED71E00E942F
:10076000F319E091E502F091E6028EE395E06681EF
:100770004AE050E00E9451198EE395E068ED71E087
:100780000E94F319E091E502F091E6028EE395E014
:1007900067814AE050E00E9451198EE395E068EDD0
:1007A00071E00E94F319E091E502F091E6028EE318
:1007B00095E060854AE050E00E9451198EE395E093
:1007C00068ED71E00E94F319E091E502F091E60214
:1007D0008EE395E061854AE050E00E9451198EE376
:1007E00095E068ED71E00E94F319E091E502F09167
:1007F000E6028EE395E062854AE050E00E945119DE
:100800008EE395E068ED71E00E94F319E091E50256
:10081000F091E6028EE395E063854AE050E00E94A5
:100820006319809118058D5F8C0D8093180590E0F9
:100830000C96849740F01092180580ED94E0909308
:10084000E6028093E50281E00E94FB01EE2081F444
:100850008EE395E063E20E944018E091E502F0919A
:10086000E60240818EE395E0BF0150E00E94161839
:100870001F910F91FF90EF90DF90CF900895EF922E
:10088000FF920F931F93DF93CF9300D0CDB7DEB7C6
:100890001A8219828EE395E06AED71E00E94ED1AEA
:1008A0005091FF032091920485E0289F900111242C
:1008B0008091CF0446E0849FC0011124280F391F86
:1008C00040915E04852F90E0840F911D280F391F01
:1008D00030933605209335052D5F334038F080E0A6
:1008E00061E041E022E005E315E0DCC069817A8146
:1008F0006F5F7F4F7A836983615070408DE395E02D
:10090000452F0E946B1510E010C06F5F7F4F7A83F8
:10091000698361507040E12FF0E0EC5FFC4F8DE3A4
:1009200095E040810E946B151F5F8091FF036981F4
:100930007A81181750F36F5F7F4F7A836983615014
:1009400070408DE395E040915F040E946B1510E0CC
:1009500059EFE52EF12C11C06F5F7F4F7A836983C9
:1009600061507040F701E11BF109EC5FFC4F8DE332
:1009700095E040810E946B151F5F80915F04698143
:100980007A81181748F36F5F7F4F7A8369836150CC
:1009900070408DE395E040915E040E946B1510E07D
:1009A00010C06F5F7F4F7A83698361507040E12F81
:1009B000F0E0E25BFB4F8DE395E040810E946B1518
:1009C0001F5F80915E0469817A81181750F36F5F11
:1009D0007F4F7A836983615070408DE395E0409149
:1009E00092040E946B1585E0189F80011124005A23
:1009F0001B4FEE2445E0F42E0EC06F5F7F4F7A83CD
:100A0000698361507040E00FF11F8DE395E04081F4
:100A10000E946B15E394EE2DF0E0809192048F9D7F
:100A2000C001112469817A81E817F90730F36F5FFB
:100A30007F4F7A836983615070408DE395E04091E8
:100A4000CF040E946B1586E0E89E800111240D56AC
:100A50001B4FEE2436E0F32E10C069817A816F5F60
:100A60007F4F7A83698361507040E00FF11F8DE3FF
:100A700095E040810E946B15E394EE2DF0E08091AB
:100A8000CF048F9DC0011124E817F90730F380913E
:100A9000E402823050F080E062E041E022E08E012A
:100AA0000F5F1F4FEE240E940F030F900F90CF9106
:100AB000DF911F910F91FF90EF900895AF92BF9239
:100AC000CF92DF92EF92FF920F931F93DF93CF931A
:100AD00000D00F92CDB7DEB7182FA0900003B090D2
:100AE00001038EE395E065EE71E00E94F3198EE359
:100AF00095E0612F4AE050E00E9463191F3FA1F585
:100B0000F501838160E00E94661CF501818184FF0C
:100B10005AC120914D048AE0289FC0011124805FB2
:100B20009B4F9093FF028093FE022F708281807F03
:100B3000822B8283818185FD46C1E0910003F09183
:100B40000103908192959695977081818370880FAB
:100B5000880F880FF5016185728543855485892B3F
:100B600020E00E94D7002FC1F501818184FF97C04A
:100B700082818F70682F70E0FB01EE0FFF1FCB01A9
:100B800003E0880F991F0A95E1F7E80FF91FCF01DD
:100B9000805F9B4F9093FF028093FE02113031F4EF
:100BA000EC5EFB4F80818C7F80830DC1112331F47B
:100BB000EC5EFB4F80818C7F82608083FB01EE0FB7
:100BC000FF1FEE0FFF1FE60FF71FEE0FFF1FEE5E7A
:100BD000FB4F0190F081E02D3097A1F4FB01EE0F67
:100BE000FF1FCB0143E0880F991F4A95E1F7E80FFB
:100BF000F91FE05FFB4F458156818091220590915E
:100C0000230524C0DB01AA0FBB1FCB0123E0880F03
:100C1000991F2A95E1F7319769F4A80FB91FA05FD2
:100C2000BB4F15964D915C91169780912805909138
:100C300029050CC0A80FB91FA05FBB4F15964D9199
:100C40005C91169780912C0590912D05480F591FA6
:100C50009B01220F331FCB0103E0880F991F0A95D8
:100C6000E1F7280F391FF901E05FFB4F808591857F
:100C70004817590730F4F901EC5EFB4F808184601E
:100C80008083FB01B3E0EE0FFF1FBA95E1F7660F1B
:100C9000771FE60FF71FE05FFB4F51874087F50195
:100CA00083810E94441C6C01F50186819781C816DE
:100CB000D90619F420E030E003C09601281B390B57
:100CC000F501848190E02817390718F4123009F0F3
:100CD0007AC0DB82CA82FAE0CF16D10410F4C9824E
:100CE00033C0F501658170E080E090E00E94EF1E66
:100CF00020E030E040E850EC0E94A51F20E030ECFE
:100D00004FE754E40E94EE1D9B01AC0160E070E0EF
:100D100088EC92E40E94561E7B018C01B60180E0B3
:100D200090E00E94EF1E9B01AC01C801B7010E9438
:100D3000A51F0E94C31E69836A3010F48AE003C0B5
:100D4000653610F084E689838EE395E068EF71E004
:100D50000E94F3198EE395E069814AE050E00E9419
:100D600051198EE395E060E072E00E94F3196A8108
:100D70007B818EE395E04AE050E00E9434198A813D
:100D80009B81F5019783868389818087E0910003A9
:100D9000F09101032081229526952770818183702F
:100DA000880F880F880FF5019181929596959695F9
:100DB0009170822B60E040E023E08E010F5F1F4FB7
:100DC000E92E0E940F030F900F900F90CF91DF91AB
:100DD0001F910F91FF90EF90DF90CF90BF90AF9059
:100DE0000895CF92DF92EF92FF920F931F93DF93BC
:100DF000CF9300D0CDB7DEB7F82EC0900003D090CF
:100E000001038EE395E06EE072E00E94F3198EE339
:100E100095E06F2D4AE050E00E946319F601818150
:100E2000FFEFFF1681F584FFEDC120914D043AE0FC
:100E3000239FC0011124805F9B4F9093FF028093FA
:100E4000FE022F70F6018281807F822B8283818156
:100E500085FDD8C1E0910003F09101039081929546
:100E60009695977081818370880F880F880FF6019F
:100E70006481639FB0011124892B41E050E020E0A0
:100E80000E94D700BFC184FF99C0F60182818F7094
:100E9000682F70E0FB01EE0FFF1FCB01A3E0880F6E
:100EA000991FAA95E1F7E80FF91FCF01805F9B4FCB
:100EB0009093FF028093FE0221E0F21631F4EC5E83
:100EC000FB4F80818C7F80839DC1FF2031F4EC5EDD
:100ED000FB4F80818C7F82608083FB01EE0FFF1FC0
:100EE000EE0FFF1FE60FF71FEE0FFF1FEE5EFB4F2B
:100EF0000190F081E02D3097A1F4FB01EE0FFF1F70
:100F0000CB0123E0880F991F2A95E1F7E80FF91F1D
:100F1000E05FFB4F4581568180912205909123052A
:100F200024C0DB01AA0FBB1FCB0113E0880F991F60
:100F30001A95E1F7319769F4A80FB91FA05FBB4F6D
:100F400015964D915C9116978091280590912905F1
:100F50000CC0A80FB91FA05FBB4F15964D915C91B7
:100F6000169780912C0590912D05480F591F9B01D4
:100F7000220F331FCB01E3E0880F991FEA95E1F7B9
:100F8000280F391FF901E05FFB4F808591854817D5
:100F9000590730F4F901EC5EFB4F80818460808357
:100FA000FB0133E0EE0FFF1F3A95E1F7660F771F65
:100FB000E60FF71FE05FFB4F518740878EE395E018
:100FC0006FE172E00E94F319E091FE02F091FF02DE
:100FD000658176818EE395E04AE050E00E94341905
:100FE000F60163818AEF92E070E00E9477159A83A0
:100FF00089838EE395E06AE272E00E94F3196981C9
:101000007A818EE395E04AE050E00E94D41989810C
:101010009A81FFEF8F3F9F0731F0009771F08E5F4D
:101020009F4FE1F505C08EE395E060E372E03AC0C2
:101030008EE395E06FE372E035C08EE395E06EE4F9
:1010400072E00E94F3196091FA027091FB02882706
:1010500077FD8095982F0E94F11EAB01BC018EE3B5
:1010600095E022E030E00E94DA1A8EE395E06CE52C
:1010700072E00E94F3196091FC027091FD028827D2
:1010800077FD8095982F0E94F11EAB01BC018EE385
:1010900095E022E030E00E94DA1A06C08EE395E087
:1010A0006DE672E00E94ED1A29813A81F60186818F
:1010B00097812115310591F1FFEF8D399F073CF4A0
:1010C0004FEF8D38940709F49DC0019702C08CE959
:1010D0009FEFF6019783868395E0220F331F9A9541
:1010E000E1F7F60186819781280F391F3A8329831A
:1010F000E0910003F091010390819295969597708D
:1011000081818370880F880F880F892B6FEF41E0F2
:1011100022E08E010F5F1F4FEE2472C04091FC024F
:101120005091FD029A01281B390B37FF03C03095FF
:1011300021953F4FF601858190E0281739073CF44F
:10114000F2E0FF1621F0F601818186FF1FC0F60153
:1011500057834683E0910003F0910103208122959B
:101160002695277081818370880F880F880FF6017C
:1011700091819295969596959170822B60E040E0D2
:1011800022E00CEF12E0E92E0E940F032091FA02F8
:101190003091FB02F601818592852817390719F4F1
:1011A00040E050E003C0A901481B590BF6018085BF
:1011B00090E04817590738F4F2E0FF1621F0F601E5
:1011C000818186FF1FC0F60132872187E0910003ED
:1011D000F0910103208122952695277081818370EB
:1011E000880F880F880FF6019181929596959695B4
:1011F0009170822B61E040E022E00AEF12E0E92EDC
:101200000E940F030F900F90CF91DF911F910F91CC
:10121000FF90EF90DF90CF900895CF92DF92EF9202
:101220000F931F93DF93CF930F92CDB7DEB7182F95
:10123000C0900003D09001038EE395E06BE772E06D
:101240000E94F3198EE395E0612F4AE050E00E947E
:1012500051198EE395E069E471E00E94F319D6011B
:1012600012966C9162956F708EE395E04AE050E0C3
:101270000E9451198EE395E060E571E00E94F31938
:10128000F60162816F708EE395E04AE050E00E94C3
:1012900063190E94AD001F3F09F051C0D60113969B
:1012A0008C9186958695869559F061E00E94661C22
:1012B000F601838186958695869560E00E94A51C3F
:1012C000D60114968C918F7119F061E00E94661C12
:1012D00082E060E00E94661C83E28093B0008AE0B6
:1012E0008093B1008FE48093B3001092B400F601B4
:1012F000218124FF9BC190914D049F708281807F4A
:10130000892B828325FD92C1E0910003F0910103B6
:10131000908192959695977081818370880F880F40
:10132000880FD6011A966D917C911B971C964D9152
:101330005C911D97892B20E00E94D70077C1113066
:1013400011F4F6013BC0123081F4D60112968C9153
:1013500012978F70806212968C93129713968C91CD
:101360001397887F13968C9345C0133019F016306D
:10137000F1F406C0F6018381887F8160838308C011
:10138000D60113968C911397887F826013968C9365
:10139000F6018281982F92959F70913009F446C191
:1013A0008F70933069F0D60112968C9323C014305D
:1013B00051F4F6018381887F8160838382818F70FD
:1013C0008062828317C01530A9F4D60113969C91D0
:1013D0001397892F877019F0987F13969C93F601C5
:1013E0009281892F82958F70833009F01FC19F7081
:1013F00090629283D60111968C91119784FF0DC053
:1014000012968C918F702AE0829FC0011124805F18
:101410009B4F9093FF028093FE02F6012281822F60
:1014200082958F7090E08230910509F445C0833039
:10143000910509F4C5C0892B09F0F8C02F7020610F
:10144000D60112962C93129711968C91119784FFC6
:10145000EDC0E091FE02F091FF0284818C7F8160FB
:1014600084831A964D915C911B97568345831C96F5
:101470008D919C911D9793838283009729F42091ED
:101480002205309123050BC0019729F420912805EE
:101490003091290504C020912C0530912D05240F91
:1014A000351F808591852817390718F48481846059
:1014B000848331872087BAC0F6018381869586951B
:1014C000869561E00E94A51CD60113968C91139716
:1014D000877019F416968C910AC0813019F4F601C0
:1014E000878105C0823021F4D60115968C918983BD
:1014F000898190E013E0880F991F1A95E1F76AE05F
:1015000070E00E943F206093B400F601818184FF67
:1015100033C0E091FE02F091FF0284818C7F8160F4
:101520008483D60118964D915C9119975683458313
:101530001E968D919C911F9793838283009729F427
:1015400020912205309123050BC0019729F42091A9
:1015500028053091290504C020912C0530912D05D6
:10156000240F351F808591852817390718F4848149
:101570008460848331872087F60182818F70806345
:101580008283E0910003F09101032081229526954A
:10159000277081818370880F880F880FD60111967C
:1015A0009C919295969596959170822B62E040E081
:1015B00021E08E010F5F1F4FE92E0E940F0336C0FE
:1015C0001092B400F60182818F70828383818695A8
:1015D0008695869560E00E94A51CE0910003F0913D
:1015E0000103208122952695277081818370880FC1
:1015F000880F880FD60111969C9192959695969595
:101600009170822B61E040E021E08E010F5F1F4F5F
:10161000E92E0E940F03F601818184FF07C0E0914B
:10162000FE02F091FF0284818C7F84830F90CF9122
:10163000DF911F910F91EF90DF90CF900895FF926F
:101640000F931F93082F162FF42EE02FF0E0E05099
:10165000FC4FE081F0E0EC5FFC4FF0930103E0937E
:10166000000380818F7190E08330910549F08430D0
:10167000910551F0029759F4812F0E940D0907C07E
:10168000812F0E94F10603C0812F0E945E05FF207A
:1016900049F0E0910003F0910103818183FF02C0D2
:1016A0000F5FD3CF1F910F91FF900895CF92DF92DC
:1016B000EF92FF920F931F93DF93CF9300D000D050
:1016C000CDB7DEB7182FE12EFF24A701440F551F19
:1016D0004E0D5F1D440F551FBA016D567B4FDB0148
:1016E0002C91822F8F7090E08730910509F42CC1E6
:1016F00088309105FCF48330910509F4ACC0843046
:1017000091055CF48130910509F45DC0823091054A
:101710000CF07DC0892B99F130C08530910509F41A
:10172000DDC022952F70DB011196EC9106970CF02D
:10173000F9C0B5C08B30910509F47CC18C3091059E
:101740006CF48930910509F436C122952F70DB01C4
:101750001196EC910A970CF051C10BC18D30910597
:1017600009F4B2C18D3091050CF489C18E30910518
:1017700009F4CFC10F9709F4EFC100E00FC200E0F8
:1017800022952F70DB011196EC91E170E295E07FDC
:10179000E22BF0E0E25BFB4FA081B0E0AC5FBC4F1E
:1017A000FA01EC56FB4FE081E695EF71F0E0E25B69
:1017B000FB4FE081F0E0EC5FFC4F9C91808198173B
:1017C00009F0ECC1BFC000E022952F70DB0111963B
:1017D000EC91E170E295E07FE22BF0E0E25BFB4F01
:1017E000A081B0E0AC5FBC4FFA01EC56FB4FE0814A
:1017F000E695EF71F0E0E25BFB4FE081F0E0EC5F3B
:10180000FC4F9C918081981709F09CC0C7C100E0F3
:1018100022952F70DB011196EC91E170E295E07F4B
:10182000E22BF0E0E25BFB4FA081B0E0AC5FBC4F8D
:10183000FA01EC56FB4FE081E695EF71F0E0E25BD8
:10184000FB4FE081F0E0EC5FFC4F9C9180818917B9
:1018500008F0A4C177C000E022952F70DB0111963B
:10186000EC91E170E295E07FE22BF0E0E25BFB4F70
:10187000A081B0E0AC5FBC4FFA01EC56FB4FE081B9
:10188000E695EF71F0E0E25BFB4FE081F0E0EC5FAA
:10189000FC4F9C918081981708F480C153C000E0F0
:1018A000E170E295E07FE22BF0E0E25BFB4FA0818C
:1018B000B0E0AC5FBC4FFA01EC56FB4FE081E6951F
:1018C000EF71F0E0E25BFB4FE081F0E0EC5FFC4F9A
:1018D0009C918081981708F061C134C000E0229586
:1018E0002F70DB011196EC91E170E295E07FE22B25
:1018F000F0E0E25BFB4FA081B0E0AC5FBC4FFA01CF
:10190000EC56FB4FE081E695EF71F0E0E25BFB4FB8
:10191000E081F0E0EC5FFC4F9C918081891708F436
:101920003DC110C000E0E170E295E07FE22BF0E005
:10193000E25BFB4FE081F0E0EC5FFC4F80818823AD
:1019400009F02CC101E02AC122952F70DB0111960C
:10195000EC91E170E295E07FE22BF0E0E25BFB4F7F
:10196000E081F0E0EC5FFC4F8081882391F460E03F
:10197000A9C0E170E295E07FE22BF0E0E25BFB4F73
:10198000E081F0E0EC5FFC4F8081882311F061E0A2
:1019900099C0FA01EC56FB4FE081E695EF71F0E05B
:1019A000E25BFB4FE081F0E0EC5FFC4FE081E11196
:1019B000E1E06E2F87C0FA01EC56FB4FE081E6951F
:1019C000EF71F0E0E25BFB4FA0818A2F90E08C5F2B
:1019D0009C4F22952F70DB011196EC91E170E295FE
:1019E000E07FE22BF0E0E25BFB4FE081F0E0EC5FB8
:1019F000FC4FDC010C918081080FD0C0E170E295B2
:101A0000E07FE22BF0E0E25BFB4FA081B0E0AC5F57
:101A1000BC4FFA01EC56FB4FE081E695EF71F0E028
:101A2000E25BFB4FE081F0E0EC5FFC4F0C918081CA
:101A3000081BB4C0FA01EC56FB4FE081E695EF714C
:101A4000F0E0E25BFB4FA0818A2F90E08C5F9C4F1F
:101A500022952F70DB011196EC91E170E295E07F09
:101A6000E22BF0E0E25BFB4FE081F0E0EC5FFC4F4B
:101A7000DC019C918081989F002D11248FC02295BC
:101A80002F70DB011196EC91E170E295E07FE22B83
:101A9000F0E0E25BFB4FA081B0E0AC5FBC4FFA012D
:101AA000EC56FB4FE081E695EF71F0E0E25BFB4F17
:101AB000E081F0E0EC5FFC4F60818C9190E070E0A1
:101AC0000E942B20062F6AC022952F70DB011196F1
:101AD000EC91E170E295E07FE22BF0E0E25BFB4FFE
:101AE000A081B0E0AC5FBC4FFA01EC56FB4FE08147
:101AF000E695EF71F0E0E25BFB4FE081F0E0EC5F38
:101B0000FC4F60818C9190E070E00E942B20082FA8
:101B100045C0FA01EC56FB4FE081E695EF71F0E02D
:101B2000E25BFB4FA0818A2F90E08C5F9C4F229557
:101B30002F70DB011196EC91E170E295E07FE22BD2
:101B4000F0E0E25BFB4FE081F0E0EC5FFC4FDC019A
:101B50000C918081082322C0FA01EC56FB4FE081F2
:101B6000E695EF71F0E0E25BFB4FA0818A2F90E0F9
:101B70008C5F9C4F22952F70DB011196EC91E170E8
:101B8000E295E07FE22BF0E0E25BFB4FE081F0E0EA
:101B9000EC5FFC4FDC010C918081082B8EE395E01B
:101BA00069E872E00E94F3198EE395E0612F4AE044
:101BB00050E00E9451198EE395E06EE872E00E94B9
:101BC000F3198EE395E0602F4AE050E00E9451192E
:101BD0008EE395E067E972E00E94F319F701EE0FDA
:101BE000FF1FEE0DFF1DEE0FFF1FFA83E9836F014C
:101BF00083E994E0C80ED91ED6018C9182958F702E
:101C00001196EC91E170E295E07FE82BF0E0E25B69
:101C1000FB4FE081F0E0EC5FFC4F8EE395E06081EC
:101C20004AE050E00E9451198EE395E06FE972E0BE
:101C30000E94F319E981FA81EC56FB4FFC83EB8398
:101C4000E081E695EF71F0E0E25BFB4FE081F0E0D0
:101C5000EC5FFC4F8EE395E060814AE050E00E942B
:101C60006319AB81BC818C91829586958695837032
:101C700011969C919370990F990F982B892F865FDD
:101C80008F70823038F4D6011496EC91F0E0E25B6C
:101C9000FB4F0083002381F1913031F0933021F02C
:101CA000953011F0963071F4F701EE0FFF1FEE0D35
:101CB000FF1DEE0FFF1FED56FB4F8481658140E055
:101CC0000E941F0BF701EE0FFF1FEE0DFF1DEE0F21
:101CD000FF1FEC56FB4F8081829586958695837019
:101CE00091819370990F990F982B923039F094301D
:101CF00029F0953019F033C0933071F4F701EE0FED
:101D0000FF1FEE0DFF1DEE0FFF1FEB56FB4F108167
:101D1000169516951695D7CC943059F4F701EE0F19
:101D2000FF1FEE0DFF1DEE0FFF1FED56FB4F148141
:101D3000CACC9630A1F4F701EE0FFF1FEE0DFF1D88
:101D4000EE0FFF1FDF01AB56BB4F6C91669566959A
:101D50006695ED56FB4F838140E00E941F0B0F906C
:101D60000F900F900F90CF91DF911F910F91FF90E7
:101D7000EF90DF90CF9008951F931091FE03A091F4
:101D8000E702B091E802E0910003F091010370E0F6
:101D900060E035C0E72FF0E0EC5FFC4F5081852F0D
:101DA00082958695877041814370440F440F440F9C
:101DB000482B242F30E013968C91139790E028172E
:101DC000390759F4F0930103E0930003842F14962C
:101DD0006C9140E00E941F0B18C0852F8F718330DB
:101DE00029F0843039F0823039F402C08BE005C02C
:101DF00080E103C08DE001C080E0780F6F5F611764
:101E000048F2F0930103E09300031F9108958F922D
:101E10009F92AF92BF92CF92DF92EF92FF920F9379
:101E20001F9380904C04F090310590901E05A09077
:101E30001F05B0902805C0902905D0902C05E09092
:101E40002D056091FE027091FF02A2E1B4E040E036
:101E500050E005C1142F052FCA01BC01F3E0660F45
:101E6000771FFA95E1F7880F991F680F791F605F58
:101E70007B4FCA01FC0133E0EE0FFF1F3A95E1F7FB
:101E8000880F991FE80FF91FEC5EFB4F808183706C
:101E900009F4E2C0CA01FC0133E0EE0FFF1F3A95DE
:101EA000E1F7880F991FE80FF91FEC5EFB4F808167
:101EB00082FF31C08D919C911197892B99F4FF205D
:101EC00009F4CAC0CA01FC0133E0EE0FFF1F3A95C6
:101ED000E1F7880F991FE80FF91FEC5EFB4F808137
:101EE0008B7F80838D919C9111970197A1F4FF20A6
:101EF00009F4B2C0812F902FFC0133E0EE0FFF1FD9
:101F00003A95E1F7880F991FE80FF91FEC5EFB4F38
:101F100080818B7F80838D919C911197009719F41C
:101F2000892D9A2D07C0019719F48B2D9C2D02C085
:101F30008D2D9E2D9C0116968D919C91179728179B
:101F4000390708F489C07093FF026093FE02812F65
:101F5000902FFC0153E0EE0FFF1F5A95E1F7880F19
:101F6000991FE80FF91FEC5EFB4F80818370813071
:101F700091F4812F902FFC01B3E0EE0FFF1FBA9573
:101F8000E1F7880F991FE80FF91FEC5EFB4F808186
:101F90008C7F808336C0812F902FFC0173E0EE0F81
:101FA000FF1F7A95E1F7880F991FE80FF91FE05F8F
:101FB000FB4F85819681280F391F2817390788F430
:101FC000812F902FFC0153E0EE0FFF1F5A95E1F790
:101FD000880F991FE80FF91FEC5EFB4F808184602A
:101FE0008083812F902FFC01B3E0EE0FFF1FBA9585
:101FF000E1F7880F991FE80FF91FE05FFB4F31876A
:102000002087812F902FFC0173E0EE0FFF1F7A9540
:10201000E1F7880F991FE80FF91FE05FFB4F9081F0
:1020200092959695977081818170880F880F880F9F
:10203000212F302FF90153E0EE0FFF1F5A95E1F7E2
:10204000220F331FE20FF31FE05FFB4F892B6781E5
:1020500041E00E941F0B0AC04F5F5F4F1A96481560
:1020600008F4F8CE7093FF026093FE021F910F9167
:10207000FF90EF90DF90CF90BF90AF909F908F90A8
:102080000895CF92DF92EF92FF920F931F93DF9309
:10209000CF9300D0CDB7DEB71A8219828DE395E0D9
:1020A0006FEF73E00E9464158093E3028DE395E087
:1020B0006EEF73E00E9464158093E40269817A8177
:1020C0006F5F7F4F7A836983615070408DE395E045
:1020D0000E946415082F1092FF0314C06F5F7F4F9A
:1020E0007A836983615070408DE395E00E946415A6
:1020F000E12FF0E0EC5FFC4F80838091FF038F5F66
:102100008093FF031091FF0369817A81101730F3E8
:102110006F5F7F4F7A836983615070408DE395E0F4
:102120000E946415082F10925F0419EFE12EF12C24
:1021300015C06F5F7F4F7A836983615070408DE374
:1021400095E00E946415F701E11BF109EC5FFC4F7B
:10215000808380915F048F5F80935F0410915F04A0
:1021600069817A81101728F36F5F7F4F7A836983C3
:10217000615070408DE395E00E946415082F109225
:102180005E0414C06F5F7F4F7A8369836150704033
:102190008DE395E00E946415E12FF0E0E25BFB4FD8
:1021A000808380915E048F5F80935E0410915E0453
:1021B00069817A81101730F36F5F7F4F7A8369836B
:1021C000615070408DE395E00E9464158093920405
:1021D000FF24B5E0EB2E0FC06F5F7F4F7A836983DA
:1021E000615070408DE395E00E946415005A1B4FCA
:1021F000F8018083F3940F2D10E0809192048E9D5E
:10220000C001112469817A810817190728F36F5FCB
:102210007F4F7A836983615070408DE395E00E941F
:1022200064158093CF0486E0F89E7001112483E941
:1022300094E0E80EF91EDD24A6E0CA2E11C06981E3
:102240007A816F5F7F4F7A836983615070408DE33D
:1022500095E00E9464150E0D1F1DF8018083D39434
:102260000D2D10E08091CF048C9DC0011124081722
:10227000190728F310E036C0EC5FFC4FF093010320
:10228000E093000390819295969597708181837079
:10229000880F880F880F892B6FEF40E00E941F0B7B
:1022A000E0910003F091010380818295869587700B
:1022B00091819370990F990F990F982B933029F072
:1022C000943039F0923039F402C08BE005C080E1DF
:1022D00003C08DE001C080E0180F8091FE038F5F86
:1022E0008093FE03E12FF0E09F012F5F3F4F80912D
:1022F000FF0390E0281739070CF4BECF10E034C07C
:10230000FA01EC5FFC4FF0930103E093000391812D
:1023100097FF0DC080818295869587709370990F85
:10232000990F990F892B60E040E00E941F0BE0910C
:102330000003F091010380818295869587709181D9
:102340009370990F990F990F982B933029F094302F
:1023500039F0923039F402C08BE005C080E103C04F
:102360008DE001C080E0180F412F50E09A012F5FEF
:102370003F4F8091FF0390E0281739070CF28091BE
:10238000E402823050F080E063E041E022E08E0120
:102390000F5F1F4FEE240E940F030F900F90CF91FD
:1023A000DF911F910F91FF90EF90DF90CF900895F4
:1023B000EF920F931F93CF93DF93E091E702F09199
:1023C000E80213818EE395E068EA72E00E94ED1A5C
:1023D000E091E502F091E6021282A091E702B0914D
:1023E000E8021630E8F514960C911497112319F4AD
:1023F00004E013E02AC0113039F48AE0089F80011C
:102400001124005F1B4F21C0123039F485E0089F72
:1024100080011124005A1B4F18C0133039F486E094
:10242000089F800111240D561B4F0FC0E02FF0E0D4
:10243000143021F48F01025B1B4F07C0E25BFB4F9E
:102440008081082F10E00C5F1C4F15968C9115971A
:10245000080F111D80E064E041E016962C9159C0F0
:1024600015968C9115971092350580933605149624
:102470008C918093350510923605EE242FC08DE3A4
:1024800095E00E946415CE0DD11D8C83E3940E2D32
:1024900010E0015010408EE395E0B8014AE050E0B2
:1024A0000E94C1198EE395E06AE671E00E94F3197B
:1024B000E091E502F091E602E00FF11F8EE395E076
:1024C00064814AE050E00E94631980913505909143
:1024D0003605019690933605809335056091350554
:1024E00070913605CB010297E091E702F091E80286
:1024F0002081820F911DC091E502D091E6026817FC
:10250000790708F4BCCF249680E064E041E02E2DEA
:102510008E01EE240E940F03DF91CF911F910F9146
:10252000EF900895EF920F931F93DF93CF930F9245
:10253000CDB7DEB720912205309123058091330578
:1025400090913405A901481B590BCA01815D974040
:1025500010F010921B0580911A0590E08C509B4F53
:102560009093E8028093E70230933405209333057B
:102570008EE395E00E945617682F89838EE395E0DD
:102580000E94681820911B05222341F489818A3317
:1025900009F076C081E080931B0572C02130B1F450
:1025A0009981892F8253883070F4E091E702F0918D
:1025B000E8029053908382E080931B0510921D05E2
:1025C00010921C055DC010921B055AC0223008F401
:1025D00057C08981805389832E3F08F047C0E0911E
:1025E000E702F091E802E20FF11D319780838091BC
:1025F0001B058F5F80931B05E091E702F091E802D5
:10260000E0812E2F30E090E028173907CCF580913B
:102610001A05280F311D2831310520F48E0F8093C3
:102620001A0502C010921A0590911A058091190599
:10263000981751F480E060E041E020E08E010F5FE8
:102640001F4FEE240E940F038EE395E067EB72E0CC
:102650000E94F3198EE395E060911B054AE050E07B
:102660000E94631910921B0581E02AC0992787FDFB
:10267000909590931D0580931C052F5F20931B055B
:102680008EE395E06FEB72E00E94F319E091E702B0
:10269000F091E8028EE395E060814AE050E00E940C
:1026A00063198EE395E067EB72E00E94F3198EE305
:1026B00095E060911B054AE050E00E94631980E0BC
:1026C0000F90CF91DF911F910F91EF900895CF93CD
:1026D000DF930E94631B60931E0570931F05809318
:1026E000200590932105EB0170932305609322054B
:1026F00024E630E040E050E00E945220DA01C901B7
:10270000F901309329052093280568E671E00E94BD
:102710002B2070932D0560932C05809124059091BA
:102720002505C817D907E0F441E0409331058091B1
:102730002A0590912B05E817F90778F440933005A6
:1027400080912E0590912F056817790718F4409312
:10275000320508C01092320505C01092300502C043
:102760001092310580912605909127059E01281B26
:10277000390B83E0283E380708F43FC080914E04AF
:10278000E82FF0E0C90168EE73E00E942B20EC5FB7
:10279000FC4F8081860F80838C3358F18C5380836B
:1027A00080914F04E82FF0E0EC5FFC4F9081892F7F
:1027B0008F5F80838C33E8F09B539083809150042B
:1027C000E82FF0E0EC5FFC4F9081892F8F5F8083D2
:1027D000883178F09751908380915104E82FF0E090
:1027E000EC5FFC4F80818F5F8083883010F081E048
:1027F0008083D0932705C09326050E94070F8EE3A0
:1028000095E00E943A17892B11F00E949212909144
:10281000190580911A05981721F18EE395E065EC72
:1028200072E00E94ED1A8091190590E08C509B4F48
:102830009093E8028093E70280E00E94FB012091E0
:102840001905822F90E0FC01EC50FB4FE0818E0FC8
:10285000911D489720F4E20FE093190502C01092F1
:102860001905809122059091230590932505809369
:102870002405809128059091290590932B0580933C
:102880002A0580912C0590912D0590932F0580931A
:102890002E05DF91CF910895DF93CF93CDB7DEB7AB
:1028A00066970FB6F894DEBF0FBECDBF8EE395E0FE
:1028B00040E051EE60E070E00E94BC168EE395E0CF
:1028C00040E051EE60E070E00E94BC168EE395E0BF
:1028D00040E051EE60E070E00E94BC168EE395E0AF
:1028E00069EC72E00E94ED1A90915E0420915F0401
:1028F000E92FF0E0E25BFB4F39EF832F821B8083EF
:102900009F5F2F5FE92FF0E0E25BFB4F832F821B7D
:1029100080839F5F2F5FE92FF0E0E25BFB4F832F07
:10292000821B80839F5F2F5FE92FF0E0E25BFB4F0C
:10293000321B30839F5F90935E042F5F20935F0470
:102940002091FF03209305048091FE038F5F809305
:10295000FE03FE01319686E1DF011D928A95E9F7BB
:1029600085EA89838A818C7F846D8A838C818770D4
:1029700080648C838D81807E89608D8381E090E08E
:102980009F838E8380E5898784E690E09B878A8792
:102990009D878C8788EC90E09F878E8784EF91E0FD
:1029A000998B888BA22FB0E0AC5FBC4F86E1019081
:1029B0000D928150E1F785E06FEF40E00E941F0B20
:1029C00082E4809393048AE08093940480E180936E
:1029D000950481E0809397041092980482E4809398
:1029E00099048CE480939A0410929B0493E0909352
:1029F0009D0486E080939E0482E880939F048EE885
:102A00008093A0049093A20481E18093A104909309
:102A1000A3049093A40482E78093A50480E58093A7
:102A2000A6041092A7049093A90485E08093AA04B9
:102A30008091E3028093600482E28093610481E4E8
:102A40008093620489E08093630480916404887FAA
:102A500080936404809192048F5F8093920485E058
:102A600062E040E00E941F0B66960FB6F894DEBF4E
:102A70000FBECDBFCF91DF9108951F920F920FB679
:102A80000F9211242F933F934F935F936F937F93F4
:102A90008F939F93AF93BF93EF93FF93E0913B0589
:102AA000F0913C050995FF91EF91BF91AF919F91F6
:102AB0008F917F916F915F914F913F912F910F90E7
:102AC0000FBE0F901F901895F999FECF72BD61BD92
:102AD000F89A80B50895F999FECF1FBA72BD61BD0D
:102AE00040BD0FB6F894FA9AF99A0FBE08952F9246
:102AF0003F925F926F927F928F929F92AF92BF921E
:102B0000CF92DF92EF92FF920F931F93DF93CF93B9
:102B100000D000D00F92CDB7DEB73C01962E1982BF
:102B20001A821B821C821D82862F61E00E94661C15
:102B3000892D60E00E94A51C62E170E080E090E0D9
:102B40000E94DC1B892D61E00E94A51C88E290E0B8
:102B50000E94971B892D60E00E94661C00E117E22D
:102B600005C001151105A1F101501040892D0E94E9
:102B7000F91C892BB1F300E117E205C0011511051D
:102B800039F101501040892D0E94F91C0197B1F3D1
:102B900006C001151105E1F0015010400AC027E000
:102BA000822E5524AA24BB2491E0292E312C00E149
:102BB00017E2892D0E94F91C892B59F30E94711B81
:102BC0006B017C0100E117E208C00115110519F441
:102BD0002EEF3FEF41C001501040892D0E94F91C9B
:102BE000019799F30E94711B6C197D098E099F0949
:102BF000693271058105910580F0E1E0F0E0EC0FAC
:102C0000FD1FE50DF11D9101082C02C0220F331F9D
:102C10000A94E2F78081822B8083882021F45394E8
:102C200087E0882E01C08A940894A11CB11C88E218
:102C3000A816B10409F0BBCF8981F301808311820A
:102C40009B8192831382980F8D81891719F420E05C
:102C500030E002C02FEF3FEFC9010F900F900F90AF
:102C60000F900F90CF91DF911F910F91FF90EF90F8
:102C7000DF90CF90BF90AF909F908F907F906F909C
:102C80005F903F902F90089508951F920F920FB676
:102C90000F9211242F933F934F938F939F93EF9312
:102CA000FF938091C00082FD19C04091C6008091C1
:102CB0005C05282F30E02F5F3F4F2F7330708091DD
:102CC0005D0590E02817390759F0E0915C05F0E0C8
:102CD000E25CFA4F42A320935C0502C08091C600DB
:102CE000FF91EF919F918F914F913F912F910F9075
:102CF0000FBE0F901F90189580915C0520915D0587
:102D000090E0805C9F4F821B91098F739070892B9C
:102D100011F00E94441608951F920F920FB60F9261
:102D200011242F938F939F93EF93FF9390915E05C0
:102D300080915F05981731F48091C1008F7D809359
:102D4000C10010C0E0915F05F0E0E056FA4F20812D
:102D500080915F0590E001968F73907080935F057E
:102D60002093C600FF91EF919F918F912F910F902B
:102D70000FBE0F901F901895AF92BF92DF92EF9207
:102D8000FF920F931F93CF93DF93EC017A018B0196
:102D9000DD24D39491E0A92EB12CE889F989DD20B6
:102DA00069F0C5010C8C02C0880F991F0A94E2F7E4
:102DB000808360E874E88EE190E005C0108260E4F2
:102DC00072E48FE090E0A80197010E945220215008
:102DD000304040405040569547953795279580E1C3
:102DE0002030380720F0DD2011F0DD24D6CFEC852F
:102DF000FD853083EE85FF8520831D8EEA89FB8962
:102E0000408121E030E0C901088C02C0880F991F81
:102E10000A94E2F7482B4083EA89FB894081C90183
:102E2000098C02C0880F991F0A94E2F7482B40834F
:102E3000EA89FB894081C9010A8C02C0880F991F69
:102E40000A94E2F7482B4083EA89FB8980810B8C46
:102E500002C0220F331F0A94E2F720952823208313
:102E6000DF91CF911F910F91FF90EF90DF90BF9076
:102E7000AF900895FC01268D878D30E0205C3F4F98
:102E8000281B31092F733070C9010895FC01968DFC
:102E9000878D981719F42FEF3FEF06C0878DE80F45
:102EA000F11D82A1282F30E0C9010895DC015E9652
:102EB0009C915E975F968C915F97981719F42FEF0E
:102EC0003FEF10C05F968C915F97FD01E80FF11DF9
:102ED00092A15F968C915F978F5F8F735F968C93B3
:102EE000292F30E0C9010895DC015D968C915D9732
:102EF000882339F05096ED91FC915197808186FF9F
:102F0000F9CF5D961C920895DC0190968C91909774
:102F1000282F30E02F5F3F4F2F73307091968C91A8
:102F2000919790E028173907C9F390968C91909764
:102F3000FD01E80FF11DEE59FF4F608390962C9331
:102F400090975296ED91FC915397208181E090E00B
:102F50005B960C905B9702C0880F991F0A94E2F76A
:102F6000282B208381E05D968C935D975096ED91A0
:102F7000FC91519780818064808381E090E0089586
:102F8000109241051092400588EE93E0A0E0B0E079
:102F90008093420590934305A0934405B093450563
:102FA0008EEE92E090933F0580933E0510925F0570
:102FB00080915F0580935E0510925D0580915D05AF
:102FC00080935C0585EC90E090934B0580934A05D7
:102FD00084EC90E090934D0580934C0580EC90E05C
:102FE00090934F0580934E0581EC90E090935105AE
:102FF0008093500582EC90E09093530580935205A6
:1030000086EC90E0909355058093540584E080937E
:10301000560583E08093570587E08093580585E047
:103020008093590581E080935A050895CF92DF92ED
:10303000EF92FF920F931F93CF93DF937C016B016D
:103040008A01C0E0D0E00FC0D6016D916D01D701BB
:10305000ED91FC910190F081E02DC7010995C80F19
:10306000D91F015010400115110571F7CE01DF91F4
:10307000CF911F910F91FF90EF90DF90CF90089527
:10308000DC01ED91FC910190F081E02D099508950E
:10309000EF92FF920F931F938C01DC01ED91FC9155
:1030A0000190F081E02D6DE009957C01D801ED9152
:1030B000FC910190F081E02DC8016AE009959C0126
:1030C0002E0D3F1DC9011F910F91FF90EF900895A4
:1030D000EF92FF920F931F937C01DC01ED91FC9125
:1030E0000190F081E02D09958C01C7010E944818DC
:1030F000080F191FC8011F910F91FF90EF900895BD
:10310000CF93DF93EC016115710519F420E030E0F5
:103110000FC0DB010D900020E9F71197A61BB70B3C
:10312000E881F9810280F381E02DAD0109959C01D0
:10313000C901DF91CF9108954F925F927F928F9254
:103140009F92AF92BF92CF92DF92EF92FF920F9336
:103150001F93DF93CF93CDB7DEB7A1970FB6F89447
:10316000DEBF0FBECDBF2C01742ECB01223008F480
:103170002AE019A231E2C32ED12CCC0EDD1E822E04
:103180009924AA24BB24672D752FA50194010E94C0
:10319000522079018A01C801B701A50194010E945A
:1031A0000C20472D461B0894C108D1084A3014F45E
:1031B000405D01C0495CF6014083E114F104010562
:1031C000110521F07E2C5F2DC801DDCFC201B601B3
:1031D0000E948018A1960FB6F894DEBF0FBECDBF37
:1031E000CF91DF911F910F91FF90EF90DF90CF90E3
:1031F000BF90AF909F908F907F905F904F90089579
:10320000DC012115310541F4ED91FC910190F08133
:10321000E02D642F099508950E949C180895EF925F
:10322000FF920F931F937C010E9400198C01C7012C
:103230000E9448189C01200F311FC9011F910F9156
:10324000FF90EF900895EF92FF920F931F939A01D2
:103250007B0100E010E0B801A7010E9400191F9156
:103260000F91FF90EF900895CF92DF92EF92FF922F
:103270000F931F936C017B019A0100E010E0B801ED
:10328000A7010E9400198C01C6010E944818080F6E
:10329000191FC8011F910F91FF90EF90DF90CF9001
:1032A0000895EF92FF920F931F939A01E62EFF2449
:1032B00000E010E0B801A7010E9400191F910F91D2
:1032C000FF90EF900895CF92DF92EF92FF920F93CD
:1032D0001F936C01E62E9A01FF2400E010E0B80174
:1032E000A7010E9400198C01C6010E944818080F0E
:1032F000191FC8011F910F91FF90EF90DF90CF90A1
:103300000895CF92DF92EF92FF920F931F93CF9386
:10331000DF93EC016A017B012115310541F4E8815D
:10332000F9810190F081E02D642F09951FC02A30AA
:103330003105D1F477FF17C0E881F9810190F08160
:10334000E02D6DE209958C0144275527BA014C19EF
:103350005D096E097F09CE012AE00E949C18980140
:10336000280F391F04C02AE00E949C189C01C90143
:10337000DF91CF911F910F91FF90EF90DF90CF9051
:103380000895EF92FF920F931F937B019A010027FC
:10339000F7FC0095102FB801A7010E9481191F9119
:1033A0000F91FF90EF900895CF92DF92EF92FF92EE
:1033B0000F931F936C017B019A010027F7FC009586
:1033C000102FB801A7010E9481198C01C6010E942B
:1033D0004818080F191FC8011F910F91FF90EF9017
:1033E000DF90CF9008950E94801808957F928F9269
:1033F0009F92AF92BF92CF92DF92EF92FF920F9384
:103400001F93CF93DF934C017A018B01722ECB0176
:10341000BA01A80197010E940820882321F0C40165
:1034200065ED72E021C0C0E0D0E057016801E8948A
:10343000D7F8C601B5012FEF3FEF4FE75FE70E94D6
:103440000820882351F4C601B5012FEF3FEF4FE765
:103450005FE70E94521E181614F0C1E0D0E02197D9
:1034600039F0C40169ED72E00E948018EC0193C04C
:10347000C801B7012FEF3FEF4FE75FE40E94A11FA4
:10348000181654F0C801B7012FEF3FEF4FE75FEC7C
:103490000E94521E882324F4C4016DED72E0E4CF33
:1034A000C801B70120E030E040E050E00E94521E29
:1034B00087FD03C0C0E0D0E00EC0D401ED91FC91C7
:1034C0000190F081E02DC4016DE20995EC0117FB3C
:1034D000109517F9109520E030E040E05FE3DD241F
:1034E0000BC0CA01B90120E030E040E251E40E9483
:1034F000561E9B01AC01D394D71498F3C801B701B1
:103500000E94EE1D5B016C010E94C31E7B018C01B9
:10351000C401B801A7012AE030E00E940019C80FD9
:10352000D91F772039F0C40161EE72E00E94801843
:10353000C80FD91FC801B7010E94EF1E9B01AC0143
:10354000C601B5010E94ED1D24C020E030E040E23C
:1035500051E40E94A51F7B018C010E94BE1E5B01ED
:103560006C01CC24B7FCC094DC2CC401B601A501CD
:103570002AE030E00E948119C80FD91FC601B501A9
:103580000E94F11E9B01AC01C801B7010E94ED1D14
:103590007A947720D1F6CE01DF91CF911F910F91D0
:1035A000FF90EF90DF90CF90BF90AF909F908F9063
:1035B0007F900895EF92FF920F931F937C010E94DA
:1035C000F6198C01C7010E944818080F191FC8017D
:1035D0001F910F91FF90EF900895EF92FF920F933C
:1035E0001F937C010E9480188C01C7010E9448181B
:1035F000080F191FC8011F910F91FF90EF900895B8
:10360000CF93DF930E94A11B0E944C14CCE7D6E11C
:103610000E9467132097E1F30E947C16F9CF1F9256
:103620000F920FB60F9211242F933F934F935F93F6
:103630006F937F938F939F93AF93BF932091E405F4
:103640003091E5054091E6055091E7057091E80558
:10365000DA01C9010296A11DB11D672F6A5F6D379E
:1036600030F06D57DA01C9010396A11DB11D6093B9
:10367000E8058093E4059093E505A093E605B093F3
:10368000E7058091E0059091E105A091E205B091F8
:10369000E3050196A11DB11D8093E0059093E1051E
:1036A000A093E205B093E305BF91AF919F918F91F5
:1036B0007F916F915F914F913F912F910F900FBE2E
:1036C0000F901F9018958FB7F8942091E4053091D2
:1036D000E5054091E6055091E7058FBFB901CA01A4
:1036E00008959FB7F8942091E0053091E10540914D
:1036F000E2055091E30586B5A89B06C08F3F21F0F7
:103700002F5F3F4F4F4F5F4F9FBF542F432F322F9D
:103710002227280F311D411D511D83E0220F331F29
:10372000441F551F8A95D1F7B901CA010895019721
:1037300039F0019729F0880F991F01970197F1F748
:103740000895789484B5826084BD84B5816084BD19
:1037500085B5826085BD85B5816085BDEEE6F0E00A
:10376000808181608083E1E8F0E010828081826066
:103770008083808181608083E0E8F0E080818160E7
:103780008083E1EBF0E0808184608083E0EBF0E017
:10379000808181608083EAE7F0E0808184608083BB
:1037A0008081826080838081816080838081806865
:1037B00080831092C1000895EF92FF920F931F93A0
:1037C000CF93DF937B018C013FB7F8948091E005A4
:1037D0009091E105A091E205B091E30526B5A89B83
:1037E00005C02F3F19F00196A11DB11D3FBFBA2F93
:1037F000A92F982F8827820F911DA11DB11D53E07D
:10380000880F991FAA1FBB1F5A95D1F7EC0130C032
:103810000E94EC1D3FB7F8948091E0059091E1057E
:10382000A091E205B091E30526B5A89B05C02F3F06
:1038300019F00196A11DB11D3FBFBA2FA92F982FD6
:103840008827820F911DA11DB11D33E0880F991F9C
:10385000AA1FBB1F3A95D1F78C1B9D0B885E934026
:10386000B8F20894E108F10801091109C851DC4FC8
:10387000E114F1040105110559F6DF91CF911F9173
:103880000F91FF90EF900895982F8E3008F09E5082
:1038900097708091E9028295880F880F807C892B30
:1038A00080937C0080917A00806480937A0080917C
:1038B0007A0086FDFCCF2091780040917900942F0A
:1038C00080E030E0282B392BC9010895CF93DF9396
:1038D000482F50E0CA0186569F4FFC0134914A5749
:1038E0005F4FFA018491882369F190E0880F991F56
:1038F000FC01E859FF4FA591B491FC01EE58FF4F30
:10390000C591D491662351F42FB7F8948C91932FDD
:10391000909589238C93888189230BC0623061F450
:103920002FB7F8948C91932F909589238C9388814D
:10393000832B88832FBF06C09FB7F8948C91832B6D
:103940008C939FBFDF91CF910895482F50E0CA011B
:1039500082559F4FFC012491CA0186569F4FFC015E
:1039600094914A575F4FFA013491332309F440C0D0
:10397000222351F1233071F0243028F42130A1F0BA
:10398000223011F514C02630B1F02730C1F02430B8
:10399000D9F404C0809180008F7703C080918000AB
:1039A0008F7D8093800010C084B58F7702C084B56E
:1039B0008F7D84BD09C08091B0008F7703C0809156
:1039C000B0008F7D8093B000E32FF0E0EE0FFF1F7B
:1039D000EE58FF4FA591B4912FB7F894662321F4C8
:1039E0008C919095892302C08C91892B8C932FBF49
:1039F0000895682F70E0CB0182559F4FFC01249100
:103A0000CB0186569F4FFC0144916A577F4FFB01C3
:103A10009491992319F420E030E03CC0222351F125
:103A2000233071F0243028F42130A1F0223011F538
:103A300014C02630B1F02730C1F02430D9F404C0CE
:103A4000809180008F7703C0809180008F7D80936C
:103A5000800010C084B58F7702C084B58F7D84BD8F
:103A600009C08091B0008F7703C08091B0008F7D36
:103A70008093B000892F90E0880F991F84589F4F42
:103A8000FC01A591B4918C9120E030E0842311F0E9
:103A900021E030E0C90108958F929F92AF92BF92CA
:103AA000CF92DF92EF92FF920F931F93CF93DF930A
:103AB000A82FB0E0CD0186569F4FFC018490AA57F5
:103AC000BF4FFD018491662311F4992401C0982C05
:103AD00059016A0133E0AA0CBB1CCC1CDD1C3A95D1
:103AE000D1F724E0D694C794B794A7942A95D1F738
:103AF000682F70E0660F771F64587F4FEE24FF2415
:103B00008701FB01A591B4910BC0EA14FB040C05DD
:103B10001D0509F44EC00894E11CF11C011D111D86
:103B20008C918821891589F30CC0EA14FB040C05DB
:103B30001D0509F43EC00894E11CF11C011D111D76
:103B400003C0FB01A591B4918C918821891569F777
:103B500020E030E040E050E0FB01C591D4910FC07F
:103B6000DA01C9018E0D9F1DA01FB11F8A159B058B
:103B7000AC05BD05F1F02F5F3F4F4F4F5F4F888180
:103B80008821891569F3CA01B90125E130E040E0D7
:103B900050E00E940C209B01AC01205F3F4F4F4F33
:103BA0005F4F83E056954795379527958A95D1F7CE
:103BB00004C020E030E040E050E0B901CA01DF91EC
:103BC000CF911F910F91FF90EF90DF90CF90BF901A
:103BD000AF909F908F90089508955058BB27AA27C3
:103BE0000ED075C166D130F06BD120F031F49F3F1B
:103BF00011F41EF45BC10EF4E095E7FB51C1E92F0F
:103C000077D180F3BA17620773078407950718F016
:103C100071F49EF58FC10EF4E0950B2EBA2FA02DF6
:103C20000B01B90190010C01CA01A0011124FF2769
:103C3000591B99F0593F50F4503E68F11A16F04064
:103C4000A22F232F342F4427585FF3CF4695379563
:103C50002795A795F0405395C9F77EF41F16BA0B28
:103C6000620B730B840BBAF09150A1F0FF0FBB1FD6
:103C7000661F771F881FC2F70EC0BA0F621F731F1F
:103C8000841F48F4879577956795B795F7959E3F7C
:103C900008F0B3CF9395880F08F09927EE0F97950A
:103CA00087950895D9D008F481E008950CD00FC10C
:103CB00007D140F0FED030F021F45F3F19F0F0C0A2
:103CC000511139C1F3C014D198F39923C9F3552385
:103CD000B1F3951B550BBB27AA27621773078407FF
:103CE00038F09F5F5F4F220F331F441FAA1FA9F3B5
:103CF00033D00E2E3AF0E0E830D091505040E695A7
:103D0000001CCAF729D0FE2F27D0660F771F881F07
:103D1000BB1F261737074807AB07B0E809F0BB0BF6
:103D2000802DBF01FF2793585F4F2AF09E3F51051A
:103D300068F0B6C000C15F3FECF3983EDCF38695B7
:103D400077956795B795F7959F5FC9F7880F911D90
:103D50009695879597F90895E1E0660F771F881F7C
:103D6000BB1F621773078407BA0720F0621B730B2F
:103D7000840BBA0BEE1F88F7E095089504D0689481
:103D8000B111D9C00895BCD088F09F5790F0B92FD9
:103D90009927B751A0F0D1F0660F771F881F991FA0
:103DA0001AF0BA95C9F712C0B13081F0C3D0B1E0B2
:103DB0000895C0C0672F782F8827B85F39F0B93FC2
:103DC000CCF3869577956795B395D9F73EF49095A2
:103DD0008095709561957F4F8F4F9F4F0895E89420
:103DE00009C097FB3EF490958095709561957F4F43
:103DF0008F4F9F4F9923A9F0F92F96E9BB279395F1
:103E0000F695879577956795B795F111F8CFFAF400
:103E1000BB0F11F460FF1BC06F5F7F4F8F4F9F4F31
:103E200016C0882311F096E911C0772321F09EE88F
:103E3000872F762F05C0662371F096E8862F70E0F5
:103E400060E02AF09A95660F771F881FDAF7880FCF
:103E50009695879597F90895990F0008550FAA0B25
:103E6000E0E8FEEF16161706E807F907C0F012168D
:103E70001306E407F50798F0621B730B840B950B90
:103E800039F40A2661F0232B242B252B21F40895E5
:103E90000A2609F4A140A6958FEF811D811D089582
:103EA00097F99F6780E870E060E008959FEF80ECED
:103EB000089500240A941616170618060906089590
:103EC00000240A9412161306140605060895092EF6
:103ED0000394000C11F4882352F0BB0F40F4BF2B65
:103EE00011F460FF04C06F5F7F4F8F4F9F4F0895A5
:103EF00057FD9058440F551F59F05F3F71F047959B
:103F0000880F97FB991F61F09F3F79F0879508957F
:103F1000121613061406551FF2CF4695F1DF08C09E
:103F2000161617061806991FF1CF869571056105BB
:103F300008940895E894BB2766277727CB0197F963
:103F400008958ADF08F48FEF08950BD0C0CFB1DF5A
:103F500028F0B6DF18F0952309F0A2CFA7CF1124DF
:103F6000EACFC6DFA0F3959FD1F3950F50E0551F20
:103F7000629FF001729FBB27F00DB11D639FAA27BE
:103F8000F00DB11DAA1F649F6627B00DA11D661F0D
:103F9000829F2227B00DA11D621F739FB00DA11D2E
:103FA000621F839FA00D611D221F749F3327A00DE8
:103FB000611D231F849F600D211D822F762F6A2F84
:103FC00011249F5750408AF0E1F088234AF0EE0F09
:103FD000FF1FBB1F661F771F881F91505040A9F716
:103FE0009E3F510570F05CCFA6CF5F3FECF3983E4B
:103FF000DCF3869577956795B795F795E7959F5F7D
:10400000C1F7FE2B880F911D9695879597F9089516
:1040100023DF880B990B0895629FD001739FF001F5
:10402000829FE00DF11D649FE00DF11D929FF00D48
:10403000839FF00D749FF00D659FF00D9927729F7F
:10404000B00DE11DF91F639FB00DE11DF91FBD010A
:10405000CF0111240895AA1BBB1B51E107C0AA1F61
:10406000BB1FA617B70710F0A61BB70B881F991F19
:104070005A95A9F780959095BC01CD01089597FBBD
:10408000092E07260AD077FD04D0E5DF06D00020F0
:104090001AF4709561957F4F0895F6F79095819584
:1040A0009F4F0895A1E21A2EAA1BBB1BFD010DC054
:1040B000AA1FBB1FEE1FFF1FA217B307E407F507D8
:1040C00020F0A21BB30BE40BF50B661F771F881FB4
:1040D000991F1A9469F760957095809590959B014A
:1040E000AC01BD01CF010895EE0FFF1F0590F491C3
:0840F000E02D0994F894FFCFC4
:1040F8007265676C6F61643A200052706D3A2000F7
:104108002074696D6572206D6F642069643A2000BF
:104118002074696D657220756E69743A2000207488
:10412800696D657220696E743A2000456E74657217
:104138002072756E64696D3A0073746174653A0033
:1041480074696D6572707472002053746174653A95
:104158002000205076616C3A20002D2D2D00456EF0
:104168007465722052656376007372636E6F64655E
:1041780000207372636D6F643A200020737263537A
:104188006C6F743A2000544553542100456E746591
:10419800722053656E646D73673A002069643A2033
:1041A80000206D6F643A200020736C6F743A200011
:1041B800204D61737465723A2000204C656E3A2078
:1041C80000207061793A20002D0053617665436FB5
:1041D8006E66696700456E7465722072756E616EF1
:1041E800616C6F67696E3A0044617461253A20001A
:1041F800416E616C6F6720646174613A2000456E9E
:104208007465722072756E64687431313A20006981
:104218006E7420696E69743A200063686B3A2000F6
:10422800436865636B73756D206572726F720054B5
:10423800696D65206F7574206572726F72004875BC
:104248006D69646974792825293A200054656D7070
:10425800657261747572652843293A2000556E6B42
:104268006E6F776E206572726F7200456E7465723C
:104278002072756E66616E3A00636F6E3A00207246
:104288006573756C743A00206C6566743A2000207A
:1042980072696768743A200053656E64636F6E666E
:1042A8006967646174610073746174653A20006CB5
:1042B800656E3A20006D7367005374617274696E9D
:1042C80067212121006E616E00696E66006F766657
:1042D800002E000103D004F404010000000084173C
:0A42E80016183A17561746177417F8
:00000001FF
