:100000000C942B010C9453010C9453010C94530148
:100010000C9453010C9453010C9453010C94530110
:100020000C9453010C9453010C9453010C94530100
:100030000C9453010C94B6160C9453010C94530178
:100040000C94881D0C9453010C94D3180C941A1919
:100050000C9453010C9453010C9453010C945301D0
:100060000C9453010C9453010000010001000100A5
:100070000100010001000100010001000100020077
:100080000200020002000200020002000200020060
:10009000020002000200020002000200030003004E
:1000A0000300030003000300030003000300030038
:1000B000040004000400040004000400040005001F
:1000C0000500050005000500050006000600060005
:1000D00006000600070007000700070008000800E8
:1000E000080008000900090009000A000A000A00C7
:1000F0000B000B000C000C000C000D000D000E009E
:100100000E000F000F00100010001100110012006F
:100110001300130014001500160016001700180035
:1001200019001A001A001B001C001D001E001F00F1
:100130002100220023002400250027002800290098
:100140002B002C002E00300031003300350037002A
:1001500038003A003D003F004100430045004800A0
:100160004A004D0050005300550058005C005F00ED
:100170006200660069006D007100750079007D0005
:10018000810086008A008F0094009A009F00A500DD
:10019000AA00B000B600BD00C300CA00D100D9005B
:1001A000E000E800F000F90002010B0114011E015B
:1001B000280132013D01480153015F016C017801C2
:1001C00086019301A101B001BF01CF01DF01F00160
:1001D00001021302260239024D02620277028D02E9
:1001E000A402BC02D502EE020803240340035D030F
:1001F0007B039A03BB03DC03FF0300000000240021
:1002000027002A0000000000250028002B00000025
:10021000000023002600290004040404040404044C
:1002200002020202020203030303030301020408A1
:100230001020408001020408102001020408102050
:100240000000000700020100000304060000000097
:10025000000000004E1A11241FBECFEFD8E0DEBF11
:10026000CDBF12E0A0E0B1E0EAEEF5E402C00590F7
:100270000D92A039B107D9F715E0A0E9B2E001C0AD
:100280001D92A237B107E1F712E0C6E5D2E004C043
:100290002297FE010E94EF22C435D107C9F70E94C0
:1002A000791D0C94F3220C940000FC018181869549
:1002B000877029F48091A2049091A3040BC081302F
:1002C00029F48091AC049091AD0404C08091B004F5
:1002D0009091B1049093BB048093BA04228133813E
:1002E000280F391F8091BA049091BB042817390751
:1002F00018F4818180648183368325830895CF93A8
:10030000DF93E90190E0E82FF0E0EE52FC4FD901D5
:10031000A60FB11D03C08C9180839F5F9417D8F303
:1003200087EC94E060E071E00E94691C87EC94E047
:1003300068814AE050E00E94D91BDF91CF91089577
:100340001F93CF93DF93A0916502B091660213963D
:100350008C911397863008F043C01496EC91149753
:10036000882321F4F0E0EA56FC4F23C0813039F4B1
:1003700087E0E89FF0011124EA55FC4F1FC082304E
:1003800039F485E0E89FF0011124EC51FC4F16C0D0
:10039000833039F486E0E89FF0011124E95EFB4FD9
:1003A0000DC0F0E0843019F4EE52FC4F07C0EE525D
:1003B000FC4F8081E82FF0E0E656FD4F15968C91BA
:1003C0001597EF01C80FD11D92E006C0FD01E90F9E
:1003D000F11D848189939F5F8C919817B8F350C069
:1003E00015968C9115971092BA048093BB041496BD
:1003F0008C918093BA041092BB0412E030C0E10FDC
:10040000F11D44811F5F86EC94E00E94F917609112
:10041000BA047091BB046150704087EC94E04AE0EC
:1004200050E00E94991B87EC94E06AE071E00E9422
:10043000691CE0916502F0916602E10FF11D87EC05
:1004400094E063814AE050E00E94D91B8091BA0495
:100450009091BB0401969093BB048093BA04609181
:10046000BA047091BB04E0916502F0916602CB0181
:1004700002972081820F911D6817790708F4BFCF7A
:10048000DF91CF911F9108951F93CF93DF93182F82
:10049000EA01E0919402F09195028181817F81834C
:1004A000662309F04DC08F8190E02E81821B910957
:1004B0009093BB048093BA0487EC94E06EE071E003
:1004C0000E94691C6091BA047091BB0487EC94E0AF
:1004D0004AE050E00E94991B112319F02A853B85C0
:1004E00002C02885398584E690E0AC01249FC001D4
:1004F000259F900D349F900D1124A0E0B0E08093D3
:10050000BC049093BD04A093BE04B093BF0420919B
:10051000BA043091BB0440E050E06091BC0470919B
:10052000BD048091BE049091BF040E94CB22209311
:10053000BC043093BD044093BE045093BF0418C064
:10054000623029F4888990E0A0E0B0E009C08F858E
:100550002AE0829FC0011124AA2797FDA095BA2FF7
:100560008093BC049093BD04A093BE04B093BF04D9
:1005700087EC94E06AE171E00E94691C4091BC0440
:100580005091BD046091BE047091BF0487EC94E06B
:100590002AE030E00E94761BE0919402F0919502EF
:1005A00081818F7C806281838091BC049091BD04A5
:1005B00093838283DF91CF911F910895CF92DF9231
:1005C000EF92FF920F931F9382E060E020E137E209
:1005D00040E050E00E94C51FC62EF72EE82ED92E0F
:1005E00007EC14E0C80166E271E00E94691CC801D2
:1005F0004C2D5F2D6E2D7D2D2AE030E00E94851B55
:100600008C2D1F910F91FF90EF90DF90CF90089568
:10061000AF92BF92DF92EF92FF920F931F93F82E4B
:100620005B01E42ED22E07EC14E0C8016CE271E00D
:100630000E94691CC8016F2D4AE050E00E94C71B50
:10064000C8016CE371E00E94691CC8016E2D70E066
:100650004AE050E00E94371CC8016AE471E00E9441
:10066000691CC801B5014AE050E00E944A1C409153
:10067000D103842F90E09C0153E0220F331F5A9541
:10068000E1F7281B390BA6EAB3E0FD01E20FF31FE7
:10069000F0939502E09394028F2D8295880F807ECF
:1006A0008083F694F694F69481E0F82281818E7F1F
:1006B0008F298183B382A2821196A20FB31F97E084
:1006C000E922EE0C8C91817C93E0D922D29490EFB8
:1006D000D9228E298D298C938091D0038F5F8093AE
:1006E000D0034F5F4093D1031F910F91FF90EF9084
:1006F000DF90BF90AF9008950F931F93CF93DF9338
:10070000182FC0919602D091970287EC94E067E58C
:1007100071E00E94691C87EC94E0612F4AE050E090
:100720000E94C71B87EC94E065E671E00E94691C9B
:100730006A8162956F7087EC94E04AE050E00E9415
:10074000C71B87EC94E06CE671E00E94691C87ECA3
:1007500094E069894AE050E00E94D91B1F3F09F0EC
:100760005EC08B8186958695869551F061E00E94EA
:10077000DF1E8B8186958695869560E00E941E1F00
:100780008C818F7159F161E00E94DF1E4E8584E6F5
:10079000489FA0011124662757FD6095762F80ECB5
:1007A00094E00E94511787EC94E063E771E00E94A7
:1007B000691C6C816F7187EC94E04AE050E00E9404
:1007C000D91B87EC94E06AE771E00E94691C87EC12
:1007D00094E06E854AE050E00E94D91B298124FFF5
:1007E00015C19091D1039F708A81807F892B8A8364
:1007F00025FD0CC1E0919602F091970290819295AF
:100800009695977081818370880F880F880F68850F
:100810007985892B41E020E00E940803F7C0898197
:1008200084FFF4C08A818F7027E0829FC001112469
:100830008A559C4F9093950280939402113089F4CD
:100840008A81982F92959F70933019F48F708062EF
:1008500006C0992311F0943059F58A818F708A83EC
:1008600027C0123021F48A818F708063F8CF133053
:1008700031F48A818F7080638A8362E01AC01530F8
:1008800019F48A818F7005C0183031F48A818F7015
:1008900080638A8361E00DC01B3051F48A818F70C0
:1008A00080628A838B818770813011F489898F837C
:1008B00060E08A8182958F7090E08230910509F422
:1008C0004CC08330910534F4009761F0019709F032
:1008D0009DC029C08330910509F457C0049709F0E1
:1008E00095C05BC080E0AE010E9444028A818F7097
:1008F00080618A838B8186958695869519F061E063
:100900000E941E1F6C816F7149890E8584E6089FC5
:1009100080011124222717FD2095322F80EC94E0CE
:1009200050E00E94891789898F5F898BE82FF0E05A
:10093000EE0FFF1FE859FF4F459154915093BB04B0
:100940004093BA046C816F7180EC94E00E94591757
:1009500099898F81981708F43CC0E0919402F09136
:10096000950221812F7C206221838C859D85938334
:1009700082838D818770880F217F282B21838A8134
:100980008F7080638A83CF0128C081E0AE010E940E
:1009900044028A818F7080648A838989882311F058
:1009A0008150898B8989E82FF0E0EE0FFF1FE8590D
:1009B000FF4F459154915093BB044093BA046C810E
:1009C0006F7180EC94E00E94591799898E81891784
:1009D00038F480919402909195020E94550116C0BE
:1009E00080EC94E00E94EC178B8186958695869525
:1009F00019F060E00E941E1FE0919402F0919502B0
:100A000081818F7C81838A818F708A83DF91CF91EE
:100A10001F910F910895CF92DF92EF92FF920F9363
:100A20001F93DF93CF9300D0CDB7DEB7F82EC090E1
:100A30009602D0909702F6018181FFEFFF1651F5E3
:100A400084FF53C18091D10327E0829F900111243C
:100A50002A553C4F30939502209394028F70F601F3
:100A60009281907F982B9283218125FD3EC18081C8
:100A70008295869587702370220F220F220F648142
:100A80009AE0699FB0011124822B41E020E00E948E
:100A900008032BC184FF27C0F60182818F7090E08C
:100AA000FC01A3E0EE0FFF1FAA95E1F7E81BF90B8D
:100AB0009F012A553C4F309395022093940241E0C8
:100AC000F41631F4E955FC4F80818F7C80830DC191
:100AD000FF2031F4E955FC4F80818F7C8062808358
:100AE000C9010E945501F601638180E992E070E03E
:100AF0000E9405189A838983FFEF8F3F9F0731F08B
:100B0000009771F08E5F9F4FE1F505C087EC94E090
:100B100061E871E03AC087EC94E060E971E035C0CB
:100B200087EC94E06FE971E00E94691C609190028B
:100B300070919102882777FD8095982F0E946A21F5
:100B4000AB01BC0187EC94E022E030E00E94501D34
:100B500087EC94E066EA71E00E94691C6091920261
:100B600070919302882777FD8095982F0E946A21C3
:100B7000AB01BC0187EC94E022E030E00E94531D01
:100B800006C087EC94E06EEA71E00E94661D298140
:100B90003A81F601878190852115310591F1FFEFAA
:100BA0008D399F073CF44FEF8D38940709F49DC0B1
:100BB000019702C08CE99FEFF60190878783E5E0FB
:100BC000220F331FEA95E1F7F60187819085280F00
:100BD000391F3A832983E0919602F0919702908120
:100BE00092959695977081818370880F880F880FF2
:100BF000892B6FEF41E022E08E010F5F1F4FEE2443
:100C000072C040919202509193029A01281B390BB5
:100C100037FF03C0309521953F4FF601858190E065
:100C2000281739073CF4F2E0FF1621F0F601818124
:100C300086FF1FC0F60150874783E0919602F0912E
:100C40009702208122952695277081818370880FD5
:100C5000880F880FF60191819295969596959170DF
:100C6000822B60E040E022E002E912E0E92E0E94DF
:100C7000F10C2091900230919102F60181859285CC
:100C80002817390719F440E050E003C0A901481BB8
:100C9000590BF601868190E04817590738F4F2E0C5
:100CA000FF1621F0F601818186FF1FC0F601328711
:100CB0002187E0919602F091970220812295269556
:100CC000277081818370880F880F880FF6019181CA
:100CD0009295969596959170822B61E040E022E086
:100CE00000E912E0E92E0E94F10C0F900F90CF91D5
:100CF000DF911F910F91FF90EF90DF90CF900895BB
:100D0000FF920F931F93082F162FF42EE02FF0E081
:100D1000EA56FC4FE081F0E0E656FD4FF093970273
:100D2000E093960280818F7190E08330910581F08D
:100D3000843091051CF40297B1F406C0843091050B
:100D400059F0059781F40CC0812F0E943F0D0BC014
:100D5000812F0E940B0507C0812F0E949F1003C0A6
:100D6000812F0E947C03FF2049F0E0919602F091D0
:100D70009702818183FF02C00F5FC8CF1F910F913F
:100D8000FF900895CF92DF92EF92FF920F931F93FF
:100D9000DF93CF9300D000D0CDB7DEB7182FE12E70
:100DA000FF24A701440F551F4E0D5F1D440F551F13
:100DB000BA01695E7B4FDB012C91822F8F7090E02E
:100DC0008730910509F42CC188309105FCF48330FB
:100DD000910509F4ACC0843091055CF48130910533
:100DE00009F45DC0823091050CF07DC0892B99F12A
:100DF00030C08530910509F4DDC022952F70DB01EC
:100E00001196EC9106970CF0F9C0B5C08B309105A6
:100E100009F47CC18C3091056CF48930910509F49A
:100E200036C122952F70DB011196EC910A970CF0D8
:100E300051C10BC18D30910509F4B2C18D309105BE
:100E40000CF489C18E30910509F4CFC10F9709F4D4
:100E5000EFC100E00FC200E022952F70DB01119678
:100E6000EC91E170E295E07FE22BF0E0EE52FC4F76
:100E7000A081B0E0A656BD4FFA01E85EFB4FE081CD
:100E8000E695EF71F0E0EE52FC4FE081F0E0E656BF
:100E9000FD4F9C918081981709F0ECC1BFC000E024
:100EA00022952F70DB011196EC91E170E295E07FC5
:100EB000E22BF0E0EE52FC4FA081B0E0A656BD4F11
:100EC000FA01E85EFB4FE081E695EF71F0E0EE524B
:100ED000FC4FE081F0E0E656FD4F9C918081981731
:100EE00009F09CC0C7C100E022952F70DB0111966C
:100EF000EC91E170E295E07FE22BF0E0EE52FC4FE6
:100F0000A081B0E0A656BD4FFA01E85EFB4FE0813C
:100F1000E695EF71F0E0EE52FC4FE081F0E0E6562E
:100F2000FD4F9C918081891708F0A4C177C000E033
:100F300022952F70DB011196EC91E170E295E07F34
:100F4000E22BF0E0EE52FC4FA081B0E0A656BD4F80
:100F5000FA01E85EFB4FE081E695EF71F0E0EE52BA
:100F6000FC4FE081F0E0E656FD4F9C9180819817A0
:100F700008F480C153C000E0E170E295E07FE22B0D
:100F8000F0E0EE52FC4FA081B0E0A656BD4FFA0152
:100F9000E85EFB4FE081E695EF71F0E0EE52FC4F2A
:100FA000E081F0E0E656FD4F9C918081981708F0B3
:100FB00061C134C000E022952F70DB011196EC91E5
:100FC000E170E295E07FE22BF0E0EE52FC4FA08171
:100FD000B0E0A656BD4FFA01E85EFB4FE081E69512
:100FE000EF71F0E0EE52FC4FE081F0E0E656FD4F8D
:100FF0009C918081891708F43DC110C000E0E17028
:10100000E295E07FE22BF0E0EE52FC4FE081F0E071
:10101000E656FD4F8081882309F02CC101E02AC1EA
:1010200022952F70DB011196EC91E170E295E07F43
:10103000E22BF0E0EE52FC4FE081F0E0E656FD4F8F
:101040008081882391F460E0A9C0E170E295E07F9F
:10105000E22BF0E0EE52FC4FE081F0E0E656FD4F6F
:101060008081882311F061E099C0FA01E85EFB4FAE
:10107000E081E695EF71F0E0EE52FC4FE081F0E0A8
:10108000E656FD4FE081E111E1E06E2F87C0FA01E5
:10109000E85EFB4FE081E695EF71F0E0EE52FC4F29
:1010A000A0818A2F90E086569D4F22952F70DB01FC
:1010B0001196EC91E170E295E07FE22BF0E0EE52C8
:1010C000FC4FE081F0E0E656FD4FDC010C918081A1
:1010D000080FD0C0E170E295E07FE22BF0E0EE5225
:1010E000FC4FA081B0E0A656BD4FFA01E85EFB4F71
:1010F000E081E695EF71F0E0EE52FC4FE081F0E028
:10110000E656FD4F0C918081081BB4C0FA01E85EE1
:10111000FB4FE081E695EF71F0E0EE52FC4FA081CD
:101120008A2F90E086569D4F22952F70DB011196F5
:10113000EC91E170E295E07FE22BF0E0EE52FC4FA3
:10114000E081F0E0E656FD4FDC019C918081989FA4
:10115000002D11248FC022952F70DB011196EC9188
:10116000E170E295E07FE22BF0E0EE52FC4FA081CF
:10117000B0E0A656BD4FFA01E85EFB4FE081E69570
:10118000EF71F0E0EE52FC4FE081F0E0E656FD4FEB
:1011900060818C9190E070E00E94A422062F6AC0CA
:1011A00022952F70DB011196EC91E170E295E07FC2
:1011B000E22BF0E0EE52FC4FA081B0E0A656BD4F0E
:1011C000FA01E85EFB4FE081E695EF71F0E0EE5248
:1011D000FC4FE081F0E0E656FD4F60818C9190E09D
:1011E00070E00E94A422082F45C0FA01E85EFB4F80
:1011F000E081E695EF71F0E0EE52FC4FA0818A2F7E
:1012000090E086569D4F22952F70DB011196EC9150
:10121000E170E295E07FE22BF0E0EE52FC4FE081DE
:10122000F0E0E656FD4FDC010C918081082322C0DE
:10123000FA01E85EFB4FE081E695EF71F0E0EE52D7
:10124000FC4FA0818A2F90E086569D4F22952F70EB
:10125000DB011196EC91E170E295E07FE22BF0E08A
:10126000EE52FC4FE081F0E0E656FD4FDC010C91C0
:101270008081082B87EC94E06CEB71E00E94691C84
:1012800087EC94E0612F4AE050E00E94C71B87EC96
:1012900094E061EC71E00E94691C87EC94E0602F9F
:1012A0004AE050E00E94C71B87EC94E06AEC71E0D2
:1012B0000E94691CF701EE0FFF1FEE0DFF1DEE0FE0
:1012C000FF1FFA83E9836F0187E194E0C80ED91EFE
:1012D000D6018C9182958F701196EC91E170E29518
:1012E000E07FE82BF0E0EE52FC4FE081F0E0E656C4
:1012F000FD4F87EC94E060814AE050E00E94C71BFC
:1013000087EC94E062ED71E00E94691CE981FA814A
:10131000E85EFB4FFC83EB83E081E695EF71F0E044
:10132000EE52FC4FE081F0E0E656FD4F87EC94E092
:1013300060814AE050E00E94D91BAB81BC818C9156
:10134000829586958695837011969C919370990FDE
:10135000990F982B973039F4D6011496EC91F0E060
:10136000EE52FC4F0083002381F1913031F0933035
:1013700021F0953011F0963071F4F701EE0FFF1F58
:10138000EE0DFF1DEE0FFF1FE95EFB4F84816581AF
:1013900040E00E948006F701EE0FFF1FEE0DFF1DDB
:1013A000EE0FFF1FE85EFB4F808182958695869544
:1013B000837091819370990F990F982B923039F027
:1013C000943029F0953019F033C0933071F4F7015F
:1013D000EE0FFF1FEE0DFF1DEE0FFF1FE75EFB4F31
:1013E0001081169516951695DACC943059F4F701BC
:1013F000EE0FFF1FEE0DFF1DEE0FFF1FE95EFB4F0F
:101400001481CDCC9630A1F4F701EE0FFF1FEE0D45
:10141000FF1DEE0FFF1FDF01A75EBB4F8C91E95E42
:10142000FB4F869586958695638140E00E948006F5
:101430000F900F900F900F90CF91DF911F910F9110
:10144000FF90EF90DF90CF9008951F931091940339
:10145000A0916502B0916602E0919602F091970228
:1014600070E060E035C0E72FF0E0E656FD4F5081B8
:10147000852F82958695877041814370440F440F74
:10148000440F482B242F30E013968C91139790E053
:101490002817390759F4F0939702E0939602842FA6
:1014A00014966C9140E00E94800618C0852F8F71C1
:1014B000833029F0843039F0823039F402C08BE077
:1014C00005C08DE003C08CE001C080E0780F6F5F45
:1014D000611748F2F0939702E09396021F910895E6
:1014E000CF92DF92EF92FF920F931F93DF93CF93F0
:1014F00000D0CDB7DEB71A82198286EC94E06FEF88
:1015000073E00E94F2178093610286EC94E06EEF24
:1015100073E00E94F2178093620269817A816F5FA3
:101520007F4F7A8369836150704086EC94E00E941B
:10153000F217082F1092950314C06F5F7F4F7A83C4
:1015400069836150704086EC94E00E94F217E12FAD
:10155000F0E0E656FD4F8083809195038F5F809386
:1015600095031091950369817A81101730F36F5FAD
:101570007F4F7A8369836150704086EC94E00E94CB
:10158000F217082F1092E30339EFE32EF12C15C068
:101590006F5F7F4F7A8369836150704086EC94E07F
:1015A0000E94F217F701E11BF109E656FD4F808317
:1015B0008091E3038F5F8093E3031091E3036981DC
:1015C0007A81101728F36F5F7F4F7A8369836150A8
:1015D000704086EC94E00E94F217082F1092E2030C
:1015E00014C06F5F7F4F7A8369836150704086ECCF
:1015F00094E00E94F217E12FF0E0EE52FC4F80835E
:101600008091E2038F5F8093E2031091E20369818E
:101610007A81101730F36F5F7F4F7A83698361504F
:10162000704086EC94E00E94F21780931604FF2429
:1016300025E0E22E0FC06F5F7F4F7A836983615090
:10164000704086EC94E00E94F2170C511C4FF80198
:101650008083F3940F2D10E0809116048E9DC001BD
:10166000112469817A810817190728F36F5F7F4F6A
:101670007A8369836150704086EC94E00E94F2178F
:101680008093530486E0F89E7001112487E194E072
:10169000E80EF91EDD2496E0C92E11C069817A8119
:1016A0006F5F7F4F7A8369836150704086EC94E06E
:1016B0000E94F2170E0D1F1DF8018083D3940D2D8B
:1016C00010E0809153048C9DC00111240817190764
:1016D00028F310E036C0E656FD4FF0939702E093F2
:1016E0009602908192959695977081818370880F6C
:1016F000880F880F892B6FEF40E00E948006E091F1
:101700009602F091970280818295869587709181EB
:101710009370990F990F990F982B933029F094306B
:1017200039F0923039F402C08BE005C08DE003C07F
:101730008CE001C080E0180F809194038F5F80934C
:101740009403E12FF0E09F012F5F3F4F80919503BD
:1017500090E0281739070CF4BECF10E034C0FA012E
:10176000E656FD4FF0939702E0939602918197FF22
:101770000DC080818295869587709370990F990F1F
:10178000990F892B60E040E00E948006E09196026C
:10179000F0919702808182958695877091819370F0
:1017A000990F990F990F982B933029F0943039F0B5
:1017B000923039F402C08BE005C08DE003C08CE0AC
:1017C00001C080E0180F412F50E09A012F5F3F4F7A
:1017D0008091950390E0281739070CF280916202FE
:1017E000823050F080E063E041E022E08E010F5F44
:1017F0001F4FEE240E94F10C0F900F90CF91DF91BC
:101800001F910F91FF90EF90DF90CF900895EF928E
:101810000F931F93CF93DF93882341F0809163024E
:10182000909164029093660280936502A091650294
:10183000B091660211968C911197882311F0EE24D5
:10184000C5C012968C911297813019F40E94A001A4
:10185000C2C0823019F40E94C111BDC0833019F496
:101860000E94250AB8C08430D9F4E091D203F0E098
:10187000E656FD4F14968C9114978083E091D30324
:10188000F0E0E656FD4F15968C9115978083E09118
:10189000D403F0E0E656FD4F16968C9180839BC0F2
:1018A000853019F40E94800F96C0863019F40E948A
:1018B000700A91C0873009F08EC087EC94E06BED20
:1018C00071E00E94661D82E08093B90480E067E0C9
:1018D00040E021E009EB14E0EE240E94F10C7BC013
:1018E0000E2D10E0A0916502B0916602A801440F90
:1018F000551F440F551F400F511FEA01CC51DC4FBB
:10190000988111968C911197981709F05EC0FA0191
:10191000EB51FC4FE0812E2F2F7130E012968C910D
:10192000129790E02817390709F04FC0E295E69525
:10193000E7702E2F30E013968C91139790E02817C4
:10194000390709F042C0D0939902C0939802FA0176
:10195000EA51FC4F2081822F877090E00297CCF4EF
:1019600081818770880F880F269526952695622F8E
:101970006770FA01E951FC4F4081469546954695BE
:1019800047701496269526952695822B9D010E94D8
:101990007F019801220F331F220F331F200F311FA9
:1019A000F901EA51FC4F8081877079F0F901E95122
:1019B000FC4F908192959695969593708181877052
:1019C000880F880F892B0E94C206E3948091160429
:1019D000E81608F485CFDF91CF911F910F91EF901A
:1019E0000895EF920F931F93422FE0916302F091BD
:1019F0006402909161029183828363834C5F408390
:101A00004450CF0104960817190771F0502FDF01D9
:101A1000C801FC0104C0819113968C931397119611
:101A20008E2F851B8417B8F380919C048C5F840FE4
:101A300080939C0490E00C96849740F010929C0454
:101A400084E594E0909364028093630281E00E94B5
:101A5000070CEE2081F487EC94E063E20E94CE1A3A
:101A6000E0916302F0916402408187EC94E0BF0151
:101A700050E00E94A41A1F910F91EF900895CF9209
:101A8000DF92EF920F931F93DF93CF930F92CDB717
:101A9000DEB7182FC0909602D090970287EC94E0A2
:101AA00061EE71E00E94691C87EC94E0612F4AE0CE
:101AB00050E00E94C71B87EC94E065E671E00E944D
:101AC000691CD60112966C9162956F7087EC94E058
:101AD0004AE050E00E94C71B87EC94E06FEE71E093
:101AE0000E94691CF60162816F7087EC94E04AE005
:101AF00050E00E94D91B0E94DE021F3F09F05FC028
:101B0000D6011B968C9186958F7191F061E00E94B1
:101B1000DF1EF6018385982F969586FF04C0892FD6
:101B20008F7161E003C0892F8F7160E00E941E1FDA
:101B3000D6011B968C911B97881F8827881F1C969F
:101B40009C919F70990F982B21F0892F61E00E9442
:101B5000DF1E82E060E00E94DF1E83E28093B0001F
:101B60008AE08093B1008FE48093B3001092B400B8
:101B7000F601218124FFBBC19091D1039F70828126
:101B8000807F892B828325FDB2C1E0919602F0917E
:101B90009702908192959695977081818370880FB6
:101BA000880F880FD60118966D917C9119971A9617
:101BB0004C914770892B20E00E94080398C1113096
:101BC00011F4F6014FC01230B9F4D60112968C917F
:101BD00012978F70806212968C9312971A968C913E
:101BE0001A978F731A968C931A971B968C911B9742
:101BF0008E7F1B968C9365C0133019F0163041F51B
:101C000009C0F60182858F738064828783858E7F09
:101C100083870FC0D6011A968C911A978F738068AC
:101C20001A968C931A971B968C911B978E7F1B96F6
:101C30008C93F6018281982F92959F70913009F4D0
:101C400056C18F70933081F0D60112968C9339C0B3
:101C5000143069F4F60182858F73806482878385EE
:101C60008E7F838782818F70806282832AC0153045
:101C700041F5D6011A962C911A97922F9295969526
:101C8000969593701B963C911B97832F8170880FBC
:101C9000880F892B09F42BC12F731A962C931A974E
:101CA0003E7F1B963C931B9712969C911297892F0F
:101CB00082958F70833009F01AC19F7090621296DE
:101CC0009C93F601818184FF1EC082818F7027E082
:101CD000829FC00111248A559C4F90939502809356
:101CE000940287EC94E068EF71E00E94691CE09137
:101CF0009402F09195026581768187EC94E04AE048
:101D000050E00E94AA1BD60112962C91822F829538
:101D10008F7090E08130910571F1823091051CF453
:101D2000892B41F0E4C08230910541F1039709F01D
:101D3000DEC0A0C02F702061F6012283818184FF64
:101D4000D6C0E0919402F091950221812F7C206110
:101D50002183D60118968D919C9119979383828344
:101D60001A968C918770880F217F282B2183CF01B1
:101D70000E945501BCC0112309F0B9C0F60183854A
:101D8000982F969586FF04C0892F8F7160E003C05D
:101D9000892F8F7161E00E941E1FD6011A968C91C7
:101DA0001A9782958695869583701B969C911B97B2
:101DB0009170990F990F982B19F414968C910AC071
:101DC000913019F4F601858105C0923021F4D601D5
:101DD00013968C918983898190E073E0880F991F15
:101DE0007A95E1F76AE070E00E94B8226093B4004F
:101DF000F601818184FF1AC0E0919402F09195026E
:101E000021812F7C20612183D60116968D919C9192
:101E10001797938382831A968C91869586958E70F8
:101E2000217F282B2183CF010E945501F601828159
:101E30008F7080638283E0919602F09197022081F7
:101E400022952695277081818370880F880F880FCF
:101E5000D60111969C919295969596959170822BAC
:101E600062E040E021E08E010F5F1F4FE92E0E94EB
:101E7000F10C3DC01092B400F60182818F70828314
:101E80008385982F969586FF04C0892F8F7161E016
:101E900003C0892F8F7160E00E941E1FE09196029F
:101EA000F091970220812295269527708181837079
:101EB000880F880F880FD60111969C919295969560
:101EC00096959170822B61E040E021E08E010F5FDA
:101ED0001F4FE92E0E94F10CF601818184FF07C09B
:101EE000E0919402F091950281818F7C81830F9023
:101EF000CF91DF911F910F91EF90DF90CF900895D8
:101F0000EF92FF920F931F93DF93CF9300D0CDB743
:101F1000DEB71A82198287EC94E06FEF71E00E94BD
:101F2000661D509195032091160485E0289F90012D
:101F300011248091530446E0849FC0011124280F8E
:101F4000391F4091E203852F90E0840F911D280FE7
:101F5000391F3093BB042093BA042D5F334038F00F
:101F600080E061E041E022E00AEB14E0DCC069813E
:101F70007A816F5F7F4F7A8369836150704086EC0E
:101F800094E0452F0E94F91710E010C06F5F7F4F5B
:101F90007A83698361507040E12FF0E0E656FD4F8F
:101FA00086EC94E040810E94F9171F5F80919503B1
:101FB00069817A81181750F36F5F7F4F7A83698345
:101FC0006150704086EC94E04091E3030E94F91761
:101FD00010E0A9EFEA2EF12C11C06F5F7F4F7A83DA
:101FE000698361507040F701E11BF109E656FD4F2E
:101FF00086EC94E040810E94F9171F5F8091E30313
:1020000069817A81181748F36F5F7F4F7A836983FC
:102010006150704086EC94E04091E2030E94F91711
:1020200010E010C06F5F7F4F7A836983615070400A
:10203000E12FF0E0EE52FC4F86EC94E040810E94EC
:10204000F9171F5F8091E20369817A81181750F3B5
:102050006F5F7F4F7A8369836150704086EC94E0B4
:10206000409116040E94F91785E0189F8001112401
:102070000C511C4FEE24F5E0FF2E0EC06F5F7F4F1A
:102080007A83698361507040E00FF11F86EC94E021
:1020900040810E94F917E394EE2DF0E08091160440
:1020A0008F9DC001112469817A81E817F90730F307
:1020B0006F5F7F4F7A8369836150704086EC94E054
:1020C000409153040E94F91786E0E89E8001112494
:1020D000095E1B4FEE24E6E0FE2E10C069817A8176
:1020E0006F5F7F4F7A83698361507040E00FF11F0B
:1020F00086EC94E040810E94F917E394EE2DF0E025
:10210000809153048F9DC0011124E817F90730F323
:1021100080916202823050F080E062E041E022E093
:102120008E010F5F1F4FEE240E94F10C0F900F9055
:10213000CF91DF911F910F91FF90EF900895AF9293
:10214000BF92CF92DF92EF92FF920F931F93DF9394
:10215000CF9300D00F92CDB7DEB7182FA090960284
:10216000B090970287EC94E06AE072E00E94691CEC
:1021700087EC94E0612F4AE050E00E94D91B1F3F9A
:10218000A1F5F5018381877060E00E94DF1EF501F3
:10219000818184FFE8C02091D10387E0289FC0019E
:1021A00011248A559C4F90939502809394022F702E
:1021B0008281807F822B8283818185FDD4C0E091E2
:1021C0009602F091970290819295969597708181F1
:1021D0008370880F880F880FF50165817681892BC0
:1021E000448120E00E940803BEC0F501818184FF84
:1021F00025C082818F7090E0FC01B3E0EE0FFF1FDD
:10220000BA95E1F7E81BF90B9F012A553C4F309333
:10221000950220939402113031F4E955FC4F8081EE
:102220008F7C8083A0C0112331F4E955FC4F80815D
:102230008F7C80628083C9010E945501F5018381F2
:1022400087700E94BD1E6C01F50181859285C816BC
:10225000D90619F420E030E003C09601281B390BA1
:10226000F501878190E02817390718F4123009F03A
:102270007AC0DB82CA82FAE0CF16D10410F4C98298
:1022800033C0F501608570E080E090E00E94682135
:1022900020E030E040E850EC0E941E2220E030ECCC
:1022A0004FE754E40E9467209B01AC0160E070E0BE
:1022B00088EC92E40E94CF207B018C01B60180E083
:1022C00090E00E9468219B01AC01C801B7010E9407
:1022D0001E220E943C2169836A3010F48AE003C008
:1022E000653610F084E6898387EC94E06DE172E056
:1022F0000E94691C87EC94E069814AE050E00E94EA
:10230000C71B87EC94E065E272E00E94691C6A8159
:102310007B8187EC94E04AE050E00E94AA1B8A810E
:102320009B81F5019287818789818387E09196025D
:10233000F0919702208122952695277081818370E4
:10234000880F880F880FF501918192959695969543
:102350009170822B60E040E023E08E010F5F1F4F01
:10236000E92E0E94F10C0F900F900F90CF91DF910A
:102370001F910F91FF90EF90DF90CF90BF90AF90A3
:102380000895EF920F931F93CF93DF93E09165022F
:10239000F0916602138187EC94E063E372E00E949F
:1023A000661D87EC94E0612F4AE050E00E94C71B55
:1023B00087EC94E06AE071E00E94691CE09165029C
:1023C000F091660287EC94E064814AE050E00E945C
:1023D000C71B87EC94E06AE071E00E94691CE09101
:1023E0006502F091660287EC94E065814AE050E076
:1023F0000E94C71B87EC94E06AE071E00E94691CB0
:10240000E0916502F091660287EC94E066814AE013
:1024100050E00E94C71BE0916302F09164021282B7
:10242000A0916502B0916602163008F03FC0149684
:102430000C911497112329F4E02FF0E0EA56FC4F99
:1024400025C0113039F487E0089F800111240A5516
:102450001C4F21C0123039F485E0089F80011124FF
:102460000C511C4F18C0133039F486E0089F8001CE
:102470001124095E1B4F0FC0E02FF0E0143021F44F
:102480008F010E521C4F07C0EE52FC4F8081082F67
:1024900010E006561D4F15968C911597080F111DCB
:1024A00080E064E041E016962C9148C014968C912F
:1024B0008093BA041092BB0487EC94E062E472E06B
:1024C0000E94691C6091BA047091BB0487EC94E08F
:1024D0004AE050E00E94AA1BC0E0D0E01CC000917E
:1024E0006302109164026091BA047091BB046F5F43
:1024F0007F4F7093BB046093BA046150704086ECC8
:1025000094E00E94F2170C0F1D1FF801848321969E
:10251000C930D10541F0EC2EE0916502F0916602E0
:102520008681C817E0F2E39400916302109164027F
:102530000C5F1F4F80E064E041E02E2DEE240E94EE
:10254000F10CDF91CF911F910F91EF900895AF9211
:10255000BF92CF92DF92EF92FF920F931F93A090C2
:10256000D0031091B504B090A204C090A304D09001
:10257000AC04E090AD04F090B0040091B10440913F
:10258000940250919502ABEAB3E060E070E09FC026
:10259000CB0133E0880F991F3A95E1F7861B970B23
:1025A000AC014A555C4FFC01E955FC4F9081892FE5
:1025B0008295837009F488C096FF1EC0892F869586
:1025C000877029F4112309F47FC09F7B9083FB015E
:1025D00023E0EE0FFF1F2A95E1F7E61BF70BE95505
:1025E000FC4F9081892F86958770813029F41123C3
:1025F00009F46AC09F7B9083FB0193E0EE0FFF1FFD
:102600009A95E1F7E61BF70BE955FC4FE081E6955B
:10261000E77019F48B2D9C2D07C0E13019F48D2D36
:102620009E2D02C08F2D902F9C018D919C91119712
:102630002817390708F448C0509395024093940234
:10264000FB0183E0EE0FFF1F8A95E1F7E61BF70B16
:10265000DF01A955BC4F4C91842F82958370813046
:1026600019F44F7C4C9317C0EA55FC4F828193813B
:10267000280F391F2817390710F440644C93FB01C9
:1026800003E0EE0FFF1F0A95E1F7E61BF70BEA5593
:10269000FC4F36832583FB0113E0EE0FFF1F1A95D5
:1026A000E1F7E61BF70BEA55FC4F90819295969562
:1026B000977081818170880F880F880F892B6481C2
:1026C00041E00E9480060AC06F5F7F4F17966A152F
:1026D00008F45ECF50939502409394021F910F919E
:1026E000FF90EF90DF90CF90BF90AF900895EF9262
:1026F0000F931F93DF93CF930F92CDB7DEB7209147
:10270000A6043091A7048091B7049091B804A90160
:10271000481B590BCA01815D974010F010929F042D
:1027200080919E0490E088589B4F9093660280931E
:1027300065023093B8042093B70487EC94E00E94BC
:10274000E419982F20919F04222339F48A3309F049
:1027500064C081E080939F0460C02130A1F4825363
:10276000883070F4E0916502F09166029053908396
:1027700082E080939F041092A1041092A0044DC0A7
:1027800010929F044AC0223008F447C080532E3F65
:10279000D0F5E0916502F09166028983E20FF11DA8
:1027A0003197808380919F048F5F80939F04E09195
:1027B0006502F0916602E0812E2F30E090E028174C
:1027C00039075CF580919E04280F311D28313105B1
:1027D00020F48E0F80939E0402C010929E0490916C
:1027E0009E0480919D04981751F480E060E041E0E0
:1027F00020E08E010F5F1F4FEE240E94F10C10921B
:102800009F0481E00BC0992787FD90959093A104C8
:102810008093A0042F5F20939F0480E00F90CF91BE
:10282000DF911F910F91EF900895CF93DF930E9456
:10283000DC1D6093A2047093A3048093A40490937E
:10284000A504EB017093A7046093A60424E630E08E
:1028500040E050E00E94CB22DA01C901F901309337
:10286000AD042093AC0468E671E00E94A42270934A
:10287000B1046093B0048091A8049091A904C81792
:10288000D907E0F441E04093B5048091AE04909103
:10289000AF04E817F90778F44093B4048091B204C8
:1028A0009091B3046817790718F44093B60408C0F0
:1028B0001092B60405C01092B40402C01092B50480
:1028C0008091AA049091AB049E01281B390B83E0F0
:1028D000283E380708F43FC08091D203E82FF0E08B
:1028E000C90168EE73E00E94A422E656FD4F808184
:1028F000860F80838C3358F18C5380838091D3036F
:10290000E82FF0E0E656FD4F9081892F8F5F80839E
:102910008C33E8F09B5390838091D403E82FF0E050
:10292000E656FD4F9081892F8F5F8083883178F044
:10293000975190838091D503E82FF0E0E656FD4F44
:1029400080818F5F8083883010F081E08083D09316
:10295000AB04C093AA040E94A71287EC94E00E94E3
:10296000C819892B11F00E94771390919D048091D2
:102970009E049817E9F0892F90E088589B4F909318
:1029800066028093650280E00E94070C20919D04FE
:10299000822F90E0FC01E858FB4FE0818E0F911DE3
:1029A000489720F4E20FE0939D0402C010929D042A
:1029B0008091A6049091A7049093A9048093A80401
:1029C0008091AC049091AD049093AF048093AE04D9
:1029D0008091B0049091B1049093B3048093B204B9
:1029E000DF91CF9108951F93DF93CF93CDB7DEB7DB
:1029F000A4970FB6F894DEBF0FBECDBF87EC94E06E
:102A000040E051EE60E070E00E944A1987EC94E0EB
:102A100067E472E00E94661D9091E2032091E30357
:102A2000E92FF0E0EE52FC4F39EF832F821B8083B9
:102A30009F5F2F5FE92FF0E0EE52FC4F832F821B48
:102A400080839F5F2F5FE92FF0E0EE52FC4F832FD2
:102A5000821B80839F5F2F5FE92FF0E0EE52FC4FD7
:102A6000321B30839F5F9093E2032F5F2093E30339
:102A70001091950310939803155F109395031B50C5
:102A8000809194038F5F80939403DE011196E4E7B5
:102A9000F2E08BE001900D928150E1F7E12FF0E040
:102AA000E656FD4FDE0111968BE00D9001928150AC
:102AB000E1F782E06FEF40E00E9480068091E20340
:102AC000E82FF0E0EE52FC4F175F1083382F3F5F86
:102AD0009091E303E32FF0E0EE52FC4F29EF822FB9
:102AE000891B80833F5F9F5FE32FF0E0EE52FC4F36
:102AF000A2913196B0E0A656BD4F83E38C93291B7B
:102B00002083E32FEF5FE093E2039F5F9093E30363
:102B1000F0E0EF52FC4FE081F0E0E656FD4F8FE22F
:102B200080831091950310939703145F109395037E
:102B30001C50809194038F5F80939403DE011C9658
:102B4000E8E6F2E08CE001900D928150E1F7E12F90
:102B5000F0E0E656FD4FDE011C968CE00D900192F0
:102B60008150E1F781E06FEF40E00E948006A09184
:102B7000E203EA2FF0E0EE52FC4F175F1083AF5FE5
:102B80009091E303EA2FF0E0EE52FC4F89EF891BAE
:102B90008083AF5FA093E2039F5F9093E303B0E075
:102BA000AF52BC4FEC91F0E0E656FD4F8AE08083D7
:102BB0001091950310939903135F109395031D5083
:102BC000809194038F5F80939403FE0178968DE04B
:102BD000DF011D928A95E9F782E6888F898D8C7FC7
:102BE0008461898F84E18C8F8AE58D8F88EC90E0F9
:102BF0009F8F8E8F99A388A38AA1807C89608AA3E6
:102C00008BA1817C8E688BA38CA1807F81608CA33B
:102C1000A12FB0E0A656BD4F8DE001900D928150DE
:102C2000E1F783E06FEF40E00E9480068091E203CD
:102C3000E82FF0E0EE52FC4F1D5F10838F5F809312
:102C4000E20340915304842F90E0FC01EE0FFF1F3C
:102C5000E80FF91FBF01660F771F9B01295E3B4FED
:102C600082E4D9018C93DB01A85EBB4F8AE08C9390
:102C700011968C9111978C7F816011968C93FB013A
:102C8000E75EFB4F808183708061808381E0F90182
:102C9000848384E0858382E480931D048CE48093A4
:102CA0001E0410921F0493E09093210422E02093CD
:102CB000220482E8809323048EE88093240489E12F
:102CC000809325042093260490932704909328044E
:102CD00082E78093290480E580932A0410922B04D4
:102CE00090932D0485E080932E044C5F4093530411
:102CF000209161022093E40382E28093E50383E460
:102D00008093E60389E08093E7038091E803887F5E
:102D10008093E803909116042093E90381E0809367
:102D2000EA0383E08093EB038091EC03887F806C5F
:102D30008093EC038091ED03887F8093ED039E5F89
:102D40009093160482E060E040E00E94800681E0FB
:102D500060E040E00E948006A4960FB6F894DEBFC3
:102D60000FBECDBFCF91DF911F9108951F920F929B
:102D70000FB60F9211242F933F934F935F936F934E
:102D80007F938F939F93AF93BF93EF93FF93E091C4
:102D9000C404F091C5040995FF91EF91BF91AF91E3
:102DA0009F918F917F916F915F914F913F912F9163
:102DB0000F900FBE0F901F901895FC01A2E0440FDA
:102DC000551F661F771FAA95D1F7403080E058073E
:102DD00081E0680780E0780714F481E010C033E0F8
:102DE00075956795579547953A95D1F7403080E0AE
:102DF000580781E0680780E078071CF482E082834E
:102E000039C023E075956795579547952A95D1F771
:102E1000403080E0580781E0680780E0780714F4CC
:102E200083E0EDCF92E075956795579547959A9514
:102E3000D1F7403080E0580781E0680780E07807EC
:102E400014F484E0DCCF82E075956795579547953B
:102E50008A95D1F7403080E0580781E0680780E02C
:102E6000780714F485E0CBCF85E082834FEF5FEFE6
:102E700060E070E08FB78383F89451834083509370
:102E800087004093860083818FBF80918100887F77
:102E900080938100809181009281892B80938100B1
:102EA00008951092800020E1209381000E94DD1699
:102EB00008950F93CF93DF93EC01062FBA01288179
:102EC000398140E050E0882777FD8095982F0E9457
:102ED0008522BAE09695879577956795BA95D1F74B
:102EE0002FB72B83F894013011F0093029F4709337
:102EF00089006093880008C0023011F00A3021F484
:102F000070938B0060938A002FBFDF91CF910F9158
:102F10000895CF92DF92FF920F931F93CF93DF9389
:102F2000EC01F62E6A01101611061206130624F49F
:102F3000B901A8010E94DD1631E0F31619F089E00D
:102F4000F81629F4219A8091800080680AC032E046
:102F5000F31619F08AE0F81631F4229A8091800075
:102F60008062809380002881398140E050E0B60182
:102F7000882777FD8095982F0E9485221AE09695E4
:102F80008795779567951A95D1F72FB72B83F89486
:102F900031E0F31619F039E0F31629F47093890043
:102FA000609388000AC032E0F31619F03AE0F31695
:102FB00021F470938B0060938A002FBF8091810071
:102FC0009A81892B80938100DF91CF911F910F917E
:102FD000FF90DF90CF900895E1E8F0E08081887F56
:102FE00080830895F999FECF72BD61BDF89A80B5CE
:102FF0000895F999FECF1FBA72BD61BD40BD0FB6ED
:10300000F894FA9AF99A0FBE08952F923F925F9220
:103010006F927F928F929F92AF92BF92CF92DF92E8
:10302000EF92FF920F931F93DF93CF9300D000D0C6
:103030000F92CDB7DEB73C01962E19821A821B8201
:103040001C821D82862F61E00E94DF1E892D60E0B8
:103050000E941E1F62E170E080E090E00E94551E19
:10306000892D61E00E941E1F88E290E00E94101EE0
:10307000892D60E00E94DF1E00E117E205C0011506
:103080001105A1F101501040892D0E94721F892B5A
:10309000B1F300E117E205C00115110539F1015046
:1030A0001040892D0E94721F0197B1F306C00115CF
:1030B0001105E1F0015010400AC027E0822E55248E
:1030C000AA24BB2491E0292E312C00E117E2892D9E
:1030D0000E94721F892B59F30E94EA1D6B017C012B
:1030E00000E117E208C00115110519F42EEF3FEFBA
:1030F00041C001501040892D0E94721F019799F321
:103100000E94EA1D6C197D098E099F0969327105BB
:103110008105910580F0E1E0F0E0EC0FFD1FE50D89
:10312000F11D9101082C02C0220F331F0A94E2F70F
:103130008081822B8083882021F4539487E0882E1D
:1031400001C08A940894A11CB11C88E2A816B1049D
:1031500009F0BBCF8981F301808311829B81928327
:103160001382980F8D81891719F420E030E002C096
:103170002FEF3FEFC9010F900F900F900F900F901E
:10318000CF91DF911F910F91FF90EF90DF90CF9043
:10319000BF90AF909F908F907F906F905F903F9087
:1031A0002F90089508951F920F920FB60F92112439
:1031B0002F933F934F938F939F93EF93FF93809120
:1031C000C00082FD19C04091C6008091E504282FFF
:1031D00030E02F5F3F4F2F7330708091E60490E016
:1031E0002817390759F0E091E504F0E0E953FB4F67
:1031F00042A32093E50402C08091C600FF91EF91A5
:103200009F918F914F913F912F910F900FBE0F90F3
:103210001F9018958091E5042091E60490E0805C71
:103220009F4F821B91098F739070892B11F00E9420
:10323000D21808951F920F920FB60F9211242F9358
:103240008F939F93EF93FF939091E7048091E8040D
:10325000981731F48091C1008F7D8093C10010C018
:10326000E091E804F0E0E75DFA4F20818091E80406
:1032700090E001968F7390708093E8042093C600CD
:10328000FF91EF919F918F912F910F900FBE0F9013
:103290001F901895AF92BF92DF92EF92FF920F931B
:1032A0001F93CF93DF93EC017A018B01DD24D3943C
:1032B00091E0A92EB12CE889F989DD2069F0C501DA
:1032C0000C8C02C0880F991F0A94E2F7808360E893
:1032D00074E88EE190E005C0108260E472E48FE053
:1032E00090E0A80197010E94CB222150304040403D
:1032F0005040569547953795279580E120303807FF
:1033000020F0DD2011F0DD24D6CFEC85FD85308363
:10331000EE85FF8520831D8EEA89FB89408121E0AF
:1033200030E0C901088C02C0880F991F0A94E2F7A7
:10333000482B4083EA89FB894081C901098C02C07E
:10334000880F991F0A94E2F7482B4083EA89FB898A
:103350004081C9010A8C02C0880F991F0A94E2F7C4
:10336000482B4083EA89FB8980810B8C02C0220FA5
:10337000331F0A94E2F7209528232083DF91CF9111
:103380001F910F91FF90EF90DF90BF90AF90089545
:10339000FC01268D878D30E0205C3F4F281B3109D2
:1033A0002F733070C9010895FC01968D878D981791
:1033B00019F42FEF3FEF06C0878DE80FF11D82A1B2
:1033C000282F30E0C9010895DC015E969C915E973C
:1033D0005F968C915F97981719F42FEF3FEF10C00D
:1033E0005F968C915F97FD01E80FF11D92A15F96AA
:1033F0008C915F978F5F8F735F968C93292F30E04E
:10340000C9010895DC015D968C915D97882339F0A0
:103410005096ED91FC915197808186FFF9CF5D9692
:103420001C920895DC0190968C919097282F30E0A3
:103430002F5F3F4F2F73307091968C91919790E052
:1034400028173907C9F390968C919097FD01E80FE2
:10345000F11DEE59FF4F608390962C9390975296F2
:10346000ED91FC915397208181E090E05B960C9068
:103470005B9702C0880F991F0A94E2F7282B2083DC
:1034800081E05D968C935D975096ED91FC915197FC
:1034900080818064808381E090E008951092CA0466
:1034A0001092C90488EE93E0A0E0B0E08093CB04D2
:1034B0009093CC04A093CD04B093CE0483E892E023
:1034C0009093C8048093C7041092E8048091E804A4
:1034D0008093E7041092E6048091E6048093E5046B
:1034E00085EC90E09093D4048093D30484EC90E036
:1034F0009093D6048093D50480EC90E09093D80408
:103500008093D70481EC90E09093DA048093D904FF
:1035100082EC90E09093DC048093DB0486EC90E0F6
:103520009093DE048093DD0484E08093DF0483E0E5
:103530008093E00487E08093E10485E08093E204D7
:1035400081E08093E3040895CF92DF92EF92FF929F
:103550000F931F93CF93DF937C016B018A01C0E02F
:10356000D0E00FC0D6016D916D01D701ED91FC91B6
:103570000190F081E02DC7010995C80FD91F0150B6
:1035800010400115110571F7CE01DF91CF911F9108
:103590000F91FF90EF90DF90CF900895DC01ED91B7
:1035A000FC910190F081E02D09950895EF92FF9232
:1035B0000F931F938C01DC01ED91FC910190F08140
:1035C000E02D6DE009957C01D801ED91FC91019011
:1035D000F081E02DC8016AE009959C012E0D3F1D88
:1035E000C9011F910F91FF90EF900895CF93DF9342
:1035F000EC016115710519F420E030E00FC0DB012A
:103600000D900020E9F71197A61BB70BE881F9810F
:103610000280F381E02DAD0109959C01C901DF9184
:10362000CF9108954F925F927F928F929F92AF9227
:10363000BF92CF92DF92EF92FF920F931F93DF938F
:10364000CF93CDB7DEB7A1970FB6F894DEBF0FBE0C
:10365000CDBF2C01742ECB01223008F42AE019A230
:1036600031E2C32ED12CCC0EDD1E822E9924AA2449
:10367000BB24672D752FA50194010E94CB227901EF
:103680008A01C801B701A50194010E948522472D36
:10369000461B0894C108D1084A3014F4405D01C0AB
:1036A000495CF6014083E114F1040105110521F0A4
:1036B0007E2C5F2DC801DDCFC201B6010E94F61A33
:1036C000A1960FB6F894DEBF0FBECDBFCF91DF91AC
:1036D0001F910F91FF90EF90DF90CF90BF90AF9030
:1036E0009F908F907F905F904F900895DC012115FF
:1036F000310541F4ED91FC910190F081E02D642FB2
:10370000099508950E94121B0895EF92FF920F935E
:103710001F937C010E94761B8C01C7010E94D61A60
:103720009C01200F311FC9011F910F91FF90EF9055
:103730000895EF92FF920F931F939A017B0100E08F
:1037400010E0B801A7010E94761B1F910F91FF9016
:10375000EF900895CF92DF92EF92FF920F931F9315
:103760006C017B019A0100E010E0B801A7010E9402
:10377000761B8C01C6010E94D61A080F191FC801BA
:103780001F910F91FF90EF90DF90CF900895EF92EF
:10379000FF920F931F939A01E62EFF2400E010E0A2
:1037A000B801A7010E94761B1F910F91FF90EF9027
:1037B0000895CF92DF92EF92FF920F931F936C01C7
:1037C000E62E9A01FF2400E010E0B801A7010E9454
:1037D000761B8C01C6010E94D61A080F191FC8015A
:1037E0001F910F91FF90EF90DF90CF900895CF92AF
:1037F000DF92EF92FF920F931F93CF93DF93EC0131
:103800006A017B012115310541F4E881F9810190BC
:10381000F081E02D642F09951FC02A303105D1F4C5
:1038200077FF17C0E881F9810190F081E02D6DE20A
:1038300009958C0144275527BA014C195D096E0979
:103840007F09CE012AE00E94121B9801280F391F20
:1038500004C02AE00E94121B9C01C901DF91CF9194
:103860001F910F91FF90EF90DF90CF900895EF920E
:10387000FF920F931F937B019A010027F7FC00959D
:10388000102FB801A7010E94F71B1F910F91FF9005
:10389000EF900895CF92DF92EF92FF920F931F93D4
:1038A0006C017B019A010027F7FC0095102FB801ED
:1038B000A7010E94F71B8C01C6010E94D61A080FAF
:1038C000191FC8011F910F91FF90EF90DF90CF90CB
:1038D00008950E94F61A08957F928F929F92AF9258
:1038E000BF92CF92DF92EF92FF920F931F93CF93ED
:1038F000DF934C017A018B01722ECB01BA01A80132
:1039000097010E948122882321F0C40163E572E0BF
:1039100021C0C0E0D0E057016801E894D7F8C601A3
:10392000B5012FEF3FEF4FE75FE70E948122882329
:1039300051F4C601B5012FEF3FEF4FE75FE70E945B
:10394000CB20181614F0C1E0D0E0219739F0C40163
:1039500067E572E00E94F61AEC0193C0C801B70156
:103960002FEF3FEF4FE75FE40E941A22181654F042
:10397000C801B7012FEF3FEF4FE75FEC0E94CB206C
:10398000882324F4C4016BE572E0E4CFC801B701D9
:1039900020E030E040E050E00E94CB2087FD03C0F3
:1039A000C0E0D0E00EC0D401ED91FC910190F08117
:1039B000E02DC4016DE20995EC0117FB109517F994
:1039C000109520E030E040E05FE3DD240BC0CA0149
:1039D000B90120E030E040E251E40E94CF209B0199
:1039E000AC01D394D71498F3C801B7010E946720A3
:1039F0005B016C010E943C217B018C01C401B80178
:103A0000A7012AE030E00E94761BC80FD91F77205B
:103A100039F0C4016FE572E00E94F61AC80FD91F91
:103A2000C801B7010E9468219B01AC01C601B50124
:103A30000E94662024C020E030E040E251E40E9471
:103A40001E227B018C010E9437215B016C01CC247A
:103A5000B7FCC094DC2CC401B601A5012AE030E01B
:103A60000E94F71BC80FD91FC601B5010E946A2129
:103A70009B01AC01C801B7010E9466207A947720AF
:103A8000D1F6CE01DF91CF911F910F91FF90EF9072
:103A9000DF90CF90BF90AF909F908F907F900895D0
:103AA0000E946C1C0895EF92FF920F931F937C016C
:103AB0000E946C1C8C01C7010E94D61A080F191FA6
:103AC000C8011F910F91FF90EF900895EF92FF9220
:103AD0000F931F937C010E94F61A8C01C7010E946C
:103AE000D61A080F191FC8011F910F91FF90EF9070
:103AF0000895CF93DF930E941A1E0E94F314CAE028
:103B0000D9E10E9415142097E1F30E940A19F9CF18
:103B10001F920F920FB60F9211242F933F934F9342
:103B20005F936F937F938F939F93AF93BF932091F6
:103B30006D0530916E0540916F0550917005709143
:103B40007105DA01C9010296A11DB11D672F6A5FD7
:103B50006D3730F06D57DA01C9010396A11DB11D13
:103B60006093710580936D0590936E05A0936F052A
:103B7000B09370058091690590916A05A0916B05DD
:103B8000B0916C050196A11DB11D809369059093BC
:103B90006A05A0936B05B0936C05BF91AF919F919F
:103BA0008F917F916F915F914F913F912F910F90E6
:103BB0000FBE0F901F9018958FB7F89420916D0548
:103BC00030916E0540916F05509170058FBFB9011E
:103BD000CA0108959FB7F8942091690530916A054C
:103BE00040916B0550916C0586B5A89B06C08F3F30
:103BF00021F02F5F3F4F4F4F5F4F9FBF542F432FF9
:103C0000322F2227280F311D411D511D83E0220F25
:103C1000331F441F551F8A95D1F7B901CA01089572
:103C2000019739F0019729F0880F991F01970197A3
:103C3000F1F70895789484B5826084BD84B581607D
:103C400084BD85B5826085BD85B5816085BDEEE6A4
:103C5000F0E0808181608083E1E8F0E01082808183
:103C600082608083808181608083E0E8F0E08081F1
:103C700081608083E1EBF0E0808184608083E0EB11
:103C8000F0E0808181608083EAE7F0E080818460F9
:103C90008083808182608083808181608083808155
:103CA000806880831092C1000895EF92FF920F9375
:103CB0001F93CF93DF937B018C013FB7F8948091E2
:103CC000690590916A05A0916B05B0916C0526B5C8
:103CD000A89B05C02F3F19F00196A11DB11D3FBF44
:103CE000BA2FA92F982F8827820F911DA11DB11DD2
:103CF00053E0880F991FAA1FBB1F5A95D1F7EC01FB
:103D000030C00E9465203FB7F8948091690590917A
:103D10006A05A0916B05B0916C0526B5A89B05C0FE
:103D20002F3F19F00196A11DB11D3FBFBA2FA92F3A
:103D3000982F8827820F911DA11DB11D33E0880F98
:103D4000991FAA1FBB1F3A95D1F78C1B9D0B885E4C
:103D50009340B8F20894E108F10801091109C8512B
:103D6000DC4FE114F1040105110559F6DF91CF9103
:103D70001F910F91FF90EF900895982F8E3008F0CB
:103D80009E509770809167028295880F880F807C83
:103D9000892B80937C0080917A00806480937A00E4
:103DA00080917A0086FDFCCF2091780040917900C7
:103DB000942F80E030E0282B392BC9010895CF9350
:103DC000DF93482F50E0CA01845D9D4FFC01349180
:103DD000485E5D4FFA018491882369F190E0880F75
:103DE000991FFC01E650FE4FA591B491FC01EC5FD8
:103DF000FD4FC591D491662351F42FB7F8948C915F
:103E0000932F909589238C93888189230BC06230EE
:103E100061F42FB7F8948C91932F909589238C930C
:103E20008881832B88832FBF06C09FB7F8948C911D
:103E3000832B8C939FBFDF91CF910895482F50E043
:103E4000CA01805C9D4FFC012491CA01845D9D4F95
:103E5000FC019491485E5D4FFA013491332309F4DB
:103E600040C0222351F1233071F0243028F4213056
:103E7000A1F0223011F514C02630B1F02730C1F086
:103E80002430D9F404C0809180008F7703C08091E2
:103E900080008F7D8093800010C084B58F7702C032
:103EA00084B58F7D84BD09C08091B0008F7703C039
:103EB0008091B0008F7D8093B000E32FF0E0EE0F93
:103EC000FF1FEC5FFD4FA591B4912FB7F8946623C7
:103ED00021F48C919095892302C08C91892B8C932D
:103EE0002FBF0895682F70E0CB01805C9D4FFC01CF
:103EF0002491CB01845D9D4FFC014491685E7D4F10
:103F0000FB019491992319F420E030E03CC0222376
:103F100051F1233071F0243028F42130A1F0223007
:103F200011F514C02630B1F02730C1F02430D9F497
:103F300004C0809180008F7703C0809180008F7DC6
:103F40008093800010C084B58F7702C084B58F7DC8
:103F500084BD09C08091B0008F7703C08091B0000C
:103F60008F7D8093B000892F90E0880F991F825F2A
:103F70009D4FFC01A591B4918C9120E030E0842309
:103F800011F021E030E0C90108958F929F92AF9225
:103F9000BF92CF92DF92EF92FF920F931F93CF9336
:103FA000DF93A82FB0E0CD01845D9D4FFC0184908C
:103FB000A85EBD4FFD018491662311F4992401C0D0
:103FC000982C59016A0133E0AA0CBB1CCC1CDD1CE7
:103FD0003A95D1F724E0D694C794B794A7942A953C
:103FE000D1F7682F70E0660F771F625F7D4FEE2478
:103FF000FF248701FB01A591B4910BC0EA14FB04D7
:104000000C051D0509F44EC00894E11CF11C011DAE
:10401000111D8C918821891589F30CC0EA14FB04C9
:104020000C051D0509F43EC00894E11CF11C011D9E
:10403000111D03C0FB01A591B4918C9188218915B4
:1040400069F720E030E040E050E0FB01C591D491F9
:104050000FC0DA01C9018E0D9F1DA01FB11F8A1567
:104060009B05AC05BD05F1F02F5F3F4F4F4F5F4FF4
:1040700088818821891569F3CA01B90125E130E0F9
:1040800040E050E00E9485229B01AC01205F3F4F41
:104090004F4F5F4F83E056954795379527958A9503
:1040A000D1F704C020E030E040E050E0B901CA019F
:1040B000DF91CF911F910F91FF90EF90DF90CF9004
:1040C000BF90AF909F908F90089508955058BB2750
:1040D000AA270ED075C166D130F06BD120F031F433
:1040E0009F3F11F41EF45BC10EF4E095E7FB51C154
:1040F000E92F77D180F3BA17620773078407950712
:1041000018F071F49EF58FC10EF4E0950B2EBA2FC6
:10411000A02D0B01B90190010C01CA01A0011124CD
:10412000FF27591B99F0593F50F4503E68F11A1679
:10413000F040A22F232F342F4427585FF3CF46950A
:1041400037952795A795F0405395C9F77EF41F162C
:10415000BA0B620B730B840BBAF09150A1F0FF0FF6
:10416000BB1F661F771F881FC2F70EC0BA0F621FE2
:10417000731F841F48F4879577956795B795F795D2
:104180009E3F08F0B3CF9395880F08F09927EE0F64
:10419000979587950895D9D008F481E008950CD0BB
:1041A0000FC107D140F0FED030F021F45F3F19F08D
:1041B000F0C0511139C1F3C014D198F39923C9F358
:1041C0005523B1F3951B550BBB27AA27621773071D
:1041D000840738F09F5F5F4F220F331F441FAA1FD1
:1041E000A9F333D00E2E3AF0E0E830D09150504091
:1041F000E695001CCAF729D0FE2F27D0660F771F3F
:10420000881FBB1F261737074807AB07B0E809F020
:10421000BB0B802DBF01FF2793585F4F2AF09E3FB5
:10422000510568F0B6C000C15F3FECF3983EDCF387
:10423000869577956795B795F7959F5FC9F7880F2E
:10424000911D9695879597F90895E1E0660F771F80
:10425000881FBB1F621773078407BA0720F0621B11
:10426000730B840BBA0BEE1F88F7E095089504D00A
:104270006894B111D9C00895BCD088F09F5790F0D0
:10428000B92F9927B751A0F0D1F0660F771F881F7B
:10429000991F1AF0BA95C9F712C0B13081F0C3D096
:1042A000B1E00895C0C0672F782F8827B85F39F034
:1042B000B93FCCF3869577956795B395D9F73EF4DA
:1042C00090958095709561957F4F8F4F9F4F089582
:1042D000E89409C097FB3EF49095809570956195A0
:1042E0007F4F8F4F9F4F9923A9F0F92F96E9BB2756
:1042F0009395F695879577956795B795F111F8CFD2
:10430000FAF4BB0F11F460FF1BC06F5F7F4F8F4F3C
:104310009F4F16C0882311F096E911C0772321F032
:104320009EE8872F762F05C0662371F096E8862FCA
:1043300070E060E02AF09A95660F771F881FDAF721
:10434000880F9695879597F90895990F0008550F4E
:10435000AA0BE0E8FEEF16161706E807F907C0F00B
:1043600012161306E407F50798F0621B730B840B13
:10437000950B39F40A2661F0232B242B252B21F4ED
:1043800008950A2609F4A140A6958FEF811D811D8D
:10439000089597F99F6780E870E060E008959FEFC7
:1043A00080EC089500240A941616170618060906CC
:1043B000089500240A94121613061406050608959B
:1043C000092E0394000C11F4882352F0BB0F40F423
:1043D000BF2B11F460FF04C06F5F7F4F8F4F9F4F63
:1043E000089557FD9058440F551F59F05F3F71F0E5
:1043F0004795880F97FB991F61F09F3F79F087954C
:104400000895121613061406551FF2CF4695F1DFD4
:1044100008C0161617061806991FF1CF8695710564
:10442000610508940895E894BB2766277727CB0198
:1044300097F908958ADF08F48FEF08950BD0C0CF65
:10444000B1DF28F0B6DF18F0952309F0A2CFA7CF8F
:104450001124EACFC6DFA0F3959FD1F3950F50E06A
:10446000551F629FF001729FBB27F00DB11D639F26
:10447000AA27F00DB11DAA1F649F6627B00DA11DCC
:10448000661F829F2227B00DA11D621F739FB00D72
:10449000A11D621F839FA00D611D221F749F3327E2
:1044A000A00D611D231F849F600D211D822F762F7B
:1044B0006A2F11249F5750408AF0E1F088234AF078
:1044C000EE0FFF1FBB1F661F771F881F91505040C4
:1044D000A9F79E3F510570F05CCFA6CF5F3FECF38C
:1044E000983EDCF3869577956795B795F795E795B0
:1044F0009F5FC1F7FE2B880F911D9695879597F9C1
:10450000089523DF880B990B0895629FD001739F54
:10451000F001829FE00DF11D649FE00DF11D929F5F
:10452000F00D839FF00D749FF00D659FF00D99279E
:10453000729FB00DE11DF91F639FB00DE11DF91FC2
:10454000BD01CF0111240895AA1BBB1B51E107C077
:10455000AA1FBB1FA617B70710F0A61BB70B881F13
:10456000991F5A95A9F780959095BC01CD010895A2
:1045700097FB092E07260AD077FD04D0E5DF06D089
:1045800000201AF4709561957F4F0895F6F7909585
:1045900081959F4F0895A1E21A2EAA1BBB1BFD0116
:1045A0000DC0AA1FBB1FEE1FFF1FA217B307E40712
:1045B000F50720F0A21BB30BE40BF50B661F771F6A
:1045C000881F991F1A9469F760957095809590954A
:1045D0009B01AC01BD01CF010895EE0FFF1F0590B7
:0A45E000F491E02D0994F894FFCF48
:1045EA007265676C6F61643A20002D2D2D0020449E
:1045FA00697374616E63653A200020496E7465724E
:10460A0076616C3A200052706D3A20002074696D10
:10461A006572206D6F642069643A20002074696DA8
:10462A00657220756E69743A20002074696D65722E
:10463A0020696E743A2000456E7465722072756E38
:10464A0064696D3A0073746174653A00207076612A
:10465A006C3A0070776D70696E0070776D70657274
:10466A0000436865636B73756D206572726F7200C3
:10467A0054696D65206F7574206572726F72004897
:10468A002825293A200020542843293A2000556E2B
:10469A006B6E6F776E206572726F7200636F6E3A1F
:1046AA000020726573756C743A00206C6566743A02
:1046BA0020002072696768743A20005445535421D7
:1046CA0000456E7465722072756E66616E3A00748A
:1046DA00696D6572707472006E7874696D650053E5
:1046EA00617665436F6E66696700456E7465722010
:1046FA0072756E616E616C6F67696E3A00446174BF
:10470A0061253A2000416E616C6F672064617461B3
:10471A003A200053656E64636F6E666967646174FC
:10472A00610069746D70005374617274696E672EEA
:10473A002E2E006E616E00696E66006F7666002E20
:10474A000001035404780401249400000196000136
:10475A006400000043D400060F01010000000000BD
:10476A00000000121AA41AC819E419D419021A006E
:00000001FF
