:100000000C9462000C948A000C948A000C948A0070
:100010000C948A000C948A000C948A000C948A0038
:100020000C948A000C948A000C948A000C948A0028
:100030000C948A000C948A000C948A000C948A0018
:100040000C949F1A0C948A000C94D5150C941C16D1
:100050000C948A000C948A000C948A000C948A00F8
:100060000C948A000C948A000000000024002700F1
:100070002A0000000000250028002B0000000000DE
:1000800023002600290004040404040404040202DA
:100090000202020203030303030301020408102007
:1000A0004080010204081020010204081020000012
:1000B0000007000201000003040600000000000029
:1000C0000000501711241FBECFEFD8E0DEBFCDBF18
:1000D00012E0A0E0B1E0E8E1F0E402C005900D928A
:1000E000AC3DB107D9F715E0ACEDB2E001C01D920F
:1000F000A53CB107E1F710E0C4ECD0E004C02297C2
:10010000FE010E940620C23CD107C9F70E94901A46
:100110000C940A200C940000CF93DF93E90190E047
:10012000E82FF0E0E05DFB4FD901A60FB11D03C041
:100130008C9180839F5F9417D8F38AE195E060E00B
:1001400071E00E9483198AE195E068814AE050E0FD
:100150000E94F318DF91CF910895CF92DF92EF9232
:10016000FF920F931F9382E060E020E137E240E0CE
:1001700050E00E94DC1CC62EF72EE82ED92E0AE194
:1001800015E0C8016AE071E00E948319C8014C2D96
:100190005F2D6E2D7D2D2AE030E00E949F188C2D62
:1001A0001F910F91FF90EF90DF90CF900895AF9245
:1001B000BF92CF92DF92EF92FF920F931F93F82E90
:1001C0006B015A01E22E0AE115E0C80160E171E01D
:1001D0000E948319C8016F2D4AE050E00E94E11887
:1001E000C80160E271E00E948319C801B5014AE0CC
:1001F00050E00E945119C8016EE271E00E9483191B
:10020000C801B6014AE050E00E94641960912F04D1
:10021000262F30E0A901440F551FC90173E0880F54
:10022000991F7A95E1F7480F591FA2EFB3E0FD013E
:10023000E40FF51FF093E102E093E0028F2D829529
:10024000880F807E8083F694F694F69481E0F822FD
:1002500081818E7F8F298183D682C582F901EE0F3D
:10026000FF1FEE0FFF1FE20FF31F3196EE0FFF1F70
:10027000EA0FFB1FB182A0821496A40FB51F83E082
:10028000E8228C918C7F8E298C9380912E048F5F35
:1002900080932E046F5F60932F041F910F91FF9046
:1002A000EF90DF90CF90BF90AF9008951F93CF93C2
:1002B000DF93A091C802B091C90213968C91139755
:1002C000863008F044C014969C911497882319F442
:1002D00026EE32E02AC0813039F48AE0989F9001FE
:1002E00011242E503C4F21C0823039F485E0989F74
:1002F000900111242E5B3B4F18C0833039F486E007
:10030000989F900111242B583B4F0FC0E92FF0E02C
:10031000843021F49F01205D3B4F07C0E05DFB4F1F
:100320008081282F30E02A513D4F15968C911597EA
:10033000E901C80FD11D92E006C0FD01E90FF11DD2
:10034000848189939F5F8C919817B8F350C015965C
:100350008C911597109217058093180514968C911F
:10036000809317051092180512E030C0E10FF11DBF
:1003700044811F5F89E195E00E94FB14609117059D
:1003800070911805615070408AE195E04AE050E0B4
:100390000E94B3188AE195E06BE371E00E94831933
:1003A000E091C802F091C902E10FF11D8AE195E0E8
:1003B00063814AE050E00E94F31880911705909104
:1003C00018050196909318058093170560911705FD
:1003D00070911805E091C802F091C902CB01029713
:1003E0002081820F911D6817790708F4BFCFDF9134
:1003F000CF911F9108951F93CF93DF93882341F0EE
:100400008091C6029091C7029093C9028093C8025E
:100410008AE195E06FE371E00E947D1A8AE195E040
:100420006AE471E00E948319E091C802F091C90268
:100430008AE195E061814AE050E00E94E1188AE19A
:1004400095E062E571E00E948319E091C802F091A5
:10045000C9028AE195E062814AE050E00E94E11819
:100460008AE195E06CE571E00E948319E091C80291
:10047000F091C9028AE195E063814AE050E00E9470
:10048000F318A091C802B091C90211968C911197EE
:10049000882311F010E0BAC012968C911297813027
:1004A00019F40E945601B7C0823019F40E94E2117B
:1004B000B2C0833019F40E94C60EADC08430D9F4A6
:1004C000E0913004F0E0EA51FD4F14968C911497BE
:1004D0008083E0913104F0E0EA51FD4F15968C9154
:1004E00015978083E0913204F0E0EA51FD4F1696B3
:1004F0008C91808390C0853019F40E944B048BC08E
:10050000863019F40E944B1086C0873009F083C0F2
:100510008AE195E067E671E00E947D1A7CC0C12FF8
:10052000D0E0A091C802B091C902AE01440F551F9E
:10053000440F551F4C0F5D1FBA016E5B7B4FFB01D3
:10054000908111968C911197981709F05EC0FA016D
:10055000ED5BFB4FE0812E2F2F7130E012968C91D6
:10056000129790E02817390709F04FC0E295E695F9
:10057000E7702E2F30E013968C91139790E0281798
:10058000390709F042C07093E5026093E402FA0172
:10059000EC5BFB4F2081822F877090E00297CCF4B8
:1005A00081818770880F880F269526952695622F62
:1005B0006770FA01EB5BFB4F408146954695469587
:1005C00047701496269526952695822B9D010E94AC
:1005D0008C009E01220F331F220F331F2C0F3D1F53
:1005E000F901EC5BFB4F8081877079F0F901EB5BDF
:1005F000FB4F908192959695969593708181877027
:10060000880F880F892B0E94600B1F5F80917404F4
:10061000181708F484CFDF91CF911F910895CF92DE
:10062000DF92EF92FF920F931F93CF93DF93F82EF9
:10063000D62EC22E8AE195E06DE671E00E947D1A09
:10064000E091C602F091C7028091C4028183F282D8
:10065000D38283E0C80EC0828DEFC80E34960E1789
:100660001F07B9F0E80100E010E011C0E091C602F8
:10067000F091C702E00FF11F888184838AE195E041
:1006800069914AE050E00E94F3180F5F1F4F0C156C
:1006900068F38AE195E06CE771E00E948319E091CC
:1006A000C602F091C7028AE195E061814AE050E01C
:1006B0000E94E1188AE195E062E871E00E948319E6
:1006C000E091C602F091C7028AE195E062814AE0BA
:1006D00050E00E94E1188AE195E069E871E00E942B
:1006E0008319E091C602F091C7028AE195E0638127
:1006F0004AE050E00E94E1188AE195E061E971E08A
:100700000E9483198AE195E06BE971E00E948319E8
:10071000E091C602F091C7028AE195E060814AE06B
:1007200050E00E94E1188AE195E062EA71E00E94DF
:100730008319E091C602F091C7028AE195E06481D5
:100740004AE050E00E94E1188AE195E069EA71E030
:100750000E948319E091C602F091C7028AE195E0F8
:1007600065814AE050E00E94E1188AE195E069EA7B
:1007700071E00E948319E091C602F091C7028AE1FC
:1007800095E066814AE050E00E94E1188AE195E038
:1007900069EA71E00E948319E091C602F091C702F4
:1007A0008AE195E067814AE050E00E94E1188AE121
:1007B00095E069EA71E00E948319E091C602F09128
:1007C000C7028AE195E060854AE050E00E94E118A6
:1007D0008AE195E069EA71E00E948319E091C6021E
:1007E000F091C7028AE195E061854AE050E00E94FD
:1007F000E1188AE195E069EA71E00E948319E091CD
:10080000C602F091C7028AE195E062854AE050E0B5
:100810000E94E1188AE195E069EA71E00E9483197B
:10082000E091C602F091C7028AE195E063854AE053
:1008300050E00E94F3188091FA048D5F8C0D809334
:10084000FA0490E00C96849740F01092FA0482EB40
:1008500094E09093C7028093C60281E00E94FB015E
:10086000EE2081F48AE195E063E20E94D017E091E6
:10087000C602F091C70240818AE195E0BF0150E0D5
:100880000E94A617DF91CF911F910F91FF90EF90DB
:10089000DF90CF900895EF92FF920F931F93DF9315
:1008A000CF9300D0CDB7DEB71A8219828AE195E0E6
:1008B0006BEA71E00E947D1A5091E103209174046B
:1008C00085E0289F900111248091B10446E0849F27
:1008D000C0011124280F391F40914004852F90E05A
:1008E000840F911D280F391F309318052093170589
:1008F0002D5F334038F080E061E041E022E007E125
:1009000015E0DCC069817A816F5F7F4F7A836983EC
:100910006150704089E195E0452F0E94FB1410E082
:1009200010C06F5F7F4F7A83698361507040E12F01
:10093000F0E0EA51FD4F89E195E040810E94FB140F
:100940001F5F8091E10369817A81181750F36F5F0F
:100950007F4F7A8369836150704089E195E04091CF
:1009600041040E94FB1410E039EFE32EF12C11C07A
:100970006F5F7F4F7A83698361507040F701E11B9D
:10098000F109EA51FD4F89E195E040810E94FB1495
:100990001F5F8091410469817A81181748F36F5F66
:1009A0007F4F7A8369836150704089E195E040917F
:1009B00040040E94FB1410E010C06F5F7F4F7A83E9
:1009C000698361507040E12FF0E0E05DFB4F89E109
:1009D00095E040810E94FB141F5F80914004698173
:1009E0007A81181750F36F5F7F4F7A836983615064
:1009F000704089E195E0409174040E94FB1485E009
:100A0000189F800111240E5B1B4FEE2425E0F22E6F
:100A10000EC06F5F7F4F7A83698361507040E00F33
:100A2000F11F89E195E040810E94FB14E394EE2DD3
:100A3000F0E0809174048F9DC001112469817A8156
:100A4000E817F90730F36F5F7F4F7A83698361504E
:100A5000704089E195E04091B1040E94FB1486E06A
:100A6000E89E800111240B581B4FEE2496E0F92ECE
:100A700010C069817A816F5F7F4F7A83698361508B
:100A80007040E00FF11F89E195E040810E94FB1466
:100A9000E394EE2DF0E08091B1048F9DC00111240C
:100AA000E817F90730F38091C502823050F080E0FA
:100AB00062E041E022E08E010F5F1F4FEE240E94B2
:100AC0000F030F900F90CF91DF911F910F91FF9027
:100AD000EF900895AF92BF92CF92DF92EF92FF9284
:100AE0000F931F93DF93CF9300D00F92CDB7DEB754
:100AF000182FA090E202B090E3028AE195E066EB45
:100B000071E00E9483198AE195E0612F4AE050E08C
:100B10000E94F3181F3FA1F5F501838160E00E9458
:100B2000F61BF501818184FF5AC120912F048AE0D0
:100B3000289FC00111248E509C4F9093E102809316
:100B4000E0022F708281807F822B8283818185FDEC
:100B500046C1E091E202F091E30290819295969570
:100B6000977081818370880F880F880FF5016185E8
:100B7000728543855485892B20E00E94D7002FC1C0
:100B8000F501818184FF97C082818F70682F70E0AA
:100B9000FB01EE0FFF1FCB0103E0880F991F0A95A1
:100BA000E1F7E80FF91FCF018E509C4F9093E102BF
:100BB0008093E002113031F4EA50FC4F80818C7F49
:100BC00080830DC1112331F4EA50FC4F80818C7F6A
:100BD00082608083FB01EE0FFF1FEE0FFF1FE60F09
:100BE000F71FEE0FFF1FEC50FC4F0190F081E02D3E
:100BF0003097A1F4FB01EE0FFF1FCB0143E0880FFC
:100C0000991F4A95E1F7E80FF91FEE50FC4F458117
:100C10005681809104059091050524C0DB01AA0F3F
:100C2000BB1FCB0123E0880F991F2A95E1F731976D
:100C300069F4A80FB91FAE50BC4F15964D915C9149
:100C4000169780910A0590910B050CC0A80FB91F4B
:100C5000AE50BC4F15964D915C91169780910E0544
:100C600090910F05480F591F9B01220F331FCB0195
:100C700003E0880F991F0A95E1F7280F391FF90142
:100C8000EE50FC4F808591854817590730F4F901E3
:100C9000EA50FC4F808184608083FB01B3E0EE0F5B
:100CA000FF1FBA95E1F7660F771FE60FF71FEE50AB
:100CB000FC4F51874087F50183810E94D41B6C0152
:100CC000F50186819781C816D90619F420E030E035
:100CD00003C09601281B390BF501848190E0281789
:100CE000390718F4123009F07AC0DB82CA82FAE0C0
:100CF000CF16D10410F4C98233C0F501658170E0CC
:100D000080E090E00E947F1E20E030E040E850EC60
:100D10000E94351F20E030EC4FE754E40E947E1D16
:100D20009B01AC0160E070E088EC92E40E94E61D5B
:100D30007B018C01B60180E090E00E947F1E9B0148
:100D4000AC01C801B7010E94351F0E94531E698380
:100D50006A3010F48AE003C0653610F084E68983B7
:100D60008AE195E069EC71E00E9483198AE195E0DF
:100D700069814AE050E00E94E1188AE195E061ED66
:100D800071E00E9483196A817B818AE195E04AE0E3
:100D900050E00E94C4188A819B81F5019783868365
:100DA00089818087E091E202F091E302208122951F
:100DB0002695277081818370880F880F880FF50131
:100DC00091819295969596959170822B60E040E086
:100DD00023E08E010F5F1F4FE92E0E940F030F903B
:100DE0000F900F90CF91DF911F910F91FF90EF9097
:100DF000DF90CF90BF90AF900895CF92DF92EF92A7
:100E0000FF920F931F93DF93CF9300D0CDB7DEB740
:100E1000F82EC090E202D090E3028AE195E06FEDF7
:100E200071E00E9483198AE195E06F2D4AE050E05D
:100E30000E94F318F6018181FFEFFF1681F584FF10
:100E4000EDC120912F043AE0239FC00111248E5060
:100E50009C4F9093E1028093E0022F70F601828113
:100E6000807F822B8283818185FDD8C1E091E2025F
:100E7000F091E302908192959695977081818370AD
:100E8000880F880F880FF6016481639FB0011124D9
:100E9000892B41E050E020E00E94D700BFC184FFD1
:100EA00099C0F60182818F70682F70E0FB01EE0F10
:100EB000FF1FCB01A3E0880F991FAA95E1F7E80F68
:100EC000F91FCF018E509C4F9093E1028093E00276
:100ED00021E0F21631F4EA50FC4F80818C7F808350
:100EE0009DC1FF2031F4EA50FC4F80818C7F8260ED
:100EF0008083FB01EE0FFF1FEE0FFF1FE60FF71FB2
:100F0000EE0FFF1FEC50FC4F0190F081E02D309769
:100F1000A1F4FB01EE0FFF1FCB0123E0880F991F07
:100F20002A95E1F7E80FF91FEE50FC4F45815681F5
:100F3000809104059091050524C0DB01AA0FBB1F19
:100F4000CB0113E0880F991F1A95E1F7319769F4E7
:100F5000A80FB91FAE50BC4F15964D915C911697D6
:100F600080910A0590910B050CC0A80FB91FAE50D7
:100F7000BC4F15964D915C91169780910E059091FE
:100F80000F05480F591F9B01220F331FCB01E3E0D0
:100F9000880F991FEA95E1F7280F391FF901EE50E4
:100FA000FC4F808591854817590730F4F901EA50C4
:100FB000FC4F808184608083FB0133E0EE0FFF1FD4
:100FC0003A95E1F7660F771FE60FF71FEE50FC4FDB
:100FD000518740878AE195E060EF71E00E948319B4
:100FE000E091E002F091E102658176818AE195E08D
:100FF0004AE050E00E94C418F60163818CED92E053
:1010000070E00E9407159A8389838AE195E06BEF6F
:1010100071E00E94831969817A818AE195E04AE052
:1010200050E00E94641989819A81FFEF8F3F9F07EA
:1010300031F0009771F08E5F9F4FE1F505C08AE1B6
:1010400095E061E072E03AC08AE195E060E172E02B
:1010500035C08AE195E06FE172E00E9483196091EA
:10106000DC027091DD02882777FD8095982F0E9421
:10107000811EAB01BC018AE195E022E030E00E94D4
:101080006A1A8AE195E06DE272E00E94831960912C
:10109000DE027091DF02882777FD8095982F0E94ED
:1010A000811EAB01BC018AE195E022E030E00E94A4
:1010B0006A1A06C08AE195E06EE372E00E947D1A2A
:1010C00029813A81F601868197812115310591F1B7
:1010D000FFEF8D399F073CF44FEF8D38940709F4EB
:1010E0009DC0019702C08CE99FEFF601978386832C
:1010F00095E0220F331F9A95E1F7F60186819781DB
:10110000280F391F3A832983E091E202F091E3022C
:10111000908192959695977081818370880F880F42
:10112000880F892B6FEF41E022E08E010F5F1F4F88
:10113000EE2472C04091DE025091DF029A01281B1A
:10114000390B37FF03C0309521953F4FF60185815C
:1011500090E0281739073CF4F2E0FF1621F0F60181
:10116000818186FF1FC0F60157834683E091E2022A
:10117000F091E3022081229526952770818183706A
:10118000880F880F880FF601918192959695969514
:101190009170822B60E040E022E00EED12E0E92E3B
:1011A0000E940F032091DC023091DD02F60181855F
:1011B00092852817390719F440E050E003C0A901CF
:1011C000481B590BF601808590E04817590738F401
:1011D000F2E0FF1621F0F601818186FF1FC0F601C3
:1011E00032872187E091E202F091E302208122958B
:1011F0002695277081818370880F880F880FF601EC
:1012000091819295969596959170822B61E040E040
:1012100022E00CED12E0E92E0E940F030F900F90D8
:10122000CF91DF911F910F91FF90EF90DF90CF90C2
:101230000895CF92DF92EF920F931F93DF93CF9396
:101240000F92CDB7DEB7182FC090E202D090E30224
:101250008AE195E06CE472E00E9483198AE195E0EE
:10126000612F4AE050E00E94E1188AE195E06AE5CA
:1012700072E00E948319D60112966C9162956F708C
:101280008AE195E04AE050E00E94E1188AE195E0A9
:1012900061E672E00E948319F60162816F708AE153
:1012A00095E04AE050E00E94F3180E94AD001F3F15
:1012B00009F04FC0D60113968C9186958695869538
:1012C00061E00E94F61BF6018381869586958695DE
:1012D00060E00E94351CD60114968C918F7161E0FC
:1012E0000E94F61B82E060E00E94F61B83E280937E
:1012F000B0008AE08093B1008FE48093B300109235
:10130000B400F601218124FF9BC190912F049F70AE
:101310008281807F892B828325FD92C1E091E20248
:10132000F091E302908192959695977081818370F8
:10133000880F880F880FD6011C966D917C911D97A0
:101340001E964D915C911F97892B20E00E94D7003B
:1013500077C1113011F4F6013BC0123081F4D6018F
:1013600012968C9112978F70806212968C931297BE
:1013700013968C911397887F13968C9345C01330E6
:1013800019F01630F1F406C0F6018381887F816080
:10139000838308C0D60113968C911397887F82604F
:1013A00013968C93F6018281982F92959F709130BD
:1013B00009F446C18F70933069F0D60112968C9370
:1013C00023C0143051F4F6018381887F81608383C8
:1013D00082818F708062828317C01530A9F4D60194
:1013E00013969C911397892F877019F0987F139605
:1013F0009C93F6019281892F82958F70833009F03A
:101400001FC19F7090629283D60111968C911197A3
:1014100084FF0DC012968C918F702AE0829FC001CC
:1014200011248E509C4F9093E1028093E002F601CC
:101430002281822F82958F7090E08230910509F48D
:1014400045C08330910509F4C5C0892B09F0F8C067
:101450002F702061D60112962C93129711968C91C1
:10146000119784FFEDC0E091E002F091E1028481E8
:101470008C7F816084831C964D915C911D9756836F
:1014800045831E968D919C911F979383828300972D
:1014900029F420910405309105050BC0019729F42A
:1014A00020910A0530910B0504C020910E05309162
:1014B0000F05240F351F808591852817390718F4EB
:1014C00084818460848331872087BAC0F601838158
:1014D00086958695869561E00E94351CD601139607
:1014E0008C911397877019F416968C910AC08130ED
:1014F00019F4F601878105C0823021F4D6011596D2
:101500008C918983898190E013E0880F991F1A9547
:10151000E1F76AE070E00E94CF1F6093B400F6012B
:10152000818184FF33C0E091E002F091E102848187
:101530008C7F81608483D60118964D915C911997B8
:10154000568345831A968D919C911B979383828332
:10155000009729F420910405309105050BC00197EF
:1015600029F420910A0530910B0504C020910E0545
:1015700030910F05240F351F808591852817390775
:1015800018F484818460848331872087F601828106
:101590008F7080638283E091E202F091E302208108
:1015A00022952695277081818370880F880F880F78
:1015B000D60111969C919295969596959170822B55
:1015C00062E040E021E08E010F5F1F4FE92E0E9494
:1015D0000F0336C01092B400F60182818F708283AF
:1015E000838186958695869560E00E94351CE09102
:1015F000E202F091E30220812295269527708181F5
:101600008370880F880F880FD60111969C91929550
:10161000969596959170822B61E040E021E08E01D5
:101620000F5F1F4FE92E0E940F03F601818184FF97
:1016300007C0E091E002F091E10284818C7F848315
:101640000F90CF91DF911F910F91EF90DF90CF908E
:101650000895FF920F931F93082F162FF42EE02F5B
:10166000F0E0EE51FC4FE081F0E0EA51FD4FF093E5
:10167000E302E093E20280818F7190E08330910574
:1016800049F08430910551F0029759F4812F0E945E
:10169000190907C0812F0E94FD0603C0812F0E94F7
:1016A0006A05FF2049F0E091E202F091E3028181B6
:1016B00083FF02C00F5FD3CF1F910F91FF9008955A
:1016C000CF92DF92EF92FF920F931F93DF93CF930E
:1016D00000D000D0CDB7DEB7182FE12EFF24A70130
:1016E000440F551F4E0D5F1D440F551FBA016B5817
:1016F0007B4FDB012C91822F8F7090E0873091051A
:1017000009F42CC188309105FCF48330910509F46B
:10171000ACC0843091055CF48130910509F45DC062
:10172000823091050CF07DC0892B99F130C0853055
:10173000910509F4DDC022952F70DB011196EC9123
:1017400006970CF0F9C0B5C08B30910509F47CC147
:101750008C3091056CF48930910509F436C12295DD
:101760002F70DB011196EC910A970CF051C10BC15F
:101770008D30910509F4B2C18D3091050CF489C109
:101780008E30910509F4CFC10F9709F4EFC100E045
:101790000FC200E022952F70DB011196EC91E170F1
:1017A000E295E07FE22BF0E0E05DFB4FA081B0E04E
:1017B000AA51BD4FFA01EA58FB4FE081E695EF715F
:1017C000F0E0E05DFB4FE081F0E0EA51FD4F9C91DD
:1017D0008081981709F0ECC1BFC000E022952F70FE
:1017E000DB011196EC91E170E295E07FE22BF0E0F5
:1017F000E05DFB4FA081B0E0AA51BD4FFA01EA586D
:10180000FB4FE081E695EF71F0E0E05DFB4FE0819A
:10181000F0E0EA51FD4F9C918081981709F09CC03F
:10182000C7C100E022952F70DB011196EC91E170A9
:10183000E295E07FE22BF0E0E05DFB4FA081B0E0BD
:10184000AA51BD4FFA01EA58FB4FE081E695EF71CE
:10185000F0E0E05DFB4FE081F0E0EA51FD4F9C914C
:101860008081891708F0A4C177C000E022952F700D
:10187000DB011196EC91E170E295E07FE22BF0E064
:10188000E05DFB4FA081B0E0AA51BD4FFA01EA58DC
:10189000FB4FE081E695EF71F0E0E05DFB4FE0810A
:1018A000F0E0EA51FD4F9C918081981708F480C1C7
:1018B00053C000E0E170E295E07FE22BF0E0E05DF4
:1018C000FB4FA081B0E0AA51BD4FFA01EA58FB4F8F
:1018D000E081E695EF71F0E0E05DFB4FE081F0E044
:1018E000EA51FD4F9C918081981708F061C134C086
:1018F00000E022952F70DB011196EC91E170E295EA
:10190000E07FE22BF0E0E05DFB4FA081B0E0AA5168
:10191000BD4FFA01EA58FB4FE081E695EF71F0E028
:10192000E05DFB4FE081F0E0EA51FD4F9C9180814A
:10193000891708F43DC110C000E0E170E295E07F36
:10194000E22BF0E0E05DFB4FE081F0E0EA51FD4F7B
:101950008081882309F02CC101E02AC122952F70D3
:10196000DB011196EC91E170E295E07FE22BF0E073
:10197000E05DFB4FE081F0E0EA51FD4F808188237C
:1019800091F460E0A9C0E170E295E07FE22BF0E025
:10199000E05DFB4FE081F0E0EA51FD4F808188235C
:1019A00011F061E099C0FA01EA58FB4FE081E69539
:1019B000EF71F0E0E05DFB4FE081F0E0EA51FD4FB8
:1019C000E081E111E1E06E2F87C0FA01EA58FB4F98
:1019D000E081E695EF71F0E0E05DFB4FA0818A2F9A
:1019E00090E08A519D4F22952F70DB011196EC916A
:1019F000E170E295E07FE22BF0E0E05DFB4FE081FB
:101A0000F0E0EA51FD4FDC010C918081080FD0C05D
:101A1000E170E295E07FE22BF0E0E05DFB4FA0811A
:101A2000B0E0AA51BD4FFA01EA58FB4FE081E695BC
:101A3000EF71F0E0E05DFB4FE081F0E0EA51FD4F37
:101A40000C918081081BB4C0FA01EA58FB4FE08179
:101A5000E695EF71F0E0E05DFB4FA0818A2F90E00A
:101A60008A519D4F22952F70DB011196EC91E17008
:101A7000E295E07FE22BF0E0E05DFB4FE081F0E0FB
:101A8000EA51FD4FDC019C918081989F002D11242B
:101A90008FC022952F70DB011196EC91E170E295D9
:101AA000E07FE22BF0E0E05DFB4FA081B0E0AA51C7
:101AB000BD4FFA01EA58FB4FE081E695EF71F0E087
:101AC000E05DFB4FE081F0E0EA51FD4F60818C91D9
:101AD00090E070E00E94BB1F062F6AC022952F7015
:101AE000DB011196EC91E170E295E07FE22BF0E0F2
:101AF000E05DFB4FA081B0E0AA51BD4FFA01EA586A
:101B0000FB4FE081E695EF71F0E0E05DFB4FE08197
:101B1000F0E0EA51FD4F60818C9190E070E00E940E
:101B2000BB1F082F45C0FA01EA58FB4FE081E6953C
:101B3000EF71F0E0E05DFB4FA0818A2F90E08A51C9
:101B40009D4F22952F70DB011196EC91E170E2958B
:101B5000E07FE22BF0E0E05DFB4FE081F0E0EA5156
:101B6000FD4FDC010C918081082322C0FA01EA5864
:101B7000FB4FE081E695EF71F0E0E05DFB4FA08167
:101B80008A2F90E08A519D4F22952F70DB0111968C
:101B9000EC91E170E295E07FE22BF0E0E05DFB4F3D
:101BA000E081F0E0EA51FD4FDC010C918081082BCF
:101BB0008AE195E06AE672E00E9483198AE195E085
:101BC000612F4AE050E00E94E1188AE195E06FE65B
:101BD00072E00E9483198AE195E0602F4AE050E0AC
:101BE0000E94E1188AE195E068E772E00E9483199B
:101BF000F701EE0FFF1FEE0DFF1DEE0FFF1FFA8323
:101C0000E9836F0185E794E0C80ED91ED6018C9157
:101C100082958F701196EC91E170E295E07FE82B50
:101C2000F0E0E05DFB4FE081F0E0EA51FD4F8AE13A
:101C300095E060814AE050E00E94E1188AE195E079
:101C400060E872E00E948319E981FA81EA58FB4F4B
:101C5000FC83EB83E081E695EF71F0E0E05DFB4F04
:101C6000E081F0E0EA51FD4F8AE195E060814AE0D1
:101C700050E00E94F318AB81BC818C9182958695CF
:101C80008695837011969C919370990F990F982B5C
:101C9000892F865F8F70823038F4D6011496EC91CC
:101CA000F0E0E05DFB4F0083002381F1913031F0E3
:101CB000933021F0953011F0963071F4F701EE0F6A
:101CC000FF1FEE0DFF1DEE0FFF1FEB58FB4F848132
:101CD000658140E00E94290BF701EE0FFF1FEE0D1A
:101CE000FF1DEE0FFF1FEA58FB4F808182958695FE
:101CF0008695837091819370990F990F982B9230EC
:101D000039F0943029F0953019F033C0933071F4E4
:101D1000F701EE0FFF1FEE0DFF1DEE0FFF1FE9583D
:101D2000FB4F1081169516951695D7CC943059F423
:101D3000F701EE0FFF1FEE0DFF1DEE0FFF1FEB581B
:101D4000FB4F1481CACC9630A1F4F701EE0FFF1FB0
:101D5000EE0DFF1DEE0FFF1FDF01A958BB4F6C9169
:101D6000669566956695EB58FB4F838140E00E942F
:101D7000290B0F900F900F900F90CF91DF911F9133
:101D80000F91FF90EF90DF90CF9008951F931091E7
:101D9000E003A091C802B091C902E091E202F09183
:101DA000E30270E060E035C0E72FF0E0EA51FD4F5C
:101DB0005081852F82958695877041814370440FAD
:101DC000440F440F482B242F30E013968C91139727
:101DD00090E02817390759F4F093E302E093E20208
:101DE000842F14966C9140E00E94290B18C0852F17
:101DF0008F71833029F0843039F0823039F402C099
:101E00008BE005C080E103C08DE001C080E0780F69
:101E10006F5F611748F2F093E302E093E2021F91D3
:101E200008958F929F92AF92BF92CF92DF92EF92DE
:101E3000FF920F931F9380902E04F09013059090C3
:101E40000005A0900105B0900A05C0900B05D09048
:101E50000E05E0900F056091E0027091E102A4EFA1
:101E6000B3E040E050E005C1142F052FCA01BC01CA
:101E7000F3E0660F771FFA95E1F7880F991F680F57
:101E8000791F6E507C4FCA01FC0133E0EE0FFF1F3B
:101E90003A95E1F7880F991FE80FF91FEA50FC4FB8
:101EA0008081837009F4E2C0CA01FC0133E0EE0FC7
:101EB000FF1F3A95E1F7880F991FE80FF91FEA50C5
:101EC000FC4F808182FF31C08D919C911197892BAD
:101ED00099F4FF2009F4CAC0CA01FC0133E0EE0FF7
:101EE000FF1F3A95E1F7880F991FE80FF91FEA5095
:101EF000FC4F80818B7F80838D919C9111970197FE
:101F0000A1F4FF2009F4B2C0812F902FFC0133E02F
:101F1000EE0FFF1F3A95E1F7880F991FE80FF91FA1
:101F2000EA50FC4F80818B7F80838D919C9111972B
:101F3000009719F4892D9A2D07C0019719F48B2D5C
:101F40009C2D02C08D2D9E2D9C0116968D919C91ED
:101F500017972817390708F489C07093E102609336
:101F6000E002812F902FFC0153E0EE0FFF1F5A95E6
:101F7000E1F7880F991FE80FF91FEA50FC4F8081A5
:101F80008370813091F4812F902FFC01B3E0EE0F2C
:101F9000FF1FBA95E1F7880F991FE80FF91FEA5064
:101FA000FC4F80818C7F808336C0812F902FFC0175
:101FB00073E0EE0FFF1F7A95E1F7880F991FE80F86
:101FC000F91FEE50FC4F85819681280F391F281785
:101FD000390788F4812F902FFC0153E0EE0FFF1F8B
:101FE0005A95E1F7880F991FE80FF91FEA50FC4F47
:101FF000808184608083812F902FFC01B3E0EE0FFD
:10200000FF1FBA95E1F7880F991FE80FF91FEE50EF
:10201000FC4F31872087812F902FFC0173E0EE0F5A
:10202000FF1F7A95E1F7880F991FE80FF91FEE500F
:10203000FC4F908192959695977081818170880F61
:10204000880F880F212F302FF90153E0EE0FFF1F6B
:102050005A95E1F7220F331FE20FF31FEE50FC4FAA
:10206000892B678141E00E94290B0AC04F5F5F4FB7
:102070001A96481508F4F8CE7093E1026093E002D6
:102080001F910F91FF90EF90DF90CF90BF90AF9096
:102090009F908F900895CF92DF92EF92FF920F93CF
:1020A0001F93DF93CF9300D0CDB7DEB71A8219828A
:1020B00089E195E06FEF73E00E94F4148093C4020D
:1020C00089E195E06EEF73E00E94F4148093C502FD
:1020D00069817A816F5F7F4F7A8369836150704035
:1020E00089E195E00E94F414082F1092E10314C0D6
:1020F0006F5F7F4F7A8369836150704089E195E01B
:102100000E94F414E12FF0E0EA51FD4F80838091AA
:10211000E1038F5F8093E1031091E10369817A818C
:10212000101730F36F5F7F4F7A836983615070407F
:1021300089E195E00E94F414082F1092410419EFF0
:10214000E12EF12C15C06F5F7F4F7A836983615058
:10215000704089E195E00E94F414F701E11BF10958
:10216000EA51FD4F8083809141048F5F8093410449
:102170001091410469817A81101728F36F5F7F4FB6
:102180007A8369836150704089E195E00E94F4147C
:10219000082F1092400414C06F5F7F4F7A836983C9
:1021A0006150704089E195E00E94F414E12FF0E065
:1021B000E05DFB4F8083809140048F5F80934004FB
:1021C0001091400469817A81101730F36F5F7F4F5F
:1021D0007A8369836150704089E195E00E94F4142C
:1021E00080937404FF24B5E0EB2E0FC06F5F7F4F28
:1021F0007A8369836150704089E195E00E94F4140C
:102200000E5B1B4FF8018083F3940F2D10E080913B
:1022100074048E9DC001112469817A810817190701
:1022200028F36F5F7F4F7A8369836150704089E143
:1022300095E00E94F4148093B10486E0F89E70014A
:10224000112485E794E0E80EF91EDD24A6E0CA2EED
:1022500011C069817A816F5F7F4F7A836983615092
:10226000704089E195E00E94F4140E0D1F1DF801E5
:102270008083D3940D2D10E08091B1048C9DC0011A
:1022800011240817190728F310E036C0EA51FD4F52
:10229000F093E302E093E202908192959695977015
:1022A00081818370880F880F880F892B6FEF40E042
:1022B0000E94290BE091E202F091E3028081829575
:1022C0008695877091819370990F990F990F982B2C
:1022D000933029F0943039F0923039F402C08BE019
:1022E00005C080E103C08DE001C080E0180F80913F
:1022F000E0038F5F8093E003E12FF0E09F012F5F09
:102300003F4F8091E10390E0281739070CF4BECFCE
:1023100010E034C0FA01EA51FD4FF093E302E0937C
:10232000E202918197FF0DC080818295869587702A
:102330009370990F990F990F892B60E040E00E94EC
:10234000290BE091E202F091E3028081829586956B
:10235000877091819370990F990F990F982B9330F3
:1023600029F0943039F0923039F402C08BE005C086
:1023700080E103C08DE001C080E0180F412F50E0E4
:102380009A012F5F3F4F8091E10390E028173907B2
:102390000CF28091C502823050F080E063E041E0B1
:1023A00022E08E010F5F1F4FEE240E940F030F905B
:1023B0000F90CF91DF911F910F91FF90EF90DF90E1
:1023C000CF900895EF920F931F93CF93DF93E091F7
:1023D000C802F091C90213818AE195E069E872E0D0
:1023E0000E947D1AE091C602F091C7021282A0916C
:1023F000C802B091C9021630E8F514960C911497F2
:10240000112319F406EE12E02AC0113039F48AE0E3
:10241000089F800111240E501C4F21C0123039F446
:1024200085E0089F800111240E5B1B4F18C01330FC
:1024300039F486E0089F800111240B581B4F0FC010
:10244000E02FF0E0143021F48F01005D1B4F07C036
:10245000E05DFB4F8081082F10E00A511D4F15965B
:102460008C911597080F111D80E064E041E01696ED
:102470002C9159C015968C91159710921705809341
:10248000180514968C918093170510921805EE2468
:102490002FC089E195E00E94F414CE0DD11D8C83EC
:1024A000E3940E2D10E0015010408AE195E0B80150
:1024B0004AE050E00E9451198AE195E06BE371E037
:1024C0000E948319E091C602F091C702E00FF11F4C
:1024D0008AE195E064814AE050E00E94F31880911F
:1024E000170590911805019690931805809317058C
:1024F0006091170570911805CB010297E091C80211
:10250000F091C9022081820F911DC091C602D09125
:10251000C7026817790708F4BCCF249680E064E00E
:1025200041E02E2D8E01EE240E940F03DF91CF910A
:102530001F910F91EF900895EF920F931F93DF93E8
:10254000CF930F92CDB7DEB72091040530910505EA
:102550008091150590911605A901481B590BCA01D8
:10256000815D974010F01092FD048091FC0490E092
:102570008A529B4F9093C9028093C80230931605EC
:10258000209315058AE195E00E94E616682F89835D
:102590008AE195E00E94F8172091FD04222341F47E
:1025A00089818A3309F076C081E08093FD0472C08E
:1025B0002130B1F49981892F8253883070F4E091F1
:1025C000C802F091C9029053908382E08093FD0489
:1025D0001092FF041092FE045DC01092FD045AC0D8
:1025E000223008F457C08981805389832E3F08F038
:1025F00047C0E091C802F091C902E20FF11D319786
:1026000080838091FD048F5F8093FD04E091C80278
:10261000F091C902E0812E2F30E090E028173907B1
:10262000CCF58091FC04280F311D2831310520F4B0
:102630008E0F8093FC0402C01092FC049091FC0465
:102640008091FB04981751F480E060E041E020E0C5
:102650008E010F5F1F4FEE240E940F038AE195E069
:1026600068E972E00E9483198AE195E06091FD04B7
:102670004AE050E00E94F3181092FD0481E02AC065
:10268000992787FD90959093FF048093FE042F5F18
:102690002093FD048AE195E060EA72E00E948319CC
:1026A000E091C802F091C9028AE195E060814AE0B8
:1026B00050E00E94F3188AE195E068E972E00E9418
:1026C00083198AE195E06091FD044AE050E00E94A0
:1026D000F31880E00F90CF91DF911F910F91EF9051
:1026E0000895CF93DF930E94F31A609300057093CF
:1026F00001058093020590930305EB017093050596
:102700006093040524E630E040E050E00E94E21FC0
:10271000DA01C901F90130930B0520930A0568E637
:1027200071E00E94BB1F70930F0560930E058091AE
:10273000060590910705C817D907E0F441E04093DA
:10274000130580910C0590910D05E817F90778F4B1
:102750004093120580911005909111056817790733
:1027600018F44093140508C01092140505C0109287
:10277000120502C010921305809108059091090579
:102780009E01281B390B83E0283E380708F43FC020
:1027900080913004E82FF0E0C90168EE73E00E94F8
:1027A000BB1FEA51FD4F8081860F80838C3358F127
:1027B0008C53808380913104E82FF0E0EA51FD4F83
:1027C0009081892F8F5F80838C33E8F09B539083B7
:1027D00080913204E82FF0E0EA51FD4F9081892F7B
:1027E0008F5F8083883178F0975190838091330494
:1027F000E82FF0E0EA51FD4F80818F5F80838830C1
:1028000010F081E08083D0930905C09308050E94F1
:10281000110F8AE195E00E94CA16892B11F00E94DF
:102820009C129091FB048091FC04981721F18AE19D
:1028300095E066EA72E00E947D1A8091FB0490E0C8
:102840008A529B4F9093C9028093C80280E00E94F5
:10285000FB012091FB04822F90E0FC01EA52FB4F28
:10286000E0818E0F911D489720F4E20FE093FB0466
:1028700002C01092FB04809104059091050590938D
:1028800007058093060580910A0590910B059093AA
:102890000D0580930C0580910E0590910F05909386
:1028A000110580931005DF91CF9108950F931F9329
:1028B0000AE115E0C80140E051EE60E070E00E94DE
:1028C0004C16C8016AEA72E00E947D1A9091400499
:1028D00020914104A0E3B4E0FD01E90FF11D39EFBF
:1028E000832F821B80839F5F2F5FFD01E90FF11D06
:1028F000832F821B80839F5F2F5FFD01E90FF11DF6
:10290000832F821B80839F5F2F5FA90FB11D321B16
:102910003C939F5F909340042F5F2093410482E497
:10292000809375048AE08093760481E18093770434
:1029300081E08093790410927A0482E480937B048E
:102940008CE480937C0410927D0493E090937F0448
:1029500086E08093800482E8809381048EE88093EF
:1029600082049093840481E180938304909385048E
:102970009093860482E78093870480E5809388049F
:102980001092890490938B0485E080938C042091AD
:10299000C4022093420482E28093430481E4809342
:1029A000440489E08093450480914604887F8093A5
:1029B0004604909174042093470481E08093480476
:1029C00082E08093490480914A04887F806C8093E0
:1029D0004A0480914B04887F80934B049E5F9093C0
:1029E00074041F910F910895F999FECF72BD61BDD6
:1029F000F89A80B50895F999FECF1FBA72BD61BDEE
:102A000040BD0FB6F894FA9AF99A0FBE08952F9226
:102A10003F925F926F927F928F929F92AF92BF92FE
:102A2000CF92DF92EF92FF920F931F93DF93CF939A
:102A300000D000D00F92CDB7DEB73C01962E1982A0
:102A40001A821B821C821D82862F61E00E94F61B67
:102A5000892D60E00E94351C62E170E080E090E02A
:102A60000E946C1B892D61E00E94351C88E290E079
:102A70000E94271B892D60E00E94F61B00E117E2EF
:102A800005C001151105A1F101501040892D0E94CA
:102A9000891C892BB1F300E117E205C0011511056E
:102AA00039F101501040892D0E94891C0197B1F322
:102AB00006C001151105E1F0015010400AC027E0E1
:102AC000822E5524AA24BB2491E0292E312C00E12A
:102AD00017E2892D0E94891C892B59F30E94011B42
:102AE0006B017C0100E117E208C00115110519F422
:102AF0002EEF3FEF41C001501040892D0E94891CEC
:102B0000019799F30E94011B6C197D098E099F0999
:102B1000693271058105910580F0E1E0F0E0EC0F8C
:102B2000FD1FE50DF11D9101082C02C0220F331F7E
:102B30000A94E2F78081822B8083882021F45394C9
:102B400087E0882E01C08A940894A11CB11C88E2F9
:102B5000A816B10409F0BBCF8981F30180831182EB
:102B60009B8192831382980F8D81891719F420E03D
:102B700030E002C02FEF3FEFC9010F900F900F9090
:102B80000F900F90CF91DF911F910F91FF90EF90D9
:102B9000DF90CF90BF90AF909F908F907F906F907D
:102BA0005F903F902F90089508951F920F920FB657
:102BB0000F9211242F933F934F938F939F93EF93F3
:102BC000FF938091C00082FD19C04091C6008091A2
:102BD0003805282F30E02F5F3F4F2F7330708091E2
:102BE000390590E02817390759F0E0913805F0E0F1
:102BF000E65EFA4F42A32093380502C08091C600DA
:102C0000FF91EF919F918F914F913F912F910F9055
:102C10000FBE0F901F9018958091380520913905AF
:102C200090E0805C9F4F821B91098F739070892B7D
:102C300011F00E94D41508951F920F920FB60F92B3
:102C400011242F938F939F93EF93FF9390913A05C5
:102C500080913B05981731F48091C1008F7D80935E
:102C6000C10010C0E0913B05F0E0E458FA4F20812C
:102C700080913B0590E001968F73907080933B05A7
:102C80002093C600FF91EF919F918F912F910F900C
:102C90000FBE0F901F901895AF92BF92DF92EF92E8
:102CA000FF920F931F93CF93DF93EC017A018B0177
:102CB000DD24D39491E0A92EB12CE889F989DD2097
:102CC00069F0C5010C8C02C0880F991F0A94E2F7C5
:102CD000808360E874E88EE190E005C0108260E4D3
:102CE00072E48FE090E0A80197010E94E21F21505A
:102CF000304040405040569547953795279580E1A4
:102D00002030380720F0DD2011F0DD24D6CFEC850F
:102D1000FD853083EE85FF8520831D8EEA89FB8942
:102D2000408121E030E0C901088C02C0880F991F62
:102D30000A94E2F7482B4083EA89FB894081C90164
:102D4000098C02C0880F991F0A94E2F7482B408330
:102D5000EA89FB894081C9010A8C02C0880F991F4A
:102D60000A94E2F7482B4083EA89FB8980810B8C27
:102D700002C0220F331F0A94E2F7209528232083F4
:102D8000DF91CF911F910F91FF90EF90DF90BF9057
:102D9000AF900895FC01268D878D30E0205C3F4F79
:102DA000281B31092F733070C9010895FC01968DDD
:102DB000878D981719F42FEF3FEF06C0878DE80F26
:102DC000F11D82A1282F30E0C9010895DC015E9633
:102DD0009C915E975F968C915F97981719F42FEFEF
:102DE0003FEF10C05F968C915F97FD01E80FF11DDA
:102DF00092A15F968C915F978F5F8F735F968C9394
:102E0000292F30E0C9010895DC015D968C915D9712
:102E1000882339F05096ED91FC915197808186FF7F
:102E2000F9CF5D961C920895DC0190968C91909755
:102E3000282F30E02F5F3F4F2F73307091968C9189
:102E4000919790E028173907C9F390968C91909745
:102E5000FD01E80FF11DEE59FF4F608390962C9312
:102E600090975296ED91FC915397208181E090E0EC
:102E70005B960C905B9702C0880F991F0A94E2F74B
:102E8000282B208381E05D968C935D975096ED9181
:102E9000FC91519780818064808381E090E0089567
:102EA00010921D0510921C0588EE93E0A0E0B0E0A2
:102EB00080931E0590931F05A0932005B0932105D4
:102EC0008FEC92E090931B0580931A0510923B05BE
:102ED00080913B0580933A05109239058091390520
:102EE0008093380585EC90E0909327058093260524
:102EF00084EC90E0909329058093280580EC90E085
:102F000090932B0580932A0581EC90E090932D05FA
:102F100080932C0582EC90E090932F0580932E05F2
:102F200086EC90E0909331058093300584E08093A7
:102F3000320583E08093330587E08093340585E094
:102F40008093350581E0809336050895CF92DF9216
:102F5000EF92FF920F931F93CF93DF937C016B014E
:102F60008A01C0E0D0E00FC0D6016D916D01D7019C
:102F7000ED91FC910190F081E02DC7010995C80FFA
:102F8000D91F015010400115110571F7CE01DF91D5
:102F9000CF911F910F91FF90EF90DF90CF90089508
:102FA000DC01ED91FC910190F081E02D09950895EF
:102FB000EF92FF920F931F938C01DC01ED91FC9136
:102FC0000190F081E02D6DE009957C01D801ED9133
:102FD000FC910190F081E02DC8016AE009959C0107
:102FE0002E0D3F1DC9011F910F91FF90EF90089585
:102FF000EF92FF920F931F937C01DC01ED91FC9106
:103000000190F081E02D09958C01C7010E94D8172D
:10301000080F191FC8011F910F91FF90EF9008959D
:10302000CF93DF93EC016115710519F420E030E0D6
:103030000FC0DB010D900020E9F71197A61BB70B1D
:10304000E881F9810280F381E02DAD0109959C01B1
:10305000C901DF91CF9108954F925F927F928F9235
:103060009F92AF92BF92CF92DF92EF92FF920F9317
:103070001F93DF93CF93CDB7DEB7A1970FB6F89428
:10308000DEBF0FBECDBF2C01742ECB01223008F461
:103090002AE019A231E2C32ED12CCC0EDD1E822EE5
:1030A0009924AA24BB24672D752FA50194010E94A1
:1030B000E21F79018A01C801B701A50194010E94AC
:1030C0009C1F472D461B0894C108D1084A3014F4B0
:1030D000405D01C0495CF6014083E114F104010543
:1030E000110521F07E2C5F2DC801DDCFC201B60194
:1030F0000E941018A1960FB6F894DEBF0FBECDBF88
:10310000CF91DF911F910F91FF90EF90DF90CF90C3
:10311000BF90AF909F908F907F905F904F90089559
:10312000DC012115310541F4ED91FC910190F08114
:10313000E02D642F099508950E942C180895EF92B0
:10314000FF920F931F937C010E9490188C01C7017E
:103150000E94D8179C01200F311FC9011F910F91A8
:10316000FF90EF900895EF92FF920F931F939A01B3
:103170007B0100E010E0B801A7010E9490181F91A8
:103180000F91FF90EF900895CF92DF92EF92FF9210
:103190000F931F936C017B019A0100E010E0B801CE
:1031A000A7010E9490188C01C6010E94D817080F31
:1031B000191FC8011F910F91FF90EF90DF90CF90E2
:1031C0000895EF92FF920F931F939A01E62EFF242A
:1031D00000E010E0B801A7010E9490181F910F9124
:1031E000FF90EF900895CF92DF92EF92FF920F93AE
:1031F0001F936C01E62E9A01FF2400E010E0B80155
:10320000A7010E9490188C01C6010E94D817080FD0
:10321000191FC8011F910F91FF90EF90DF90CF9081
:103220000895CF92DF92EF92FF920F931F93CF9367
:10323000DF93EC016A017B012115310541F4E8813E
:10324000F9810190F081E02D642F09951FC02A308B
:103250003105D1F477FF17C0E881F9810190F08141
:10326000E02D6DE209958C0144275527BA014C19D0
:103270005D096E097F09CE012AE00E942C18980191
:10328000280F391F04C02AE00E942C189C01C90194
:10329000DF91CF911F910F91FF90EF90DF90CF9032
:1032A0000895EF92FF920F931F937B019A010027DD
:1032B000F7FC0095102FB801A7010E9411191F916A
:1032C0000F91FF90EF900895CF92DF92EF92FF92CF
:1032D0000F931F936C017B019A010027F7FC009567
:1032E000102FB801A7010E9411198C01C6010E947C
:1032F000D817080F191FC8011F910F91FF90EF9069
:10330000DF90CF9008950E94101808957F928F92B9
:103310009F92AF92BF92CF92DF92EF92FF920F9364
:103320001F93CF93DF934C017A018B01722ECB0157
:10333000BA01A80197010E94981F882321F0C401B7
:1033400066EB72E021C0C0E0D0E057016801E8946C
:10335000D7F8C601B5012FEF3FEF4FE75FE70E94B7
:10336000981F882351F4C601B5012FEF3FEF4FE7B7
:103370005FE70E94E21D181614F0C1E0D0E021972B
:1033800039F0C4016AEB72E00E941018EC0193C09E
:10339000C801B7012FEF3FEF4FE75FE40E94311FF5
:1033A000181654F0C801B7012FEF3FEF4FE75FEC5D
:1033B0000E94E21D882324F4C4016EEB72E0E4CF86
:1033C000C801B70120E030E040E050E00E94E21D7B
:1033D00087FD03C0C0E0D0E00EC0D401ED91FC91A8
:1033E0000190F081E02DC4016DE20995EC0117FB1D
:1033F000109517F9109520E030E040E05FE3DD2400
:103400000BC0CA01B90120E030E040E251E40E9463
:10341000E61D9B01AC01D394D71498F3C801B70102
:103420000E947E1D5B016C010E94531E7B018C017A
:10343000C401B801A7012AE030E00E949018C80F2B
:10344000D91F772039F0C40162EC72E00E94101895
:10345000C80FD91FC801B7010E947F1E9B01AC0194
:10346000C601B5010E947D1D24C020E030E040E28D
:1034700051E40E94351F7B018C010E944E1E5B01AE
:103480006C01CC24B7FCC094DC2CC401B601A501AE
:103490002AE030E00E941119C80FD91FC601B501FA
:1034A0000E94811E9B01AC01C801B7010E947D1DD5
:1034B0007A947720D1F6CE01DF91CF911F910F91B1
:1034C000FF90EF90DF90CF90BF90AF909F908F9044
:1034D0007F900895EF92FF920F931F937C010E94BB
:1034E00086198C01C7010E94D817080F191FC8013F
:1034F0001F910F91FF90EF900895EF92FF920F931D
:103500001F937C010E9410188C01C7010E94D817DC
:10351000080F191FC8011F910F91FF90EF90089598
:10352000CF93DF930E94311B0E945614CCE0D6E16A
:103530000E9471132097E1F30E940C16F9CF1F929D
:103540000F920FB60F9211242F933F934F935F93D7
:103550006F937F938F939F93AF93BF932091C005F9
:103560003091C1054091C2055091C3057091C405C9
:10357000DA01C9010296A11DB11D672F6A5F6D377F
:1035800030F06D57DA01C9010396A11DB11D60939A
:10359000C4058093C0059093C105A093C205B09364
:1035A000C3058091BC059091BD05A091BE05B09169
:1035B000BF050196A11DB11D8093BC059093BD056B
:1035C000A093BE05B093BF05BF91AF919F918F911E
:1035D0007F916F915F914F913F912F910F900FBE0F
:1035E0000F901F9018958FB7F8942091C0053091D7
:1035F000C1054091C2055091C3058FBFB901CA01F1
:1036000008959FB7F8942091BC053091BD05409175
:10361000BE055091BF0586B5A89B06C08F3F21F01F
:103620002F5F3F4F4F4F5F4F9FBF542F432F322F7E
:103630002227280F311D411D511D83E0220F331F0A
:10364000441F551F8A95D1F7B901CA010895019702
:1036500039F0019729F0880F991F01970197F1F729
:103660000895789484B5826084BD84B5816084BDFA
:1036700085B5826085BD85B5816085BDEEE6F0E0EB
:10368000808181608083E1E8F0E010828081826047
:103690008083808181608083E0E8F0E080818160C8
:1036A0008083E1EBF0E0808184608083E0EBF0E0F8
:1036B000808181608083EAE7F0E08081846080839C
:1036C0008081826080838081816080838081806846
:1036D00080831092C1000895EF92FF920F931F9381
:1036E000CF93DF937B018C013FB7F8948091BC05A9
:1036F0009091BD05A091BE05B091BF0526B5A89BD0
:1037000005C02F3F19F00196A11DB11D3FBFBA2F73
:10371000A92F982F8827820F911DA11DB11D53E05D
:10372000880F991FAA1FBB1F5A95D1F7EC0130C013
:103730000E947C1D3FB7F8948091BC059091BD0517
:10374000A091BE05B091BF0526B5A89B05C02F3F2F
:1037500019F00196A11DB11D3FBFBA2FA92F982FB7
:103760008827820F911DA11DB11D33E0880F991F7D
:10377000AA1FBB1F3A95D1F78C1B9D0B885E934007
:10378000B8F20894E108F10801091109C851DC4FA9
:10379000E114F1040105110559F6DF91CF911F9154
:1037A0000F91FF90EF900895982F8E3008F09E5063
:1037B00097708091CA028295880F880F807C892B30
:1037C00080937C0080917A00806480937A0080915D
:1037D0007A0086FDFCCF2091780040917900942FEB
:1037E00080E030E0282B392BC9010895CF93DF9377
:1037F000482F50E0CA0186569F4FFC0134914A572A
:103800005F4FFA018491882369F190E0880F991F36
:10381000FC01E859FF4FA591B491FC01EE58FF4F10
:10382000C591D491662351F42FB7F8948C91932FBE
:10383000909589238C93888189230BC0623061F431
:103840002FB7F8948C91932F909589238C9388812E
:10385000832B88832FBF06C09FB7F8948C91832B4E
:103860008C939FBFDF91CF910895482F50E0CA01FC
:1038700082559F4FFC012491CA0186569F4FFC013F
:1038800094914A575F4FFA013491332309F440C0B1
:10389000222351F1233071F0243028F42130A1F09B
:1038A000223011F514C02630B1F02730C1F0243099
:1038B000D9F404C0809180008F7703C0809180008C
:1038C0008F7D8093800010C084B58F7702C084B54F
:1038D0008F7D84BD09C08091B0008F7703C0809137
:1038E000B0008F7D8093B000E32FF0E0EE0FFF1F5C
:1038F000EE58FF4FA591B4912FB7F894662321F4A9
:103900008C919095892302C08C91892B8C932FBF29
:103910000895682F70E0CB0182559F4FFC012491E0
:10392000CB0186569F4FFC0144916A577F4FFB01A4
:103930009491992319F420E030E03CC0222351F106
:10394000233071F0243028F42130A1F0223011F519
:1039500014C02630B1F02730C1F02430D9F404C0AF
:10396000809180008F7703C0809180008F7D80934D
:10397000800010C084B58F7702C084B58F7D84BD70
:1039800009C08091B0008F7703C08091B0008F7D17
:103990008093B000892F90E0880F991F84589F4F23
:1039A000FC01A591B4918C9120E030E0842311F0CA
:1039B00021E030E0C90108958F929F92AF92BF92AB
:1039C000CF92DF92EF92FF920F931F93CF93DF93EB
:1039D000A82FB0E0CD0186569F4FFC018490AA57D6
:1039E000BF4FFD018491662311F4992401C0982CE6
:1039F00059016A0133E0AA0CBB1CCC1CDD1C3A95B2
:103A0000D1F724E0D694C794B794A7942A95D1F718
:103A1000682F70E0660F771F64587F4FEE24FF24F5
:103A20008701FB01A591B4910BC0EA14FB040C05BE
:103A30001D0509F44EC00894E11CF11C011D111D67
:103A40008C918821891589F30CC0EA14FB040C05BC
:103A50001D0509F43EC00894E11CF11C011D111D57
:103A600003C0FB01A591B4918C918821891569F758
:103A700020E030E040E050E0FB01C591D4910FC060
:103A8000DA01C9018E0D9F1DA01FB11F8A159B056C
:103A9000AC05BD05F1F02F5F3F4F4F4F5F4F888161
:103AA0008821891569F3CA01B90125E130E040E0B8
:103AB00050E00E949C1F9B01AC01205F3F4F4F4F85
:103AC0005F4F83E056954795379527958A95D1F7AF
:103AD00004C020E030E040E050E0B901CA01DF91CD
:103AE000CF911F910F91FF90EF90DF90CF90BF90FB
:103AF000AF909F908F90089508955058BB27AA27A4
:103B00000ED075C166D130F06BD120F031F49F3FFB
:103B100011F41EF45BC10EF4E095E7FB51C1E92FEF
:103B200077D180F3BA17620773078407950718F0F7
:103B300071F49EF58FC10EF4E0950B2EBA2FA02DD7
:103B40000B01B90190010C01CA01A0011124FF274A
:103B5000591B99F0593F50F4503E68F11A16F04045
:103B6000A22F232F342F4427585FF3CF4695379544
:103B70002795A795F0405395C9F77EF41F16BA0B09
:103B8000620B730B840BBAF09150A1F0FF0FBB1FB7
:103B9000661F771F881FC2F70EC0BA0F621F731F00
:103BA000841F48F4879577956795B795F7959E3F5D
:103BB00008F0B3CF9395880F08F09927EE0F9795EB
:103BC00087950895D9D008F481E008950CD00FC1ED
:103BD00007D140F0FED030F021F45F3F19F0F0C083
:103BE000511139C1F3C014D198F39923C9F3552366
:103BF000B1F3951B550BBB27AA27621773078407E0
:103C000038F09F5F5F4F220F331F441FAA1FA9F395
:103C100033D00E2E3AF0E0E830D091505040E69587
:103C2000001CCAF729D0FE2F27D0660F771F881FE8
:103C3000BB1F261737074807AB07B0E809F0BB0BD7
:103C4000802DBF01FF2793585F4F2AF09E3F5105FB
:103C500068F0B6C000C15F3FECF3983EDCF3869598
:103C600077956795B795F7959F5FC9F7880F911D71
:103C70009695879597F90895E1E0660F771F881F5D
:103C8000BB1F621773078407BA0720F0621B730B10
:103C9000840BBA0BEE1F88F7E095089504D0689462
:103CA000B111D9C00895BCD088F09F5790F0B92FBA
:103CB0009927B751A0F0D1F0660F771F881F991F81
:103CC0001AF0BA95C9F712C0B13081F0C3D0B1E093
:103CD0000895C0C0672F782F8827B85F39F0B93FA3
:103CE000CCF3869577956795B395D9F73EF4909583
:103CF0008095709561957F4F8F4F9F4F0895E89401
:103D000009C097FB3EF490958095709561957F4F23
:103D10008F4F9F4F9923A9F0F92F96E9BB279395D1
:103D2000F695879577956795B795F111F8CFFAF4E1
:103D3000BB0F11F460FF1BC06F5F7F4F8F4F9F4F12
:103D400016C0882311F096E911C0772321F09EE870
:103D5000872F762F05C0662371F096E8862F70E0D6
:103D600060E02AF09A95660F771F881FDAF7880FB0
:103D70009695879597F90895990F0008550FAA0B06
:103D8000E0E8FEEF16161706E807F907C0F012166E
:103D90001306E407F50798F0621B730B840B950B71
:103DA00039F40A2661F0232B242B252B21F40895C6
:103DB0000A2609F4A140A6958FEF811D811D089563
:103DC00097F99F6780E870E060E008959FEF80ECCE
:103DD000089500240A941616170618060906089571
:103DE00000240A9412161306140605060895092ED7
:103DF0000394000C11F4882352F0BB0F40F4BF2B46
:103E000011F460FF04C06F5F7F4F8F4F9F4F089585
:103E100057FD9058440F551F59F05F3F71F047957B
:103E2000880F97FB991F61F09F3F79F08795089560
:103E3000121613061406551FF2CF4695F1DF08C07F
:103E4000161617061806991FF1CF8695710561059C
:103E500008940895E894BB2766277727CB0197F944
:103E600008958ADF08F48FEF08950BD0C0CFB1DF3B
:103E700028F0B6DF18F0952309F0A2CFA7CF1124C0
:103E8000EACFC6DFA0F3959FD1F3950F50E0551F01
:103E9000629FF001729FBB27F00DB11D639FAA279F
:103EA000F00DB11DAA1F649F6627B00DA11D661FEE
:103EB000829F2227B00DA11D621F739FB00DA11D0F
:103EC000621F839FA00D611D221F749F3327A00DC9
:103ED000611D231F849F600D211D822F762F6A2F65
:103EE00011249F5750408AF0E1F088234AF0EE0FEA
:103EF000FF1FBB1F661F771F881F91505040A9F7F7
:103F00009E3F510570F05CCFA6CF5F3FECF3983E2B
:103F1000DCF3869577956795B795F795E7959F5F5D
:103F2000C1F7FE2B880F911D9695879597F90895F7
:103F300023DF880B990B0895629FD001739FF001D6
:103F4000829FE00DF11D649FE00DF11D929FF00D29
:103F5000839FF00D749FF00D659FF00D9927729F60
:103F6000B00DE11DF91F639FB00DE11DF91FBD01EB
:103F7000CF0111240895AA1BBB1B51E107C0AA1F42
:103F8000BB1FA617B70710F0A61BB70B881F991FFA
:103F90005A95A9F780959095BC01CD01089597FB9E
:103FA000092E07260AD077FD04D0E5DF06D00020D1
:103FB0001AF4709561957F4F0895F6F79095819565
:103FC0009F4F0895A1E21A2EAA1BBB1BFD010DC035
:103FD000AA1FBB1FEE1FFF1FA217B307E407F507B9
:103FE00020F0A21BB30BE40BF50B661F771F881F95
:103FF000991F1A9469F760957095809590959B012B
:10400000AC01BD01CF010895EE0FFF1F0590F491A3
:08401000E02D0994F894FFCFA4
:104018007265676C6F61643A200052706D3A2000D7
:104028002074696D6572206D6F642069643A2000A0
:104038002074696D657220756E69743A2000207469
:10404800696D657220696E743A20002D2D2D00452A
:104058006E7465722052656376007372636E6F6466
:104068006500207372636D6F643A20002073726379
:10407800536C6F743A2000544553542100456E74B4
:1040880065722053656E646D73673A002069643AFF
:104098002000206D6F643A200020736C6F743A2002
:1040A80000204D61737465723A2000204C656E3AA9
:1040B8002000207061793A20002D00536176654315
:1040C8006F6E66696700456E7465722072756E6101
:1040D8006E616C6F67696E3A0044617461253A20BD
:1040E80000416E616C6F6720646174613A2000451D
:1040F8006E7465722072756E64687431313A20008E
:10410800696E7420696E69743A200063686B3A209E
:1041180000436865636B73756D206572726F72001A
:1041280054696D65206F7574206572726F720048EE
:10413800756D69646974792825293A200054656D7C
:1041480070657261747572652843293A2000556E4E
:104158006B6E6F776E206572726F7200456E746554
:10416800722072756E66616E3A0073746174653A96
:104178000074696D657270747200636F6E3A002026
:10418800726573756C743A00206C6566743A200029
:104198002072696768743A200053656E64636F6EB5
:1041A800666967646174610073746174653A2000BC
:1041B8006C656E3A20006D736700537461727469A0
:1041C8006E672E2E2E006E616E00696E66006F7629
:1041D80066002E000103B204D6040100000000149A
:0C41E80017A617CA16E616D61604170014
:00000001FF
