:100000000C942B010C9453010C9453010C94530148
:100010000C9453010C9453010C9453010C94530110
:100020000C9453010C9453010C9453010C94530100
:100030000C9453010C946F150C9453010C945301C0
:100040000C944B1C0C9453010C948C170C94D317E8
:100050000C9453010C9453010C9453010C945301D0
:100060000C9453010C9453010000010001000100A5
:100070000100010001000100010001000100020077
:100080000200020002000200020002000200020060
:10009000020002000200020002000200030003004E
:1000A0000300030003000300030003000300030038
:1000B000040004000400040004000400040005001F
:1000C0000500050005000500050006000600060005
:1000D00006000600070007000700070008000800E8
:1000E000080008000900090009000A000A000A00C7
:1000F0000B000B000C000C000C000D000D000E009E
:100100000E000F000F00100010001100110012006F
:100110001300130014001500160016001700180035
:1001200019001A001A001B001C001D001E001F00F1
:100130002100220023002400250027002800290098
:100140002B002C002E00300031003300350037002A
:1001500038003A003D003F004100430045004800A0
:100160004A004D0050005300550058005C005F00ED
:100170006200660069006D007100750079007D0005
:10018000810086008A008F0094009A009F00A500DD
:10019000AA00B000B600BD00C300CA00D100D9005B
:1001A000E000E800F000F90002010B0114011E015B
:1001B000280132013D01480153015F016C017801C2
:1001C00086019301A101B001BF01CF01DF01F00160
:1001D00001021302260239024D02620277028D02E9
:1001E000A402BC02D502EE020803240340035D030F
:1001F0007B039A03BB03DC03FF0300000000240021
:1002000027002A0000000000250028002B00000025
:10021000000023002600290004040404040404044C
:1002200002020202020203030303030301020408A1
:100230001020408001020408102001020408102050
:100240000000000700020100000304060000000097
:1002500000000000101911241FBECFEFD8E0DEBF50
:10026000CDBF12E0A0E0B1E0E2EFF1E402C0059002
:100270000D92AA3FB107D9F715E0AAEFB2E001C08D
:100280001D92AD3EB107E1F712E0C6E5D2E004C031
:100290002297FE010E94F320C435D107C9F70E94BE
:1002A0003C1C0C94F7200C940000FC01828193818B
:1002B000009729F480911E0590911F050BC00197AE
:1002C00029F4809128059091290504C080912C057E
:1002D00090912D05909336058093350525813681C3
:1002E000280F391F80913505909136052817390759
:1002F00018F4848184608483318720870895CF93A4
:10030000DF93E90190E0E82FF0E0E25BFB4FD901D9
:10031000A60FB11D03C08C9180839F5F9417D8F303
:1003200082E495E060E071E00E942F1B82E495E09A
:1003300068814AE050E00E949F1ADF91CF910895B2
:100340001F93CF93DF93A091E602B091E70213963B
:100350008C911397863008F044C014969C911497A2
:10036000882319F424E033E02AC0813039F48AE08C
:10037000989F90011124205F3B4F21C0823039F4B7
:1003800085E0989F90011124205A3B4F18C083307C
:1003900039F486E0989F900111242D563B4F0FC0F1
:1003A000E92FF0E0843021F49F01225B3B4F07C02E
:1003B000E25BFB4F8081282F30E02C5F3C4F15968D
:1003C0008C911597E901C80FD11D92E006C0FD017F
:1003D000E90FF11D848189939F5F8C919817B8F381
:1003E00050C015968C91159710923505809336055F
:1003F00014968C91809335051092360512E030C02A
:10040000E10FF11D44811F5F81E495E00E94B21667
:1004100060913505709136056150704082E495E039
:100420004AE050E00E945F1A82E495E06AE071E0E1
:100430000E942F1BE091E602F091E702E10FF11D0F
:1004400082E495E063814AE050E00E949F1A809127
:1004500035059091360501969093360580933505C4
:100460006091350570913605E091E602F091E70262
:10047000CB0102972081820F911D6817790708F43C
:10048000BFCFDF91CF911F9108951F93CF93DF933B
:10049000182FEA01E091FE02F091FF02138212820E
:1004A000662309F04DC0888590E02F81821B910959
:1004B000909336058093350582E495E06EE071E017
:1004C0000E942F1B609135057091360582E495E0FE
:1004D0004AE050E00E945F1A112319F02B853C85F9
:1004E00002C029853A8584E690E0AC01249FC001D2
:1004F000259F900D349F900D1124A0E0B0E08093D3
:10050000370590933805A0933905B0933A052091AB
:1005100035053091360540E050E060913705709127
:1005200038058091390590913A050E94CF2020939B
:100530003705309338054093390550933A0518C074
:10054000623029F4898990E0A0E0B0E009C0888990
:100550002AE0829FC0011124AA2797FDA095BA2FF7
:100560008093370590933805A0933905B0933A05E9
:1005700082E495E06AE171E00E942F1B409137050B
:10058000509138056091390570913A0582E495E003
:100590002AE030E00E94501AE091FE02F091FF0242
:1005A00084818C7F826084838091370590913805A7
:1005B00096838583DF91CF911F910895AF92BF926B
:1005C000CF92DF92EF92FF920F931F93F82E6B0161
:1005D0005A01E22E02E415E0C80166E271E00E94D1
:1005E0002F1BC8016F2D4AE050E00E948D1AC801F0
:1005F00066E371E00E942F1BC801B5014AE050E09C
:100600000E94FD1AC80164E471E00E942F1BC8011A
:10061000B6014AE050E00E94101B60914D04262F65
:1006200030E0A901440F551FC90173E0880F991FDD
:100630007A95E1F7480F591FA0E1B4E0FD01E40FFE
:10064000F51FF093FF02E093FE028F2D8295880F35
:10065000807E8083F694F694F69481E0F82281817E
:100660008E7F8F298183D682C582F901EE0FFF1F0D
:10067000EE0FFF1FE20FF31F3196EE0FFF1FEA0F81
:10068000FB1FB182A0821496A40FB51F83E0E8225D
:100690008C918C7F8E298C9380914C048F5F8093FA
:1006A0004C046F5F60934D041F910F91FF90EF908A
:1006B000DF90CF90BF90AF9008950F931F93CF938B
:1006C000DF93182FC0910003D091010382E495E0DD
:1006D00061E571E00E942F1B82E495E0612F4AE002
:1006E00050E00E948D1A82E495E06FE571E00E946F
:1006F0002F1B6A8162956F7082E495E04AE050E0BA
:100700000E948D1A82E495E066E671E00E942F1B3C
:1007100082E495E06A894AE050E00E949F1A1F3FF8
:1007200009F05FC08B8186958695869551F061E0D2
:100730000E94961D8B8186958695869560E00E9425
:10074000D51D8C818F7159F161E00E94961D4F85F6
:1007500084E6489FA0011124662757FD6095762FF7
:100760008BE395E00E940A1682E495E06DE671E065
:100770000E942F1B6C816F7182E495E04AE050E08B
:100780000E949F1A82E495E064E771E00E942F1BAB
:1007900082E495E06F854AE050E00E949F1A29812B
:1007A00024FF13C190914D049F708A81807F892B13
:1007B0008A8325FD0AC1E0910003F0910103908135
:1007C00092959695977081818370880F880F880F16
:1007D00069857A85892B41E050E020E00E94DE02A5
:1007E000F4C0898184FFF1C08A818F702AE0829FE2
:1007F000C0011124805F9B4F9093FF028093FE0203
:10080000113089F48A81982F92959F70933019F452
:100810008F70806206C0992311F0943059F58A8157
:100820008F708A8327C0123021F48A818F70806391
:10083000F8CF133031F48A818F7080638A8362E04D
:100840001AC0153019F48A818F7005C0183031F440
:100850008A818F7080638A8361E00DC01B3051F400
:100860008A818F7080628A838B818770813011F4D6
:100870008A89888760E08A8182958F7090E08230D3
:10088000910509F44BC08330910534F4009761F071
:10089000019709F09AC029C08330910509F454C02A
:1008A000049709F092C058C080E0AE010E94450252
:1008B0008A818F7080618A838B81869586958695E3
:1008C00019F061E00E94D51D6C816F714A890F8516
:1008D00084E6089F80011124222717FD2095322FDE
:1008E0008BE395E050E00E9442168A898F5F8A8BE5
:1008F000E82FF0E0EE0FFF1FE859FF4F45915491AC
:1009000050933605409335056C816F718BE395E00C
:100910000E9412169A8988859817D0F1E091FE02FC
:10092000F091FF0284818C7F826084838D859E8517
:10093000968385838D819E81938382838A818F7044
:1009400080638A83CF0128C081E0AE010E94450206
:100950008A818F7080648A838A89882311F081500C
:100960008A8B8A89E82FF0E0EE0FFF1FE859FF4FCE
:100970004591549150933605409335056C816F71C4
:100980008BE395E00E9412169A898F81891738F4BB
:100990008091FE029091FF020E94550116C08BE3E8
:1009A00095E00E94A5168B8186958695869519F00F
:1009B00060E00E94D51DE091FE02F091FF0284816B
:1009C0008C7F84838A818F708A83DF91CF911F917E
:1009D0000F910895EF920F931F93CF93DF93E091C0
:1009E000E602F091E702138182E495E06BE771E0A3
:1009F0000E94291CE091E402F091E5021282A0918C
:100A0000E602B091E7021630E8F514960C911497BF
:100A1000112319F404E013E02AC0113039F48AE0FC
:100A2000089F80011124005F1B4F21C0123039F450
:100A300085E0089F80011124005A1B4F18C0133015
:100A400039F486E0089F800111240D561B4F0FC01A
:100A5000E02FF0E0143021F48F01025B1B4F07C040
:100A6000E25BFB4F8081082F10E00C5F1C4F159656
:100A70008C911597080F111D80E064E041E01696F7
:100A80002C9159C015968C9115971092350580932D
:100A9000360514968C918093350510923605EE2418
:100AA0002FC081E495E00E94AB16CE0DD11D8C8342
:100AB000E3940E2D10E00150104082E495E0B8015F
:100AC0004AE050E00E94FD1A82E495E06AE071E09D
:100AD0000E942F1BE091E402F091E502E00FF11F6C
:100AE00082E495E064814AE050E00E949F1A809180
:100AF000350590913605019690933605809335051E
:100B00006091350570913605CB010297E091E602C0
:100B1000F091E7022081820F911DC091E402D091F3
:100B2000E5026817790708F4BCCF249680E064E0FA
:100B300041E02E2D8E01EE240E94B806DF91CF9168
:100B40001F910F91EF9008951F93CF93DF93882308
:100B500041F08091E4029091E5029093E702809346
:100B6000E60282E495E06AE871E00E94291C82E4D2
:100B700095E065E971E00E942F1BE091E602F0919B
:100B8000E70282E495E061814AE050E00E948D1A1C
:100B900082E495E06DE971E00E942F1BE091E6028E
:100BA000F091E70282E495E062814AE050E00E9421
:100BB0008D1A82E495E067EA71E00E942F1BE091B4
:100BC000E602F091E70282E495E063814AE050E0BA
:100BD0000E949F1AA091E602B091E70211968C91B3
:100BE0001197882311F010E0BAC012968C911297D9
:100BF000813019F40E94A001B7C0823019F40E941C
:100C0000EA04B2C0833019F40E94A30FADC084304F
:100C1000D9F4E0914E04F0E0EC5FFC4F14968C9117
:100C200014978083E0914F04F0E0EC5FFC4F159641
:100C30008C9115978083E0915004F0E0EC5FFC4FBD
:100C400016968C91808390C0853019F40E94AC096F
:100C50008BC0863019F40E94E90F86C0873009F0F6
:100C600083C082E495E062EB71E00E94291C7CC0A5
:100C7000C12FD0E0A091E602B091E702AE01440F8F
:100C8000551F440F551F4C0F5D1FBA01605A7B4F13
:100C9000FB01908111968C911197981709F05EC015
:100CA000FA01EF59FB4FE0812E2F2F7130E01296A1
:100CB0008C91129790E02817390709F04FC0E29500
:100CC000E695E7702E2F30E013968C91139790E005
:100CD0002817390709F042C0709303036093020399
:100CE000FA01EE59FB4F2081822F877090E0029726
:100CF000CCF481818770880F880F269526952695DC
:100D0000622F6770FA01ED59FB4F40814695469579
:100D1000469547701496269526952695822B9D011B
:100D20000E947F019E01220F331F220F331F2C0FC1
:100D30003D1FF901EE59FB4F8081877079F0F90171
:100D4000ED59FB4F90819295969596959370818180
:100D50008770880F880F892B0E943D0C1F5F809140
:100D60009204181708F484CFDF91CF911F91089552
:100D7000CF92DF92EF92FF920F931F93F82ED62E11
:100D8000C22E82E495E068EB71E00E94291CE0919C
:100D9000E402F091E5028091E2028183F282D38243
:100DA00083E0C80EC0828DEFC80ECF0104960817ED
:100DB000190771F0402FDF01C801FC0104C08191C7
:100DC00013968C93139711968E2F841B8C15B8F362
:100DD00082E495E067EC71E00E942F1BE091E40251
:100DE000F091E50282E495E061814AE050E00E94E2
:100DF0008D1A82E495E06DEC71E00E942F1BE0916A
:100E0000E402F091E50282E495E062814AE050E07C
:100E10000E948D1A82E495E064ED71E00E942F1B20
:100E2000E091E402F091E50282E495E063814AE01A
:100E300050E00E948D1A82E495E06CED71E00E9412
:100E40002F1B82E495E066EE71E00E942F1BE0917B
:100E5000E402F091E50282E495E060814AE050E02E
:100E60000E948D1A82E495E06DEE71E00E942F1BC6
:100E7000E091E402F091E50282E495E064814AE0C9
:100E800050E00E948D1A82E495E064EF71E00E94C8
:100E90002F1BE091E402F091E50282E495E0658188
:100EA0004AE050E00E948D1A82E495E064EF71E020
:100EB0000E942F1BE091E402F091E50282E495E0AC
:100EC00066814AE050E00E948D1A82E495E064EF6A
:100ED00071E00E942F1BE091E402F091E50282E4B0
:100EE00095E067814AE050E00E948D1A82E495E027
:100EF00064EF71E00E942F1BE091E402F091E502A3
:100F000082E495E060854AE050E00E948D1A82E418
:100F100095E064EF71E00E942F1BE091E402F091F4
:100F2000E50282E495E061854AE050E00E948D1A76
:100F300082E495E064EF71E00E942F1BE091E402EF
:100F4000F091E50282E495E062854AE050E00E947B
:100F50008D1A82E495E064EF71E00E942F1BE0910E
:100F6000E402F091E50282E495E063854AE050E016
:100F70000E949F1A809118058D5F8C0D8093180533
:100F800090E00C96849740F01092180580ED94E064
:100F90009093E5028093E40281E00E94A405EE2094
:100FA00081F482E495E063E20E949019E091E4020A
:100FB000F091E502408182E495E0BF0150E00E949B
:100FC00066191F910F91FF90EF90DF90CF900895D9
:100FD000CF92DF92EF92FF920F931F93DF93CF9305
:100FE00000D0CDB7DEB7F82EC0900003D09001033B
:100FF00082E495E066EF71E00E942F1B82E495E0A9
:101000006F2D4AE050E00E949F1AF6018181FFEFA8
:10101000FF1681F584FF95C120914D043AE0239F8E
:10102000C0011124805F9B4F9093FF028093FE02CA
:101030002F70F6018281807F822B8283818185FDE2
:1010400080C1E0910003F091010390819295969503
:10105000977081818370880F880F880FF6016481F3
:10106000639FB0011124892B41E050E020E00E94F1
:10107000DE0267C184FF41C0F60142814F70842FB8
:1010800090E09C0113E0220F331F1A95E1F7880FBF
:10109000991F280F391F205F3B4F3093FF02209389
:1010A000FE02F1E0FF1691F4842F90E0FC01A3E032
:1010B000EE0FFF1FAA95E1F7880F991FE80FF91FA0
:1010C000EC5EFB4F80818C7F80833BC1FF2091F4DD
:1010D000842F90E0FC0163E0EE0FFF1F6A95E1F7BB
:1010E000880F991FE80FF91FEC5EFB4F80818C7F02
:1010F00082608083C9010E94550182E495E067E027
:1011000072E00E942F1BE091FE02F091FF026581C8
:10111000768182E495E04AE050E00E94701AF60180
:1011200063818AEF92E070E00E94BE169A83898301
:1011300082E495E062E172E00E942F1B69817A816E
:1011400082E495E04AE050E00E94101B89819A8178
:10115000FFEF8F3F9F0731F0009771F08E5F9F4F39
:10116000E1F505C082E495E068E172E03AC082E40E
:1011700095E067E272E035C082E495E066E372E0F4
:101180000E942F1B6091FA027091FB02882777FD65
:101190008095982F0E94811FAB01BC0182E495E0ED
:1011A00022E030E00E94161C82E495E064E472E0E4
:1011B0000E942F1B6091FC027091FD02882777FD31
:1011C0008095982F0E94811FAB01BC0182E495E0BD
:1011D00022E030E00E94161C06C082E495E065E53E
:1011E00072E00E94291C29813A81F601868197814B
:1011F0002115310591F1FFEF8D399F073CF44FEF39
:101200008D38940709F49DC0019702C08CE99FEFC7
:10121000F6019783868345E0220F331F4A95E1F755
:10122000F60186819781280F391F3A832983E0913F
:101230000003F091010390819295969597708181BA
:101240008370880F880F880F892B6FEF41E022E0B1
:101250008E010F5F1F4FEE2472C04091FC0250912F
:10126000FD029A01281B390B37FF03C030952195E9
:101270003F4FF601858190E0281739073CF4F2E0F2
:10128000FF1621F0F601818186FF1FC0F60157830A
:101290004683E0910003F091010320812295269579
:1012A000277081818370880F880F880FF6019181E4
:1012B0009295969596959170822B60E040E022E0A1
:1012C0000CEF12E0E92E0E94B8062091FA0230914C
:1012D000FB02F601818592852817390719F440E051
:1012E00050E003C0A901481B590BF601808590E02E
:1012F0004817590738F4F2E0FF1621F0F601818112
:1013000086FF1FC0F60132872187E0910003F0912C
:101310000103208122952695277081818370880F93
:10132000880F880FF6019181929596959695917008
:10133000822B61E040E022E00AEF12E0E92E0E94F9
:10134000B8060F900F90CF91DF911F910F91FF90F2
:10135000EF90DF90CF900895EF92FF920F931F933D
:10136000DF93CF9300D0CDB7DEB71A82198282E423
:1013700095E063E672E00E94291C5091FF032091E2
:10138000920485E0289F900111248091CF0446E0CB
:10139000849FC0011124280F391F40915E04852FBE
:1013A00090E0840F911D280F391F3093360520934C
:1013B00035052D5F334038F080E061E041E022E008
:1013C00005E315E0DCC069817A816F5F7F4F7A8326
:1013D00069836150704081E495E0452F0E94B21608
:1013E00010E010C06F5F7F4F7A8369836150704057
:1013F000E12FF0E0EC5FFC4F81E495E040810E943A
:10140000B2161F5F8091FF0369817A81181750F32C
:101410006F5F7F4F7A8369836150704081E495E00C
:1014200040915F040E94B21610E029EFE22EF12CE9
:1014300011C06F5F7F4F7A83698361507040F701FD
:10144000E11BF109EC5FFC4F81E495E040810E94D3
:10145000B2161F5F80915F0469817A81181748F383
:101460006F5F7F4F7A8369836150704081E495E0BC
:1014700040915E040E94B21610E010C06F5F7F4F73
:101480007A83698361507040E12FF0E0E25BFB4FAB
:1014900081E495E040810E94B2161F5F80915E0456
:1014A00069817A81181750F36F5F7F4F7A83698360
:1014B0006150704081E495E0409192040E94B21620
:1014C00085E0189F80011124005A1B4FEE2495E0FF
:1014D000F92E0EC06F5F7F4F7A8369836150704031
:1014E000E00FF11F81E495E040810E94B216E39481
:1014F000EE2DF0E0809192048F9DC001112469814E
:101500007A81E817F90730F36F5F7F4F7A83698339
:101510006150704081E495E04091CF040E94B21682
:1015200086E0E89E800111240D561B4FEE2486E0D4
:10153000F82E10C069817A816F5F7F4F7A8369834B
:1015400061507040E00FF11F81E495E040810E94FE
:10155000B216E394EE2DF0E08091CF048F9DC00190
:101560001124E817F90730F38091E302823050F03C
:1015700080E062E041E022E08E010F5F1F4FEE2429
:101580000E94B8060F900F90CF91DF911F910F919D
:10159000FF90EF900895AF92BF92CF92DF92EF92BB
:1015A000FF920F931F93DF93CF9300D00F92CDB78D
:1015B000DEB7182FA0900003B090010382E495E0FD
:1015C0006EE672E00E942F1B82E495E0612F4AE0F4
:1015D00050E00E949F1A1F3FA1F5F501838160E052
:1015E0000E94961DF501818184FF02C120914D0466
:1015F0008AE0289FC0011124805F9B4F9093FF02D7
:101600008093FE022F708281807F822B8283818172
:1016100085FDEEC0E0910003F09101039081929569
:101620009695977081818370880F880F880FF501D8
:101630006185728543855485892B20E00E94DE02F6
:10164000D7C0F501818184FF3FC042814F70842F54
:1016500090E09C01F3E0220F331FFA95E1F7880F29
:10166000991F280F391F205F3B4F3093FF022093B3
:10167000FE02113091F4842F90E0FC0173E0EE0F34
:10168000FF1F7A95E1F7880F991FE80FF91FEC5EAD
:10169000FB4F80818C7F8083ABC0112391F4842F1A
:1016A00090E0FC0153E0EE0FFF1F5A95E1F7880F21
:1016B000991FE80FF91FEC5EFB4F80818C7F8260E1
:1016C0008083C9010E945501F50183810E94741D28
:1016D0006C01F50186819781C816D90619F420E0BE
:1016E00030E003C09601281B390BF501848190E09E
:1016F0002817390718F4123009F07AC0DB82CA8241
:10170000FAE0CF16D10410F4C98233C0F501658127
:1017100070E080E090E00E947F1F20E030E040E831
:1017200050EC0E94352020E030EC4FE754E40E945A
:101730007E1E9B01AC0160E070E088EC92E40E94A8
:10174000E61E7B018C01B60180E090E00E947F1FC5
:101750009B01AC01C801B7010E9435200E94531FB4
:1017600069836A3010F48AE003C0653610F084E6BD
:10177000898382E495E061E872E00E942F1B82E495
:1017800095E069814AE050E00E948D1A82E495E07C
:1017900069E872E00E942F1B6A817B8182E495E0F8
:1017A0004AE050E00E94701A8A819B81F50197837C
:1017B000868389818087E0910003F0910103208175
:1017C00022952695277081818370880F880F880F56
:1017D000F50191819295969596959170822B60E096
:1017E00040E023E08E010F5F1F4FE92E0E94B806F4
:1017F0000F900F900F90CF91DF911F910F91FF905D
:10180000EF90DF90CF90BF90AF900895FF920F932D
:101810001F93082F162FF42EE02FF0E0E050FC4F1E
:10182000E081F0E0EC5FFC4FF0930103E0930003F4
:1018300080818F7190E08430910549F08530910569
:1018400051F0039759F4812F0E94E80707C0812FB8
:101850000E94CB0A03C0812F0E945D03FF2049F044
:10186000E0910003F0910103818183FF02C00F5FCB
:10187000D3CF1F910F91FF900895CF92DF92EF92F7
:10188000FF920F931F93DF93CF9300D000D0CDB77B
:10189000DEB7182FE12EFF24A701440F551F4E0D70
:1018A0005F1D440F551FBA016D567B4FDB012C9114
:1018B000822F8F7090E08730910509F42CC1883019
:1018C0009105FCF48330910509F4ACC08430910596
:1018D0005CF48130910509F45DC0823091050CF013
:1018E0007DC0892B99F130C08530910509F4DDC0A8
:1018F00022952F70DB011196EC9106970CF0F9C040
:10190000B5C08B30910509F47CC18C3091056CF425
:101910008930910509F436C122952F70DB011196AB
:10192000EC910A970CF051C10BC18D30910509F46F
:10193000B2C18D3091050CF489C18E30910509F446
:10194000CFC10F9709F4EFC100E00FC200E022956C
:101950002F70DB011196EC91E170E295E07FE22BB4
:10196000F0E0E25BFB4FA081B0E0AC5FBC4FFA015E
:10197000EC56FB4FE081E695EF71F0E0E25BFB4F48
:10198000E081F0E0EC5FFC4F9C918081981709F0BA
:10199000ECC1BFC000E022952F70DB011196EC91E5
:1019A000E170E295E07FE22BF0E0E25BFB4FA0818B
:1019B000B0E0AC5FBC4FFA01EC56FB4FE081E6951E
:1019C000EF71F0E0E25BFB4FE081F0E0EC5FFC4F99
:1019D0009C918081981709F09CC0C7C100E02295B6
:1019E0002F70DB011196EC91E170E295E07FE22B24
:1019F000F0E0E25BFB4FA081B0E0AC5FBC4FFA01CE
:101A0000EC56FB4FE081E695EF71F0E0E25BFB4FB7
:101A1000E081F0E0EC5FFC4F9C918081891708F039
:101A2000A4C177C000E022952F70DB011196EC91E4
:101A3000E170E295E07FE22BF0E0E25BFB4FA081FA
:101A4000B0E0AC5FBC4FFA01EC56FB4FE081E6958D
:101A5000EF71F0E0E25BFB4FE081F0E0EC5FFC4F08
:101A60009C918081981708F480C153C000E0E17018
:101A7000E295E07FE22BF0E0E25BFB4FA081B0E07B
:101A8000AC5FBC4FFA01EC56FB4FE081E695EF717D
:101A9000F0E0E25BFB4FE081F0E0EC5FFC4F9C91FB
:101AA0008081981708F061C134C000E022952F7042
:101AB000DB011196EC91E170E295E07FE22BF0E022
:101AC000E25BFB4FA081B0E0AC5FBC4FFA01EC568B
:101AD000FB4FE081E695EF71F0E0E25BFB4FE081C8
:101AE000F0E0EC5FFC4F9C918081891708F43DC1C8
:101AF00010C000E0E170E295E07FE22BF0E0E25BF5
:101B0000FB4FE081F0E0EC5FFC4F8081882309F01F
:101B10002CC101E02AC122952F70DB011196EC91B6
:101B2000E170E295E07FE22BF0E0E25BFB4FE081C9
:101B3000F0E0EC5FFC4F8081882391F460E0A9C065
:101B4000E170E295E07FE22BF0E0E25BFB4FE081A9
:101B5000F0E0EC5FFC4F8081882311F061E099C0D8
:101B6000FA01EC56FB4FE081E695EF71F0E0E25BA5
:101B7000FB4FE081F0E0EC5FFC4FE081E111E1E040
:101B80006E2F87C0FA01EC56FB4FE081E695EF71AE
:101B9000F0E0E25BFB4FA0818A2F90E08C5F9C4FCE
:101BA00022952F70DB011196EC91E170E295E07FB8
:101BB000E22BF0E0E25BFB4FE081F0E0EC5FFC4FFA
:101BC000DC010C918081080FD0C0E170E295E07FCC
:101BD000E22BF0E0E25BFB4FA081B0E0AC5FBC4FDA
:101BE000FA01EC56FB4FE081E695EF71F0E0E25B25
:101BF000FB4FE081F0E0EC5FFC4F0C918081081B13
:101C0000B4C0FA01EC56FB4FE081E695EF71F0E0CD
:101C1000E25BFB4FA0818A2F90E08C5F9C4F229566
:101C20002F70DB011196EC91E170E295E07FE22BE1
:101C3000F0E0E25BFB4FE081F0E0EC5FFC4FDC01A9
:101C40009C918081989F002D11248FC022952F7028
:101C5000DB011196EC91E170E295E07FE22BF0E080
:101C6000E25BFB4FA081B0E0AC5FBC4FFA01EC56E9
:101C7000FB4FE081E695EF71F0E0E25BFB4FE08126
:101C8000F0E0EC5FFC4F60818C9190E070E00E948E
:101C9000BB20062F6AC022952F70DB011196EC91B4
:101CA000E170E295E07FE22BF0E0E25BFB4FA08188
:101CB000B0E0AC5FBC4FFA01EC56FB4FE081E6951B
:101CC000EF71F0E0E25BFB4FE081F0E0EC5FFC4F96
:101CD00060818C9190E070E00E94BB20082F45C08D
:101CE000FA01EC56FB4FE081E695EF71F0E0E25B24
:101CF000FB4FA0818A2F90E08C5F9C4F22952F7024
:101D0000DB011196EC91E170E295E07FE22BF0E0CF
:101D1000E25BFB4FE081F0E0EC5FFC4FDC010C91FB
:101D20008081082322C0FA01EC56FB4FE081E69542
:101D3000EF71F0E0E25BFB4FA0818A2F90E08C5FB7
:101D40009C4F22952F70DB011196EC91E170E2958A
:101D5000E07FE22BF0E0E25BFB4FE081F0E0EC5F44
:101D6000FC4FDC010C918081082B82E495E067E94F
:101D700072E00E942F1B82E495E0612F4AE050E060
:101D80000E948D1A82E495E06CE972E00E942F1B9C
:101D900082E495E0602F4AE050E00E948D1A82E4D0
:101DA00095E065EA72E00E942F1BF701EE0FFF1F1E
:101DB000EE0DFF1DEE0FFF1FFA83E9836F0183E92C
:101DC00094E0C80ED91ED6018C9182958F70119621
:101DD000EC91E170E295E07FE82BF0E0E25BFB4FF5
:101DE000E081F0E0EC5FFC4F82E495E060814AE046
:101DF00050E00E948D1A82E495E06DEA72E00E9444
:101E00002F1BE981FA81EC56FB4FFC83EB83E081C9
:101E1000E695EF71F0E0E25BFB4FE081F0E0EC5F14
:101E2000FC4F82E495E060814AE050E00E949F1AF6
:101E3000AB81BC818C918295869586958370119635
:101E40009C919370990F990F982B892F865F8F70B3
:101E5000823038F4D6011496EC91F0E0E25BFB4F4F
:101E60000083002381F1913031F0933021F09530DF
:101E700011F0963071F4F701EE0FFF1FEE0DFF1D0C
:101E8000EE0FFF1FED56FB4F8481658140E00E94FD
:101E9000060CF701EE0FFF1FEE0DFF1DEE0FFF1FEB
:101EA000EC56FB4F80818295869586958370918153
:101EB0009370990F990F982B923039F0943029F044
:101EC000953019F033C0933071F4F701EE0FFF1F16
:101ED000EE0DFF1DEE0FFF1FEB56FB4F1081169509
:101EE00016951695D7CC943059F4F701EE0FFF1FD5
:101EF000EE0DFF1DEE0FFF1FED56FB4F1481CACCF8
:101F00009630A1F4F701EE0FFF1FEE0DFF1DEE0F4F
:101F1000FF1FDF01AB56BB4F6C91669566956695CA
:101F2000ED56FB4F838140E00E94060C0F900F900E
:101F30000F900F90CF91DF911F910F91FF90EF9035
:101F4000DF90CF9008951F931091FE03A091E602B9
:101F5000B091E702E0910003F091010360E050E0EE
:101F600030C0E52FF0E0EC5FFC4F7081872F829549
:101F70008695877041814370440F440F440F482B6E
:101F8000242F30E013968C91139790E0281739078F
:101F900059F4F0930103E0930003842F14966C919D
:101FA00040E00E94060C13C0872F8F71833021F010
:101FB000843021F48DE003C08BE001C080E0580F35
:101FC0006F5F611770F2F0930103E09300031F91BC
:101FD0000895CF92DF92EF92FF920F931F93DF93BA
:101FE000CF9300D0CDB7DEB71A82198281E495E095
:101FF0006FEF73E00E94AB168093E20281E495E0FC
:102000006EEF73E00E94AB168093E30269817A81E0
:102010006F5F7F4F7A8369836150704081E495E000
:102020000E94AB16082F1092FF0314C06F5F7F4F02
:102030007A8369836150704081E495E00E94AB1619
:10204000E12FF0E0EC5FFC4F80838091FF038F5F16
:102050008093FF031091FF0369817A81101730F399
:102060006F5F7F4F7A8369836150704081E495E0B0
:102070000E94AB16082F10925F0439EFE32EF12C6B
:1020800015C06F5F7F4F7A8369836150704081E430
:1020900095E00E94AB16F701E11BF109EC5FFC4FE4
:1020A000808380915F048F5F80935F0410915F0451
:1020B00069817A81101728F36F5F7F4F7A83698374
:1020C0006150704081E495E00E94AB16082F109299
:1020D0005E0414C06F5F7F4F7A83698361507040E4
:1020E00081E495E00E94AB16E12FF0E0E25BFB4F4C
:1020F000808380915E048F5F80935E0410915E0404
:1021000069817A81101730F36F5F7F4F7A8369831B
:102110006150704081E495E00E94AB168093920478
:10212000FF2425E0E22E0FC06F5F7F4F7A83698323
:102130006150704081E495E00E94AB16005A1B4F3D
:10214000F8018083F3940F2D10E0809192048E9D0E
:10215000C001112469817A810817190728F36F5F7C
:102160007F4F7A8369836150704081E495E00E94DB
:10217000AB168093CF0486E0F89E7001112483E9AA
:1021800094E0E80EF91EDD2496E0C92E11C06981A5
:102190007A816F5F7F4F7A8369836150704081E4F9
:1021A00095E00E94AB160E0D1F1DF8018083D3949D
:1021B0000D2D10E08091CF048C9DC00111240817D3
:1021C000190728F310E031C0EC5FFC4FF0930103D6
:1021D000E09300039081929596959770818183702A
:1021E000880F880F880F892B6FEF40E00E94060C44
:1021F000E0910003F09101038081829586958770BC
:1022000091819370990F990F990F982B933021F02A
:10221000943021F48DE003C08BE001C080E0180F02
:102220008091FE038F5F8093FE03E12FF0E09F011A
:102230002F5F3F4F8091FF0390E02817390724F26A
:1022400010E02FC0FA01EC5FFC4FF0930103E09324
:102250000003918197FF0DC08081829586958770DC
:102260009370990F990F990F892B60E040E00E94BD
:10227000060CE0910003F091010380818295869520
:10228000877091819370990F990F990F982B9330C4
:1022900021F0943021F48DE003C08BE001C080E098
:1022A000180F412F50E09A012F5F3F4F8091FF039D
:1022B00090E02817390734F28091E302823050F021
:1022C00080E063E041E022E08E010F5F1F4FEE24CB
:1022D0000E94B8060F900F90CF91DF911F910F9140
:1022E000FF90EF90DF90CF9008958F929F92AF92E2
:1022F000BF92CF92DF92EF92FF920F931F93809045
:102300004C04F090310590901E05A0901F05B090F0
:102310002805C0902905D0902C05E0902D056091EE
:10232000FE027091FF02A2E1B4E040E050E005C17E
:10233000142F052FCA01BC01F3E0660F771FFA9531
:10234000E1F7880F991F680F791F605F7B4FCA0103
:10235000FC0133E0EE0FFF1F3A95E1F7880F991F5C
:10236000E80FF91FEC5EFB4F8081837009F4E2C037
:10237000CA01FC0133E0EE0FFF1F3A95E1F7880F29
:10238000991FE80FF91FEC5EFB4F808182FF31C07F
:102390008D919C911197892B99F4FF2009F4CAC063
:1023A000CA01FC0133E0EE0FFF1F3A95E1F7880FF9
:1023B000991FE80FF91FEC5EFB4F80818B7F8083B4
:1023C0008D919C9111970197A1F4FF2009F4B2C05F
:1023D000812F902FFC0133E0EE0FFF1F3A95E1F7BC
:1023E000880F991FE80FF91FEC5EFB4F80818B7FF0
:1023F00080838D919C911197009719F4892D9A2DC6
:1024000007C0019719F48B2D9C2D02C08D2D9E2D98
:102410009C0116968D919C9117972817390708F4FF
:1024200089C07093FF026093FE02812F902FFC0100
:1024300053E0EE0FFF1F5A95E1F7880F991FE80F41
:10244000F91FEC5EFB4F80818370813091F4812F06
:10245000902FFC01B3E0EE0FFF1FBA95E1F7880F54
:10246000991FE80FF91FEC5EFB4F80818C7F808302
:1024700036C0812F902FFC0173E0EE0FFF1F7A957D
:10248000E1F7880F991FE80FF91FE05FFB4F858187
:102490009681280F391F2817390788F4812F902F2C
:1024A000FC0153E0EE0FFF1F5A95E1F7880F991FCB
:1024B000E80FF91FEC5EFB4F808184608083812FE1
:1024C000902FFC01B3E0EE0FFF1FBA95E1F7880FE4
:1024D000991FE80FF91FE05FFB4F31872087812F9D
:1024E000902FFC0173E0EE0FFF1F7A95E1F7880F44
:1024F000991FE80FF91FE05FFB4F90819295969529
:10250000977081818170880F880F880F212F302F5D
:10251000F90153E0EE0FFF1F5A95E1F7220F331F29
:10252000E20FF31FE05FFB4F892B678141E00E94C0
:10253000060C0AC04F5F5F4F1A96481508F4F8CE94
:102540007093FF026093FE021F910F91FF90EF9036
:10255000DF90CF90BF90AF909F908F900895EF92B3
:102560000F931F93DF93CF930F92CDB7DEB72091D8
:102570002205309123058091330590913405A901FE
:10258000481B590BCA01815D974010F010921B0542
:1025900080911A0590E08C509B4F9093E7028093B6
:1025A000E602309334052093330582E495E00E94DF
:1025B000A618682F898382E495E00E94B8192091BB
:1025C0001B05222341F489818A3309F076C081E01A
:1025D00080931B0572C02130B1F49981892F8253F9
:1025E000883070F4E091E602F091E7029053908316
:1025F00082E080931B0510921D0510921C055DC0A2
:1026000010921B055AC0223008F457C089818053AC
:1026100089832E3F08F047C0E091E602F091E7027F
:10262000E20FF11D3197808380911B058F5F8093AE
:102630001B05E091E602F091E702E0812E2F30E0E9
:1026400090E028173907CCF580911A05280F311D25
:102650002831310520F48E0F80931A0502C01092A4
:102660001A0590911A0580911905981751F480E088
:1026700060E041E020E08E010F5F1F4FEE240E94DA
:10268000B80682E495E066EB72E00E942F1B82E4BC
:1026900095E060911B054AE050E00E949F1A10925D
:1026A0001B0581E02AC0992787FD909590931D0511
:1026B00080931C052F5F20931B0582E495E06EEB51
:1026C00072E00E942F1BE091E602F091E70282E4A3
:1026D00095E060814AE050E00E949F1A82E495E014
:1026E00066EB72E00E942F1B82E495E060911B056F
:1026F0004AE050E00E949F1A80E00F90CF91DF9156
:102700001F910F91EF900895CF93DF930E94931C38
:1027100060931E0570931F058093200590932105FB
:10272000EB01709323056093220524E630E040E03E
:1027300050E00E94CF20DA01C901F9013093290548
:102740002093280568E671E00E94BB2070932D0558
:1027500060932C058091240590912505C817D90711
:10276000E0F441E04093310580912A0590912B05DA
:10277000E817F90778F44093300580912E05909181
:102780002F056817790718F44093320508C0109296
:10279000320505C01092300502C0109231058091BB
:1027A0002605909127059E01281B390B83E0283EC2
:1027B000380708F43FC080914E04E82FF0E0C901CB
:1027C00068EE73E00E94BB20EC5FFC4F8081860FB7
:1027D00080838C3358F18C53808380914F04E82F91
:1027E000F0E0EC5FFC4F9081892F8F5F80838C330A
:1027F000E8F09B53908380915004E82FF0E0EC5F69
:10280000FC4F9081892F8F5F8083883178F09751BA
:10281000908380915104E82FF0E0EC5FFC4F8081C1
:102820008F5F8083883010F081E08083D09327050C
:10283000C09326050E94751182E495E00E948A18D3
:10284000892B11F00E94AF129091190580911A0501
:10285000981721F182E495E064EC72E00E94291C53
:102860008091190590E08C509B4F9093E7028093E4
:10287000E60280E00E94A40520911905822F90E0D5
:10288000FC01EC50FB4FE0818E0F911D489720F426
:10289000E20FE093190502C01092190580912205FC
:1028A0009091230590932505809324058091280518
:1028B0009091290590932B0580932A0580912C05F2
:1028C00090912D0590932F0580932E05DF91CF9148
:1028D00008951F93DF93CF93CDB7DEB763970FB6FD
:1028E000F894DEBF0FBECDBF82E495E040E051EE2C
:1028F00060E070E00E94031882E495E040E051EE51
:1029000060E070E00E94031882E495E040E051EE40
:1029100060E070E00E94031882E495E068EC72E0E9
:102920000E94291C90915E0420915F04E92FF0E041
:10293000E25BFB4F39EF832F821B80839F5F2F5F0A
:10294000E92FF0E0E25BFB4F832F821B80839F5FC8
:102950002F5FE92FF0E0E25BFB4F832F821B808328
:102960009F5F2F5FE92FF0E0E25BFB4F321B30836C
:102970009F5F90935E042F5F20935F042091FF037D
:10298000209305048091FE038F5F8093FE03FE0178
:10299000319683E1DF011D928A95E9F785EA898303
:1029A0008A818C7F846D8A838C81877080648C831C
:1029B0008D81807E89608D8381E090E09F838E830E
:1029C00082E3898782E390E09B878A878CE291E0AB
:1029D0009D878C8788E893E19F878E8785E0888B29
:1029E00081E0898B8A8BA22FB0E0AC5FBC4F83E182
:1029F00001900D928150E1F785E06FEF40E00E9479
:102A0000060C82E4809393048AE08093940480E12E
:102A10008093950481E0809397041092980482E457
:102A2000809399048CE480939A0410929B0413E0A1
:102A300010939D0486E080939E0482E880939F0417
:102A40008EE88093A0041093A20481E18093A104F6
:102A50001093A3041093A40482E78093A50480E557
:102A60008093A6041092A7041093A90485E0809394
:102A7000AA048091E2028093600482E28093610460
:102A800081E48093620489E080936304809164040C
:102A9000887F80936404809192048F5F8093920476
:102AA00085E068EC70E041E050E021E00E94DE0249
:102AB000E091FE02F091FF021783CF010E945501C1
:102AC00085E061E040E00E94060C63960FB6F89442
:102AD000DEBF0FBECDBFCF91DF911F9108951F9232
:102AE0000F920FB60F9211242F933F934F935F9342
:102AF0006F937F938F939F93AF93BF93EF93FF93C6
:102B0000E0913F05F09140050995FF91EF91BF914C
:102B1000AF919F918F917F916F915F914F913F9175
:102B20002F910F900FBE0F901F901895FC01A3E0FE
:102B3000440F551F661F771FAA95D1F7403080E0DC
:102B4000580781E0680780E0780714F481E010C03E
:102B500033E075956795579547953A95D1F740308D
:102B600080E0580781E0680780E078071CF482E085
:102B7000828339C023E075956795579547952A95C7
:102B8000D1F7403080E0580781E0680780E078079F
:102B900014F483E0EDCF92E07595679557954795CE
:102BA0009A95D1F7403080E0580781E0680780E0CF
:102BB000780714F484E0DCCF82E07595679557952B
:102BC00047958A95D1F7403080E0580781E0680743
:102BD00080E0780714F485E0CBCF85E082834FEF67
:102BE0005FEF60E070E08FB78383F8945183408398
:102BF000509387004093860083818FBF809181002E
:102C0000887F80938100809181009281892B8093BD
:102C1000810008951092800020E1209381000E949D
:102C2000961508950F93CF93DF93EC01062FBA0109
:102C30002881398140E050E0882777FD8095982FE2
:102C40000E949C20BAE09695879577956795BA95EE
:102C5000D1F72FB72B83F894013011F0093029F404
:102C6000709389006093880008C0023011F00A3028
:102C700021F470938B0060938A002FBFDF91CF9176
:102C80000F910895CF92DF92FF920F931F93CF93EE
:102C9000DF93EC01F62E6A011016110612061306D8
:102CA00024F4B901A8010E94961531E0F31619F039
:102CB00089E0F81629F4219A8091800080680AC082
:102CC00032E0F31619F08AE0F81631F4229A809176
:102CD00080008062809380002881398140E050E04C
:102CE000B601882777FD8095982F0E949C201AE0D6
:102CF00096958795779567951A95D1F72FB72B837A
:102D0000F89431E0F31619F039E0F31629F47093D2
:102D10008900609388000AC032E0F31619F03AE0A7
:102D2000F31621F470938B0060938A002FBF80917B
:102D300081009A81892B80938100DF91CF911F912F
:102D40000F91FF90DF90CF900895E1E8F0E080814F
:102D5000887F80830895F999FECF72BD61BDF89A8E
:102D600080B50895F999FECF1FBA72BD61BD40BD0F
:102D70000FB6F894FA9AF99A0FBE08952F923F92DF
:102D80005F926F927F928F929F92AF92BF92CF92FB
:102D9000DF92EF92FF920F931F93DF93CF9300D0B8
:102DA00000D00F92CDB7DEB73C01962E19821A8261
:102DB0001B821C821D82862F61E00E94961D892D38
:102DC00060E00E94D51D62E170E080E090E00E942A
:102DD0000C1D892D61E00E94D51D88E290E00E94C3
:102DE000C71C892D60E00E94961D00E117E205C016
:102DF00001151105A1F101501040892D0E94291ED5
:102E0000892BB1F300E117E205C00115110539F175
:102E100001501040892D0E94291E0197B1F306C070
:102E200001151105E1F0015010400AC027E0822E83
:102E30005524AA24BB2491E0292E312C00E117E26D
:102E4000892D0E94291E892B59F30E94A11C6B0118
:102E50007C0100E117E208C00115110519F42EEFFD
:102E60003FEF41C001501040892D0E94291E01975B
:102E700099F30E94A11C6C197D098E099F09693282
:102E800071058105910580F0E1E0F0E0EC0FFD1F98
:102E9000E50DF11D9101082C02C0220F331F0A9489
:102EA000E2F78081822B8083882021F4539487E08D
:102EB000882E01C08A940894A11CB11C88E2A8162F
:102EC000B10409F0BBCF8981F301808311829B811A
:102ED00092831382980F8D81891719F420E030E0D6
:102EE00002C02FEF3FEFC9010F900F900F900F908E
:102EF0000F90CF91DF911F910F91FF90EF90DF9096
:102F0000CF90BF90AF909F908F907F906F905F9089
:102F10003F902F90089508951F920F920FB60F9231
:102F200011242F933F934F938F939F93EF93FF938E
:102F30008091C00082FD19C04091C600809160055B
:102F4000282F30E02F5F3F4F2F7330708091610545
:102F500090E02817390759F0E0916005F0E0EE5B4A
:102F6000FA4F42A32093600502C08091C600FF91F2
:102F7000EF919F918F914F913F912F910F900FBEA5
:102F80000F901F901895809160052091610590E049
:102F9000805C9F4F821B91098F739070892B11F079
:102FA0000E948B1708951F920F920FB60F92112453
:102FB0002F938F939F93EF93FF939091620580914E
:102FC0006305981731F48091C1008F7D8093C10013
:102FD00010C0E0916305F0E0EC55FA4F208180913C
:102FE000630590E001968F73907080936305209342
:102FF000C600FF91EF919F918F912F910F900FBE7F
:103000000F901F901895AF92BF92DF92EF92FF92B0
:103010000F931F93CF93DF93EC017A018B01DD2493
:10302000403081EE580780E0680780E0780711F0B3
:10303000DD24D39491E0A92EB12CE889F989DD2013
:1030400069F0C5010C8C02C0880F991F0A94E2F741
:10305000808360E079E08DE390E005C0108260E855
:1030600074E88EE190E0A80197010E94CF202150E2
:10307000304040405040569547953795279580E120
:103080002030380720F0DD2011F0DD24D6CFEC858C
:10309000FD853083EE85FF8520831D8EEA89FB89BF
:1030A000408121E030E0C901088C02C0880F991FDF
:1030B0000A94E2F7482B4083EA89FB894081C901E1
:1030C000098C02C0880F991F0A94E2F7482B4083AD
:1030D000EA89FB894081C9010A8C02C0880F991FC7
:1030E0000A94E2F7482B4083EA89FB8980810B8CA4
:1030F00002C0220F331F0A94E2F720952823208371
:10310000DF91CF911F910F91FF90EF90DF90BF90D3
:10311000AF900895FC01268D878D30E0205C3F4FF5
:10312000281B31092F733070C9010895FC01968D59
:10313000878D981719F42FEF3FEF06C0878DE80FA2
:10314000F11D82A1282F30E0C9010895DC015E96AF
:103150009C915E975F968C915F97981719F42FEF6B
:103160003FEF10C05F968C915F97FD01E80FF11D56
:1031700092A15F968C915F978F5F8F735F968C9310
:10318000292F30E0C9010895DC015D968C915D978F
:10319000882339F05096ED91FC915197808186FFFC
:1031A000F9CF5D961C920895DC0190968C919097D2
:1031B000282F30E02F5F3F4F2F73307091968C9106
:1031C000919790E028173907C9F390968C919097C2
:1031D000FD01E80FF11DEE59FF4F608390962C938F
:1031E00090975296ED91FC915397208181E090E069
:1031F0005B960C905B9702C0880F991F0A94E2F7C8
:10320000282B208381E05D968C935D975096ED91FD
:10321000FC91519780818064808381E090E00895E3
:10322000109245051092440588EE93E0A0E0B0E0CE
:103230008093460590934705A0934805B0934905B0
:103240008DEE92E0909343058093420510926305C2
:1032500080916305809362051092610580916105FC
:103260008093600585EC90E090934F0580934E0528
:1032700084EC90E0909351058093500580EC90E0B1
:10328000909353058093520581EC90E090935505FF
:103290008093540582EC90E09093570580935605F7
:1032A00086EC90E0909359058093580584E08093D4
:1032B0005A0583E080935B0587E080935C0585E099
:1032C00080935D0581E080935E050895CF92DF9243
:1032D000EF92FF920F931F93CF93DF937C016B01CB
:1032E0008A01C0E0D0E00FC0D6016D916D01D70119
:1032F000ED91FC910190F081E02DC7010995C80F77
:10330000D91F015010400115110571F7CE01DF9151
:10331000CF911F910F91FF90EF90DF90CF90089584
:10332000DC01ED91FC910190F081E02D099508956B
:10333000EF92FF920F931F938C01DC01ED91FC91B2
:103340000190F081E02D6DE009957C01D801ED91AF
:10335000FC910190F081E02DC8016AE009959C0183
:103360002E0D3F1DC9011F910F91FF90EF90089501
:10337000EF92FF920F931F937C01DC01ED91FC9182
:103380000190F081E02D09958C01C7010E949819E8
:10339000080F191FC8011F910F91FF90EF9008951A
:1033A000CF93DF93EC016115710519F420E030E053
:1033B0000FC0DB010D900020E9F71197A61BB70B9A
:1033C000E881F9810280F381E02DAD0109959C012E
:1033D000C901DF91CF9108954F925F927F928F92B2
:1033E0009F92AF92BF92CF92DF92EF92FF920F9394
:1033F0001F93DF93CF93CDB7DEB7A1970FB6F894A5
:10340000DEBF0FBECDBF2C01742ECB01223008F4DD
:103410002AE019A231E2C32ED12CCC0EDD1E822E61
:103420009924AA24BB24672D752FA50194010E941D
:10343000CF2079018A01C801B701A50194010E943A
:103440009C20472D461B0894C108D1084A3014F42B
:10345000405D01C0495CF6014083E114F1040105BF
:10346000110521F07E2C5F2DC801DDCFC201B60110
:103470000E94D019A1960FB6F894DEBF0FBECDBF43
:10348000CF91DF911F910F91FF90EF90DF90CF9040
:10349000BF90AF909F908F907F905F904F900895D6
:1034A000DC012115310541F4ED91FC910190F08191
:1034B000E02D642F099508950E94EC190895EF926C
:1034C000FF920F931F939A017B0100E010E0B80177
:1034D000A7010E94501A1F910F91FF90EF9008953D
:1034E000CF92DF92EF92FF920F931F936C017B01BB
:1034F0009A0100E010E0B801A7010E94501A8C0167
:10350000C6010E949819080F191FC8011F910F9139
:10351000FF90EF90DF90CF900895EF92FF920F937E
:103520001F939A01E62EFF2400E010E0B801A701E6
:103530000E94501A1F910F91FF90EF900895CF9223
:10354000DF92EF92FF920F931F936C01E62E9A0188
:10355000FF2400E010E0B801A7010E94501A8C017E
:10356000C6010E949819080F191FC8011F910F91D9
:10357000FF90EF90DF90CF900895CF92DF92EF927F
:10358000FF920F931F93CF93DF93EC016A017B01AE
:103590002115310541F4E881F9810190F081E02D98
:1035A000642F09951FC02A303105D1F477FF17C069
:1035B000E881F9810190F081E02D6DE209958C019F
:1035C00044275527BA014C195D096E097F09CE01C0
:1035D0002AE00E94EC199801280F391F04C02AE044
:1035E0000E94EC199C01C901DF91CF911F910F91AD
:1035F000FF90EF90DF90CF900895EF92FF920F939E
:103600001F937B019A010027F7FC0095102FB8014A
:10361000A7010E94BD1A1F910F91FF90EF9008958E
:10362000CF92DF92EF92FF920F931F936C017B0179
:103630009A010027F7FC0095102FB801A7010E94FE
:10364000BD1A8C01C6010E949819080F191FC801E4
:103650001F910F91FF90EF90DF90CF9008950E94FF
:10366000D01908957F928F929F92AF92BF92CF927E
:10367000DF92EF92FF920F931F93CF93DF934C0152
:103680007A018B01722ECB01BA01A80197010E9429
:103690009820882321F0C40164ED72E021C0C0E0CD
:1036A000D0E057016801E894D7F8C601B5012FEFC3
:1036B0003FEF4FE75FE70E949820882351F4C6014F
:1036C000B5012FEF3FEF4FE75FE70E94E21E1816AC
:1036D00014F0C1E0D0E0219739F0C40168ED72E048
:1036E0000E94D019EC0193C0C801B7012FEF3FEF42
:1036F0004FE75FE40E943120181654F0C801B7016B
:103700002FEF3FEF4FE75FEC0E94E21E882324F487
:10371000C4016CED72E0E4CFC801B70120E030E0F5
:1037200040E050E00E94E21E87FD03C0C0E0D0E010
:103730000EC0D401ED91FC910190F081E02DC40107
:103740006DE20995EC0117FB109517F9109520E033
:1037500030E040E05FE3DD240BC0CA01B90120E0A6
:1037600030E040E251E40E94E61E9B01AC01D3949C
:10377000D71498F3C801B7010E947E1E5B016C014B
:103780000E94531F7B018C01C401B801A7012AE0EC
:1037900030E00E94501AC80FD91F772039F0C401B9
:1037A00060EE72E00E94D019C80FD91FC801B7019E
:1037B0000E947F1F9B01AC01C601B5010E947D1EC6
:1037C00024C020E030E040E251E40E9435207B013B
:1037D0008C010E944E1F5B016C01CC24B7FCC0948D
:1037E000DC2CC401B601A5012AE030E00E94BD1A1C
:1037F000C80FD91FC601B5010E94811F9B01AC01F2
:10380000C801B7010E947D1E7A947720D1F6CE01BF
:10381000DF91CF911F910F91FF90EF90DF90CF90AC
:10382000BF90AF909F908F907F900895EF92FF92FE
:103830000F931F937C010E94321B8C01C7010E94D1
:103840009819080F191FC8011F910F91FF90EF9051
:103850000895EF92FF920F931F937C010E94D0195D
:103860008C01C7010E949819080F191FC8011F91E8
:103870000F91FF90EF900895CF93DF930E94D11C9A
:103880000E946914C3ECD7E10E9484132097E1F3EE
:103890000E94C317F9CF1F920F920FB60F921124F7
:1038A0002F933F938F939F93AF93BF938091E8059E
:1038B0009091E905A091EA05B091EB053091EC05F6
:1038C0000196A11DB11D232F2D5F2D3720F02D57FF
:1038D0000196A11DB11D2093EC058093E8059093FE
:1038E000E905A093EA05B093EB058091E40590917A
:1038F000E505A091E605B091E7050196A11DB11D72
:103900008093E4059093E505A093E605B093E70561
:10391000BF91AF919F918F913F912F910F900FBECB
:103920000F901F9018958FB7F8942091E80530916B
:10393000E9054091EA055091EB058FBFB901CA0135
:1039400008959FB7F8942091E4053091E5054091E2
:10395000E6055091E70586B5A89B06C08F3F21F08C
:103960002F5F3F4F4F4F5F4F9FBF542F432F322F3B
:103970002227280F311D411D511D82E0220F331FC8
:10398000441F551F8A95D1F7B901CA0108950197BF
:1039900039F0880F991F880F991F02970197F1F747
:1039A0000895789484B5826084BD84B5816084BDB7
:1039B00085B5826085BD85B5816085BDEEE6F0E0A8
:1039C000808181608083E1E8F0E010828081826004
:1039D0008083808181608083E0E8F0E08081816085
:1039E0008083E1EBF0E0808184608083E0EBF0E0B5
:1039F000808181608083EAE7F0E080818460808359
:103A00008081826080838081816080838081806802
:103A100080831092C1000895EF92FF920F931F933D
:103A2000CF93DF937B018C013FB7F8948091E4053D
:103A30009091E505A091E605B091E70526B5A89B14
:103A400005C02F3F19F00196A11DB11D3FBFBA2F30
:103A5000A92F982F8827820F911DA11DB11D52E01B
:103A6000880F991FAA1FBB1F5A95D1F7EC0130C0D0
:103A70000E947C1E3FB7F8948091E4059091E50583
:103A8000A091E605B091E70526B5A89B05C02F3F9C
:103A900019F00196A11DB11D3FBFBA2FA92F982F74
:103AA0008827820F911DA11DB11D32E0880F991F3B
:103AB000AA1FBB1F3A95D1F78C1B9D0B885E9340C4
:103AC000B8F20894E108F10801091109C851DC4F66
:103AD000E114F1040105110559F6DF91CF911F9111
:103AE0000F91FF90EF900895982F8E3008F09E5020
:103AF00097708091E8028295880F880F807C892BCF
:103B000080937C0080917A00806480937A00809119
:103B10007A0086FDFCCF2091780040917900942FA7
:103B200080E030E0282B392BC9010895CF93DF9333
:103B3000482F50E0CA01845D9D4FFC013491485EDE
:103B40005D4FFA018491882369F190E0880F991FF5
:103B5000FC01E650FE4FA591B491FC01EC5FFD4FD6
:103B6000C591D491662351F42FB7F8948C91932F7B
:103B7000909589238C93888189230BC0623061F4EE
:103B80002FB7F8948C91932F909589238C938881EB
:103B9000832B88832FBF06C09FB7F8948C91832B0B
:103BA0008C939FBFDF91CF910895482F50E0CA01B9
:103BB000805C9D4FFC012491CA01845D9D4FFC01F6
:103BC0009491485E5D4FFA013491332309F440C06B
:103BD000222351F1233071F0243028F42130A1F058
:103BE000223011F514C02630B1F02730C1F0243056
:103BF000D9F404C0809180008F7703C08091800049
:103C00008F7D8093800010C084B58F7702C084B50B
:103C10008F7D84BD09C08091B0008F7703C08091F3
:103C2000B0008F7D8093B000E32FF0E0EE0FFF1F18
:103C3000EC5FFD4FA591B4912FB7F894662321F462
:103C40008C919095892302C08C91892B8C932FBFE6
:103C50000895682F70E0CB01805C9D4FFC0124919A
:103C6000CB01845D9D4FFC014491685E7D4FFB015B
:103C70009491992319F420E030E03CC0222351F1C3
:103C8000233071F0243028F42130A1F0223011F5D6
:103C900014C02630B1F02730C1F02430D9F404C06C
:103CA000809180008F7703C0809180008F7D80930A
:103CB000800010C084B58F7702C084B58F7D84BD2D
:103CC00009C08091B0008F7703C08091B0008F7DD4
:103CD0008093B000892F90E0880F991F825F9D4FDD
:103CE000FC01A591B4918C9120E030E0842311F087
:103CF00021E030E0C901089508955058BB27AA2754
:103D00000ED075C166D130F06BD120F031F49F3FF9
:103D100011F41EF45BC10EF4E095E7FB51C1E92FED
:103D200077D180F3BA17620773078407950718F0F5
:103D300071F49EF58FC10EF4E0950B2EBA2FA02DD5
:103D40000B01B90190010C01CA01A0011124FF2748
:103D5000591B99F0593F50F4503E68F11A16F04043
:103D6000A22F232F342F4427585FF3CF4695379542
:103D70002795A795F0405395C9F77EF41F16BA0B07
:103D8000620B730B840BBAF09150A1F0FF0FBB1FB5
:103D9000661F771F881FC2F70EC0BA0F621F731FFE
:103DA000841F48F4879577956795B795F7959E3F5B
:103DB00008F0B3CF9395880F08F09927EE0F9795E9
:103DC00087950895D9D008F481E008950CD00FC1EB
:103DD00007D140F0FED030F021F45F3F19F0F0C081
:103DE000511139C1F3C014D198F39923C9F3552364
:103DF000B1F3951B550BBB27AA27621773078407DE
:103E000038F09F5F5F4F220F331F441FAA1FA9F393
:103E100033D00E2E3AF0E0E830D091505040E69585
:103E2000001CCAF729D0FE2F27D0660F771F881FE6
:103E3000BB1F261737074807AB07B0E809F0BB0BD5
:103E4000802DBF01FF2793585F4F2AF09E3F5105F9
:103E500068F0B6C000C15F3FECF3983EDCF3869596
:103E600077956795B795F7959F5FC9F7880F911D6F
:103E70009695879597F90895E1E0660F771F881F5B
:103E8000BB1F621773078407BA0720F0621B730B0E
:103E9000840BBA0BEE1F88F7E095089504D0689460
:103EA000B111D9C00895BCD088F09F5790F0B92FB8
:103EB0009927B751A0F0D1F0660F771F881F991F7F
:103EC0001AF0BA95C9F712C0B13081F0C3D0B1E091
:103ED0000895C0C0672F782F8827B85F39F0B93FA1
:103EE000CCF3869577956795B395D9F73EF4909581
:103EF0008095709561957F4F8F4F9F4F0895E894FF
:103F000009C097FB3EF490958095709561957F4F21
:103F10008F4F9F4F9923A9F0F92F96E9BB279395CF
:103F2000F695879577956795B795F111F8CFFAF4DF
:103F3000BB0F11F460FF1BC06F5F7F4F8F4F9F4F10
:103F400016C0882311F096E911C0772321F09EE86E
:103F5000872F762F05C0662371F096E8862F70E0D4
:103F600060E02AF09A95660F771F881FDAF7880FAE
:103F70009695879597F90895990F0008550FAA0B04
:103F8000E0E8FEEF16161706E807F907C0F012166C
:103F90001306E407F50798F0621B730B840B950B6F
:103FA00039F40A2661F0232B242B252B21F40895C4
:103FB0000A2609F4A140A6958FEF811D811D089561
:103FC00097F99F6780E870E060E008959FEF80ECCC
:103FD000089500240A94161617061806090608956F
:103FE00000240A9412161306140605060895092ED5
:103FF0000394000C11F4882352F0BB0F40F4BF2B44
:1040000011F460FF04C06F5F7F4F8F4F9F4F089583
:1040100057FD9058440F551F59F05F3F71F0479579
:10402000880F97FB991F61F09F3F79F0879508955E
:10403000121613061406551FF2CF4695F1DF08C07D
:10404000161617061806991FF1CF8695710561059A
:1040500008940895E894BB2766277727CB0197F942
:1040600008958ADF08F48FEF08950BD0C0CFB1DF39
:1040700028F0B6DF18F0952309F0A2CFA7CF1124BE
:10408000EACFC6DFA0F3959FD1F3950F50E0551FFF
:10409000629FF001729FBB27F00DB11D639FAA279D
:1040A000F00DB11DAA1F649F6627B00DA11D661FEC
:1040B000829F2227B00DA11D621F739FB00DA11D0D
:1040C000621F839FA00D611D221F749F3327A00DC7
:1040D000611D231F849F600D211D822F762F6A2F63
:1040E00011249F5750408AF0E1F088234AF0EE0FE8
:1040F000FF1FBB1F661F771F881F91505040A9F7F5
:104100009E3F510570F05CCFA6CF5F3FECF3983E29
:10411000DCF3869577956795B795F795E7959F5F5B
:10412000C1F7FE2B880F911D9695879597F90895F5
:1041300023DF880B990B0895629FD001739FF001D4
:10414000829FE00DF11D649FE00DF11D929FF00D27
:10415000839FF00D749FF00D659FF00D9927729F5E
:10416000B00DE11DF91F639FB00DE11DF91FBD01E9
:10417000CF0111240895AA1BBB1B51E107C0AA1F40
:10418000BB1FA617B70710F0A61BB70B881F991FF8
:104190005A95A9F780959095BC01CD010895A1E2AB
:1041A0001A2EAA1BBB1BFD010DC0AA1FBB1FEE1FB1
:1041B000FF1FA217B307E407F50720F0A21BB30BFC
:1041C000E40BF50B661F771F881F991F1A9469F778
:1041D00060957095809590959B01AC01BD01CF01D4
:1041E0000895EE0FFF1F0590F491E02D0994F894C7
:0241F000FFCFFF
:1041F2007265676C6F61643A20002D2D2D0020449A
:10420200697374616E63653A200020496E74657249
:1042120076616C3A20002074696D6572206D6F645E
:104222002069643A20002074696D657220756E6998
:10423200743A20002074696D657220696E743A20A8
:1042420000456E7465722072756E64696D3A007312
:10425200746174653A00207076616C3A0070776D13
:1042620070696E0070776D7065720053656E64637D
:104272006F6E6669676461746100456E7465722071
:1042820052656376007372636E6F646500207372A9
:10429200636D6F643A200020737263536C6F743ADB
:1042A2002000544553542100456E746572205365B5
:1042B2006E646D73673A002069643A2000206D6F66
:1042C200643A200020736C6F743A2000204D6173B1
:1042D2007465723A2000204C656E3A2000207061AD
:1042E200793A20002D00456E7465722072756E64F5
:1042F200687431313A2000696E7420696E69743ACB
:10430200200063686B3A2000436865636B73756DC8
:10431200206572726F720054696D65206F7574202A
:104322006572726F720048756D69646974792825C7
:10433200293A200054656D70657261747572652842
:1043420043293A2000556E6B6E6F776E206572724C
:104352006F720053617665436F6E66696700456EE2
:104362007465722072756E616E616C6F67696E3A08
:104372000044617461253A2000416E616C6F6720D0
:10438200646174613A2000636F6E3A002072657353
:10439200756C743A00206C6566743A20002072696C
:1043A2006768743A200073746174653A20006C6522
:1043B2006E3A20006D7367005374617274696E67A0
:1043C2003F3F3F006E616E00696E66006F76660069
:1043D2002E000103D004F4040100000000D418668A
:0A43E200198A18A6189618C41800CE
:00000001FF
