:100000000C942C010C9454010C9454010C94540144
:100010000C9454010C9454010C9454010C9454010C
:100020000C9454010C9454010C9454010C945401FC
:100030000C9454010C944C160C9454010C945401DF
:100040000C940A1D0C9454010C9469180C94B0186B
:100050000C9454010C9454010C9454010C945401CC
:100060000C9454010C9454010000010001000100A3
:100070000100010001000100010001000100020077
:100080000200020002000200020002000200020060
:10009000020002000200020002000200030003004E
:1000A0000300030003000300030003000300030038
:1000B000040004000400040004000400040005001F
:1000C0000500050005000500050006000600060005
:1000D00006000600070007000700070008000800E8
:1000E000080008000900090009000A000A000A00C7
:1000F0000B000B000C000C000C000D000D000E009E
:100100000E000F000F00100010001100110012006F
:100110001300130014001500160016001700180035
:1001200019001A001A001B001C001D001E001F00F1
:100130002100220023002400250027002800290098
:100140002B002C002E00300031003300350037002A
:1001500038003A003D003F004100430045004800A0
:100160004A004D0050005300550058005C005F00ED
:100170006200660069006D007100750079007D0005
:10018000810086008A008F0094009A009F00A500DD
:10019000AA00B000B600BD00C300CA00D100D9005B
:1001A000E000E800F000F90002010B0114011E015B
:1001B000280132013D01480153015F016C017801C2
:1001C00086019301A101B001BF01CF01DF01F00160
:1001D00001021302260239024D02620277028D02E9
:1001E000A402BC02D502EE020803240340035D030F
:1001F0007B039A03BB03DC03FF0300000000240021
:1002000027002A0000000000250028002B00000025
:10021000000023002600290004040404040404044C
:1002200002020202020203030303030301020408A1
:100230001020408001020408102001020408102050
:100240000000000700020100000304060000000097
:10025000000000008001E41911241FBECFEFD8E098
:10026000DEBFCDBF12E0A0E0B1E0EEEAF3E402C0F1
:1002700005900D92A03CB107D9F715E0A0ECB2E0D3
:1002800001C01D92A53AB107E1F712E0C8E5D2E03E
:1002900004C02297FE010E94D121C435D107C9F7BD
:1002A0000E94FB1C0C94D5210C940000FC01818160
:1002B0008695877029F48091D5049091D6040BC05F
:1002C000813029F48091DF049091E00404C0809192
:1002D000E3049091E4049093EE048093ED04228172
:1002E0003381280F391F8091ED049091EE04281777
:1002F000390718F4818180648183368325830895CA
:100300000F931F9309EF14E0C8016FEF73E00E9491
:1003100088178093CA02C8016EEF73E00E948817A5
:100320008093CB021F910F910895CF93DF93E90142
:1003300090E0E82FF0E0EC5FFB4FD901A60FB11D74
:1003400003C08C9180839F5F9417D8F38AEF94E069
:1003500060E071E00E94EB1B8AEF94E068814AE064
:1003600050E00E945B1BDF91CF9108951F93CF93C4
:10037000DF93182FEA01E091C402F091C502818158
:10038000817F8183662309F04DC08E8190E02D81AD
:10039000821B91099093EE048093ED048AEF94E020
:1003A0006AE071E00E94EB1B6091ED047091EE0435
:1003B0008AEF94E04AE050E00E941B1B112319F0E1
:1003C00029853A8502C02F81388584E690E0AC010A
:1003D000249FC001259F900D349F900D1124A0E013
:1003E000B0E08093EF049093F004A093F104B093F5
:1003F000F2042091ED043091EE0440E050E0609171
:10040000EF047091F0048091F1049091F2040E9445
:10041000AD212093EF043093F0044093F104509306
:10042000F20418C0623029F48F8590E0A0E0B0E0BB
:1004300009C08E852AE0829FC0011124AA2797FD5A
:10044000A095BA2F8093EF049093F004A093F10449
:10045000B093F2048AEF94E066E171E00E94EB1B36
:100460004091EF045091F0046091F1047091F20416
:100470008AEF94E02AE030E00E940C1BE091C40275
:10048000F091C50281818F7C806281838091EF042D
:100490009091F00493838283DF91CF911F9108950F
:1004A000AF92BF92DF92EF92FF920F931F93F82EBD
:1004B0005B01E42ED22E0AEF14E0C80168E271E07D
:1004C0000E94EB1BC8016F2D4AE050E00E94491BBF
:1004D000C80168E371E00E94EB1BC8016E2D70E05B
:1004E0004AE050E00E94B91BC80166E471E00E9436
:1004F000EB1BC801B5014AE050E00E94CC1B4091C3
:100500000304842F90E09C0153E0220F331F5A957F
:10051000E1F7281B390BA8EDB3E0FD01E20FF31F53
:10052000F093C502E093C4028F2D8295880F807EE0
:100530008083F694F694F69481E0F82281818E7F90
:100540008F298183B382A2821196A20FB31F97E0F5
:10055000E922EE0C8C91817C93E0D922D29490EF29
:10056000D9228E298D298C93809102048F5F8093EC
:1005700002044F5F409303041F910F91FF90EF908F
:10058000DF90BF90AF9008950F931F93CF93DF93A9
:10059000182FC091C602D091C7028AEF94E063E59C
:1005A00071E00E94EB1B8AEF94E0612F4AE050E07B
:1005B0000E94491B8AEF94E061E671E00E94EB1B08
:1005C0006A8162956F708AEF94E04AE050E00E9481
:1005D000491B8AEF94E068E671E00E94EB1B8AEF0A
:1005E00094E068894AE050E00E945B1B1F3F09F0DD
:1005F0005EC08B8186958695869551F061E00E945C
:10060000611E8B8186958695869560E00E94A01E6E
:100610008C818F7159F161E00E94611E4D8584E6E5
:10062000489FA0011124662757FD6095762F83EF20
:1006300094E00E94E7168AEF94E06FE671E00E9472
:10064000EB1B6C816F718AEF94E04AE050E00E94EE
:100650005B1B8AEF94E066E771E00E94EB1B8AEF78
:1006600094E06D854AE050E00E945B1B298124FFE5
:1006700017C1909103049F708A81807F892B8A83A0
:1006800025FD0EC1E091C602F091C70290819295BE
:100690009695977081818370880F880F880F6F817E
:1006A0007885892B41E020E00E945002F9C08981C1
:1006B00084FFF6C08A818F7027E0829FC0011124D9
:1006C00088529C4F9093C5028093C402113089F4E4
:1006D0008A81982F92959F70933019F48F70806261
:1006E00006C0992311F0943059F58A818F708A835E
:1006F00027C0123021F48A818F708063F8CF1330C5
:1007000031F48A818F7080638A8362E01AC0153069
:1007100019F48A818F7005C0183031F48A818F7086
:1007200080638A8361E00DC01B3051F48A818F7031
:1007300080628A838B818770813011F488898E83EF
:1007400060E08A8182958F7090E08230910509F493
:100750004CC08330910534F4009761F0019709F0A3
:100760009FC029C08330910509F459C0049709F04E
:1007700097C05DC080E0AE010E94B6018A818F7093
:1007800080618A838B8186958695869519F061E0D4
:100790000E94A01E6C816F7148890D8584E6089FB8
:1007A00080011124222717FD2095322F83EF94E03A
:1007B00050E00E941F1788898F5F888BE82FF0E038
:1007C000EE0FFF1FE859FF4F459154915093EE04EF
:1007D0004093ED046C816F7183EF94E00E94EF16FB
:1007E00098898E81981708F43EC0E091C402F09178
:1007F000C50221812F7C206221838B859C85938378
:1008000082838C81829586958770880F217F282B23
:1008100021838A818F7080638A83CF0128C081E021
:10082000AE010E94B6018A818F7080648A838889B4
:10083000882311F08150888B8889E82FF0E0EE0F33
:10084000FF1FE859FF4F459154915093EE04409398
:10085000ED046C816F7183EF94E00E94EF1698892C
:100860008D81891738F48091C4029091C5020E944D
:10087000560116C083EF94E00E9482178B81869503
:100880008695869519F060E00E94A01EE091C40252
:10089000F091C50281818F7C81838A818F708A83E8
:1008A000DF91CF911F910F910895CF92DF92EF9238
:1008B000FF920F931F93DF93CF9300D0CDB7DEB796
:1008C000F82EC090C602D090C702F6018181FFEFDA
:1008D000FF1639F584FF52C18091030427E0829FFF
:1008E0009001112428523C4F3093C5022093C4023A
:1008F0008F70F6019281907F982B9283918195FD64
:100900003DC180818295869587709370990F990F6C
:10091000990F65817681892B438120E00E945002E6
:100920002DC184FF27C0F60182818F7090E0FC0109
:10093000A3E0EE0FFF1FAA95E1F7E81BF90B9F015B
:1009400028523C4F3093C5022093C40241E0F41674
:1009500031F4E752FC4F80818F7C80830FC1FF20F0
:1009600031F4E752FC4F80818F7C80628083C90123
:100970000E945601F60164816F7180EC92E070E094
:100980000E949B179A838983FFEF8F3F9F0731F067
:10099000009771F08E5F9F4FE1F505C08AEF94E0FC
:1009A0006DE771E03AC08AEF94E06CE871E035C021
:1009B0008AEF94E06BE971E00E94EB1B6091C0024A
:1009C0007091C102882777FD8095982F0E944C2056
:1009D000AB01BC018AEF94E022E030E00E94D21C1F
:1009E0008AEF94E062EA71E00E94EB1B6091C20220
:1009F0007091C302882777FD8095982F0E944C2024
:100A0000AB01BC018AEF94E022E030E00E94D51CEB
:100A100006C08AEF94E06AEA71E00E94E81C29812E
:100A20003A81F601818592852115310599F1FFEF13
:100A30008D399F073CF44FEF8D38940709F49EC021
:100A4000019702C08CE99FEFF60192878187F5E05C
:100A5000220F331FFA95E1F7F60181859285280F61
:100A6000391F3A832983E091C602F091C702908131
:100A700092959695977081818370880F880F880F63
:100A8000892B6FEF41E022E08E010F5F1F4FE2E004
:100A9000EE2E72C04091C2025091C3029A01281BEF
:100AA000390B37FF03C0309521953F4FF601878101
:100AB00090E0281739073CF4F2E0FF1621F0F60128
:100AC000818186FF1FC0F60152874187E091C602EF
:100AD000F091C7022081229526952770818183702D
:100AE000880F880F880FF6019181929596959695BB
:100AF0009170822B60E040E022E002EC12E0E92EEF
:100B00000E94E70C2091C0023091C102F60183855A
:100B100094852817390719F440E050E003C0A90173
:100B2000481B590BF601808590E04817590738F4A7
:100B3000F2E0FF1621F0F601818186FF1FC0F60169
:100B400034872387E091C602F091C7022081229565
:100B50002695277081818370880F880F880FF60192
:100B600091819295969596959170822B61E040E0E7
:100B700022E000EC12E0E92E0E94E70C0F900F90AB
:100B8000CF91DF911F910F91FF90EF90DF90CF9069
:100B90000895FF920F931F93082F162FF42EE02F26
:100BA000F0E0E853FC4FE081F0E0E453FD4FF093B8
:100BB000C702E093C60280818F7190E08330910577
:100BC00081F0843091051CF40297B1F406C08430A2
:100BD000910559F0059781F40CC0812F0E944E0DAC
:100BE0000BC0812F0E94550407C0812F0E94AB10BB
:100BF00003C0812F0E94C402FF2049F0E091C60289
:100C0000F091C702818183FF02C00F5FC8CF1F919F
:100C10000F91FF900895CF92DF92EF92FF920F9382
:100C20001F93DF93CF9300D000D0CDB7DEB7182F3E
:100C3000E12EFF24A701440F551F4E0D5F1D440FE9
:100C4000551FBA01675B7B4FDB012C91822F8F70A0
:100C500090E08730910509F42CC188309105FCF4AF
:100C60008330910509F4ACC0843091055CF4813087
:100C7000910509F45DC0823091050CF07DC0892B8F
:100C800099F130C08530910509F4DDC022952F70AF
:100C9000DB011196EC9106970CF0F9C0B5C08B30D2
:100CA000910509F47CC18C3091056CF48930910573
:100CB00009F436C122952F70DB011196EC910A9749
:100CC0000CF051C10BC18D30910509F4B2C18D30CA
:100CD00091050CF489C18E30910509F4CFC10F97AD
:100CE00009F4EFC100E00FC200E022952F70DB0194
:100CF0001196EC91E170E295E07FE22BF0E0EC5F81
:100D0000FB4FA081B0E0A453BD4FFA01E65BFB4F5F
:100D1000E081E695EF71F0E0EC5FFB4FE081F0E001
:100D2000E453FD4F9C918081981709F0ECC1BFC03E
:100D300000E022952F70DB011196EC91E170E295B5
:100D4000E07FE22BF0E0EC5FFB4FA081B0E0A4532A
:100D5000BD4FFA01E65BFB4FE081E695EF71F0E0F5
:100D6000EC5FFB4FE081F0E0E453FD4F9C9180810C
:100D7000981709F09CC0C7C100E022952F70DB01D5
:100D80001196EC91E170E295E07FE22BF0E0EC5FF0
:100D9000FB4FA081B0E0A453BD4FFA01E65BFB4FCF
:100DA000E081E695EF71F0E0EC5FFB4FE081F0E071
:100DB000E453FD4F9C918081891708F0A4C177C04E
:100DC00000E022952F70DB011196EC91E170E29525
:100DD000E07FE22BF0E0EC5FFB4FA081B0E0A4539A
:100DE000BD4FFA01E65BFB4FE081E695EF71F0E065
:100DF000EC5FFB4FE081F0E0E453FD4F9C9180817C
:100E0000981708F480C153C000E0E170E295E07FDC
:100E1000E22BF0E0EC5FFB4FA081B0E0A453BD4FAC
:100E2000FA01E65BFB4FE081E695EF71F0E0EC5FE5
:100E3000FB4FE081F0E0E453FD4F9C9180819817D7
:100E400008F061C134C000E022952F70DB011196DB
:100E5000EC91E170E295E07FE22BF0E0EC5FFB4F7C
:100E6000A081B0E0A453BD4FFA01E65BFB4FE081E7
:100E7000E695EF71F0E0EC5FFB4FE081F0E0E453CA
:100E8000FD4F9C918081891708F43DC110C000E09E
:100E9000E170E295E07FE22BF0E0EC5FFB4FE08158
:100EA000F0E0E453FD4F8081882309F02CC101E07C
:100EB0002AC122952F70DB011196EC91E170E29529
:100EC000E07FE22BF0E0EC5FFB4FE081F0E0E453E9
:100ED000FD4F8081882391F460E0A9C0E170E29524
:100EE000E07FE22BF0E0EC5FFB4FE081F0E0E453C9
:100EF000FD4F8081882311F061E099C0FA01E65B23
:100F0000FB4FE081E695EF71F0E0EC5FFB4FE08195
:100F1000F0E0E453FD4FE081E111E1E06E2F87C086
:100F2000FA01E65BFB4FE081E695EF71F0E0EC5FE4
:100F3000FB4FA0818A2F90E084539D4F22952F7004
:100F4000DB011196EC91E170E295E07FE22BF0E09D
:100F5000EC5FFB4FE081F0E0E453FD4FDC010C91CE
:100F60008081080FD0C0E170E295E07FE22BF0E0D5
:100F7000EC5FFB4FA081B0E0A453BD4FFA01E65BEC
:100F8000FB4FE081E695EF71F0E0EC5FFB4FE08115
:100F9000F0E0E453FD4F0C918081081BB4C0FA01CE
:100FA000E65BFB4FE081E695EF71F0E0EC5FFB4F15
:100FB000A0818A2F90E084539D4F22952F70DB01F2
:100FC0001196EC91E170E295E07FE22BF0E0EC5FAE
:100FD000FB4FE081F0E0E453FD4FDC019C91808108
:100FE000989F002D11248FC022952F70DB01119640
:100FF000EC91E170E295E07FE22BF0E0EC5FFB4FDB
:10100000A081B0E0A453BD4FFA01E65BFB4FE08145
:10101000E695EF71F0E0EC5FFB4FE081F0E0E45328
:10102000FD4F60818C9190E070E00E948621062F38
:101030006AC022952F70DB011196EC91E170E29568
:10104000E07FE22BF0E0EC5FFB4FA081B0E0A45327
:10105000BD4FFA01E65BFB4FE081E695EF71F0E0F2
:10106000EC5FFB4FE081F0E0E453FD4F60818C9139
:1010700090E070E00E948621082F45C0FA01E65BEF
:10108000FB4FE081E695EF71F0E0EC5FFB4FA08154
:101090008A2F90E084539D4F22952F70DB0111968B
:1010A000EC91E170E295E07FE22BF0E0EC5FFB4F2A
:1010B000E081F0E0E453FD4FDC010C9180810823D6
:1010C00022C0FA01E65BFB4FE081E695EF71F0E0AC
:1010D000EC5FFB4FA0818A2F90E084539D4F2295B7
:1010E0002F70DB011196EC91E170E295E07FE22B2D
:1010F000F0E0EC5FFB4FE081F0E0E453FD4FDC01FA
:101100000C918081082B8AEF94E068EB71E00E94DB
:10111000EB1B8AEF94E0612F4AE050E00E94491BEC
:101120008AEF94E06DEB71E00E94EB1B8AEF94E094
:10113000602F4AE050E00E94491B8AEF94E066EC81
:1011400071E00E94EB1BF701EE0FFF1FEE0DFF1D7C
:10115000EE0FFF1FFA83E9836F0189E494E0C80E64
:10116000D91ED6018C9182958F701196EC91E17009
:10117000E295E07FE82BF0E0EC5FFB4FE081F0E0F0
:10118000E453FD4F8AEF94E060814AE050E00E9412
:10119000491B8AEF94E06EEC71E00E94EB1BE98141
:1011A000FA81E65BFB4FFC83EB83E081E695EF7110
:1011B000F0E0EC5FFB4FE081F0E0E453FD4F8AEF9D
:1011C00094E060814AE050E00E945B1BAB81BC81EF
:1011D0008C91829586958695837011969C919370DB
:1011E000990F990F982B973039F4D6011496EC91FA
:1011F000F0E0EC5FFB4F0083002381F1913031F090
:10120000933021F0953011F0963071F4F701EE0F24
:10121000FF1FEE0DFF1DEE0FFF1FE75BFB4F8481ED
:10122000658140E00E94C905F701EE0FFF1FEE0D3A
:10123000FF1DEE0FFF1FE65BFB4F808182958695B9
:101240008695837091819370990F990F982B9230A6
:1012500039F0943029F0953019F033C0933071F49F
:10126000F701EE0FFF1FEE0DFF1DEE0FFF1FE55BF9
:10127000FB4F1081169516951695DACC943059F4DB
:10128000F701EE0FFF1FEE0DFF1DEE0FFF1FE75BD7
:10129000FB4F1481CDCC9630A1F4F701EE0FFF1F68
:1012A000EE0DFF1DEE0FFF1FDF01A55BBB4F8C9105
:1012B000E75BFB4F869586958695638140E00E94AB
:1012C000C9050F900F900F900F90CF91DF911F9154
:1012D0000F91FF90EF90DF90CF9008951F931091A2
:1012E000C603A091AD02B091AE02E091C602F091AA
:1012F000C70270E050E032C0E72FF0E0E453FD4F4A
:101300006081862F82958695877041814370440F56
:10131000440F440F482B242F30E013968C911397E1
:1013200090E02817390759F4F093C702E093C602FA
:10133000842F14966C9140E00E94C90515C0862F39
:101340008F71823040F0853020F0853021F481E1CA
:1013500003C08DE001C080E0780F5F5F511760F23D
:10136000F093C702E093C6021F910895EF92FF9297
:101370000F931F93DF93CF9300D0CDB7DEB71A82C0
:1013800019828AEF94E067ED71E00E94E81C89EF12
:1013900094E06DEF73E00E948817813009F016C267
:1013A0008AEF94E065EE71E00E94E81C69817A8121
:1013B0006F5F7F4F7A8369836150704089EF94E05B
:1013C0000E948817082F8AEF94E0602F4AE050E0CF
:1013D0000E945B1B1092C70330C069817A816F5FE6
:1013E0007F4F7A8369836150704089EF94E00E9457
:1013F0008817E12FF0E0E453FD4F80838AEF94E0FB
:101400006091C7034AE050E00E94491B8AEF94E0D4
:1014100063EF71E00E94EB1BE091C703F0E0E4533F
:10142000FD4F8AEF94E060814AE050E00E945B1B30
:101430008091C7038F5F8093C7031091C703101774
:1014400060F28AEF94E066EF71E00E94EB1B698125
:101450007A818AEF94E04AE050E00E942C1B698177
:101460007A816F5F7F4F7A8369836150704089EF23
:1014700094E00E948817082F1092150449EFE42E7B
:10148000F12C17C069817A816F5F7F4F7A836983FE
:101490006150704089EF94E00E948817F701E11BCA
:1014A000F109E453FD4F8083809115048F5F809391
:1014B000150410911504101728F38AEF94E06DEFCE
:1014C00071E00E94EB1B69817A818AEF94E04AE027
:1014D00050E00E942C1B69817A816F5F7F4F7A8375
:1014E00069836150704089EF94E00E948817082F4B
:1014F0001092140416C069817A816F5F7F4F7A83DE
:1015000069836150704089EF94E00E948817E12F51
:10151000F0E0EC5FFB4F8083809114048F5F809339
:10152000140410911404101730F38AEF94E066E06D
:1015300072E00E94EB1B69817A818AEF94E04AE0B5
:1015400050E00E942C1B69817A816F5F7F4F7A8304
:1015500069836150704089EF94E00E9488178093FE
:101560004804EE2435E0F32E18C069817A816F5F5C
:101570007F4F7A8369836150704089EF94E00E94C5
:101580008817682F0A5E1B4FF80180838AEF94E06A
:101590004AE050E00E945B1BE3940E2D10E0809126
:1015A00048048F9DC001112408171907F0F28AEF33
:1015B00094E06DE072E00E94EB1B69817A818AEF12
:1015C00094E04AE050E00E942C1B69817A816F5FB1
:1015D0007F4F7A8369836150704089EF94E00E9465
:1015E000881780938504EE2426E0F22E18C06981C6
:1015F0007A816F5F7F4F7A8369836150704089EF92
:1016000094E00E948817682F075B1B4FF8018083C6
:101610008AEF94E04AE050E00E945B1BE3940E2DB9
:1016200010E0809185048F9DC001112408171907CF
:10163000F0F28AEF94E064E172E00E94EB1B6981B2
:101640007A818AEF94E04AE050E00E942C1BEE245D
:1016500063C08AEF94E06BE172E00E94EB1B8AEFBB
:1016600094E06E2D4AE050E00E945B1B04531D4F36
:101670001093C7020093C6028AEF94E065E272E01D
:101680000E94EB1BE091C602F091C7028081829517
:101690008695877061816370660F660F660F682B91
:1016A0008AEF94E04AE050E00E945B1BA091C602E2
:1016B000B091C7028C918295869587701196EC91B6
:1016C0001197E370EE0FEE0FEE0FE82BF0E0E8530A
:1016D000FC4FE0828C918F71823040F0853020F099
:1016E000853021F481E103C08DE001C080E0E80E87
:1016F0009C9192959695977011968C918370880F16
:10170000880F880F892B6FEF40E00E94C9058091F8
:10171000C6038F5F8093C6030E2D10E098012F5FE4
:101720003F4F8091C70390E0281739070CF491CF01
:10173000EE2432C08AEF94E06AE272E00E94EB1B72
:101740008AEF94E06E2D4AE050E00E945B1BF801A6
:10175000E453FD4FF093C702E093C60280818F717E
:10176000823040F0853020F0853021F411E103C053
:101770001DE001C010E0918197FF0DC0808182952E
:10178000869587709370990F990F990F892B60E058
:1017900040E00E94C905E10E0E2D10E098012F5F78
:1017A0003F4F8091C70390E0281739071CF28091C2
:1017B000CB02823058F080E066E041E022E08E010A
:1017C0000F5F1F4F92E0E92E0E94E70C0F900F90E1
:1017D000CF91DF911F910F91FF90EF900895EF92BD
:1017E0000F931F93CF93DF93882341F08091AB0237
:1017F0009091AC029093AE028093AD02A091AD02A5
:10180000B091AE0211964C91119747FD02C0EE24A3
:10181000D3C0242F30E0205830408091CA0290E09D
:101820002817390719F04F3F09F0CBC012968C9159
:101830001297813019F40E94E612C3C0823019F465
:101840000E94CF11BEC0833019F40E946E09B9C046
:101850008430D9F4E0910404F0E0E453FD4F149691
:101860008C9114978083E0910504F0E0E453FD4FE0
:1018700015968C9115978083E0910604F0E0E4536F
:10188000FD4F16968C9180839CC0853019F40E9480
:10189000970F97C0863019F40E94B60992C087301E
:1018A00009F08FC08AEF94E064E372E00E94E81CC4
:1018B00082E08093EC0480E067E040E021E00CEE01
:1018C00014E072E0E72E0E94E70C7BC00E2D10E0C2
:1018D000A091AD02B091AE02A801440F551F440F74
:1018E000551F400F511FEA01CA5EDB4F98811196C8
:1018F0008C911197981709F05EC0FA01E95EFB4FD1
:10190000E0812E2F2F7130E012968C91129790E08B
:101910002817390709F04FC0E295E695E7702E2F9A
:1019200030E013968C91139790E02817390709F04F
:1019300042C0D093C902C093C802FA01E85EFB4FCF
:101940002081822F877090E00297CCF4818187708C
:10195000880F880F269526952695622F6770FA01C5
:10196000E75EFB4F40814695469546954770149635
:10197000269526952695822B9D010E94950198011A
:10198000220F331F220F331F200F311FF901E85E92
:10199000FB4F8081877079F0F901E75EFB4F908102
:1019A000929596959695937081818770880F880F90
:1019B000892B0E940B06E39480914804E81608F4F2
:1019C00085CFDF91CF911F910F91EF900895EF9206
:1019D0000F931F93422FE091AB02F091AC029091D4
:1019E000CA029183828363834C5F40834450CF015A
:1019F00004960817190771F0502FDF01C801FC0188
:101A000004C0819113968C93139711968E2F851B8A
:101A10008417B8F38091CE048C5F840F8093CE043A
:101A200090E00C96849740F01092CE0486E894E003
:101A30009093AC028093AB0282E0E81631F081E033
:101A40000E94EF0B81E0E81629F18AEF94E063E24F
:101A50000E94641A1092EC0414C0E90FF11D8AEF81
:101A600094E0608140E150E00E94491B8AEF94E0DD
:101A70006AE372E00E94EB1B8091EC048F5F80931D
:101A8000EC049091EC04E091AB02F091AC02808107
:101A9000981718F31F910F91EF900895CF92DF924E
:101AA000EF920F931F93DF93CF930F92CDB7DEB7D3
:101AB000182FC090C602D090C702D6011296EC90A3
:101AC0001297E294FFE0EF221A968C911A97829572
:101AD0008695869583701B960C910170000F000F00
:101AE000082B8AEF94E06CE372E00E94EB1B8AEF14
:101AF00094E0612F4AE050E00E94491B8AEF94E095
:101B000065E472E00E94EB1BF601628162956F70E2
:101B10008AEF94E04AE050E00E945B1B1F3F09F00F
:101B20005BC0D6011B968C9186958F7191F061E018
:101B30000E94611EF6018385982F969586FF04C04A
:101B4000892F8F7161E003C0892F8F7160E00E943F
:101B5000A01ED6011B968C911B97881F8827881F73
:101B60001C969C919F70990F982B21F0892F61E012
:101B70000E94611E83E28093B0008AE08093B100EE
:101B80008FE48093B3001092B400F601218124FF0A
:101B9000C5C1909103049F708281807F892B8283CD
:101BA00025FDBCC1E091C602F091C70290819295DB
:101BB0009695977081818370880F880F880FD60162
:101BC00018966D917C9119971A964C914770892BB4
:101BD00020E00E945002A2C1113011F4F6014FC062
:101BE0001230B9F4D60112968C9112978F708062E0
:101BF00012968C9312971A968C911A978F731A9645
:101C00008C931A971B968C911B978E7F1B968C93A7
:101C100065C0133019F0163041F509C0F601828510
:101C20008F738064828783858E7F83870FC0D60100
:101C30001A968C911A978F7380681A968C931A97BC
:101C40001B968C911B978E7F1B968C93F60182813D
:101C5000982F92959F70913009F460C18F709330E6
:101C600081F0D60112968C9339C0143069F4F601D4
:101C700082858F738064828783858E7F838782814C
:101C80008F70806282832AC0153041F5D6011A9682
:101C90002C911A97922F92959695969593701B96E4
:101CA0003C911B97832F8170880F880F892B09F433
:101CB00035C12F731A962C931A973E7F1B963C932F
:101CC0001B9712969C911297892F82958F70833063
:101CD00009F024C19F70906212969C93F601818155
:101CE00084FF0CC082818F7027E0829FC001112485
:101CF00088529C4F9093C5028093C402D6011296DD
:101D00002C91822F82958F7090E08130910571F136
:101D1000823091051CF4892B41F000C1823091057D
:101D200041F1039709F0FAC0B7C02F702061F601A6
:101D30002283818184FFF2C0E091C402F091C50248
:101D400021812F7C20612183D60118968D919C9151
:101D50001997938382831A968C918770880F217FBD
:101D6000282B2183CF010E945601D8C0112309F0EE
:101D7000D5C0F6018385982F969586FF04C0892FDC
:101D80008F7160E003C0892F8F7161E00E94A01EF7
:101D9000D6011A968C911A978295869586958370AE
:101DA0001B969C911B979170990F990F982B19F482
:101DB00014968C910AC0913019F4F601858105C002
:101DC000923021F4D60113968C918983898190E019
:101DD000E3E0880F991FEA95E1F76AE070E00E945E
:101DE0009A216093B400F601818184FF1AC0E091CA
:101DF000C402F091C50221812F7C20612183D6018C
:101E000016968D919C911797938382831A968C9145
:101E1000869586958E70217F282B2183CF010E9485
:101E20005601F60182818F7080638283F3E0EF16A2
:101E3000A9F4D6011A968C911A9782958695869563
:101E400083701B962C912170220F220F282B30E0DB
:101E5000802F90E02817390709F460C0E091C6028E
:101E6000F091C70220812295269527708181837089
:101E7000880F880F880FF601918192959695969517
:101E80009170822B62E040E021E08E010F5F1F4FD6
:101E9000E92E0E94E70C42C01092B400D6011296BF
:101EA0008C9112978F7012968C9312971B968C912F
:101EB000982F969586FF04C0892F8F7161E003C02B
:101EC000892F8F7160E00E94A01EE091C602F09100
:101ED000C702208122952695277081818370880F03
:101EE000880F880FF601918192959695969591703D
:101EF000822B61E040E021E08E010F5F1F4FE92E51
:101F00000E94E70CD60111968C9184FF07C0E091E6
:101F1000C402F091C50281818F7C81830F90CF91A3
:101F2000DF911F910F91EF90DF90CF900895EF9286
:101F3000FF920F931F93DF93CF9300D0CDB7DEB7FF
:101F40001A8219828AEF94E06DE472E00E94E81C24
:101F50005091C7032091480485E0289F90011124E7
:101F60008091850446E0849FC0011124280F391F09
:101F700040911404852F90E0840F911D280F391F84
:101F80003093EE042093ED04235F334068F081E04A
:101F900094E09093EE048093ED0480E065E041E0EE
:101FA00022E00DEE14E0CAC069817A816F5F7F4F35
:101FB0007A8369836150704089EF94E0452F0E94D5
:101FC0008F1710E010C06F5F7F4F7A836983615075
:101FD0007040E12FF0E0E453FD4F89EF94E0408141
:101FE0000E948F171F5F8091C70369817A8118173C
:101FF00050F36F5F7F4F7A8369836150704089EF40
:1020000094E0409115040E948F1710E0B9EFEB2E79
:10201000F12C11C06F5F7F4F7A83698361507040EC
:10202000F701E11BF109E453FD4F89EF94E0408192
:102030000E948F171F5F8091150469817A8118179C
:1020400048F36F5F7F4F7A8369836150704089EFF7
:1020500094E0409114040E948F1710E010C06F5F4D
:102060007F4F7A83698361507040E12FF0E0EC5F2D
:10207000FB4F89EF94E040810E948F171F5F809192
:10208000140469817A81181750F36F5F7F4F7A8348
:1020900069836150704089EF94E0409148040E9448
:1020A0008F1710E005E00EC06F5F7F4F7A83698362
:1020B00061507040EA5EFB4F89EF94E040810E94DE
:1020C0008F171F5FE12FF0E080914804809FC001CF
:1020D000112469817A81E817F90730F36F5F7F4F28
:1020E0007A8369836150704089EF94E04091850460
:1020F0000E948F1710E006E010C069817A816F5F3F
:102100007F4F7A83698361507040E75BFB4F89EFB3
:1021100094E040810E948F171F5FE12FF0E08091D3
:102120008504809FC0011124E817F90730F380E08F
:1021300065E041E022E08E010F5F1F4FA2E0EA2E32
:102140000E94E70C0F900F90CF91DF911F910F919C
:10215000FF90EF900895AF92BF92CF92DF92EF92EF
:10216000FF920F931F93DF93CF9300D00F92CDB7C1
:10217000DEB7182FA090C602B090C7028AEF94E095
:102180006AE572E00E94EB1B8AEF94E0612F4AE05F
:1021900050E00E945B1B1F3FA1F5F5018381877012
:1021A00060E00E94611EF501818184FFEAC02091F8
:1021B000030487E0289FC001112488529C4F90930C
:1021C000C5028093C4022F708281807F822B82831C
:1021D000818185FDD6C0E091C602F091C702908151
:1021E00092959695977081818370880F880F880FDC
:1021F000F50166817781892B448120E00E9450029D
:10220000C0C0F501818184FF25C082818F7090E07C
:10221000FC0103E0EE0FFF1F0A95E1F7E81BF90B45
:102220009F0128523C4F3093C5022093C4021130C5
:1022300031F4E752FC4F80818F7C8083A2C0112350
:1022400031F4E752FC4F80818F7C80628083C9012A
:102250000E945601F501838187700E943F1E6C0128
:102260009B838A83F50182859385C816D90619F464
:1022700020E030E003C09601281B390BF501808572
:1022800090E02817390728F4123019F0818186FF71
:1022900078C0FAE0CF16D10410F4C98233C0F5013A
:1022A000618570E080E090E00E944A2020E030E00C
:1022B00040E850EC0E94002120E030EC4FE754E46D
:1022C0000E94491F9B01AC0160E070E088EC92E441
:1022D0000E94B11F7B018C01B60180E090E00E945A
:1022E0004A209B01AC01C801B7010E9400210E9455
:1022F0001E2069836A3010F48AE003C0653610F04E
:1023000084E689838AEF94E068E672E00E94EB1B22
:102310008AEF94E069814AE050E00E94491B8AEF0D
:1023200094E060E772E00E94EB1B6A817B818AEF98
:1023300094E04AE050E00E942C1B8A819B81F501C9
:102340009387828789818487E091C602F091C702D2
:10235000208122952695277081818370880F880FB0
:10236000880FF50191819295969596959170822BA3
:1023700060E040E023E08E010F5F1F4FE92E0E94D6
:10238000E70C0F900F900F90CF91DF911F910F915D
:10239000FF90EF90DF90CF90BF90AF900895BF92E5
:1023A000CF92DF92EF92FF920F931F93CF93DF9321
:1023B000E091AD02F091AE0213818AEF94E06EE7F6
:1023C00072E00E94EB1B8AEF94E0612F4AE050E03C
:1023D0000E94491B8AEF94E06DE872E00E94EB1BBB
:1023E000E091AD02F091AE028AEF94E064814AE0A0
:1023F00050E00E94491B8AEF94E06DE872E00E9471
:10240000EB1BE091AD02F091AE028AEF94E06581A2
:102410004AE050E00E94491B8AEF94E06DE872E0C8
:102420000E94EB1BE091AD02F091AE028AEF94E0C6
:1024300066814AE050E00E945B1BA091AD02B09122
:10244000AE021696BC901697E091AB02F091AC02EA
:1024500012821496EC911497163008F05EC0112386
:1024600021F4F0E0E853FC4F23C0113039F487E049
:10247000E89FF0011124E852FC4F1FC0123039F4DC
:1024800085E0E89FF0011124EA5EFB4F16C013308F
:1024900039F486E0E89FF0011124E75BFB4F0DC0A3
:1024A000F0E0143019F4EC5FFB4F07C0EC5FFB4F1A
:1024B0008081E82FF0E0E453FD4F15968C916F0179
:1024C000C80ED11CE60120E017C00091AB021091AC
:1024D000AC02F801E20FF11D888184832F5F283060
:1024E00050F00C5F1F4F80E062E041E052E0E52ECB
:1024F0000E94E70C20E02196AE014C194B1528F301
:10250000222309F459C00091AB021091AC020C5F78
:102510001F4F80E062E041E04BC09E2F80E090932F
:10252000EE048093ED0415962C91820F911D9093EB
:10253000EE048093ED04EE24FF242CC00091AB0246
:102540001091AC026091ED047091EE046F5F7F4FCB
:102550007093EE046093ED046150704089EF94E055
:102560000E9488170E0D111DF8018483E394F7E093
:10257000FE1578F40091AB021091AC020C5F1F4F76
:1025800080E062E041E02E2D32E0E32E0E94E70C75
:10259000EE24F394FB1490F2EE2071F00091AB0264
:1025A0001091AC020C5F1F4F80E062E041E02E2DE5
:1025B00092E0E92E0E94E70CDF91CF911F910F91DD
:1025C000FF90EF90DF90CF90BF900895EF920F9320
:1025D0001F93DF93CF9300D0CDB7DEB7A091AD02AC
:1025E000B091AE0213968C9113971A8219821496A9
:1025F000EC911497863008F054C0882321F4F0E061
:10260000E853FC4F23C0813039F487E0E89FF001A4
:102610001124E852FC4F1FC0823039F485E0E89F56
:10262000F0011124EA5EFB4F16C0833039F486E0D6
:10263000E89FF0011124E75BFB4F0DC0F0E0843010
:1026400019F4EC5FFB4F07C0EC5FFB4F8081E82F74
:10265000F0E0E453FD4FFA83E98315968C91E80F7F
:10266000F11DFA83E98322E00DC0E981FA81A20F0E
:10267000B11D14968C91808389819A8101969A83E9
:1026800089832F5FA091AD02B091AE028C91281783
:1026900060F380E061E041E021E08E010F5F1F4FB9
:1026A00053C09E2F80E09093EE048093ED04159626
:1026B0002C91820F911D9093EE048093ED04E6E03F
:1026C000EE2E35C06091ED047091EE046F5F7F4F88
:1026D0007093EE046093ED04615070400E2D10E095
:1026E000E00FF11F89EF94E040810E948F17609105
:1026F000ED047091EE04615070408AEF94E04AE07E
:1027000050E00E941B1B8AEF94E06DE872E00E948B
:10271000EB1BE091AD02F091AE02E00FF11F8AEFEA
:1027200094E060814AE050E00E945B1BE394E091FA
:10273000AD02F091AE028081E81620F280E061E007
:1027400041E022E00DEE14E072E0E72E0E94E70C7B
:102750000F900F90CF91DF911F910F91EF900895FF
:10276000AF92BF92CF92DF92EF92FF920F931F939F
:10277000A09002041091E804B090D504C090D60453
:10278000D090DF04E090E004F090E3040091E404D2
:102790004091C4025091C502ADEDB3E060E070E03D
:1027A0009FC0CB0123E0880F991F2A95E1F7861B74
:1027B000970BAC0148525C4FFC01E752FC4F9081F3
:1027C000892F8295837009F488C096FF1EC0892FD7
:1027D0008695877029F4112309F47FC09F7B90832D
:1027E000FB0193E0EE0FFF1F9A95E1F7E61BF70B55
:1027F000E752FC4F9081892F86958770813029F4AC
:10280000112309F46AC09F7B9083FB0183E0EE0FE4
:10281000FF1F8A95E1F7E61BF70BE752FC4FE081BB
:10282000E695E77019F48B2D9C2D07C0E13019F463
:102830008D2D9E2D02C08F2D902F9C018D919C91EE
:1028400011972817390708F448C05093C5024093E0
:10285000C402FB0113E0EE0FFF1F1A95E1F7E61B20
:10286000F70BDF01A752BC4F4C91842F82958370E8
:10287000813019F44F7C4C9317C0E852FC4F828191
:102880009381280F391F2817390710F440644C939F
:10289000FB01B3E0EE0FFF1FBA95E1F7E61BF70B64
:1028A000E852FC4F36832583FB01A3E0EE0FFF1FA8
:1028B000AA95E1F7E61BF70BE852FC4F9081929541
:1028C0009695977081818170880F880F880F892B6A
:1028D000648141E00E94C9050AC06F5F7F4F17966F
:1028E0006A1508F45ECF5093C5024093C4021F914D
:1028F0000F91FF90EF90DF90CF90BF90AF90089531
:10290000EF920F931F93DF93CF930F92CDB7DEB764
:102910002091D9043091DA048091EA049091EB047B
:10292000A901481B590BCA01815D974010F0109214
:10293000D1048091D00490E086559B4F9093AE02D5
:102940008093AD023093EB042093EA048AEF94E085
:102950000E947A19982F2091D104222329F48A33D6
:1029600009F09CC081E02FC0213059F480538A3097
:1029700020F08151863008F099C09093D40482E011
:1029800022C0223019F5282F20532A3020F08154FC
:10299000863008F08BC0E091AD02F091AE022A3093
:1029A00010F0292F27539091D404892F80538A3017
:1029B00008F087508295807F820F80838450893011
:1029C00008F074C083E08093D10468C0233008F419
:1029D00065C02E3F08F058C08983322F369531509C
:1029E0003093EC0420FF03C08093D40416C0E09120
:1029F000AD02F091AE02282F20532A3008F0275064
:102A00009091D404892F80538A3008F08750E30FC7
:102A1000F11D8295807F820F80838091D1048F5F2A
:102A20008093D104E091AD02F091AE02E0814E2F8F
:102A300050E08091EC0490E09A01215030408217E0
:102A4000930764F18091D004480F511D483151051E
:102A500020F48E0F8093D00402C01092D004909185
:102A6000D0048091CF04981759F480E060E041E0F1
:102A700020E08E010F5F1F4F72E0E72E0E94E70CEF
:102A80001092D10481E00BC0992787FD9095909317
:102A9000D3048093D2042F5F2093D10480E00F9061
:102AA000CF91DF911F910F91EF9008951092D10473
:102AB000F5CFCF93DF930E945E1D6093D504709392
:102AC000D6048093D7049093D804EB017093DA0472
:102AD0006093D90424E630E040E050E00E94AD214C
:102AE000DA01C901F9013093E0042093DF0468E6BC
:102AF00071E00E9486217093E4046093E304809166
:102B0000DB049091DC04C817D907E0F441E040935E
:102B1000E8048091E1049091E204E817F90778F461
:102B20004093E7048091E5049091E60468177907E3
:102B300018F44093E90408C01092E90405C010920B
:102B4000E70402C01092E8048091DD049091DE0455
:102B50009E01281B390B83E0283E380708F43FC04C
:102B600080910404E82FF0E0C90168EE73E00E9450
:102B70008621E453FD4F8081860F80838C3358F18A
:102B80008C53808380910504E82FF0E0E453FD4FDF
:102B90009081892F8F5F80838C33E8F09B539083E3
:102BA00080910604E82FF0E0E453FD4F9081892FD7
:102BB0008F5F8083883178F09751908380910704EC
:102BC000E82FF0E0E453FD4F80818F5F80838830F1
:102BD00010F081E08083D093DE04C093DD040E9476
:102BE000B0138AEF94E00E945E19892B11F00E94C5
:102BF00080149091CF048091D0049817E9F0892F28
:102C000090E086559B4F9093AE028093AD0280E09A
:102C10000E94EF0B2091CF04822F90E0FC01E6553B
:102C2000FB4FE0818E0F911D489720F4E20FE09357
:102C3000CF0402C01092CF048091D9049091DA049D
:102C40009093DC048093DB048091DF049091E00496
:102C50009093E2048093E1048091E3049091E40472
:102C60009093E6048093E504DF91CF9108950F934C
:102C70001F930AEF14E0C80140E051EE60E070E0FD
:102C80000E94E018C80161E972E00E94E81C0E94FD
:102C9000B6091F910F9108951F920F920FB60F92D0
:102CA00011242F933F934F935F936F937F938F9351
:102CB0009F93AF93BF93EF93FF93E091F704F0914D
:102CC000F8040995FF91EF91BF91AF919F918F917A
:102CD0007F916F915F914F913F912F910F900FBE18
:102CE0000F901F901895FC01A2E0440F551F661F1E
:102CF000771FAA95D1F7403080E0580781E0680738
:102D000080E0780714F481E010C033E07595679592
:102D1000579547953A95D1F7403080E0580781E0C4
:102D2000680780E078071CF482E0828339C023E0E2
:102D300075956795579547952A95D1F7403080E06E
:102D4000580781E0680780E0780714F483E0EDCF4E
:102D500092E075956795579547959A95D1F74030CC
:102D600080E0580781E0680780E0780714F484E089
:102D7000DCCF82E075956795579547958A95D1F791
:102D8000403080E0580781E0680780E0780714F45D
:102D900085E0CBCF85E082834FEF5FEF60E070E0AE
:102DA0008FB78383F8945183408350938700409377
:102DB000860083818FBF80918100887F809381000E
:102DC000809181009281892B8093810008951092D7
:102DD000800020E1209381000E94731608950F93D4
:102DE000CF93DF93EC01062FBA012881398140E0AF
:102DF00050E0882777FD8095982F0E946721BAE0E0
:102E00009695879577956795BA95D1F72FB72B83C8
:102E1000F894013011F0093029F47093890060931F
:102E2000880008C0023011F00A3021F470938B0042
:102E300060938A002FBFDF91CF910F910895CF92B9
:102E4000DF92FF920F931F93CF93DF93EC01F62E47
:102E50006A01101611061206130624F4B901A8011E
:102E60000E94731631E0F31619F089E0F81629F480
:102E7000219A8091800080680AC032E0F31619F030
:102E80008AE0F81631F4229A809180008062809363
:102E900080002881398140E050E0B601882777FD25
:102EA0008095982F0E9467211AE0969587957795CF
:102EB00067951A95D1F72FB72B83F89431E0F31665
:102EC00019F039E0F31629F47093890060938800B3
:102ED0000AC032E0F31619F03AE0F31621F47093C9
:102EE0008B0060938A002FBF809181009A81892B8B
:102EF00080938100DF91CF911F910F91FF90DF9020
:102F0000CF900895E1E8F0E08081887F8083089584
:102F1000F999FECF72BD61BDF89A80B50895F9990F
:102F2000FECF1FBA72BD61BD40BD0FB6F894FA9ACC
:102F3000F99A0FBE08952F923F925F926F927F92FF
:102F40008F929F92AF92BF92CF92DF92EF92FF92B9
:102F50000F931F93DF93CF9300D000D00F92CDB784
:102F6000DEB73C01962E19821A821B821C821D82BA
:102F7000862F61E00E94611E892D60E00E94A01EE4
:102F800062E170E080E090E00E94D71D892D61E051
:102F90000E94A01E88E290E00E94921D892D60E0B0
:102FA0000E94611E00E117E205C001151105A1F1A3
:102FB00001501040892D0E94F41E892BB1F300E1CD
:102FC00017E205C00115110539F101501040892D96
:102FD0000E94F41E0197B1F306C001151105E1F03E
:102FE000015010400AC027E0822E5524AA24BB2499
:102FF00091E0292E312C00E117E2892D0E94F41E68
:10300000892B59F30E946C1D6B017C0100E117E2D2
:1030100008C00115110519F42EEF3FEF41C0015012
:103020001040892D0E94F41E019799F30E946C1D97
:103030006C197D098E099F09693271058105910519
:1030400080F0E1E0F0E0EC0FFD1FE50DF11D9101D6
:10305000082C02C0220F331F0A94E2F78081822BD2
:103060008083882021F4539487E0882E01C08A94BD
:103070000894A11CB11C88E2A816B10409F0BBCFCA
:103080008981F301808311829B8192831382980F3F
:103090008D81891719F420E030E002C02FEF3FEF57
:1030A000C9010F900F900F900F900F90CF91DF916B
:1030B0001F910F91FF90EF90DF90CF90BF90AF9056
:1030C0009F908F907F906F905F903F902F9008958A
:1030D00008951F920F920FB60F9211242F933F93D2
:1030E0004F938F939F93EF93FF938091C00082FD46
:1030F00019C04091C60080911805282F30E02F5F3D
:103100003F4F2F7330708091190590E028173907D1
:1031100059F0E0911805F0E0E650FB4F42A32093F0
:10312000180502C08091C600FF91EF919F918F9189
:103130004F913F912F910F900FBE0F901F901895B8
:10314000809118052091190590E0805C9F4F821BAB
:1031500091098F739070892B11F00E94681808955F
:103160001F920F920FB60F9211242F938F939F935C
:10317000EF93FF9390911A0580911B05981731F4F6
:103180008091C1008F7D8093C10010C0E0911B052C
:10319000F0E0E45AFA4F208180911B0590E00196FF
:1031A0008F73907080931B052093C600FF91EF9161
:1031B0009F918F912F910F900FBE0F901F90189598
:1031C000AF92BF92DF92EF92FF920F931F93CF9334
:1031D000DF93EC017A018B01DD24D39491E0A92ED9
:1031E000B12CE889F989DD2069F0C5010C8C02C099
:1031F000880F991F0A94E2F7808360E874E88EE1F3
:1032000090E005C0108260E472E48FE090E0A801D5
:1032100097010E94AD2121503040404050405695CA
:1032200047953795279580E12030380720F0DD203D
:1032300011F0DD24D6CFEC85FD853083EE85FF854A
:1032400020831D8EEA89FB89408121E030E0C9019D
:10325000088C02C0880F991F0A94E2F7482B40831C
:10326000EA89FB894081C901098C02C0880F991F36
:103270000A94E2F7482B4083EA89FB894081C9011F
:103280000A8C02C0880F991F0A94E2F7482B4083EA
:10329000EA89FB8980810B8C02C0220F331F0A94BC
:1032A000E2F7209528232083DF91CF911F910F9182
:1032B000FF90EF90DF90BF90AF900895FC01268DB6
:1032C000878D30E0205C3F4F281B31092F73307011
:1032D000C9010895FC01968D878D981719F42FEF79
:1032E0003FEF06C0878DE80FF11D82A1282F30E047
:1032F000C9010895DC015E969C915E975F968C9162
:103300005F97981719F42FEF3FEF10C05F968C91DD
:103310005F97FD01E80FF11D92A15F968C915F9779
:103320008F5F8F735F968C93292F30E0C9010895CA
:10333000DC015D968C915D97882339F05096ED9174
:10334000FC915197808186FFF9CF5D961C9208957C
:10335000DC0190968C919097282F30E02F5F3F4FA3
:103360002F73307091968C91919790E028173907C0
:10337000C9F390968C919097FD01E80FF11DEE59DD
:10338000FF4F608390962C9390975296ED91FC910D
:103390005397208181E090E05B960C905B9702C090
:1033A000880F991F0A94E2F7282B208381E05D960D
:1033B0008C935D975096ED91FC915197808180643C
:1033C000808381E090E008951092FD041092FC0447
:1033D00088EE93E0A0E0B0E08093FE049093FF04B9
:1033E000A0930005B093010584EB92E09093FB0459
:1033F0008093FA0410921B0580911B0580931A0597
:1034000010921905809119058093180585EC90E0BC
:10341000909307058093060584EC90E0909309054E
:103420008093080580EC90E090930B0580930A054B
:1034300081EC90E090930D0580930C0582EC90E078
:1034400090930F0580930E0586EC90E09093110504
:103450008093100584E08093120583E08093130528
:1034600087E08093140585E08093150581E08093C3
:1034700016050895CF92DF92EF92FF920F931F935C
:10348000CF93DF937C016B018A01C0E0D0E00FC0D5
:10349000D6016D916D01D701ED91FC910190F08104
:1034A000E02DC7010995C80FD91F01501040011523
:1034B000110571F7CE01DF91CF911F910F91FF9010
:1034C000EF90DF90CF900895DC01ED91FC91019099
:1034D000F081E02D09950895EF92FF920F931F93CD
:1034E0008C01DC01ED91FC910190F081E02D6DE00B
:1034F00009957C01D801ED91FC910190F081E02DBE
:10350000C8016AE009959C012E0D3F1DC9011F915C
:103510000F91FF90EF900895CF93DF93EC01611529
:10352000710519F420E030E00FC0DB010D900020A0
:10353000E9F71197A61BB70BE881F9810280F381A7
:10354000E02DAD0109959C01C901DF91CF9108954E
:103550004F925F927F928F929F92AF92BF92CF9243
:10356000DF92EF92FF920F931F93DF93CF93CDB72C
:10357000DEB7A1970FB6F894DEBF0FBECDBF2C010A
:10358000742ECB01223008F42AE019A231E2C32EB6
:10359000D12CCC0EDD1E822E9924AA24BB24672DAB
:1035A000752FA50194010E94AD2179018A01C801FE
:1035B000B701A50194010E946721472D461B08947D
:1035C000C108D1084A3014F4405D01C0495CF601DD
:1035D0004083E114F1040105110521F07E2C5F2DDB
:1035E000C801DDCFC201B6010E948C1AA1960FB6A8
:1035F000F894DEBF0FBECDBFCF91DF911F910F9129
:10360000FF90EF90DF90CF90BF90AF909F908F9002
:103610007F905F904F900895DC012115310541F4B2
:10362000ED91FC910190F081E02D642F09950895B2
:103630000E94A81A0895EF92FF920F931F939A0188
:103640007B0100E010E0B801A7010E940C1B1F9154
:103650000F91FF90EF900895CF92DF92EF92FF923B
:103660000F931F936C017B019A0100E010E0B801F9
:10367000A7010E940C1B8C01C6010E946C1A080F46
:10368000191FC8011F910F91FF90EF90DF90CF900D
:103690000895EF92FF920F931F939A01E62EFF2455
:1036A00000E010E0B801A7010E940C1B1F910F91D0
:1036B000FF90EF900895CF92DF92EF92FF920F93D9
:1036C0001F936C01E62E9A01FF2400E010E0B80180
:1036D000A7010E940C1B8C01C6010E946C1A080FE6
:1036E000191FC8011F910F91FF90EF90DF90CF90AD
:1036F0000895CF92DF92EF92FF920F931F93CF9393
:10370000DF93EC016A017B012115310541F4E88169
:10371000F9810190F081E02D642F09951FC02A30B6
:103720003105D1F477FF17C0E881F9810190F0816C
:10373000E02D6DE209958C0144275527BA014C19FB
:103740005D096E097F09CE012AE00E94A81A98013E
:10375000280F391F04C02AE00E94A81A9C01C90141
:10376000DF91CF911F910F91FF90EF90DF90CF905D
:103770000895EF92FF920F931F937B019A01002708
:10378000F7FC0095102FB801A7010E94791B1F912B
:103790000F91FF90EF900895CF92DF92EF92FF92FA
:1037A0000F931F936C017B019A010027F7FC009592
:1037B000102FB801A7010E94791B8C01C6010E943D
:1037C0006C1A080F191FC8011F910F91FF90EF90FD
:1037D000DF90CF9008950E948C1A08957F928F9267
:1037E0009F92AF92BF92CF92DF92EF92FF920F9390
:1037F0001F93CF93DF934C017A018B01722ECB0183
:10380000BA01A80197010E946321882321F0C40115
:103810006DE972E021C0C0E0D0E057016801E89492
:10382000D7F8C601B5012FEF3FEF4FE75FE70E94E2
:103830006321882351F4C601B5012FEF3FEF4FE715
:103840005FE70E94AD1F181614F0C1E0D0E0219789
:1038500039F0C40161EA72E00E948C1AEC0193C055
:10386000C801B7012FEF3FEF4FE75FE40E94FC2054
:10387000181654F0C801B7012FEF3FEF4FE75FEC88
:103880000E94AD1F882324F4C40165EA72E0E4CFEE
:10389000C801B70120E030E040E050E00E94AD1FD9
:1038A00087FD03C0C0E0D0E00EC0D401ED91FC91D3
:1038B0000190F081E02DC4016DE20995EC0117FB48
:1038C000109517F9109520E030E040E05FE3DD242B
:1038D0000BC0CA01B90120E030E040E251E40E948F
:1038E000B11F9B01AC01D394D71498F3C801B70161
:1038F0000E94491F5B016C010E941E207B018C010C
:10390000C401B801A7012AE030E00E940C1BC80FD7
:10391000D91F772039F0C40169EA72E00E948C1A3D
:10392000C80FD91FC801B7010E944A209B01AC01F2
:10393000C601B5010E94481F24C020E030E040E2EB
:1039400051E40E9400217B018C010E9419205B013F
:103950006C01CC24B7FCC094DC2CC401B601A501D9
:103960002AE030E00E94791BC80FD91FC601B501BB
:103970000E944C209B01AC01C801B7010E94481F66
:103980007A947720D1F6CE01DF91CF911F910F91DC
:10399000FF90EF90DF90CF90BF90AF909F908F906F
:1039A0007F9008950E94EE1B0895EF92FF920F936F
:1039B0001F937C010E94EE1B8C01C7010E946C1AB0
:1039C000080F191FC8011F910F91FF90EF900895E4
:1039D000EF92FF920F931F937C010E948C1A8C012F
:1039E000C7010E946C1A080F191FC8011F910F917F
:1039F000FF90EF900895CF93DF930E949C1D0E944B
:103A00003716C0EAD8E10E9459152097E1F30E94C9
:103A1000A018F9CF1F920F920FB60F9211242F9377
:103A20003F934F935F936F937F938F939F93AF9346
:103A3000BF932091A0053091A1054091A20550911E
:103A4000A3057091A405DA01C9010296A11DB11D5B
:103A5000672F6A5F6D3730F06D57DA01C901039641
:103A6000A11DB11D6093A4058093A0059093A105AD
:103A7000A093A205B093A30580919C0590919D050C
:103A8000A0919E05B0919F050196A11DB11D809347
:103A90009C0590939D05A0939E05B0939F05BF91B3
:103AA000AF919F918F917F916F915F914F913F91D6
:103AB0002F910F900FBE0F901F9018958FB7F8940D
:103AC0002091A0053091A1054091A2055091A30538
:103AD0008FBFB901CA0108959FB7F89420919C0542
:103AE00030919D0540919E0550919F0586B5A89BFC
:103AF00006C08F3F21F02F5F3F4F4F4F5F4F9FBF5B
:103B0000542F432F322F2227280F311D411D511DC5
:103B100083E0220F331F441F551F8A95D1F7B90147
:103B2000CA010895019739F0019729F0880F991F6C
:103B300001970197F1F70895789484B5826084BD68
:103B400084B5816084BD85B5826085BD85B58160A1
:103B500085BDEEE6F0E0808181608083E1E8F0E001
:103B60001082808182608083808181608083E0E830
:103B7000F0E0808181608083E1EBF0E0808184600F
:103B80008083E0EBF0E0808181608083EAE7F0E011
:103B90008081846080838081826080838081816075
:103BA00080838081806880831092C1000895EF92A5
:103BB000FF920F931F93CF93DF937B018C013FB74D
:103BC000F89480919C0590919D05A0919E05B091DF
:103BD0009F0526B5A89B05C02F3F19F00196A11D92
:103BE000B11D3FBFBA2FA92F982F8827820F911D93
:103BF000A11DB11D53E0880F991FAA1FBB1F5A9525
:103C0000D1F7EC0130C00E94471F3FB7F894809174
:103C10009C0590919D05A0919E05B0919F0526B5AC
:103C2000A89B05C02F3F19F00196A11DB11D3FBFF4
:103C3000BA2FA92F982F8827820F911DA11DB11D82
:103C400033E0880F991FAA1FBB1F3A95D1F78C1B31
:103C50009D0B885E9340B8F20894E108F1080109D1
:103C60001109C851DC4FE114F1040105110559F6A1
:103C7000DF91CF911F910F91FF90EF900895982FB2
:103C80008E3008F09E5097708091AF028295880F19
:103C9000880F807C892B80937C0080917A008064DF
:103CA00080937A0080917A0086FDFCCF2091780085
:103CB00040917900942F80E030E0282B392BC90106
:103CC0000895CF93DF93482F50E0CA01845D9D4F44
:103CD000FC013491485E5D4FFA018491882369F1BB
:103CE00090E0880F991FFC01E650FE4FA591B4911A
:103CF000FC01EC5FFD4FC591D491662351F42FB7C1
:103D0000F8948C91932F909589238C9388818923A3
:103D10000BC0623061F42FB7F8948C91932F90957B
:103D200089238C938881832B88832FBF06C09FB7FC
:103D3000F8948C91832B8C939FBFDF91CF91089542
:103D4000482F50E0CA01805C9D4FFC012491CA01BC
:103D5000845D9D4FFC019491485E5D4FFA01349162
:103D6000332309F440C0222351F1233071F0243071
:103D700028F42130A1F0223011F514C02630B1F022
:103D80002730C1F02430D9F404C0809180008F77AF
:103D900003C0809180008F7D8093800010C084B527
:103DA0008F7702C084B58F7D84BD09C08091B0003B
:103DB0008F7703C08091B0008F7D8093B000E32F98
:103DC000F0E0EE0FFF1FEC5FFD4FA591B4912FB710
:103DD000F894662321F48C919095892302C08C91EC
:103DE000892B8C932FBF0895682F70E0CB01805CE6
:103DF0009D4FFC012491CB01845D9D4FFC014491BA
:103E0000685E7D4FFB019491992319F420E030E026
:103E10003CC0222351F1233071F0243028F42130AA
:103E2000A1F0223011F514C02630B1F02730C1F0D6
:103E30002430D9F404C0809180008F7703C0809132
:103E400080008F7D8093800010C084B58F7702C082
:103E500084B58F7D84BD09C08091B0008F7703C089
:103E60008091B0008F7D8093B000892F90E0880F03
:103E7000991F825F9D4FFC01A591B4918C9120E028
:103E800030E0842311F021E030E0C9010895089565
:103E90005058BB27AA270ED075C166D130F06BD120
:103EA00020F031F49F3F11F41EF45BC10EF4E09555
:103EB000E7FB51C1E92F77D180F3BA176207730787
:103EC0008407950718F071F49EF58FC10EF4E09504
:103ED0000B2EBA2FA02D0B01B90190010C01CA01C4
:103EE000A0011124FF27591B99F0593F50F4503E6F
:103EF00068F11A16F040A22F232F342F4427585F61
:103F0000F3CF469537952795A795F0405395C9F778
:103F10007EF41F16BA0B620B730B840BBAF0915030
:103F2000A1F0FF0FBB1F661F771F881FC2F70EC0CF
:103F3000BA0F621F731F841F48F4879577956795A2
:103F4000B795F7959E3F08F0B3CF9395880F08F08B
:103F50009927EE0F979587950895D9D008F481E0B9
:103F600008950CD00FC107D140F0FED030F021F4FD
:103F70005F3F19F0F0C0511139C1F3C014D198F36B
:103F80009923C9F35523B1F3951B550BBB27AA27DA
:103F900062177307840738F09F5F5F4F220F331F4C
:103FA000441FAA1FA9F333D00E2E3AF0E0E830D018
:103FB00091505040E695001CCAF729D0FE2F27D01B
:103FC000660F771F881FBB1F261737074807AB07E9
:103FD000B0E809F0BB0B802DBF01FF2793585F4F5E
:103FE0002AF09E3F510568F0B6C000C15F3FECF378
:103FF000983EDCF3869577956795B795F7959F5F23
:10400000C9F7880F911D9695879597F90895E1E076
:10401000660F771F881FBB1F621773078407BA07D5
:1040200020F0621B730B840BBA0BEE1F88F7E09530
:10403000089504D06894B111D9C00895BCD088F017
:104040009F5790F0B92F9927B751A0F0D1F0660F84
:10405000771F881F991F1AF0BA95C9F712C0B1309F
:1040600081F0C3D0B1E00895C0C0672F782F8827B2
:10407000B85F39F0B93FCCF3869577956795B395DE
:10408000D9F73EF490958095709561957F4F8F4F4D
:104090009F4F0895E89409C097FB3EF49095809552
:1040A000709561957F4F8F4F9F4F9923A9F0F92FFE
:1040B00096E9BB279395F695879577956795B7957C
:1040C000F111F8CFFAF4BB0F11F460FF1BC06F5F62
:1040D0007F4F8F4F9F4F16C0882311F096E911C074
:1040E000772321F09EE8872F762F05C0662371F095
:1040F00096E8862F70E060E02AF09A95660F771FA9
:10410000881FDAF7880F9695879597F90895990F84
:104110000008550FAA0BE0E8FEEF16161706E80791
:10412000F907C0F012161306E407F50798F0621BB2
:10413000730B840B950B39F40A2661F0232B242B87
:10414000252B21F408950A2609F4A140A6958FEFA6
:10415000811D811D089597F99F6780E870E060E0F8
:1041600008959FEF80EC089500240A941616170610
:1041700018060906089500240A9412161306140658
:1041800005060895092E0394000C11F4882352F0BB
:10419000BB0F40F4BF2B11F460FF04C06F5F7F4F73
:1041A0008F4F9F4F089557FD9058440F551F59F05A
:1041B0005F3F71F04795880F97FB991F61F09F3F14
:1041C00079F087950895121613061406551FF2CF3D
:1041D0004695F1DF08C0161617061806991FF1CF8D
:1041E00086957105610508940895E894BB276627B4
:1041F0007727CB0197F908958ADF08F48FEF0895A8
:104200000BD0C0CFB1DF28F0B6DF18F0952309F04E
:10421000A2CFA7CF1124EACFC6DFA0F3959FD1F399
:10422000950F50E0551F629FF001729FBB27F00D64
:10423000B11D639FAA27F00DB11DAA1F649F6627B9
:10424000B00DA11D661F829F2227B00DA11D621F08
:10425000739FB00DA11D621F839FA00D611D221FC2
:10426000749F3327A00D611D231F849F600D211DA6
:10427000822F762F6A2F11249F5750408AF0E1F049
:1042800088234AF0EE0FFF1FBB1F661F771F881F92
:1042900091505040A9F79E3F510570F05CCFA6CFDA
:1042A0005F3FECF3983EDCF3869577956795B7957D
:1042B000F795E7959F5FC1F7FE2B880F911D9695A7
:1042C000879597F9089523DF880B990B0895629FCE
:1042D000D001739FF001829FE00DF11D649FE00DFE
:1042E000F11D929FF00D839FF00D749FF00D659F5F
:1042F000F00D9927729FB00DE11DF91F639FB00D5E
:10430000E11DF91FBD01CF0111240895AA1BBB1B9C
:1043100051E107C0AA1FBB1FA617B70710F0A61BC5
:10432000B70B881F991F5A95A9F780959095BC01E6
:10433000CD01089597FB092E07260AD077FD04D0FA
:10434000E5DF06D000201AF4709561957F4F08953F
:10435000F6F7909581959F4F0895A1E21A2EAA1B1A
:10436000BB1BFD010DC0AA1FBB1FEE1FFF1FA21725
:10437000B307E407F50720F0A21BB30BE40BF50B22
:10438000661F771F881F991F1A9469F760957095AB
:10439000809590959B01AC01BD01CF010895EE0F72
:0E43A000FF1F0590F491E02D0994F894FFCFD3
:1043AE007265676C6F61643A2000204469737461B2
:1043BE006E63653A200020496E74657276616C3AC0
:1043CE00200052706D3A20002074696D6572206D68
:1043DE006F642069643A20002074696D65722075DF
:1043EE006E69743A20002074696D657220696E746E
:1043FE003A2000456E7465722072756E64696D3A6E
:10440E000073746174653A00207076616C3A0070C6
:10441E00776D70696E0070776D70657200436865B8
:10442E00636B73756D206572726F720054696D6582
:10443E00206F7574206572726F7200482825293AB4
:10444E00200020542843293A2000556E6B6E6F775A
:10445E006E206572726F7200636F6E3A0020726525
:10446E0073756C743A00206C6566743A2000207285
:10447E00696768743A20004C6F6164436F6E6669B9
:10448E0067454531004C6F6164436F6E66696745E1
:10449E004532002D2D006D6F64733A2000646972F1
:1044AE006563743A2000726567733A20006C696E1A
:1044BE006B3A2000636F6E643A20006D6F64206368
:1044CE0066673A200069643A20006D6F6420727549
:1044DE006E3A20005445535421007C0052756E668E
:1044EE00616E3A20002053746174653A0053617610
:1044FE0065436F6E66696745450052756E616E6104
:10450E006C6F67696E3A200044617461253A200031
:10451E00416E616C6F6720646174613A200053656F
:10452E006E64636F6E66696764617461002D2D2D14
:10453E00005374617274696E672E2E2E006E616E5A
:10454E0000696E66006F7666002E008604AA04016E
:10455E0000000000A8193A1A5E197A196A199819FA
:00000001FF
