:100000000C942C010C9454010C9454010C94540144
:100010000C9454010C9454010C9454010C9454010C
:100020000C9454010C9454010C9454010C945401FC
:100030000C9454010C94FE150C9454010C9454012E
:100040000C94BC1C0C9454010C941B180C94621856
:100050000C9454010C9454010C9454010C945401CC
:100060000C9454010C9454010000010001000100A3
:100070000100010001000100010001000100020077
:100080000200020002000200020002000200020060
:10009000020002000200020002000200030003004E
:1000A0000300030003000300030003000300030038
:1000B000040004000400040004000400040005001F
:1000C0000500050005000500050006000600060005
:1000D00006000600070007000700070008000800E8
:1000E000080008000900090009000A000A000A00C7
:1000F0000B000B000C000C000C000D000D000E009E
:100100000E000F000F00100010001100110012006F
:100110001300130014001500160016001700180035
:1001200019001A001A001B001C001D001E001F00F1
:100130002100220023002400250027002800290098
:100140002B002C002E00300031003300350037002A
:1001500038003A003D003F004100430045004800A0
:100160004A004D0050005300550058005C005F00ED
:100170006200660069006D007100750079007D0005
:10018000810086008A008F0094009A009F00A500DD
:10019000AA00B000B600BD00C300CA00D100D9005B
:1001A000E000E800F000F90002010B0114011E015B
:1001B000280132013D01480153015F016C017801C2
:1001C00086019301A101B001BF01CF01DF01F00160
:1001D00001021302260239024D02620277028D02E9
:1001E000A402BC02D502EE020803240340035D030F
:1001F0007B039A03BB03DC03FF0300000000240021
:1002000027002A0000000000250028002B00000025
:10021000000023002600290004040404040404044C
:1002200002020202020203030303030301020408A1
:100230001020408001020408102001020408102050
:100240000000000700020100000304060000000097
:10025000000000008001961911241FBECFEFD8E0E6
:10026000DEBFCDBF12E0A0E0B1E0E2E1F3E402C006
:1002700005900D92AE3BB107D9F715E0AEEBB2E0B9
:1002800001C01D92A23AB107E1F712E0C8E5D2E041
:1002900004C02297FE010E948321C435D107C9F70B
:1002A0000E94AD1C0C9487210C940000FC018181FC
:1002B0008695877029F48091D2049091D3040BC065
:1002C000813029F48091DC049091DD0404C0809198
:1002D000E0049091E1049093EB048093EA0422817E
:1002E0003381280F391F8091EA049091EB0428177D
:1002F000390718F4818180648183368325830895CA
:100300000F931F9306EF14E0C8016FEF73E00E9494
:100310003A178093C802C8016EEF73E00E943A1743
:100320008093C9021F910F910895CF93DF93E90144
:1003300090E0E82FF0E0EE5FFB4FD901A60FB11D72
:1003400003C08C9180839F5F9417D8F387EF94E06C
:1003500060E071E00E949D1B87EF94E068814AE0B5
:1003600050E00E940D1BDF91CF9108951F93CF9312
:10037000DF93182FEA01E091C202F091C30281815C
:10038000817F8183662309F04DC08F8190E02E81AB
:10039000821B91099093EB048093EA0487EF94E029
:1003A0006AE071E00E949D1B6091EA047091EB0489
:1003B00087EF94E04AE050E00E94CD1A112319F033
:1003C0002A853B8502C02885398584E690E0AC010A
:1003D000249FC001259F900D349F900D1124A0E013
:1003E000B0E08093EC049093ED04A093EE04B093FE
:1003F000EF042091EA043091EB0440E050E060917A
:10040000EC047091ED048091EE049091EF040E9451
:100410005F212093EC043093ED044093EE0450935D
:10042000EF0418C0623029F4888990E0A0E0B0E0C1
:1004300009C08F852AE0829FC0011124AA2797FD59
:10044000A095BA2F8093EC049093ED04A093EE0452
:10045000B093EF0487EF94E066E171E00E949D1B8A
:100460004091EC045091ED046091EE047091EF0422
:1004700087EF94E02AE030E00E94BE1AE091C202C9
:10048000F091C30281818F7C806281838091EC0432
:100490009091ED0493838283DF91CF911F91089512
:1004A000AF92BF92DF92EF92FF920F931F93F82EBD
:1004B0005B01E42ED22E07EF14E0C80168E271E080
:1004C0000E949D1BC8016F2D4AE050E00E94FB1A5C
:1004D000C80168E371E00E949D1BC8016E2D70E0A9
:1004E0004AE050E00E946B1BC80166E471E00E9484
:1004F0009D1BC801B5014AE050E00E947E1B40915F
:100500000104842F90E09C0153E0220F331F5A9581
:10051000E1F7281B390BA6EDB3E0FD01E20FF31F55
:10052000F093C302E093C2028F2D8295880F807EE4
:100530008083F694F694F69481E0F82281818E7F90
:100540008F298183B382A2821196A20FB31F97E0F5
:10055000E922EE0C8C91817C93E0D922D29490EF29
:10056000D9228E298D298C93809100048F5F8093EE
:1005700000044F5F409301041F910F91FF90EF9093
:10058000DF90BF90AF9008950F931F93CF93DF93A9
:10059000182FC091C402D091C50287EF94E063E5A3
:1005A00071E00E949D1B87EF94E0612F4AE050E0CC
:1005B0000E94FB1A87EF94E061E671E00E949D1BA8
:1005C0006A8162956F7087EF94E04AE050E00E9484
:1005D000FB1A87EF94E068E671E00E949D1B87EFAD
:1005E00094E069894AE050E00E940D1B1F3F09F02A
:1005F0005EC08B8186958695869551F061E00E945C
:10060000131E8B8186958695869560E00E94521E0A
:100610008C818F7159F161E00E94131E4E8584E632
:10062000489FA0011124662757FD6095762F80EF23
:1006300094E00E94991687EF94E06FE671E00E94C3
:100640009D1B6C816F7187EF94E04AE050E00E943F
:100650000D1B87EF94E066E771E00E949D1B87EF1A
:1006600094E06E854AE050E00E940D1B298124FF32
:1006700015C1909101049F708A81807F892B8A83A4
:1006800025FD0CC1E091C402F091C50290819295C4
:100690009695977081818370880F880F880F688581
:1006A0007985892B41E020E00E945002F7C08981C2
:1006B00084FFF4C08A818F7027E0829FC0011124DB
:1006C0008A529C4F9093C3028093C202113089F4E6
:1006D0008A81982F92959F70933019F48F70806261
:1006E00006C0992311F0943059F58A818F708A835E
:1006F00027C0123021F48A818F708063F8CF1330C5
:1007000031F48A818F7080638A8362E01AC0153069
:1007100019F48A818F7005C0183031F48A818F7086
:1007200080638A8361E00DC01B3051F48A818F7031
:1007300080628A838B818770813011F489898F83ED
:1007400060E08A8182958F7090E08230910509F493
:100750004CC08330910534F4009761F0019709F0A3
:100760009DC029C08330910509F457C0049709F052
:1007700095C05BC080E0AE010E94B6018A818F7097
:1007800080618A838B8186958695869519F061E0D4
:100790000E94521E6C816F7149890E8584E6089F04
:1007A00080011124222717FD2095322F80EF94E03D
:1007B00050E00E94D11689898F5F898BE82FF0E085
:1007C000EE0FFF1FE859FF4F459154915093EB04F2
:1007D0004093EA046C816F7180EF94E00E94A1164F
:1007E00099898F81981708F43CC0E091C202F0917A
:1007F000C30221812F7C206221838C859D85938378
:1008000082838D818770880F217F282B21838A81A5
:100810008F7080638A83CF0128C081E0AE010E947F
:10082000B6018A818F7080648A838989882311F058
:100830008150898B8989E82FF0E0EE0FFF1FE8597E
:10084000FF4F459154915093EB044093EA046C811F
:100850006F7180EF94E00E94A11699898E818917AB
:1008600038F48091C2029091C3020E94560116C0D2
:1008700080EF94E00E9434178B818695869586954B
:1008800019F060E00E94521EE091C202F091C30292
:1008900081818F7C81838A818F708A83DF91CF9160
:1008A0001F910F910895CF92DF92EF92FF920F93D5
:1008B0001F93DF93CF9300D0CDB7DEB7F82EC09053
:1008C000C402D090C502F6018181FFEFFF1639F511
:1008D00084FF51C18091010427E0829F900111247F
:1008E0002A523C4F3093C3022093C2028F70F6010C
:1008F0009281907F982B9283918195FD3CC180815C
:100900008295869587709370990F990F990F6481DE
:100910007581892B438120E00E9450022CC184FF05
:1009200027C0F60182818F7090E0FC01A3E0EE0FFA
:10093000FF1FAA95E1F7E81BF90B9F012A523C4FD4
:100940003093C3022093C20241E0F41631F4E9521D
:10095000FC4F80818F7C80830EC1FF2031F4E952EF
:10096000FC4F80818F7C80628083C9010E94560188
:10097000F60166818EEB92E070E00E944D179A833B
:100980008983FFEF8F3F9F0731F0009771F08E5FF3
:100990009F4FE1F505C087EF94E06DE771E03AC045
:1009A00087EF94E06CE871E035C087EF94E06BE985
:1009B00071E00E949D1B6091BE027091BF0288276A
:1009C00077FD8095982F0E94FE1FAB01BC0187EF39
:1009D00094E022E030E00E94841C87EF94E062EA19
:1009E00071E00E949D1B6091C0027091C102882736
:1009F00077FD8095982F0E94FE1FAB01BC0187EF09
:100A000094E022E030E00E94871C06C087EF94E06B
:100A10006AEA71E00E949A1C29813A81F601818577
:100A200092852115310599F1FFEF8D399F073CF42F
:100A30004FEF8D38940709F49EC0019702C08CE9EE
:100A40009FEFF60192878187F5E0220F331FFA9519
:100A5000E1F7F60181859285280F391F3A832983B2
:100A6000E091C402F091C50290819295969597709D
:100A700081818370880F880F880F892B6FEF41E089
:100A800022E08E010F5F1F4FE2E0EE2E72C0409118
:100A9000C0025091C1029A01281B390B37FF03C0D5
:100AA000309521953F4FF601878190E0281739074F
:100AB0003CF4F2E0FF1621F0F601818186FF1FC0B1
:100AC000F60152874187E091C402F091C50220816E
:100AD00022952695277081818370880F880F880F53
:100AE000F60191819295969596959170822B60E092
:100AF00040E022E000EC12E0E92E0E94EA0C209196
:100B0000BE023091BF02F60183859485281739070C
:100B100019F440E050E003C0A901481B590BF6014D
:100B2000808590E04817590738F4F2E0FF1621F06D
:100B3000F601818186FF1FC0F60134872387E0918B
:100B4000C402F091C50220812295269527708181EB
:100B50008370880F880F880FF60191819295969582
:100B600096959170822B61E040E022E00EEB12E05E
:100B7000E92E0E94EA0C0F900F90CF91DF911F9108
:100B80000F91FF90EF90DF90CF900895FF920F9319
:100B90001F93082F162FF42EE02FF0E0EA53FC4F9E
:100BA000E081F0E0E653FD4FF093C502E093C4020C
:100BB00080818F7190E08330910581F084309105C0
:100BC0001CF40297B1F406C08430910559F00597E2
:100BD00081F40CC0812F0E943C0D0BC0812F0E941C
:100BE000530407C0812F0E94991003C0812F0E94D7
:100BF000C402FF2049F0E091C402F091C502818156
:100C000083FF02C00F5FC8CF1F910F91FF9008951F
:100C1000CF92DF92EF92FF920F931F93DF93CF93C8
:100C200000D000D0CDB7DEB7182FE12EFF24A701EA
:100C3000440F551F4E0D5F1D440F551FBA01695BD0
:100C40007B4FDB012C91822F8F7090E087309105D4
:100C500009F42CC188309105FCF48330910509F426
:100C6000ACC0843091055CF48130910509F45DC01D
:100C7000823091050CF07DC0892B99F130C0853010
:100C8000910509F4DDC022952F70DB011196EC91DE
:100C900006970CF0F9C0B5C08B30910509F47CC102
:100CA0008C3091056CF48930910509F436C1229598
:100CB0002F70DB011196EC910A970CF051C10BC11A
:100CC0008D30910509F4B2C18D3091050CF489C1C4
:100CD0008E30910509F4CFC10F9709F4EFC100E000
:100CE0000FC200E022952F70DB011196EC91E170AC
:100CF000E295E07FE22BF0E0EE5FFB4FA081B0E0F9
:100D0000A653BD4FFA01E85BFB4FE081E695EF711A
:100D1000F0E0EE5FFB4FE081F0E0E653FD4F9C9189
:100D20008081981709F0ECC1BFC000E022952F70B8
:100D3000DB011196EC91E170E295E07FE22BF0E0AF
:100D4000EE5FFB4FA081B0E0A653BD4FFA01E85B18
:100D5000FB4FE081E695EF71F0E0EE5FFB4FE08145
:100D6000F0E0E653FD4F9C918081981709F09CC0FC
:100D7000C7C100E022952F70DB011196EC91E17064
:100D8000E295E07FE22BF0E0EE5FFB4FA081B0E068
:100D9000A653BD4FFA01E85BFB4FE081E695EF718A
:100DA000F0E0EE5FFB4FE081F0E0E653FD4F9C91F9
:100DB0008081891708F0A4C177C000E022952F70C8
:100DC000DB011196EC91E170E295E07FE22BF0E01F
:100DD000EE5FFB4FA081B0E0A653BD4FFA01E85B88
:100DE000FB4FE081E695EF71F0E0EE5FFB4FE081B5
:100DF000F0E0E653FD4F9C918081981708F480C184
:100E000053C000E0E170E295E07FE22BF0E0EE5F9E
:100E1000FB4FA081B0E0A653BD4FFA01E85BFB4F4A
:100E2000E081E695EF71F0E0EE5FFB4FE081F0E0EE
:100E3000E653FD4F9C918081981708F061C134C042
:100E400000E022952F70DB011196EC91E170E295A4
:100E5000E07FE22BF0E0EE5FFB4FA081B0E0A65315
:100E6000BD4FFA01E85BFB4FE081E695EF71F0E0E2
:100E7000EE5FFB4FE081F0E0E653FD4F9C918081F7
:100E8000891708F43DC110C000E0E170E295E07FF1
:100E9000E22BF0E0EE5FFB4FE081F0E0E653FD4F28
:100EA0008081882309F02CC101E02AC122952F708E
:100EB000DB011196EC91E170E295E07FE22BF0E02E
:100EC000EE5FFB4FE081F0E0E653FD4F8081882329
:100ED00091F460E0A9C0E170E295E07FE22BF0E0E0
:100EE000EE5FFB4FE081F0E0E653FD4F8081882309
:100EF00011F061E099C0FA01E85BFB4FE081E695F3
:100F0000EF71F0E0EE5FFB4FE081F0E0E653FD4F64
:100F1000E081E111E1E06E2F87C0FA01E85BFB4F51
:100F2000E081E695EF71F0E0EE5FFB4FA0818A2F44
:100F300090E086539D4F22952F70DB011196EC9126
:100F4000E170E295E07FE22BF0E0EE5FFB4FE081A5
:100F5000F0E0E653FD4FDC010C918081080FD0C01A
:100F6000E170E295E07FE22BF0E0EE5FFB4FA081C5
:100F7000B0E0A653BD4FFA01E85BFB4FE081E69578
:100F8000EF71F0E0EE5FFB4FE081F0E0E653FD4FE4
:100F90000C918081081BB4C0FA01E85BFB4FE08133
:100FA000E695EF71F0E0EE5FFB4FA0818A2F90E0B5
:100FB00086539D4F22952F70DB011196EC91E170C5
:100FC000E295E07FE22BF0E0EE5FFB4FE081F0E0A6
:100FD000E653FD4FDC019C918081989F002D1124E8
:100FE0008FC022952F70DB011196EC91E170E29594
:100FF000E07FE22BF0E0EE5FFB4FA081B0E0A65374
:10100000BD4FFA01E85BFB4FE081E695EF71F0E040
:10101000EE5FFB4FE081F0E0E653FD4F60818C9185
:1010200090E070E00E943821062F6AC022952F7050
:10103000DB011196EC91E170E295E07FE22BF0E0AC
:10104000EE5FFB4FA081B0E0A653BD4FFA01E85B15
:10105000FB4FE081E695EF71F0E0EE5FFB4FE08142
:10106000F0E0E653FD4F60818C9190E070E00E94CB
:101070003821082F45C0FA01E85BFB4FE081E69577
:10108000EF71F0E0EE5FFB4FA0818A2F90E0865376
:101090009D4F22952F70DB011196EC91E170E29546
:1010A000E07FE22BF0E0EE5FFB4FE081F0E0E65303
:1010B000FD4FDC010C918081082322C0FA01E85B1E
:1010C000FB4FE081E695EF71F0E0EE5FFB4FA08112
:1010D0008A2F90E086539D4F22952F70DB01119649
:1010E000EC91E170E295E07FE22BF0E0EE5FFB4FE8
:1010F000E081F0E0E653FD4FDC010C918081082B8C
:1011000087EF94E068EB71E00E949D1B87EF94E00D
:10111000612F4AE050E00E94FB1A87EF94E06DEBEC
:1011200071E00E949D1B87EF94E0602F4AE050E041
:101130000E94FB1A87EF94E066EC71E00E949D1B11
:10114000F701EE0FFF1FEE0DFF1DEE0FFF1FFA83DD
:10115000E9836F0187E494E0C80ED91ED6018C9113
:1011600082958F701196EC91E170E295E07FE82B0B
:10117000F0E0EE5FFB4FE081F0E0E653FD4F87EFDC
:1011800094E060814AE050E00E94FB1A87EF94E00F
:101190006EEC71E00E949D1BE981FA81E85BFB4FD8
:1011A000FC83EB83E081E695EF71F0E0EE5FFB4FAF
:1011B000E081F0E0E653FD4F87EF94E060814AE084
:1011C00050E00E940D1BAB81BC818C91829586956D
:1011D0008695837011969C919370990F990F982B17
:1011E000973039F4D6011496EC91F0E0EE5FFB4FA6
:1011F0000083002381F1913031F0933021F095305C
:1012000011F0963071F4F701EE0FFF1FEE0DFF1D88
:10121000EE0FFF1FE95BFB4F8481658140E00E9478
:10122000C605F701EE0FFF1FEE0DFF1DEE0FFF1FAE
:10123000E85BFB4F808182958695869583709181CE
:101240009370990F990F982B923039F0943029F0C0
:10125000953019F033C0933071F4F701EE0FFF1F92
:10126000EE0DFF1DEE0FFF1FE75BFB4F1081169584
:1012700016951695DACC943059F4F701EE0FFF1F4E
:10128000EE0DFF1DEE0FFF1FE95BFB4F1481CDCC70
:101290009630A1F4F701EE0FFF1FEE0DFF1DEE0FCC
:1012A000FF1FDF01A75BBB4F8C91E95BFB4F86956E
:1012B00086958695638140E00E94C6050F900F9049
:1012C0000F900F90CF91DF911F910F91FF90EF90B2
:1012D000DF90CF9008951F931091C403A091AB02AB
:1012E000B091AC02E091C402F091C50270E060E000
:1012F00038C0E72FF0E0E653FD4F5081852F8295EF
:101300008695877041814370440F440F440F482BEA
:10131000242F30E013968C91139790E0281739070B
:1013200059F4F093C502E093C402842F14966C9193
:1013300040E00E94C6051BC0852F8F71843041F0AC
:10134000853018F4823050F005C0853039F404C07F
:101350008CE005C08DE003C082E101C080E0780F21
:101360006F5F611730F2F093C502E093C4021F91E2
:101370000895EF92FF920F931F93DF93CF9300D0C6
:10138000CDB7DEB71A82198287EF94E067ED71E07E
:101390000E949A1C86EF94E06DEF73E00E943A176A
:1013A000813009F023C287EF94E065EE71E00E947E
:1013B0009A1C69817A816F5F7F4F7A83698361505C
:1013C000704086EF94E00E943A17082F87EF94E070
:1013D000602F4AE050E00E940D1B1092C50330C000
:1013E00069817A816F5F7F4F7A8369836150704032
:1013F00086EF94E00E943A17E12FF0E0E653FD4FAC
:10140000808387EF94E06091C5034AE050E00E943A
:10141000FB1A87EF94E063EF71E00E949D1BE0915F
:10142000C503F0E0E653FD4F87EF94E060814AE0AA
:1014300050E00E940D1B8091C5038F5F8093C50310
:101440001091C503101760F287EF94E066EF71E02A
:101450000E949D1B69817A8187EF94E04AE050E009
:101460000E94DE1A69817A816F5F7F4F7A83698378
:101470006150704086EF94E00E943A17082F109256
:10148000130449EFE42EF12C17C069817A816F5F54
:101490007F4F7A8369836150704086EF94E00E94A9
:1014A0003A17F701E11BF109E653FD4F8083809164
:1014B00013048F5F8093130410911304101728F303
:1014C00087EF94E06DEF71E00E949D1B69817A8146
:1014D00087EF94E04AE050E00E94DE1A69817A8149
:1014E0006F5F7F4F7A8369836150704086EF94E02D
:1014F0000E943A17082F1092120416C069817A814F
:101500006F5F7F4F7A8369836150704086EF94E00C
:101510000E943A17E12FF0E0EE5FFB4F808380914D
:1015200012048F5F8093120410911204101730F38D
:1015300087EF94E066E072E00E949D1B69817A81EA
:1015400087EF94E04AE050E00E94DE1A69817A81D8
:101550006F5F7F4F7A8369836150704086EF94E0BC
:101560000E943A1780934604EE2435E0F32E18C00B
:1015700069817A816F5F7F4F7A83698361507040A0
:1015800086EF94E00E943A17682F0C5E1B4FF8011B
:10159000808387EF94E04AE050E00E940D1BE394C3
:1015A0000E2D10E0809146048F9DC0011124081774
:1015B0001907F0F287EF94E06DE072E00E949D1B46
:1015C00069817A8187EF94E04AE050E00E94DE1A58
:1015D00069817A816F5F7F4F7A8369836150704040
:1015E00086EF94E00E943A1780938304EE2426E06D
:1015F000F22E18C069817A816F5F7F4F7A83698389
:101600006150704086EF94E00E943A17682F095BA2
:101610001B4FF801808387EF94E04AE050E00E947E
:101620000D1BE3940E2D10E0809183048F9DC0016B
:10163000112408171907F0F287EF94E064E172E0D3
:101640000E949D1B69817A8187EF94E04AE050E017
:101650000E94DE1AEE2469C087EF94E06BE172E02D
:101660000E949D1B87EF94E06E2D4AE050E00E949F
:101670000D1B06531D4F1093C5020093C40287EF44
:1016800094E065E272E00E949D1BE091C402F0913B
:10169000C502808182958695877061816370660F2F
:1016A000660F660F682B87EF94E04AE050E00E94D7
:1016B0000D1BA091C402B091C5028C9182958695B4
:1016C00087701196EC911197E370EE0FEE0FEE0F0D
:1016D000E82BF0E0EA53FC4FE0828C918F7184306C
:1016E00041F0853018F4823050F005C0853039F46F
:1016F00004C08CE005C08DE003C082E101C080E041
:10170000E80E9C9192959695977011968C918370A6
:10171000880F880F880F892B6FEF40E00E94C60565
:101720008091C4038F5F8093C4030E2D10E0980155
:101730002F5F3F4F8091C50390E0281739070CF4C5
:101740008BCFEE2438C087EF94E06AE272E00E940B
:101750009D1B87EF94E06E2D4AE050E00E940D1B28
:10176000F801E653FD4FF093C502E093C402808177
:101770008F71843041F0853018F4823050F005C00C
:10178000853039F404C01CE005C01DE003C012E13F
:1017900001C010E0918197FF0DC0808182958695F0
:1017A00087709370990F990F990F892B60E040E033
:1017B0000E94C605E10E0E2D10E098012F5F3F4FED
:1017C0008091C50390E0281739070CF4BCCF8091B5
:1017D000C902823058F080E066E041E022E08E01EC
:1017E0000F5F1F4F92E0E92E0E94EA0C0F900F90BE
:1017F000CF91DF911F910F91FF90EF900895EF929D
:101800000F931F93CF93DF93882341F08091A90218
:101810009091AA029093AC028093AB02A091AB028C
:10182000B091AC0211968C911197882311F0EE249F
:10183000C6C012968C911297813019F40E94D4126E
:10184000C3C0823019F40E94BD11BEC0833019F4A8
:101850000E946B09B9C08430D9F4E0910204F0E031
:10186000E653FD4F14968C9114978083E091030406
:10187000F0E0E653FD4F15968C9115978083E0912B
:101880000404F0E0E653FD4F16968C9180839CC0D3
:10189000853019F40E94850F97C0863019F40E9494
:1018A000B90992C0873009F08FC087EF94E064E3F4
:1018B00072E00E949A1C82E08093E90480E067E075
:1018C00040E021E009EE14E072E0E72E0E94EA0C0D
:1018D0007BC00E2D10E0A091AB02B091AC02A8012C
:1018E000440F551F440F551F400F511FEA01CC5E96
:1018F000DB4F988111968C911197981709F05EC073
:10190000FA01EB5EFB4FE0812E2F2F7130E0129633
:101910008C91129790E02817390709F04FC0E29593
:10192000E695E7702E2F30E013968C91139790E098
:101930002817390709F042C0D093C702C093C602E6
:10194000FA01EA5EFB4F2081822F877090E00297B8
:10195000CCF481818770880F880F2695269526956F
:10196000622F6770FA01E95EFB4F4081469546950C
:10197000469547701496269526952695822B9D01AF
:101980000E9495019801220F331F220F331F200F51
:10199000311FF901EA5EFB4F8081877079F0F90110
:1019A000E95EFB4F90819295969596959370818113
:1019B0008770880F880F892B0E940806E394809116
:1019C0004604E81608F485CFDF91CF911F910F915F
:1019D000EF900895EF920F931F93422FE091A90289
:1019E000F091AA029091C8029183828363834C5F35
:1019F00040834450CF0104960817190771F0502F07
:101A0000DF01C801FC0104C0819113968C931397E8
:101A100011968E2F851B8417B8F38091CC048C5FB0
:101A2000840F8093CC0490E00C96849740F0109241
:101A3000CC0484E894E09093AA028093A90282E007
:101A4000E81631F081E00E94FF0B81E0E81681F09A
:101A500087EF94E063E20E94161AE091A902F091E8
:101A6000AA02408187EF94E0BF0150E00E94EC1988
:101A70001F910F91EF900895CF92DF92EF920F9305
:101A80001F93DF93CF930F92CDB7DEB7182FC0907F
:101A9000C402D090C502D6011296EC901297E2943F
:101AA000FFE0EF221A968C911A978295869586957B
:101AB00083701B960C910170000F000F082B87EFAD
:101AC00094E06AE372E00E949D1B87EF94E0612F2F
:101AD0004AE050E00E94FB1A87EF94E063E472E072
:101AE0000E949D1BF601628162956F7087EF94E002
:101AF0004AE050E00E940D1B1F3F09F05BC0D60179
:101B00001B968C9186958F7191F061E00E94131E57
:101B1000F6018385982F969586FF04C0892F8F71D3
:101B200061E003C0892F8F7160E00E94521ED601D0
:101B30001B968C911B97881F8827881F1C969C9149
:101B40009F70990F982B21F0892F61E00E94131E3E
:101B500083E28093B0008AE08093B1008FE48093A9
:101B6000B3001092B400F601218124FFC5C1909109
:101B700001049F708281807F892B828325FDBCC1F7
:101B8000E091C402F091C50290819295969597706C
:101B900081818370880F880F880FD60118966D9108
:101BA0007C9119971A964C914770892B20E00E94DE
:101BB0005002A2C1113011F4F6014FC01230B9F435
:101BC000D60112968C9112978F70806212968C9328
:101BD00012971A968C911A978F731A968C931A975C
:101BE0001B968C911B978E7F1B968C9365C0133030
:101BF00019F0163041F509C0F60182858F738064B3
:101C0000828783858E7F83870FC0D6011A968C9139
:101C10001A978F7380681A968C931A971B968C91DB
:101C20001B978E7F1B968C93F6018281982F92953D
:101C30009F70913009F460C18F70933081F0D601AC
:101C400012968C9339C0143069F4F60182858F7333
:101C50008064828783858E7F838782818F70806294
:101C600082832AC0153041F5D6011A962C911A9715
:101C7000922F92959695969593701B963C911B97F3
:101C8000832F8170880F880F892B09F435C12F733A
:101C90001A962C931A973E7F1B963C931B9712968D
:101CA0009C911297892F82958F70833009F024C1FF
:101CB0009F70906212969C93F601818184FF0CC004
:101CC00082818F7027E0829FC00111248A529C4F2D
:101CD0009093C3028093C202D60112962C91822F58
:101CE00082958F7090E08130910571F1823091057D
:101CF0001CF4892B41F000C18230910541F103971A
:101D000009F0FAC0B7C02F702061F60122838181EB
:101D100084FFF2C0E091C202F091C30221812F7CC6
:101D200020612183D60118968D919C9119979383F8
:101D300082831A968C918770880F217F282B2183AC
:101D4000CF010E945601D8C0112309F0D5C0F60179
:101D50008385982F969586FF04C0892F8F7160E048
:101D600003C0892F8F7161E00E94521ED6011A961E
:101D70008C911A9782958695869583701B969C9177
:101D80001B979170990F990F982B19F414968C91B9
:101D90000AC0913019F4F601858105C0923021F412
:101DA000D60113968C918983898190E0E3E0880FB6
:101DB000991FEA95E1F76AE070E00E944C21609378
:101DC000B400F601818184FF1AC0E091C202F09153
:101DD000C30221812F7C20612183D60116968D912B
:101DE0009C911797938382831A968C9186958695FA
:101DF0008E70217F282B2183CF010E945601F6018E
:101E000082818F7080638283F3E0EF16A9F4D6019C
:101E10001A968C911A9782958695869583701B9653
:101E20002C912170220F220F282B30E0802F90E080
:101E30002817390709F460C0E091C402F091C50287
:101E4000208122952695277081818370880F880FC5
:101E5000880FF60191819295969596959170822BB7
:101E600062E040E021E08E010F5F1F4FE92E0E94EB
:101E7000EA0C42C01092B400D60112968C911297CF
:101E80008F7012968C9312971B968C91982F969523
:101E900086FF04C0892F8F7161E003C0892F8F7185
:101EA00060E00E94521EE091C402F091C5022081C0
:101EB00022952695277081818370880F880F880F5F
:101EC000F60191819295969596959170822B61E09D
:101ED00040E021E08E010F5F1F4FE92E0E94EA0CC7
:101EE000D60111968C9184FF07C0E091C202F09157
:101EF000C30281818F7C81830F90CF91DF911F91ED
:101F00000F91EF90DF90CF900895EF92FF920F9393
:101F10001F93DF93CF9300D0CDB7DEB71A8219821B
:101F200087EF94E06BE472E00E949A1C5091C50325
:101F30002091460485E0289F90011124809183041C
:101F400046E0849FC0011124280F391F40911204DC
:101F5000852F90E0840F911D280F391F3093EB04DB
:101F60002093EA04235F334068F081E094E090938B
:101F7000EB048093EA0480E065E041E022E00AEEB1
:101F800014E0CAC069817A816F5F7F4F7A83698369
:101F90006150704086EF94E0452F0E94411710E099
:101FA00010C06F5F7F4F7A83698361507040E12F6B
:101FB000F0E0E653FD4F86EF94E040810E94411728
:101FC0001F5F8091C50369817A81181750F36F5F95
:101FD0007F4F7A8369836150704086EF94E040912F
:101FE00013040E94411710E0B9EFEB2EF12C11C041
:101FF0006F5F7F4F7A83698361507040F701E11B07
:10200000F109E653FD4F86EF94E040810E944117AD
:102010001F5F8091130469817A81181748F36F5FFD
:102020007F4F7A8369836150704086EF94E04091DE
:1020300012040E94411710E010C06F5F7F4F7A8337
:10204000698361507040E12FF0E0EE5FFB4F86EF57
:1020500094E040810E9441171F5F809112046981C2
:102060007A81181750F36F5F7F4F7A8369836150CD
:10207000704086EF94E0409146040E94411710E0C2
:1020800005E00EC06F5F7F4F7A83698361507040B7
:10209000EC5EFB4F86EF94E040810E9441171F5F8A
:1020A000E12FF0E080914604809FC00111246981F6
:1020B0007A81E817F90730F36F5F7F4F7A8369837E
:1020C0006150704086EF94E0409183040E94411774
:1020D00010E006E010C069817A816F5F7F4F7A83DC
:1020E000698361507040E95BFB4F86EF94E040816B
:1020F0000E9441171F5FE12FF0E080918304809FD1
:10210000C0011124E817F90730F380E065E041E0F1
:1021100022E08E010F5F1F4FA2E0EA2E0E94EA0C20
:102120000F900F90CF91DF911F910F91FF90EF9043
:102130000895AF92BF92CF92DF92EF92FF920F93EA
:102140001F93DF93CF9300D00F92CDB7DEB7182F38
:10215000A090C402B090C50287EF94E068E572E0F9
:102160000E949D1B87EF94E0612F4AE050E00E949F
:102170000D1B1F3FA1F5F5018381877060E00E9470
:10218000131EF501818184FFEAC02091010487E0DC
:10219000289FC00111248A529C4F9093C3028093C0
:1021A000C2022F708281807F822B8283818185FD94
:1021B000D6C0E091C402F091C502908192959695A7
:1021C000977081818370880F880F880FF501658172
:1021D0007681892B448120E00E945002C0C0F50125
:1021E000818184FF25C082818F7090E0FC0103E033
:1021F000EE0FFF1F0A95E1F7E81BF90B9F012A522A
:102200003C4F3093C3022093C202113031F4E952A3
:10221000FC4F80818F7C8083A2C0112331F4E9526E
:10222000FC4F80818F7C80628083C9010E945601AF
:10223000F501838187700E94F11D6C019B838A8365
:10224000F50181859285C816D90619F420E030E0A1
:1022500003C09601281B390BF501878190E02817F0
:10226000390728F4123019F0818186FF78C0FAE02E
:10227000CF16D10410F4C98233C0F501608570E037
:1022800080E090E00E94FC1F20E030E040E850EC4D
:102290000E94B22020E030EC4FE754E40E94FB1E85
:1022A0009B01AC0160E070E088EC92E40E94631F47
:1022B0007B018C01B60180E090E00E94FC1F9B0135
:1022C000AC01C801B7010E94B2200E94D01F6983EF
:1022D0006A3010F48AE003C0653610F084E6898322
:1022E00087EF94E066E672E00E949D1B87EF94E022
:1022F00069814AE050E00E94FB1A87EF94E06EE6A5
:1023000072E00E949D1B6A817B8187EF94E04AE026
:1023100050E00E94DE1A8A819B81F50192878187B5
:1023200089818387E091C402F091C50220812295C2
:102330002695277081818370880F880F880FF5019B
:1023400091819295969596959170822B60E040E0F0
:1023500023E08E010F5F1F4FE92E0E94EA0C0F90C1
:102360000F900F90CF91DF911F910F91FF90EF9001
:10237000DF90CF90BF90AF900895BF92CF92DF9241
:10238000EF92FF920F931F93CF93DF93E091AB02F5
:10239000F091AC02138187EF94E06CE772E00E9449
:1023A0009D1B87EF94E0612F4AE050E00E94FB1AEA
:1023B00087EF94E06BE872E00E949D1BE091AB0216
:1023C000F091AC0287EF94E064814AE050E00E9413
:1023D000FB1A87EF94E06BE872E00E949D1BE0918E
:1023E000AB02F091AC0287EF94E065814AE050E0E7
:1023F0000E94FB1A87EF94E06BE872E00E949D1B3D
:10240000E091AB02F091AC0287EF94E066814AE084
:1024100050E00E940D1BA091AB02B091AC02169649
:10242000BC901697E091A902F091AA02128214962C
:10243000EC911497163008F05EC0112321F4F0E0FF
:10244000EA53FC4F23C0113039F487E0E89FF001D4
:102450001124EA52FC4F1FC0123039F485E0E89F86
:10246000F0011124EC5EFB4F16C0133039F486E006
:10247000E89FF0011124E95BFB4F0DC0F0E0143040
:1024800019F4EE5FFB4F07C0EE5FFB4F8081E82F32
:10249000F0E0E653FD4F15968C916F01C80ED11CEC
:1024A000E60120E017C00091A9021091AA02F801EC
:1024B000E20FF11D888184832F5F283050F00C5F7C
:1024C0001F4F80E062E041E052E0E52E0E94EA0CFE
:1024D00020E02196AE014C194B1528F3222309F474
:1024E00059C00091A9021091AA020C5F1F4F80E011
:1024F00062E041E04BC09E2F80E09093EB0480931C
:10250000EA0415962C91820F911D9093EB04809311
:10251000EA04EE24FF242CC00091A9021091AA0223
:102520006091EA047091EB046F5F7F4F7093EB044E
:102530006093EA046150704086EF94E00E943A177D
:102540000E0D111DF8018483E394F7E0FE1578F475
:102550000091A9021091AA020C5F1F4F80E062E077
:1025600041E02E2D32E0E32E0E94EA0CEE24F3949B
:10257000FB1490F2EE2071F00091A9021091AA02D2
:102580000C5F1F4F80E062E041E02E2D92E0E92ECB
:102590000E94EA0CDF91CF911F910F91FF90EF9075
:1025A000DF90CF90BF900895EF920F931F93DF932A
:1025B000CF9300D0CDB7DEB7A091AB02B091AC0203
:1025C00013968C9113971A8219821496EC91149792
:1025D000863008F054C0882321F4F0E0EA53FC4F21
:1025E00023C0813039F487E0E89FF0011124EA52DA
:1025F000FC4F1FC0823039F485E0E89FF0011124C0
:10260000EC5EFB4F16C0833039F486E0E89FF001A2
:102610001124E95BFB4F0DC0F0E0843019F4EE5F4C
:10262000FB4F07C0EE5FFB4F8081E82FF0E0E653E1
:10263000FD4FFA83E98315968C91E80FF11DFA831B
:10264000E98322E00DC0E981FA81A20FB11D149641
:102650008C91808389819A8101969A8389832F5FE7
:10266000A091AB02B091AC028C91281760F380E08E
:1026700061E041E021E08E010F5F1F4F53C09E2FAC
:1026800080E09093EB048093EA0415962C91820FDE
:10269000911D9093EB048093EA04E6E0EE2E35C0A2
:1026A0006091EA047091EB046F5F7F4F7093EB04CD
:1026B0006093EA04615070400E2D10E0E00FF11FAE
:1026C00086EF94E040810E9441176091EA04709186
:1026D000EB046150704087EF94E04AE050E00E94C4
:1026E000CD1A87EF94E06BE872E00E949D1BE091A9
:1026F000AB02F091AC02E00FF11F87EF94E0608134
:102700004AE050E00E940D1BE394E091AB02F0918F
:10271000AC028081E81620F280E061E041E022E036
:102720000AEE14E072E0E72E0E94EA0C0F900F9080
:10273000CF91DF911F910F91EF900895AF92BF92CB
:10274000CF92DF92EF92FF920F931F93A09000041D
:102750001091E504B090D204C090D304D090DC0472
:10276000E090DD04F090E0040091E1044091C202A9
:102770005091C302ABEDB3E060E070E09FC0CB01CD
:1027800023E0880F991F2A95E1F7861B970BAC0170
:102790004A525C4FFC01E952FC4F9081892F82958F
:1027A000837009F488C096FF1EC0892F86958770B4
:1027B00029F4112309F47FC09F7B9083FB0193E0F0
:1027C000EE0FFF1F9A95E1F7E61BF70BE952FC4F5E
:1027D0009081892F86958770813029F4112309F41F
:1027E0006AC09F7B9083FB0183E0EE0FFF1F8A95F9
:1027F000E1F7E61BF70BE952FC4FE081E695E77045
:1028000019F48B2D9C2D07C0E13019F48D2D9E2DD0
:1028100002C08F2D902F9C018D919C9111972817AC
:10282000390708F448C05093C3024093C202FB0129
:1028300013E0EE0FFF1F1A95E1F7E61BF70BDF0120
:10284000A952BC4F4C91842F82958370813019F42A
:102850004F7C4C9317C0EA52FC4F82819381280F22
:10286000391F2817390710F440644C93FB01B3E07B
:10287000EE0FFF1FBA95E1F7E61BF70BEA52FC4F8C
:1028800036832583FB01A3E0EE0FFF1FAA95E1F736
:10289000E61BF70BEA52FC4F908192959695977044
:1028A00081818170880F880F880F892B648141E0B6
:1028B0000E94C6050AC06F5F7F4F17966A1508F41D
:1028C0005ECF5093C3024093C2021F910F91FF90BD
:1028D000EF90DF90CF90BF90AF900895EF920F935D
:1028E0001F93DF93CF930F92CDB7DEB72091D6041D
:1028F0003091D7048091E7049091E804A901481B26
:10290000590BCA01815D974010F01092CF0480915D
:10291000CE0490E088559B4F9093AC028093AB021D
:102920003093E8042093E70487EF94E00E942C1989
:10293000982F2091CF04222339F48A3309F063C001
:1029400081E08093CF045FC0213099F484508930B6
:1029500068F4E091AB02F091AC02908382E0809346
:10296000CF041092D1041092D0044DC01092CF0425
:102970004AC0223008F447C02E3FD8F5E091AB02A0
:10298000F091AC028983E20FF11D31978083809131
:10299000CF048F5F8093CF04E091AB02F091AC0243
:1029A000E0812E2F30E090E02817390764F5809100
:1029B000CE04280F311D2831310520F48E0F80936D
:1029C000CE0402C01092CE049091CE048091CD042A
:1029D000981759F480E060E041E020E08E010F5F3D
:1029E0001F4F72E0E72E0E94EA0C1092CF0481E0A4
:1029F0000BC0992787FD90959093D1048093D004C4
:102A00002F5F2093CF0480E00F90CF91DF911F9133
:102A10000F91EF900895CF93DF930E94101D609364
:102A2000D2047093D3048093D4049093D504EB0123
:102A30007093D7046093D60424E630E040E050E081
:102A40000E945F21DA01C901F9013093DD0420936E
:102A5000DC0468E671E00E9438217093E104609321
:102A6000E0048091D8049091D904C817D907E0F404
:102A700041E04093E5048091DE049091DF04E81783
:102A8000F90778F44093E4048091E2049091E30420
:102A90006817790718F44093E60408C01092E6041A
:102AA00005C01092E40402C01092E5048091DA049B
:102AB0009091DB049E01281B390B83E0283E3807E8
:102AC00008F43FC080910204E82FF0E0C90168EEED
:102AD00073E00E943821E653FD4F8081860F80838A
:102AE0008C3358F18C53808380910304E82FF0E0FD
:102AF000E653FD4F9081892F8F5F80838C33E8F000
:102B00009B53908380910404E82FF0E0E653FD4F3F
:102B10009081892F8F5F8083883178F097519083DF
:102B200080910504E82FF0E0E653FD4F80818F5F30
:102B30008083883010F081E08083D093DB04C093E1
:102B4000DA040E949E1387EF94E00E941019892BEB
:102B500011F00E946E149091CD048091CE049817CC
:102B6000E9F0892F90E088559B4F9093AC028093B9
:102B7000AB0280E00E94FF0B2091CD04822F90E0F9
:102B8000FC01E855FB4FE0818E0F911D489720F422
:102B9000E20FE093CD0402C01092CD048091D604E0
:102BA0009091D7049093D9048093D8048091DC0449
:102BB0009091DD049093DF048093DE048091E00423
:102BC0009091E1049093E3048093E204DF91CF912C
:102BD00008950F931F9307EF14E0C80140E051EEF2
:102BE00060E070E00E949218C8016FE872E00E94F5
:102BF0009A1C0E94B9091F910F9108951F920F927C
:102C00000FB60F9211242F933F934F935F936F93BF
:102C10007F938F939F93AF93BF93EF93FF93E09135
:102C2000F404F091F5040995FF91EF91BF91AF91F4
:102C30009F918F917F916F915F914F913F912F91D4
:102C40000F900FBE0F901F901895FC01A2E0440F4B
:102C5000551F661F771FAA95D1F7403080E05807AF
:102C600081E0680780E0780714F481E010C033E069
:102C700075956795579547953A95D1F7403080E01F
:102C8000580781E0680780E078071CF482E08283BF
:102C900039C023E075956795579547952A95D1F7E3
:102CA000403080E0580781E0680780E0780714F43E
:102CB00083E0EDCF92E075956795579547959A9586
:102CC000D1F7403080E0580781E0680780E078075E
:102CD00014F484E0DCCF82E07595679557954795AD
:102CE0008A95D1F7403080E0580781E0680780E09E
:102CF000780714F485E0CBCF85E082834FEF5FEF58
:102D000060E070E08FB78383F894518340835093E1
:102D100087004093860083818FBF80918100887FE8
:102D200080938100809181009281892B8093810022
:102D300008951092800020E1209381000E942516C2
:102D400008950F93CF93DF93EC01062FBA012881EA
:102D5000398140E050E0882777FD8095982F0E94C8
:102D60001921BAE09695879577956795BA95D1F729
:102D70002FB72B83F894013011F0093029F47093A8
:102D800089006093880008C0023011F00A3021F4F5
:102D900070938B0060938A002FBFDF91CF910F91CA
:102DA0000895CF92DF92FF920F931F93CF93DF93FB
:102DB000EC01F62E6A01101611061206130624F411
:102DC000B901A8010E94251631E0F31619F089E037
:102DD000F81629F4219A8091800080680AC032E0B8
:102DE000F31619F08AE0F81631F4229A80918000E7
:102DF0008062809380002881398140E050E0B601F4
:102E0000882777FD8095982F0E9419211AE09695C2
:102E10008795779567951A95D1F72FB72B83F894F7
:102E200031E0F31619F039E0F31629F470938900B4
:102E3000609388000AC032E0F31619F03AE0F31606
:102E400021F470938B0060938A002FBF80918100E2
:102E50009A81892B80938100DF91CF911F910F91EF
:102E6000FF90DF90CF900895E1E8F0E08081887FC7
:102E700080830895F999FECF72BD61BDF89A80B53F
:102E80000895F999FECF1FBA72BD61BD40BD0FB65E
:102E9000F894FA9AF99A0FBE08952F923F925F9292
:102EA0006F927F928F929F92AF92BF92CF92DF925A
:102EB000EF92FF920F931F93DF93CF9300D000D038
:102EC0000F92CDB7DEB73C01962E19821A821B8273
:102ED0001C821D82862F61E00E94131E892D60E0F6
:102EE0000E94521E62E170E080E090E00E94891D25
:102EF000892D61E00E94521E88E290E00E94441DEC
:102F0000892D60E00E94131E00E117E205C0011543
:102F10001105A1F101501040892D0E94A61E892B98
:102F2000B1F300E117E205C00115110539F10150B7
:102F30001040892D0E94A61E0197B1F306C001150D
:102F40001105E1F0015010400AC027E0822E5524FF
:102F5000AA24BB2491E0292E312C00E117E2892D0F
:102F60000E94A61E892B59F30E941E1D6B017C0135
:102F700000E117E208C00115110519F42EEF3FEF2B
:102F800041C001501040892D0E94A61E019799F35F
:102F90000E941E1D6C197D098E099F0969327105F9
:102FA0008105910580F0E1E0F0E0EC0FFD1FE50DFB
:102FB000F11D9101082C02C0220F331F0A94E2F781
:102FC0008081822B8083882021F4539487E0882E8F
:102FD00001C08A940894A11CB11C88E2A816B1040F
:102FE00009F0BBCF8981F301808311829B81928399
:102FF0001382980F8D81891719F420E030E002C008
:103000002FEF3FEFC9010F900F900F900F900F908F
:10301000CF91DF911F910F91FF90EF90DF90CF90B4
:10302000BF90AF909F908F907F906F905F903F90F8
:103030002F90089508951F920F920FB60F921124AA
:103040002F933F934F938F939F93EF93FF93809191
:10305000C00082FD19C04091C60080911505282F3F
:1030600030E02F5F3F4F2F7330708091160590E056
:103070002817390759F0E0911505F0E0E950FB4FAA
:1030800042A32093150502C08091C600FF91EF91E5
:103090009F918F914F913F912F910F900FBE0F9065
:1030A0001F901895809115052091160590E0805C81
:1030B0009F4F821B91098F739070892B11F00E9492
:1030C0001A1808951F920F920FB60F9211242F9382
:1030D0008F939F93EF93FF9390911705809118051D
:1030E000981731F48091C1008F7D8093C10010C08A
:1030F000E0911805F0E0E75AFA4F20818091180519
:1031000090E001968F739070809318052093C6000D
:10311000FF91EF919F918F912F910F900FBE0F9084
:103120001F901895AF92BF92DF92EF92FF920F938C
:103130001F93CF93DF93EC017A018B01DD24D394AD
:1031400091E0A92EB12CE889F989DD2069F0C5014B
:103150000C8C02C0880F991F0A94E2F7808360E804
:1031600074E88EE190E005C0108260E472E48FE0C4
:1031700090E0A80197010E945F212150304040401B
:103180005040569547953795279580E12030380770
:1031900020F0DD2011F0DD24D6CFEC85FD853083D5
:1031A000EE85FF8520831D8EEA89FB89408121E021
:1031B00030E0C901088C02C0880F991F0A94E2F719
:1031C000482B4083EA89FB894081C901098C02C0F0
:1031D000880F991F0A94E2F7482B4083EA89FB89FC
:1031E0004081C9010A8C02C0880F991F0A94E2F736
:1031F000482B4083EA89FB8980810B8C02C0220F17
:10320000331F0A94E2F7209528232083DF91CF9182
:103210001F910F91FF90EF90DF90BF90AF900895B6
:10322000FC01268D878D30E0205C3F4F281B310943
:103230002F733070C9010895FC01968D878D981702
:1032400019F42FEF3FEF06C0878DE80FF11D82A123
:10325000282F30E0C9010895DC015E969C915E97AD
:103260005F968C915F97981719F42FEF3FEF10C07E
:103270005F968C915F97FD01E80FF11D92A15F961B
:103280008C915F978F5F8F735F968C93292F30E0BF
:10329000C9010895DC015D968C915D97882339F012
:1032A0005096ED91FC915197808186FFF9CF5D9604
:1032B0001C920895DC0190968C919097282F30E015
:1032C0002F5F3F4F2F73307091968C91919790E0C4
:1032D00028173907C9F390968C919097FD01E80F54
:1032E000F11DEE59FF4F608390962C939097529664
:1032F000ED91FC915397208181E090E05B960C90DA
:103300005B9702C0880F991F0A94E2F7282B20834D
:1033100081E05D968C935D975096ED91FC9151976D
:1033200080818064808381E090E008951092FA04A7
:103330001092F90488EE93E0A0E0B0E08093FB04E3
:103340009093FC04A093FD04B093FE0482EB92E002
:103350009093F8048093F704109218058091180553
:103360008093170510921605809116058093150518
:1033700085EC90E0909304058093030584EC90E045
:10338000909306058093050580EC90E090930805E6
:103390008093070581EC90E090930A0580930905DE
:1033A00082EC90E090930C0580930B0586EC90E006
:1033B00090930E0580930D0584E080930F0583E0C4
:1033C0008093100587E08093110585E080931205B6
:1033D00081E0809313050895CF92DF92EF92FF92E0
:1033E0000F931F93CF93DF937C016B018A01C0E0A1
:1033F000D0E00FC0D6016D916D01D701ED91FC9128
:103400000190F081E02DC7010995C80FD91F015027
:1034100010400115110571F7CE01DF91CF911F9179
:103420000F91FF90EF90DF90CF900895DC01ED9128
:10343000FC910190F081E02D09950895EF92FF92A3
:103440000F931F938C01DC01ED91FC910190F081B1
:10345000E02D6DE009957C01D801ED91FC91019082
:10346000F081E02DC8016AE009959C012E0D3F1DF9
:10347000C9011F910F91FF90EF900895CF93DF93B3
:10348000EC016115710519F420E030E00FC0DB019B
:103490000D900020E9F71197A61BB70BE881F98181
:1034A0000280F381E02DAD0109959C01C901DF91F6
:1034B000CF9108954F925F927F928F929F92AF9299
:1034C000BF92CF92DF92EF92FF920F931F93DF9301
:1034D000CF93CDB7DEB7A1970FB6F894DEBF0FBE7E
:1034E000CDBF2C01742ECB01223008F42AE019A2A2
:1034F00031E2C32ED12CCC0EDD1E822E9924AA24BB
:10350000BB24672D752FA50194010E945F217901CD
:103510008A01C801B701A50194010E941921472D14
:10352000461B0894C108D1084A3014F4405D01C01C
:10353000495CF6014083E114F1040105110521F015
:103540007E2C5F2DC801DDCFC201B6010E943E1A5C
:10355000A1960FB6F894DEBF0FBECDBFCF91DF911D
:103560001F910F91FF90EF90DF90CF90BF90AF90A1
:103570009F908F907F905F904F900895DC01211570
:10358000310541F4ED91FC910190F081E02D642F23
:10359000099508950E945A1A0895EF92FF920F9389
:1035A0001F939A017B0100E010E0B801A7010E947F
:1035B000BE1A1F910F91FF90EF900895CF92DF9266
:1035C000EF92FF920F931F936C017B019A0100E031
:1035D00010E0B801A7010E94BE1A8C01C6010E942A
:1035E0001E1A080F191FC8011F910F91FF90EF902D
:1035F000DF90CF900895EF92FF920F931F939A015F
:10360000E62EFF2400E010E0B801A7010E94BE1AD8
:103610001F910F91FF90EF900895CF92DF92EF925C
:10362000FF920F931F936C01E62E9A01FF2400E096
:1036300010E0B801A7010E94BE1A8C01C6010E94C9
:103640001E1A080F191FC8011F910F91FF90EF90CC
:10365000DF90CF900895CF92DF92EF92FF920F9379
:103660001F93CF93DF93EC016A017B012115310594
:1036700041F4E881F9810190F081E02D642F0995F2
:103680001FC02A303105D1F477FF17C0E881F981D6
:103690000190F081E02D6DE209958C0144275527BA
:1036A000BA014C195D096E097F09CE012AE00E941A
:1036B0005A1A9801280F391F04C02AE00E945A1A8A
:1036C0009C01C901DF91CF911F910F91FF90EF9065
:1036D000DF90CF900895EF92FF920F931F937B019D
:1036E0009A010027F7FC0095102FB801A7010E944E
:1036F0002B1B1F910F91FF90EF900895CF92DF92B7
:10370000EF92FF920F931F936C017B019A010027A8
:10371000F7FC0095102FB801A7010E942B1B8C010C
:10372000C6010E941E1A080F191FC8011F910F9190
:10373000FF90EF90DF90CF9008950E943E1A089579
:103740007F928F929F92AF92BF92CF92DF92EF9231
:10375000FF920F931F93CF93DF934C017A018B015C
:10376000722ECB01BA01A80197010E94152188236E
:1037700021F0C4016BE972E021C0C0E0D0E0570144
:103780006801E894D7F8C601B5012FEF3FEF4FE786
:103790005FE70E941521882351F4C601B5012FEF80
:1037A0003FEF4FE75FE70E945F1F181614F0C1E07C
:1037B000D0E0219739F0C4016FE972E00E943E1A0F
:1037C000EC0193C0C801B7012FEF3FEF4FE75FE473
:1037D0000E94AE20181654F0C801B7012FEF3FEF3A
:1037E0004FE75FEC0E945F1F882324F4C40163EA63
:1037F00072E0E4CFC801B70120E030E040E050E0E3
:103800000E945F1F87FD03C0C0E0D0E00EC0D4015E
:10381000ED91FC910190F081E02DC4016DE20995DC
:10382000EC0117FB109517F9109520E030E040E00F
:103830005FE3DD240BC0CA01B90120E030E040E2C3
:1038400051E40E94631F9B01AC01D394D71498F3F9
:10385000C801B7010E94FB1E5B016C010E94D01FD2
:103860007B018C01C401B801A7012AE030E00E946D
:10387000BE1AC80FD91F772039F0C40167EA72E079
:103880000E943E1AC80FD91FC801B7010E94FC1F31
:103890009B01AC01C601B5010E94FA1E24C020E0C4
:1038A00030E040E251E40E94B2207B018C010E9492
:1038B000CB1F5B016C01CC24B7FCC094DC2CC40191
:1038C000B601A5012AE030E00E942B1BC80FD91FCA
:1038D000C601B5010E94FE1F9B01AC01C801B701E2
:1038E0000E94FA1E7A947720D1F6CE01DF91CF9113
:1038F0001F910F91FF90EF90DF90CF90BF90AF900E
:103900009F908F907F9008950E94A01B0895EF9242
:10391000FF920F931F937C010E94A01B8C01C70193
:103920000E941E1A080F191FC8011F910F91FF90C6
:10393000EF900895EF92FF920F931F937C010E94E6
:103940003E1A8C01C7010E941E1A080F191FC801D8
:103950001F910F91FF90EF900895CF93DF930E94F6
:103960004E1D0E94E915C2E5D8E10E940B15209773
:10397000E1F30E945218F9CF1F920F920FB60F92E7
:1039800011242F933F934F935F936F937F938F9364
:103990009F93AF93BF9320919D0530919E054091D9
:1039A0009F055091A0057091A105DA01C901029609
:1039B000A11DB11D672F6A5F6D3730F06D57DA01B9
:1039C000C9010396A11DB11D6093A10580939D05BA
:1039D00090939E05A0939F05B093A00580919905B3
:1039E00090919A05A0919B05B0919C050196A11D0F
:1039F000B11D8093990590939A05A0939B05B09370
:103A00009C05BF91AF919F918F917F916F915F9135
:103A10004F913F912F910F900FBE0F901F901895CF
:103A20008FB7F89420919D0530919E0540919F0598
:103A30005091A0058FBFB901CA0108959FB7F894AE
:103A40002091990530919A0540919B0550919C05D4
:103A500086B5A89B06C08F3F21F02F5F3F4F4F4F89
:103A60005F4F9FBF542F432F322F2227280F311D26
:103A7000411D511D83E0220F331F441F551F8A959E
:103A8000D1F7B901CA010895019739F0019729F0DA
:103A9000880F991F01970197F1F70895789484B5DD
:103AA000826084BD84B5816084BD85B5826085BD3A
:103AB00085B5816085BDEEE6F0E080818160808320
:103AC000E1E8F0E010828081826080838081816003
:103AD0008083E0E8F0E0808181608083E1EBF0E0CA
:103AE000808184608083E0EBF0E08081816080836E
:103AF000EAE7F0E080818460808380818260808357
:103B00008081816080838081806880831092C10081
:103B10000895EF92FF920F931F93CF93DF937B0152
:103B20008C013FB7F8948091990590919A05A091E6
:103B30009B05B0919C0526B5A89B05C02F3F19F0A9
:103B40000196A11DB11D3FBFBA2FA92F982F88271D
:103B5000820F911DA11DB11D53E0880F991FAA1F4F
:103B6000BB1F5A95D1F7EC0130C00E94F91E3FB738
:103B7000F8948091990590919A05A0919B05B09138
:103B80009C0526B5A89B05C02F3F19F00196A11DE5
:103B9000B11D3FBFBA2FA92F982F8827820F911DE3
:103BA000A11DB11D33E0880F991FAA1FBB1F3A95B5
:103BB000D1F78C1B9D0B885E9340B8F20894E10806
:103BC000F10801091109C851DC4FE114F1040105A4
:103BD000110559F6DF91CF911F910F91FF90EF9052
:103BE0000895982F8E3008F09E5097708091AD0206
:103BF0008295880F880F807C892B80937C00809130
:103C00007A00806480937A0080917A0086FDFCCFF0
:103C10002091780040917900942F80E030E0282BAB
:103C2000392BC9010895CF93DF93482F50E0CA0183
:103C3000845D9D4FFC013491485E5D4FFA01849193
:103C4000882369F190E0880F991FFC01E650FE4F30
:103C5000A591B491FC01EC5FFD4FC591D491662311
:103C600051F42FB7F8948C91932F909589238C93CE
:103C7000888189230BC0623061F42FB7F8948C914E
:103C8000932F909589238C938881832B88832FBFD2
:103C900006C09FB7F8948C91832B8C939FBFDF91C4
:103CA000CF910895482F50E0CA01805C9D4FFC01E0
:103CB0002491CA01845D9D4FFC019491485E5D4F43
:103CC000FA013491332309F440C0222351F1233007
:103CD00071F0243028F42130A1F0223011F514C005
:103CE0002630B1F02730C1F02430D9F404C08091DF
:103CF00080008F7703C0809180008F7D809380004B
:103D000010C084B58F7702C084B58F7D84BD09C093
:103D10008091B0008F7703C08091B0008F7D809339
:103D2000B000E32FF0E0EE0FFF1FEC5FFD4FA59119
:103D3000B4912FB7F894662321F48C919095892340
:103D400002C08C91892B8C932FBF0895682F70E04F
:103D5000CB01805C9D4FFC012491CB01845D9D4F84
:103D6000FC014491685E7D4FFB019491992319F405
:103D700020E030E03CC0222351F1233071F02430A8
:103D800028F42130A1F0223011F514C02630B1F012
:103D90002730C1F02430D9F404C0809180008F779F
:103DA00003C0809180008F7D8093800010C084B517
:103DB0008F7702C084B58F7D84BD09C08091B0002B
:103DC0008F7703C08091B0008F7D8093B000892FE2
:103DD00090E0880F991F825F9D4FFC01A591B491DF
:103DE0008C9120E030E0842311F021E030E0C90123
:103DF000089508955058BB27AA270ED075C166D1E3
:103E000030F06BD120F031F49F3F11F41EF45BC110
:103E10000EF4E095E7FB51C1E92F77D180F3BA1793
:103E2000620773078407950718F071F49EF58FC138
:103E30000EF4E0950B2EBA2FA02D0B01B9019001C5
:103E40000C01CA01A0011124FF27591B99F0593F09
:103E500050F4503E68F11A16F040A22F232F342F51
:103E60004427585FF3CF469537952795A795F0409F
:103E70005395C9F77EF41F16BA0B620B730B840BB4
:103E8000BAF09150A1F0FF0FBB1F661F771F881F6C
:103E9000C2F70EC0BA0F621F731F841F48F48795C4
:103EA00077956795B795F7959E3F08F0B3CF9395B3
:103EB000880F08F09927EE0F979587950895D9D028
:103EC00008F481E008950CD00FC107D140F0FED076
:103ED00030F021F45F3F19F0F0C0511139C1F3C047
:103EE00014D198F39923C9F35523B1F3951B550BBE
:103EF000BB27AA2762177307840738F09F5F5F4FBD
:103F0000220F331F441FAA1FA9F333D00E2E3AF0FD
:103F1000E0E830D091505040E695001CCAF729D017
:103F2000FE2F27D0660F771F881FBB1F2617370766
:103F30004807AB07B0E809F0BB0B802DBF01FF2796
:103F400093585F4F2AF09E3F510568F0B6C000C1FC
:103F50005F3FECF3983EDCF3869577956795B795D0
:103F6000F7959F5FC9F7880F911D9695879597F9EB
:103F70000895E1E0660F771F881FBB1F6217730764
:103F80008407BA0720F0621B730B840BBA0BEE1F79
:103F900088F7E095089504D06894B111D9C00895C8
:103FA000BCD088F09F5790F0B92F9927B751A0F057
:103FB000D1F0660F771F881F991F1AF0BA95C9F7BD
:103FC00012C0B13081F0C3D0B1E00895C0C0672FF6
:103FD000782F8827B85F39F0B93FCCF3869577956D
:103FE0006795B395D9F73EF4909580957095619556
:103FF0007F4F8F4F9F4F0895E89409C097FB3EF481
:1040000090958095709561957F4F8F4F9F4F992325
:10401000A9F0F92F96E9BB279395F69587957795A3
:104020006795B795F111F8CFFAF4BB0F11F460FF63
:104030001BC06F5F7F4F8F4F9F4F16C0882311F0BB
:1040400096E911C0772321F09EE8872F762F05C0CF
:10405000662371F096E8862F70E060E02AF09A956A
:10406000660F771F881FDAF7880F9695879597F95F
:104070000895990F0008550FAA0BE0E8FEEF1616F9
:104080001706E807F907C0F012161306E407F5074C
:1040900098F0621B730B840B950B39F40A2661F0C0
:1040A000232B242B252B21F408950A2609F4A14063
:1040B000A6958FEF811D811D089597F99F6780E870
:1040C00070E060E008959FEF80EC089500240A946A
:1040D0001616170618060906089500240A941216E3
:1040E0001306140605060895092E0394000C11F416
:1040F000882352F0BB0F40F4BF2B11F460FF04C0C3
:104100006F5F7F4F8F4F9F4F089557FD9058440F1B
:10411000551F59F05F3F71F04795880F97FB991F26
:1041200061F09F3F79F087950895121613061406E3
:10413000551FF2CF4695F1DF08C016161706180670
:10414000991FF1CF86957105610508940895E8944B
:10415000BB2766277727CB0197F908958ADF08F4F4
:104160008FEF08950BD0C0CFB1DF28F0B6DF18F085
:10417000952309F0A2CFA7CF1124EACFC6DFA0F381
:10418000959FD1F3950F50E0551F629FF001729FEC
:10419000BB27F00DB11D639FAA27F00DB11DAA1F0B
:1041A000649F6627B00DA11D661F829F2227B00D58
:1041B000A11D621F739FB00DA11D621F839FA00DE3
:1041C000611D221F749F3327A00D611D231F849F33
:1041D000600D211D822F762F6A2F11249F5750408A
:1041E0008AF0E1F088234AF0EE0FFF1FBB1F661F25
:1041F000771F881F91505040A9F79E3F510570F0DE
:104200005CCFA6CF5F3FECF3983EDCF386957795C5
:104210006795B795F795E7959F5FC1F7FE2B880FD8
:10422000911D9695879597F9089523DF880B990B33
:104230000895629FD001739FF001829FE00DF11DF0
:10424000649FE00DF11D929FF00D839FF00D749F10
:10425000F00D659FF00D9927729FB00DE11DF91FBC
:10426000639FB00DE11DF91FBD01CF011124089519
:10427000AA1BBB1B51E107C0AA1FBB1FA617B7078C
:1042800010F0A61BB70B881F991F5A95A9F78095A8
:104290009095BC01CD01089597FB092E07260AD001
:1042A00077FD04D0E5DF06D000201AF47095619503
:1042B0007F4F0895F6F7909581959F4F0895A1E25D
:1042C0001A2EAA1BBB1BFD010DC0AA1FBB1FEE1F90
:1042D000FF1FA217B307E407F50720F0A21BB30BDB
:1042E000E40BF50B661F771F881F991F1A9469F757
:1042F00060957095809590959B01AC01BD01CF01B3
:104300000895EE0FFF1F0590F491E02D0994F894A5
:02431000FFCFDD
:104312007265676C6F61643A20002044697374614E
:104322006E63653A200020496E74657276616C3A5C
:10433200200052706D3A20002074696D6572206D04
:104342006F642069643A20002074696D657220757B
:104352006E69743A20002074696D657220696E740A
:104362003A2000456E7465722072756E64696D3A0A
:104372000073746174653A00207076616C3A007063
:10438200776D70696E0070776D7065720043686555
:10439200636B73756D206572726F720054696D651F
:1043A200206F7574206572726F7200482825293A51
:1043B200200020542843293A2000556E6B6E6F77F7
:1043C2006E206572726F7200636F6E3A00207265C2
:1043D20073756C743A00206C6566743A2000207222
:1043E200696768743A20004C6F6164436F6E666956
:1043F20067454531004C6F6164436F6E666967457E
:104402004532002D2D006D6F64733A20006469728D
:104412006563743A2000726567733A20006C696EB6
:104422006B3A2000636F6E643A20006D6F64206304
:1044320066673A200069643A20006D6F64207275E5
:104442006E3A200054455354210052756E66616ED7
:104452003A20002053746174653A005361766543D3
:104462006F6E66696745450052756E616E616C6F6D
:1044720067696E3A200044617461253A2000416EFA
:10448200616C6F6720646174613A200053656E64E9
:10449200636F6E66696764617461002D2D2D005330
:1044A20074617274696E672E2E2E006E616E0069E1
:1044B2006E66006F7666002E008404A80401000078
:0E44C20000005A19EC1910192C191C194A196E
:00000001FF
